:020000040800F2
:100000003804002045010008210D00080B050008F8
:100010001D0D0008870200085314000800000000AE
:100020000000000000000000000000006D1000084B
:100030008B02000800000000CD0D000881110008AF
:100040005F0100085F0100085F0100085F01000810
:100050005F0100085F0100085F01000899020008C5
:100060005F0100085F0100085F0100085F010008F0
:100070005F0100085F0100085F0100085F010008E0
:100080005F0100085F0100085F0100085F010008D0
:100090005F0100085F0100085F0100085F010008C0
:1000A0005F0100085F0100085F0100085F010008B0
:1000B0005F0100085F0100085F0100085F010008A0
:1000C0005F0100085F0100085F0100085F01000890
:1000D0005F010008E51100085F0100085F010008EA
:1000E0005F0100085F0100085F0100085F01000870
:1000F0005F0100085F0100085F0100085F01000860
:100100005F0100085F0100085F0100085F0100084F
:100110005F0100085F0100085F0100085F0100083F
:100120005F0100085F0100085F0100085F0100082F
:10013000DFF80CD000F06EF800480047C117000847
:10014000380400200648804706480047FEE7FEE7DF
:10015000FEE7FEE7FEE7FEE7FEE7FEE7FEE7FEE777
:10016000851100083101000840EA01039B0703D014
:1001700009E008C9121F08C0042AFAD203E011F8E6
:10018000013B00F8013B521EF9D27047D2B201E0A8
:1001900000F8012B491EFBD270470022F6E710B58C
:1001A00013460A4604461946FFF7F0FF204610BDE5
:1001B0002DE9F05F0546002092469B46884606469C
:1001C000814640241BE0284641464746224600F02F
:1001D00042F853465A46C01A914110D31146184668
:1001E000224600F029F82D1A67EB01084F462246F7
:1001F0000120002100F020F817EB00094E41201EDD
:10020000A4F10104DFDC484631462A464346BDE8F6
:10021000F09F0000064C074D06E0E06840F0010347
:1002200094E8070098471034AC42F6D3FFF784FFF8
:100230004819000868190008202A04DB203A00FA4F
:1002400002F1002070479140C2F1200320FA03F32D
:10025000194390407047202A04DB203A21FA02F02B
:100260000021704721FA02F3D040C2F120029140F0
:1002700008431946704710B500F0D2FF00F01AFD90
:1002800001F06AFA10BD00BFFEE7704700BF011E13
:10029000A0F10100FBD1704710B5022000F028F852
:1002A00050B100F095FD05A001F0D6F8022000F055
:1002B0000BF8022000F00EF810BD0000BDF8C8EBEE
:1002C000D6D0B6CF0D0A0000014908607047000083
:1002D0001404014001490860704700001404014003
:1002E000024909680143014A116070471004014046
:1002F000014600200022074B1B6803EA0102054B60
:1003000014331B680B4013B10AB1012000E0002038
:100310007047000000040140002123498279002A2F
:100320003AD00A46126803689A430B461A600A1DBF
:10033000126803689A430B1D1A60027911440A6817
:1003400003681A430A60184A0832126803689A431D
:10035000154B08331A601A1D126803689A43124B32
:100360000C331A604279102A0ED11A1F12680368E2
:100370001A430D4B08331A601A1D126803681A439A
:10038000094B0C331A600DE00749427911440A68A1
:1003900003681A430A6005E0027911440A68036899
:1003A0009A430A60704700000004014030B5002203
:1003B0008B071C0F0F2303FA04F20B4B8C1053F81E
:1003C00024309343084C8D1044F8253023468C107C
:1003D00053F824308C07240F00FA04F42343024C12
:1003E0008D1044F8253030BD080001402DE9F04162
:1003F000024600250026002000230024002791F853
:1004000003C00CF00F0591F803C00CF0100CBCF108
:10041000000F03D091F802C04CEA050591F800C026
:10042000BCF1000F31D0146800202BE04FF0010C1C
:100430000CFA00F3B1F800C00CEA03069E4220D18A
:1004400083004FF00F0C0CFA03F7BC4305FA03FCD2
:100450004CEA040491F803C0BCF1280F06D14FF018
:10046000010C0CFA00FCC2F814C00AE091F803C0B9
:10047000BCF1480F05D14FF0010C0CFA00FCC2F89A
:1004800010C0401C0828D1D31460B1F800C0BCF1E2
:10049000FF0F34DD546800202EE000F1080C4FF00F
:1004A000010808FA0CF3B1F800C00CEA03069E42FA
:1004B00021D183004FF00F0C0CFA03F7BC4305FA6F
:1004C00003FC4CEA040491F803C0BCF1280F05D1E9
:1004D00000F1080C08FA0CF8C2F8148091F803C077
:1004E000BCF1480F07D100F1080C4FF0010808FAE1
:1004F0000CF8C2F81080401C0828CED35460BDE828
:10050000F081416170470161704700BFFEE7000064
:100510001FB50121102000F0C9FC0220ADF8000039
:1005200004208DF8030003208DF802006946194865
:10053000FFF75CFF01210220FFF738FF0220029045
:1005400000208DF80C000C208DF80D0001208DF896
:100550000E0002A8FFF7E0FE0220FFF7C1FE022115
:100560000C48FFF7D0FF0220FFF7AEFE0220FFF796
:10057000B1FE07208DF8040000208DF80500022050
:100580008DF8060001208DF8070001A800F0DCFBC3
:100590001FBD00000010014008B50121052000F03A
:1005A00085FC4FF48070ADF8000018208DF8030032
:1005B00003208DF8020069461648FFF717FF062052
:1005C00000F0EEFC01210C2000F070FC4FF4E07014
:1005D000ADF8000003208DF8020010208DF8030014
:1005E00069460D48FFF702FF0120ADF80000032027
:1005F0008DF8020010208DF8030069460548FFF7CA
:10060000F5FE80210448FFF77EFF01210148FFF736
:100610007AFF08BD00080140000C014010B5FFF74B
:10062000BBFFFFF775FF00F005F800F05FFB00F07F
:1006300017FB10BD00B587B00121880300F026FC30
:100640000121082000F022FC4FF42040ADF8040006
:1006500003208DF8060018208DF8070001A9264810
:10066000FFF7C4FE4FF48040ADF8040048208DF839
:10067000070001A92048FFF7B9FE4FF48050ADF8FC
:10068000040003208DF8060010208DF8070001A952
:100690001948FFF7ABFE4FF480711748FFF733FF9F
:1006A0000021164800F0AAFC0020ADF808004FF425
:1006B0008270ADF80A000020ADF80C000220ADF801
:1006C0000E000020ADF810004FF40070ADF81200DD
:1006D0002820ADF814000020ADF816000720ADF872
:1006E000180002A9054800F0A3FC0121034800F00E
:1006F00085FC07B000BD0000000C01400038004040
:1007000030B503460024002500BF08E0002503E0C3
:100710009620FFF7BBFD6D1C9D42F9D3641C052C90
:10072000F4D330BD0024FFF779FF33A000F094FE2E
:1007300036A000F091FE3AA000F08EFE3BA000F043
:100740008BFE3EA000F088FE00203F49087001F0BB
:1007500059F801F08FF84EE03B480078102818D087
:1007600003DC48B1012840D104E011283ED03128F3
:100770003BD100E000BF3DE034A000F06DFE012061
:100780003149087000F012FC10B931202E49087070
:1007900030E030A000F060FE00F081F9044630A0A7
:1007A00000F05AFE214631A000F056FE012C06D082
:1007B000022C08D0032C0AD0042C10D10BE02FA05F
:1007C00000F04AFE0CE033A000F046FE08E038A03E
:1007D00000F042FE04E03CA000F03EFE00E000BF5E
:1007E00000BF00201849087004E000BF002016492F
:1007F000087000BF00BFAFE720B4AEBFDAD4CBD0E3
:10080000D0D6D02E2E2E2E0D0A000000BFDAC1EE5B
:10081000A3BA31A1A2C1F7CBAEB5C60D0A00000044
:1008200032A1A2C9C1CBB80D0A00000033A1A2B009
:10083000B4BCFCB4A5B7A20D0A00000034A1A2C844
:10084000ABC3F00D0A0000002E0000206E6F6E6535
:100850000A000000666F756E64206F6E650A000006
:100860000D0ACAB6B1F0C2EB3A0000000D0ACAB6D2
:10087000B1F0C2EB3A25640D0A000000A1B0C8AB8C
:10088000C3F0A1B1C3FCC1EECAB6B1F0B3C9B9A6F9
:100890000D0A0000A1B0C4E3BAC3C9A7B0A1A1B1B9
:1008A000C3FCC1EECAB6B1F0B3C9B9A60D0A0000C7
:1008B000A1B0BFAAB5C6A1B1C3FCC1EECAB6B1F022
:1008C000B3C9B9A60D0A0000A1B0C4B8BCA6A1B1B5
:1008D000C3FCC1EECAB6B1F0B3C9B9A60D0A000097
:1008E000F0B59BB0142116A8FFF757FC50223049F1
:1008F00002A8FFF739FC2E49503103C9CDE90001A8
:100900000126002445E000F0B5F808B9002642E0D1
:100910001DF80410C12000F085F90021C32000F06B
:1009200081F90421082000F07DF90120FFF7E8FE9D
:100930000021082000F076F90120FFF7E1FE0025F4
:1009400012E004EB840002A901EB8000405D00B9D5
:100950000CE004EB840002AA02EB8000415D05205C
:1009600000F060F9681CC5B2142DEADB00BF29460F
:10097000B92000F057F9FF21B22000F053F904210B
:10098000372000F04FF90421372000F04BF9601CAC
:10099000C4B2052CB7DB00BFBF2000F023F9074627
:1009A000394604A000F058FD30461BB0F0BD0000F1
:1009B000F018000830783331203D3D2025780D0AAD
:1009C0000000000010B54721352000F02BF9092167
:1009D0001C2000F027F92021BD2000F023F901217F
:1009E000082000F01FF90520FFF78AFE00210820EB
:1009F00000F018F90520FFF783FE00F03BF808B976
:100A0000002010BDFF21B22000F00CF90621372094
:100A100000F008F90621372000F004F90520FFF75F
:100A20006FFEBF2000F0DEF80446214608A000F06B
:100A300013FD0B211C2000F0F5F81021292000F0F7
:100A4000F1F80021BD2000F0EDF80120D9E7000009
:100A500030783331213D2578206275742030783329
:100A6000327E307833610D0A0000000010B500F0CE
:100A70001BF810BD70B5002500240BE0B22000F07B
:100A8000B1F8212801D1012506E00A20FFF738FE40
:100A9000601CC4B20A2CF1DB00BF284670BD10B543
:100AA000C52000F09FF810BD10B508201949087046
:100AB00000F032F80021BD2000F0B4F848211720E2
:100AC00000F0B0F80520FFF71BFE80213C2000F06D
:100AD000A9F807213E2000F0A5F8FF21382000F0FA
:100AE000A1F807213A2000F09DF80021402000F0F5
:100AF00099F80821422000F095F80021442000F0E8
:100B000091F80821462000F08DF80120FFF7F8FD4C
:100B100010BD00002C00002010B5062000F062F887
:100B20003521172000F07EF80520FFF7E9FD0620AB
:100B300000F058F80321892000F074F80520FFF731
:100B4000DFFD4321CF2000F06DF80520FFF7D8FD31
:100B50000221CB2000F066F80321112000F062F89A
:100B60001F480078402810D100211E2000F05AF8BC
:100B70000F21192000F056F818211B2000F052F820
:100B80002C211D2000F04EF80FE000211E2000F067
:100B900049F83F21192000F045F848211B2000F0BA
:100BA00041F81F211D2000F03DF80520FFF7A8FDAA
:100BB0000421CD2000F036F84C21172000F032F847
:100BC0000120FFF79DFD0021B92000F02BF84F21F7
:100BD000CF2000F027F8FF216F2000F023F810BD90
:100BE0002C00002070B504464FF480710C48FFF7CC
:100BF00088FC4FF480510A48FFF783FC052000F081
:100C0000E5FD204600F0E2FD002000F0DFFD054696
:100C10004FF480710248FFF776FC284670BD000053
:100C2000000C014070B505460C464FF480710B482E
:100C3000FFF767FC4FF480510848FFF762FC04207F
:100C400000F0C4FD284600F0C1FD204600F0BEFDC6
:100C50004FF480710148FFF756FC70BD000C014055
:100C600010B540211248FFF74EFC6420FFF748FD05
:100C700040210F48FFF745FC6420FFF741FD40216C
:100C80000B48FFF740FC6420FFF73AFD4FF48071FA
:100C90000748FFF736FC6420FFF732FD4FF4807100
:100CA0000348FFF730FC6420FFF72AFD10BD000069
:100CB000000C014008B50121112000F0F7F84FF4B5
:100CC0000050ADF8000010208DF8030003208DF8CF
:100CD000020069460448FFF789FB4FF400510248BF
:100CE000FFF711FC08BD00000010014008B54FF4EB
:100CF0000050ADF8000003208DF8020010208DF8A0
:100D0000030069460448FFF771FB4FF400510248A5
:100D1000FFF7F9FB08BD00000010014000BFFEE72F
:100D2000704708B54FF4A06000F046F825208DF814
:100D3000000001208DF801008DF802008DF80300FD
:100D4000684600F001F808BD70B5002100230F22AD
:100D5000C47804B3154C246804F4E064C4F5E0647A
:100D6000210AC1F10403CA40447804FA03F18478EB
:100D70001440214309010E4C0678A155047804F073
:100D80001F050124AC4005786D11AD0005F1E0258B
:100D9000C5F8004109E0047804F01F050124AC40C7
:100DA000044D0678761145F8264070BD0CED00E044
:100DB00000E400E080E100E002490143024A1160E2
:100DC000704700000000FA050CED00E070470000DD
:100DD00010B500242B20FFF705FF2A4908700021D9
:100DE0002920FFF71FFF00210220FFF71BFF2548E6
:100DF000007800F01000C8B1B220FFF7F3FE212800
:100E000014D1BF20FFF7EEFE35280FD1BA20FFF72F
:100E1000E9FE0446002C05DD042C03DC10201A49F1
:100E2000087006E011201849087002E011201649E8
:100E3000087000212B20FFF7F5FE00211C20FFF792
:100E4000F1FE00212920FFF7EDFE00210220FFF72F
:100E5000E9FE00212B20FFF7E5FE0021BA20FFF775
:100E6000E1FE0021BC20FFF7DDFE01210820FFF795
:100E7000D9FE00210820FFF7D5FE0220FFF740FC35
:100E800010BD00002D0000202E00002029B1064AD0
:100E9000D2690243044BDA6104E0034AD269824317
:100EA000014BDA61704700000010024029B1064A88
:100EB00092690243044B9A6104E0034A92698243B7
:100EC000014B9A61704700000010024030B50021CC
:100ED0000022002400232D4D6D6805F00C0121B186
:100EE000042905D0082923D105E0294D056022E019
:100EF000274D05601FE0254D6D6805F47012234DE8
:100F00006D6805F48034022505EB92421CB9214D31
:100F1000554305600BE01D4D6D6805F400351DB1AE
:100F20001C4D5543056002E0194D5543056002E034
:100F3000174D056000BF00BF144D6D6805F0F0014E
:100F40000909154D6B5C0568DD4045600F4D6D6806
:100F500005F4E061090A104D6B5C4568DD40856071
:100F60000A4D6D6805F46051C90A0B4D6B5C45680C
:100F7000DD40C560054D6D6805F44041890B074DA6
:100F80006B5CC568B5FBF3F5056130BD0010024030
:100F900000127A0000093D00140000202400002007
:100FA0000149C871704700000010024070B500246C
:100FB000002500BF1DE0FFF759FD6420FFF7A0FBEF
:100FC000FFF78EFC28B9FFF74BFE3220FFF798FBA6
:100FD0000DE00A20FFF794FBFFF7F4FC28B9FFF7B8
:100FE0003FFE3220FFF78CFB01E0012503E0601C8F
:100FF000C4B2052CDFDB00BF284670BD21B10288DA
:1010000042F04002028004E002884FF6BF731A40AB
:10101000028070470246002013890B400BB101206B
:1010200000E0002070470146888970478181704741
:1010300010B50022028802F441520B884C882343E9
:101040008C882343CC8823430C8923434C89234336
:101050008C892343CC8923431A430280838B4FF22C
:10106000FF74234083830B8A038210BD704710B541
:1010700000F002F810BD00000CB5002001900090B7
:101080003348006840F480303149086000BF304880
:10109000006800F4003000900198401C0190009816
:1010A00018B90198B0F5A06FF1D12948006800F493
:1010B000003010B10120009001E000200090009865
:1010C000012843D12348006840F0100021490860FE
:1010D0000846006820F0030008600846006840F0F9
:1010E000020008601A48406819494860084640688C
:1010F00048600846406840F48060486008464068A0
:1011000020F47C1048600846406840F4E8104860CD
:101110000846006840F08070086000BF0C48006816
:1011200000F000700028F9D00948406820F0030062
:10113000074948600846406840F00200486000BF28
:101140000348406800F00C000828F9D10CBD0000ED
:101150000010024000200240042808D14FF0E02196
:10116000096941F004014FF0E022116107E04FF0FE
:10117000E021096921F004014FF0E022116170477C
:101180007047000010B51348006840F00100114995
:10119000086008464068104908400E494860084603
:1011A00000680E4908400B4908600846006820F4B2
:1011B000802008600846406820F4FE0048604FF434
:1011C0001F008860FFF753FF4FF00060044908607C
:1011D00010BD0000001002400000FFF8FFFFF6FE07
:1011E00008ED00E010B540F22551064800F06DF81A
:1011F00038B1044800F024F9C4B22146014800F097
:1012000024F910BD0038014021B1828942F4005216
:10121000828104E082894DF6FF731A408281704713
:1012200000B585B0012144F20500FFF73FFE4FF401
:101230000070ADF8100018208DF8130003208DF811
:10124000120004A91848FFF7D1F84FF48060ADF8F8
:10125000100004208DF8130003208DF8120004A95B
:101260001148FFF7C3F84FF4E13000900020ADF8CB
:101270000400ADF80600ADF80800ADF80C000C2035
:10128000ADF80A006946094800F06EF8FFF749FD1D
:10129000012240F22551054800F041F801210348A0
:1012A000FFF7B2FF05B000BD000801400038014063
:1012B00002460020B1F5007F00D100BF13880B402B
:1012C0000BB1012000E00020704770B502460024F9
:1012D00000230025002040F66A16B14200D100BF6D
:1012E000C1F3421501F01F03012606FA03F3012D95
:1012F00002D19689334006E0022D02D1168A33408E
:1013000001E0968A33400C12012606FA04F416888E
:10131000344013B10CB1012000E0002070BDF0B5E5
:101320000346002400260025002040F66A17B94233
:1013300000D100BF1846C1F3421401F01F06012777
:1013400007FA06F5012C01D10C3004E0022C01D182
:10135000103000E014301AB107682F43076002E034
:101360000768AF430760F0BD2DE9F04786B005463A
:101370000E460024A24600BFA1460027B08900B156
:1013800000BF2F462C8A4CF6FF700440F0880443BF
:101390002C82AC894EF6F3100440B08831890843A2
:1013A000718908430443AC81AC8A4FF6FF40044086
:1013B000B0890443AC8201A8FFF788FD1F4887422B
:1013C00002D1DDF810A001E0DDF80CA0A88900F43E
:1013D000004040B10AEBCA0000EB0A103168490036
:1013E000B0FBF1F807E00AEBCA0000EB0A10316825
:1013F0008900B0FBF1F86420B8FBF0F0040120098B
:10140000642101FB1089A88900F4004040B132201A
:1014100000EBC900B0FBF1F000F00700044308E066
:10142000322000EB09106421B0FBF1F000F00F0056
:1014300004432C8106B0BDE8F0870000003801406D
:1014400001468888C0F308007047C1F30802828013
:10145000704700BFFEE700000FB4054B10B503A9AD
:10146000044A029800F018F810BC5DF814FB000064
:101470009D1700083000002002E008C8121F08C1B4
:10148000002AFAD170477047002001E001C1121F05
:10149000002AFBD1704700002DE9FF4F8DB09B461D
:1014A0000F460446002606E025280BD05A460F9921
:1014B0009047641C761C20780028F5D111B0304686
:1014C000BDE8F08F0025A8460122984900E00543B9
:1014D00014F8013F203B02FA03F00842F7D12078CC
:1014E0002E2817D114F8010F45F004052A280ED034
:1014F0006FF02F022078A0F1300109290AD808EBFB
:10150000880102EB410100EB0108641CF2E757F887
:10151000048B641C20786C280DD004DC4C2812D07D
:101520006A2811D104E074280DD07A280CD10AE081
:1015300045F4001507E0617845F48015814202D139
:10154000641C05F58015641C2278692A45D008DCE6
:10155000002AB3D0582A69D0632A10D0642A08D14F
:101560003BE0702A67D0732A13D0752A5CD0782AA2
:101570005CD010465A460F999047761CD3E017F876
:10158000040B8DF8000000208DF80100E9460120D1
:1015900003E057F8049B4FF0FF3069074FF0000558
:1015A00001D40AE06D1C45450DDA8542FADB19F8D5
:1015B00005100029F6D106E06D1C8542FCDB19F808
:1015C00005100029F8D12E4404E019F8010B5A4601
:1015D0000F9990476D1EF8D2A5E00A200021CDE9B1
:1015E0000801C5F3025002280DD001CFC117031E18
:1015F00071F100030DDA4FF0000CD0EB0C006CEB36
:1016000001012D2308E0FF1D27F00707F7E802017D
:10161000EDE72B0504D52B238DF8283001233BE083
:10162000EB0739D02023F7E70A2000E01020002143
:10163000CDE9080107E01020002145F00405CDE9BF
:1016400008014FF00808C5F3025002280FD001CF5F
:1016500000214FF0000A2B071FD5702A0DD0DDE9BD
:1016600008C38CF0100C5CEA030C0CD015E0FF1DD5
:1016700027F00707F7E80201EBE740228DF8282062
:101680004FF0010A0BE050EA010306D030238DF839
:1016900028308DF8292002239A46582A04D024A203
:1016A0000DF120090B9209E026A2F9E7DDE90823F4
:1016B000FEF77EFD0B9B9B5C09F8013D50EA0102A1
:1016C000F4D1ADEB090020300890680701D44FF049
:1016D00001080899884502DDA8EB010000E0002020
:1016E0008046002506E00AA85A46405D0F999047BB
:1016F0006D1C761C5545F6DB04E030205A460F99E8
:101700009047761CB8F10001A8F10108F5DC05E06E
:1017100019F8010B5A460F999047761C0899481EF4
:1017200008900029F4DC641CC5E6000009280100CB
:101730003031323334353637383961626364656647
:101740000000000030313233343536373839414209
:10175000434445460000000010B56FF00400FFF759
:10176000FBFC0A4800680A49B0FBF1F0094908701F
:101770000846007800EB4001C1EBC0104FF6FF7146
:1017800001EAC0000449088010BD000000000020EC
:1017900000127A00280000202A00002070B50446BC
:1017A0000D46E1B20548FFF750FE00BF8021034817
:1017B000FFF77EFD0028F9D0204670BD00380140BB
:1017C000FEF759FD01E0FEF7ADFFFCE710B504465A
:1017D00000BF02210A48FFF71DFC0028F9D021466E
:1017E0000748FFF723FC00BF01210548FFF712FC63
:1017F0000028F9D00248FFF716FCC0B210BD000067
:101800000038004010B5FFF72BFA0620FFF7EAF981
:1018100033213520FFF706FA55211B20FFF702FA86
:10182000AA21B320FFF7FEF93520FFF7DBF90446C4
:1018300021460AA0FFF710FE1B20FFF7D3F904464C
:10184000214608A0FFF708FEB320FFF7CBF90446B6
:10185000214606A0FFF700FE10BD0000313A2578B2
:101860000D0A0000323A25780D0A0000333A257837
:101870000D0A000010B5FFF7F3F90620FFF7B2F9E3
:10188000044621460DA0FFF7E7FD0620FFF7AAF961
:10189000044621460DA0FFF7DFFD3520FFF7A2F932
:1018A000044621460CA0FFF7D7FDB320FFF79AF9B5
:1018B000044621460BA0FFF7CFFD10BD30307C3829
:1018C00037203D3D202578200D0A00003837203D87
:1018D0003D202578200D0A003830203D3D20257818
:1018E000200D0A004646203D3D202578200D0A00A7
:1018F0007175616E206D69650000000000000000D8
:10190000000000006E692068616F2073616F2061C4
:1019100000000000000000006B61692064656E67D4
:101920000000000000000000000000006D75206A4B
:10193000690000000000000000000000000000003E
:1019400001020304000000006819000800000020E4
:1019500034000000781400089C19000834000020AE
:10196000040400008814000800A24A0400000000DB
:10197000000000000102030406070809000000003F
:101980000102030401020304060708090204060811
:0C1990000000000000000000000000004B
:0400000508000131BD
:00000001FF
