:050D6D00223344550192
:10062A001B35020109030405060708090909090916
:10063A0009090909090909090909090909202D08E6
:10064A000101010100000001010000000001000198
:10065A000001001E000101001E010101001E01002F
:0D066A0000001E000100001E010100001E26
:100AFD007BFF7A0D796D22E55175F005A422C28038
:050B0D00C281C282223A
:10000E00E4F550120B12120532D2AF120B0B120C7A
:10001E0029AF501207EF8F50120C29AF50120588DE
:10002E00E550B40900507290003CF8282873020085
:10003E001F02001F02001F0200570200640200711F
:10004E0002007E02008B020099120AFD7D0112044D
:10005E001612085F80BB120AFD7D0112033F1208C3
:10006E009680AE120AFD7D0112013F12025880A148
:10007E00120AFDE4FD1204161209618094120AFDA3
:10008E00E4FD12033F12075C02001F120AFDE4FD9D
:0F009E0012013F1204DB02001FE4F55002001FA5
:1007EF00755109208509EF75F003A4243580162073
:1007FF008409EF75F003A42436800A20830BEF756C
:10080F00F003A42437F8E6F551E551B409048F51EC
:07081F008003120C7CAF51B5
:0108260022AF
:0C0C29003085FD3084FA3083F7020C7C2B
:020588008F5191
:10058A00120B0BEF75F005A42408F8E6B40102D2A9
:10059A0080120B042409F8E6B40102D281120B047A
:1005AA00240AF8E6B40102D282120B04240CF8E6FB
:1005BA00FFD39400400EEF75F064A4FFAEF012056D
:1005CA00DB12098D120B04240BF8E67003120B0BD5
:0105DA0022FE
:030AD100120D33D0
:0E0AD400755114D290AF511551EF70F9C290C8
:050AE2007F05020D7507
:030D7200AF662247
:0D0BDB0074002FF582E43480F583E0FF22E2
:030D75008F662264
:1006780030C140120C35EF24E0601324E0601324ED
:10068800E0601E2450702A120D487F0180207F02EE
:10069800801C120C59EF70051206BC80F57F038090
:1006A8000D120C59EF70051206BC80F57F04120D6F
:0E06B80075C2C1227B017A807900120D672283
:090CEA00D280D28CD2A9D2AF2233
:10053200E4F551120CEA436301E56370FC12057C99
:10054200436302E56370FC120C7CD282120CEC4312
:100552006304E56370FC12057C436302E56370FC8F
:10056200120C7C120CEA436301E56370FC120C7CF2
:090572000551E551C3940340BAA0
:0D057B0022120C7CD281D28CD2A9D2AF22E8
:0A0C7C007F0A7E001205DB02098DDD
:0A0C86007F647E001205DB02098D79
:03000B000209B433
:1009B400C0E0C28C758AE9758CCBE56330E002C275
:1009C40080E56330E102C281E56330E202C28275F0
:0509D4006300D0E032D9
:0405DB00AB07AA06BA
:1005DF007C007D281200EA8D828C837C057D35AFEF
:1005EF0082AE831200D8C3E49FF556E49EF555C33F
:1005FF00EB9582FBEA9583FAFEAF037C007D281210
:10060F0000EAEF04F562E5564555700875552F75EC
:0B061F0056B81562AF56AE55020B270F
:100B2700EF4E600F4389108F8B8E8DD28EC2ABC272
:040B37008FD2AF2288
:10098D00E562D39400401BA28F50028001C350F743
:10099D001562E562D3940040E77FB87E2F120B27D6
:0709AD0080DEC28EC2AB2206
:1009D900E4FD308F181562E562D3940040097FB8B1
:0F09E9007E2F120B2780067D01C28EC2ABAF0599
:0109F80022DC
:100B1200E4FB7D38FF120D1E75D901120C7CD2BD8B
:050B2200D2AF020D4FEF
:070D1E008F958D948B80225C
:060D4F00D29275E61022AD
:100903008F67ED600D1209268002C333D8FCF45FB4
:10091300800A1209268002C333D8FC4FFDE4FF127C
:10092300048122E4FF120C1CAE677401A80608229E
:0C0C35007D707F07120481EF5470FF22D5
:100B3B007401A807088002C333D8FCFD7F070204A9
:010B4B008128
:1009F9008F68E4FF120C1CAE687401A80608800217
:0D0A0900C333D8FC5F60037F00227F012211
:08000300120D16EF5470FF22EC
:100AB9008F55E4FF120C1CEF54F3FFE55525E02593
:080AC900E04FFDE4FF0204818F
:1003AB008F558D56E55524FA500624076039804D3C
:1003BB007F02120C1CAE557401A806088002C333D1
:1003CB00D8FC4FFD7F02120481E556600C12040924
:1003DB008002C333D8FC4F800B1204098002C33355
:1003EB00D8FCF45FFD80117D3F7F02120481E5563E
:1003FB0060047D3F8002E4FD7F01120481227F01B6
:0B040B00120C1CAE557401A80608225C
:100712008F55E55524FA50062407602480307F0265
:100722001207518002C333D8FCF45FFD7F0212042A
:10073200817F011207518002C333D8FCF45F800825
:10074200E4FD7F02120481E4FD7F01120481221282
:0A0752000C1CAE557401A806082225
:100827008F558B568A578958E55514600A24FB5013
:1008370014600424067020AB56AA57A958E4F55D46
:10084700AF550206C6E555240AFFAB56AA57A95865
:080857001200ADFD1204812224
:100AA000AB07AE04AF057C007DFA1200EAEF14C478
:090AB00054F04BFD7F04020481A7
:090CF300EF24FEFD7F03020481E1
:070D2500EF2411FF0204811D
:0E0B7900E4FF120C1CEF540C1313543FFF2228
:0207A6008F645E
:1007A8007F021207E48002C333D8FC5FF5657F013E
:1007B8001207E48002C333D8FC5FFFAE64E565A886
:1007C80006088002C313D8FCF565AE64EFA80608D6
:0B07D8008002C313D8FC25E02565FF5C
:0C07E30022120C1CAE647401A80608224F
:1008CD008F5E8B5F8A608961E55E14600824FB6032
:1008DD00042406700BAB5FAA60A961AF5E0202CD66
:1008ED00E55E240AFF120C1CAB5FAA60A961EF1232
:0608FD0000C6120C90225F
:060D55007F08120C1C22B5
:0D0BE8007F08120C1CEF54F0C4540FFF22C4
:0A0C90007F03120C1CEF2402FF2268
:080D0E00EF2411FF120C1C225E
:100A1600BF010AE4FF120C1CEF44018008E4FF1238
:0C0A26000C1CEF54FEFDE4FF12048122C2
:100A3200BF010AE4FF120C1CEF44028008E4FF121B
:0C0A42000C1CEF54FDFDE4FF12048122A7
:070D2C00AD077F0502048101
:100AE7008F697F06120C1CEF54F9FFE56925E04F6B
:060AF700FD7F06020481F0
:100A8600EF7F067008120C1CEF54F78006120C1C40
:0A0A9600EF4408FD7F0612048122E0
:0A0C9A00E4FF120C1CEF5401FF22CE
:0C0C4100E4FF120C1CEF5402C313FF224E
:060D5B007F05120C1C22B2
:0C0C4D007F06120C1CEF5406C313FF229C
:0F0B4C007F06120C1CEF5408131313541FFF22C3
:0C0C5900120CCCBF07037F01227F002299
:0A0CA4007F17120C1CEF5401FF2211
:0B0C71007F17120C1CEFC45401FF227F
:0C0C65007F17120C1CEFC4135401FF2277
:0D0BF5007F17120C1CEF5430C4540FFF2268
:0A0CAE007F17120C1CEF5403FF2205
:060D61007F17120C1C229A
:0A0CB8007F08120C1CEF540FFF22FE
:0A0CC2007F09120C1CEF5401FF2201
:070D33008D5D7F070206C67B
:090CFC00EF543FFD7F1C0204814E
:0E0B87007F1D120C1CEF4404FD7F1D02048133
:0E0B95007F1D120C1CEF54FBFD7F1D0204811E
:0E0BA3007F1D120C1CEF4402FD7F1D02048119
:0E0BB1007F1D120C1CEF54FDFD7F1D02048100
:0E0BBF007F1D120C1CEF4401FD7F1D020481FE
:0E0BCD007F1D120C1CEF54FEFD7F1D020481E3
:100933008B528A538954C291EF44A88018AF55153E
:1009430055EF6017AB520554E554AA537002055393
:0E09530014F91200ADFF120CE080E2D29122E6
:0E0B5B00C2917F60120CE0E4FF120CE0D29118
:010B69002269
:0F0B6A00C2917F50120CE07F73120CE0D29122E7
:0A0CCC00120D16EF540EC313FF22A1
:060D67007F081202CD22FC
:070D3A00E4FD7FE3020481E8
:0D0C0200120D61EF5440C413135403FF2280
:070D4100E4FD7FE2020481E2
:070D4800E4FD7FE1020481DC
:080D1600E4FD7FFF12048122BD
:100A4E00BF010A7F06120C1CEF441080087F0612AD
:0C0A5E000C1CEF54EFFD7F0612048122F7
:0D0C0F007F06120C1CEF5410C4540FFF227E
:100A6A00BF010A7F06120C1CEF440180087F0612A0
:0C0A7A000C1CEF54FEFD7F0612048122CC
:0A0CD6007F06120C1CEF5401FF22F0
:0C0C1C00C291120CE0E4FF120CE0D29137
:010C280022A9
:040481008F598D5AA8
:10048500C291E559C394205007E5592420FF802ED9
:10049500E559B4E103D38001C3402FE559B4E20324
:1004A500D38001C34024E559B4E303D38001C3409D
:1004B50019E559B4FF03D38001C3400EAF59120C9F
:1004C500E08F5BAF5A120CE08007AF59120CE08F3A
:0504D5005BD291AF5B5A
:0104DA0022FF
:0802CD008F518B528A538954B2
:1002D500E55114600C24FB600824FE6014240870AA
:1002E5002B120C908F558F56C291E551240AFF8031
:1002F50016120CCC8F51EFC394075010120B5B8F65
:10030500558F56C2917F61120CE08005E4F556F5D4
:1003150055AF551555EF6019E4FF120CE0AB5205CA
:1003250054E554AA537002055314F9EF1200C68020
:09033500E0D291E551FEE556FF0E
:01033E00229C
:1006C6008F598B5A8A5B895CE55914600B24FB6051
:1006D6000714601124077013120C908F5DC291E508
:1006E60059242A801EC2917FA08019AF5D155DEF47
:1006F6006017AB5A055CE55CAA5B7002055B14F9F2
:0C0706001200ADFF120CE080E2D2912244
:0A0CE0008FE5C2C030C0FDAFE52271
:100416008B518A5289538D547FFF120712E4FDFFD8
:100426001203AB7F03120AB97DFA7C00E4FF120ABD
:10043600A07F05120CF3AB51AA52A9537F061208EE
:1004460027AB51AA52A953E4FF120827E5547006B8
:10045600FF120A16800C7F01120A167D0AE4FF12AB
:100466000D257F28120D2C7F01120A327F027E0095
:0B0476001205DB12098DE4FF020D757A
:10096100120678120D72EF640560F57F647E001245
:1009710005DB12098DE490800AF020850204F07BEA
:0C098100017A80790A7D0A120AD180D424
:10085F00D2907F6E7E001205DB120678120D72EFBA
:10086F0070061209D9EF60F1120D72BF0310E4FF89
:10087F00120BDBBF0104D2808006C2808002C280CF
:07088F00E4FF120D7580CBA0
:10033F008B518A5289538D547FFF1207127D01E42E
:10034F00FF1203AB7F03120AB97DFA7C007F0F12F5
:10035F000AA07F05120CF3AB51AA52A9537F0612C4
:10036F000827AB51AA52A953E4FF120827E554708E
:10037F0006FF120A16800C7F01120A167D0AE4FF8F
:10038F00120D257F28120D2C7F01120A327F027E5B
:0C039F00001205DB12098DE4FF020D7551
:10075C00120678120D72EF640560F5120D72BF026D
:10076C000DD281D28CD2A9D2AF436302800BD2823C
:10077C00D28CD2A9D2AF4363047F647E001205DB16
:10078C0012098DE4908014F020850204F07B017A2C
:0A079C008079147D0A120AD180B69C
:10089600D2907F6E7E001205DB120678120D72EF83
:1008A60070061209D9EF60F1120D72BF0310E4FF52
:1008B600120BDBBF0104D2808006C2808002C28098
:0708C600E4FF120D7580CB69
:10013F008B518A5289538D547FFF1207127D01E430
:10014F00FF1203AB7F03120AB97DFA7C007F0F12F7
:10015F000AA07F05120CF3AB51AA52A9537F0612C6
:10016F000827AB51AA52A953E4FF120827120BA379
:10017F007F1D120C1CEF700E7F1C120C1CEF7006F3
:10018F00120B6A120BA3120B877F3F120CFCE55464
:10019F007006FF120A16800C7F01120A167D0AE400
:1001AF00FF120D257F28120D2C7F01120A327F02BC
:0D01BF007E001205DB12098DE4FF020D75B4
:090D0500D281D28CD2A9D2AF2216
:1004DB00120678120D72EF640560F5120D72EF645F
:1004EB00026006120D72BF0408120D0543630280F1
:1004FB0008D282120D07436304120D72BF040EE47F
:10050B00FF120BDBBF0104D2808002C280120C866B
:10051B00E490801EF020850204F07B017A80791E26
:07052B007D0A120AD180A92C
:10025800D290E490801EF020850204F07B017A8021
:10026800791E75550AE4FF1209337F6E7E00120568
:10027800DB120678120D72EF70061209D9EF60F1E1
:10028800120D72EF64026006120D72BF0408120D9F
:10029800054363028008D282120D07436304120DDE
:1002A80072EF64036006120D72BF0410E4FF120BB4
:1002B800DBBF0104D2808006C2808002C280E4FFD6
:0502C800120D75808D90
:030000000201CC2E
:0C01CC00787FE4F6D8FD7581690202130B
:1000AD00BB010689828A83E0225002E722BBFE0251
:0900BD00E32289828A83E4932284
:1000C600BB010689828A83F0225002F722BBFE0119
:0200D600F32213
:1000D800EF8DF0A4A8F0CF8CF0A428CE8DF0A42E3C
:0200E800FE22F6
:1000EA00BC000BBE0029EF8DF084FFADF022E4CCFA
:1000FA00F875F008EF2FFFEE33FEEC33FCEE9DECC3
:10010A00984005FCEE9DFE0FD5F0E9E4CEFD22ED08
:10011A00F8F5F0EE8420D21CFEADF075F008EF2F52
:10012A00FFED33FD4007985006D5F0F222C398FD43
:05013A000FD5F0EA22E0
:1001D80002000EE493A3F8E493A34003F68001F22F
:1001E80008DFF48029E493A3F85407240CC8C33328
:1001F800C4540F4420C8834004F456800146F6DFF7
:10020800E4800B010204081020408090062AE47E56
:10021800019360BCA3FF543F30E509541FFEE493EB
:10022800A360010ECF54C025E060A840B8E493A3B2
:10023800FAE493A3F8E493A3C8C582C8CAC583CADD
:10024800F0A3C8C582C8CAC583CADFE9DEE780BE95
:010677000082
:00000001FF
