:100000000201F3E4FD7FFF1205AA2202097EE490BB
:100010000048F01209B3120614D2AF120BA3120B50
:10002000ED900048E0FF1206D4900048EFF0120B6C
:10003000ED900048E0FF12027F900048E0B4090014
:100040005072900049F82828730200210200210212
:10005000002102006402007102007E02008B020097
:10006000980200A6120B9C7D011204D11209108087
:10007000B0120B9C7D0112046312094780A3120B7E
:100080009C7D011201641203048096120B9CE4FD16
:100090001204D11209E38089120B9CE4FD1204635F
:1000A00012085D020021120B9CE4FD12016412068D
:1000B0007D020021E4900048F0020021BB01068986
:1000C000828A83E0225002E722BBFE02E322898279
:1000D0008A83E49322BB010689828A83F02250023C
:1000E000F722BBFE01F322EF8DF0A4A8F0CF8CF035
:1000F000A428CE8DF0A42EFE22BC000BBE0029EF5A
:100100008DF084FFADF022E4CCF875F008EF2FFFFE
:10011000EE33FEEC33FCEE9DEC984005FCEE9DFECC
:100120000FD5F0E9E4CEFD22EDF8F5F0EE8420D213
:100130001CFEADF075F008EF2FFFED33FD40079882
:100140005006D5F0F222C398FD0FD5F0EA22A3F8AD
:10015000E0C5F025F0F0E582158270021583E0C855
:1001600038F0E822900049EBF0A3EAF0A3E9F0A30D
:10017000EDF07FFF1208117D01E4FF12053E7F03C1
:10018000120A817DFA7C007F0F120B117F05120C81
:100190007C120C297F061208D9120C29E4FF1208E0
:1001A000D9120BB87F1D120BD3EF700E7F1C120BF0
:1001B000D3EF7006120B7E120BB8120BAA7F3F1200
:1001C0000C8590004CE07006FF120A9F800C7F01A6
:1001D000120A9F7D0AE4FF120C8E7F28120C957F75
:1001E00001120ABC7F027E001203F2120A38E4FFF9
:1001F000020CA9787FE4F6D8FD75810702023A0265
:10020000000EE493A3F8E493A34003F68001F20800
:10021000DFF48029E493A3F85407240CC8C333C443
:10022000540F4420C8834004F456800146F6DFE4AE
:10023000800B0102040810204080900726E47E0114
:100240009360BCA3FF543F30E509541FFEE493A321
:1002500060010ECF54C025E060A840B8E493A3FA33
:10026000E493A3F8E493A3C8C582C8CAC583CAF0BF
:10027000A3C8C582C8CAC583CADFE9DEE780BE90CD
:100280000049EFF0120BA375F005A42400F582E4F9
:100290003400F583E0B40102C290900049E0FF759C
:1002A000F005A42401F582E43400F583E0B40102F2
:1002B000C291EF75F005A42402F582E43400F583C1
:1002C000E0B40102C292900049E075F005A4240454
:1002D000F582E43400F583E0FFD39400400EEF751F
:1002E000F064A4FFAEF01203F2120A38900049E065
:1002F00075F005A42403F582E43400F583E070036F
:10030000120BA322D284E4900075F020A10204F025
:100310007B017A00797590004D740AF0E4FF120AAF
:100320000F7F6E7E001203F2120776120CA3EF709D
:1003300006120AF5EF60F1120CA3EF6402600612D8
:100340000CA3BF0408120BE04402F08008C2921212
:100350000BE24404F0120CA3EF64036006120CA33A
:10036000BF0410E4FF120BC6BF0104C2908006D286
:10037000908002D290E4FF120CA9808A9000801233
:1003800008AC90007FEFF014600C24FB600824FEA2
:10039000601324087029120C541208CF90007FE0DB
:1003A000240AFF8015120C6890007FEFF0C39407B9
:1003B000500D120B6F1208CF7F61120C728009E48E
:1003C000900084F0900083F0900083E0FF14F0EF41
:1003D0006011E4FF120C729000801208C1EF12004D
:1003E000D580E5D28390007FE0FE900084E0FDEDB3
:1003F000FF22AB07AA067C007D411200F990004F56
:10040000ECF0A3EDF090004FE0FEA3E0FF7C037D55
:10041000E81200E7C3E49FFFE49E90004DF0A3EFD5
:10042000F0A3E0FEA3E0FFC3EB9FFBEA9EFAFEAF62
:10043000037C007D411200F9EF04900088F09000E9
:100440004DE07002A3E0701090004D7402F0A374B0
:1004500018F0900088E014F090004DE0FEA3E0FF5B
:10046000020B5A900049EBF0A3EAF0A3E9F0A3EDE8
:10047000F07FFF1208117D01E4FF12053E7F031299
:100480000A817DFA7C007F0F120B117F05120C7C14
:10049000120C1D7F061208D9120C1DE4FF1208D998
:1004A00090004CE07006FF120A9F800C7F01120A38
:1004B0009F7D0AE4FF120C8E7F28120C957F01129B
:1004C0000ABC7F027E001203F2120A38E4FF020C1B
:1004D000A9900049EBF0A3EAF0A3E9F0A3EDF07FC7
:1004E000FF120811E4FDFF12053E7F03120A817D11
:1004F000FA7C00E4FF120B117F05120C7C120C1128
:100500007F061208D9120C11E4FF1208D990004C92
:10051000E07006FF120A9F800C7F01120A9F7D0A7D
:10052000E4FF120C8E7F28120C957F01120ABC7F0B
:10053000027E001203F2120A38E4FF020CA99000B6
:100540004EEDF090004DEFF024FA50062407604184
:1005500080577F02120BD31208A18002C333D8FC4C
:100560004FFD7F021205AA90004EE060117F01123C
:100570000BD31208A18002C333D8FC4F80107F0137
:10058000120BD31208A18002C333D8FCF45FFD80A4
:10059000137D3F7F021205AA90004EE060047D3F6C
:1005A0008002E4FD7F011205AA22900086EDF09002
:1005B0000085EFF0C283C394205006E02420FF8022
:1005C0002C900085E0FFB4E103D38001C34030EFFD
:1005D000B4E203D38001C34026EFB4E303D3800128
:1005E000C3401CEFB4FF03D38001C34012120C724E
:1005F000900087EFF0900086E0FF120C72800D9063
:100600000085E0FF120C72900087EFF0D28390001B
:1006100087E0FF22E4900049F0120B2A4401F09099
:100620000089E070FA12066D4402F0900089E070D3
:10063000FA120C40C292120B2C4404F0900089E094
:1006400070FA12066D4402F0900089E070FA120C04
:1006500040120B2A4401F0900089E070FA120C401D
:10066000900049E004F0E0C3940340AD22120C4036
:10067000C291D28CD2A9D2AF900089E02212077623
:10068000120CA3EF640560F5120CA3EF6402600680
:10069000120CA3BF0408120BE04402F08008C292BF
:1006A000120BE24404F0120CA3BF040EE4FF120B81
:1006B000C6BF0104C2908002D290120C4AE490009E
:1006C00075F020A10204F07B017A0079757D0A1291
:1006D0000AD980A99000497409F020A10EEF75F0A5
:1006E00003A4242DF582E43400802020A20EEF75AF
:1006F000F003A4242EF582E43400800F20A313EF2E
:1007000075F003A4242FF582E43400F583E0900013
:1007100049F0900049E0B40904EFF08003120C4066
:10072000900049E0FF225B002D0201090304050649
:10073000070809090909090909090909090909092C
:1007400009090909602D00000101010100000001F3
:1007500001000000000100010001001E0001010075
:100760001E010101001E010000001E000100001E0C
:10077000010100001E00308940120BF9EF24E060F7
:100780001324E0601324E0601E2450702A120C9C95
:100790007F0180207F02801C120C05EF700512077C
:1007A000BA80F57F03800D120C05EF70051207BAB1
:1007B00080F57F04120CA9C289227B017A00795648
:1007C000120CAF229000521208AC900051EFF014BE
:1007D000600B24FB600714601624077018120C5479
:1007E000900055EFF0C283900051E0242A8019C296
:1007F000837FA08014900055E0FF14F0EF600F900D
:1008000000521208C11200BCFF120C7280E7D283A2
:100810002290004DEFF024FA500624076030803C0F
:100820007F02120BD390004D1208A48002C333D86C
:10083000FCF45FFD7F021205AA7F01120BD390002A
:100840004D1208A48002C333D8FCF45F8008E4FD95
:100850007F021205AAE4FD7F011205AA2212077683
:10086000120CA3EF640560F5120CA3BF020AC2913B
:10087000120C354402F08008C292120C354404F088
:100880007F647E001203F2120A38E490006BF020BD
:10089000A10204F07B017A00796B7D0A120AD980EB
:1008A000BC90004DE0FE7401A8060822EBF0A3EA1C
:1008B000F0A3E9F022E0FFA3E0FBA3E0FAA3E0F954
:1008C00022E0FBA3E475F00112014EA9F0FA229098
:1008D0000083EFF0A3F0C2832290004E1208AC9088
:1008E000004DEFF014600A24FB50146004240670DD
:1008F0001E90004D1208B5E4900055F00207C49018
:10090000004DE0240A1208B61200BCFD1205AA220E
:10091000D2847F6E7E001203F2120776120CA3EFD0
:100920007006120AF5EF60F1120CA3BF0310E4FF8A
:10093000120BC6BF0104C2908006D2908002D290F2
:10094000E4FF120CA980CBD2847F6E7E001203F2EA
:10095000120776120CA3EF7006120AF5EF60F1127F
:100960000CA3BF0310E4FF120BC6BF0104C29080AA
:1009700006D2908002D290E4FF120CA980CBC0E096
:10098000C083C082C28C758AE9758CCB900089E0E7
:1009900030E002D290900089E030E102D2919000E4
:1009A00089E030E202D292900089E4F0D082D083D4
:1009B000D0E03253D9BF43C980120B42120A5D43C3
:1009C0008801D288C289C2A8D28AC28BC2AAD2BAEE
:1009D000E4FF120B8D74FFFFFEEF1F70011E144E1B
:1009E00070F722120776120CA3EF640560F57F649E
:1009F0007E001203F2120A38E4900061F020A10296
:100A000004F07B017A0079617D0A120AD980D490C2
:100A1000004A1208ACC283EF44A8801390004DE056
:100A2000FF14F0EF600F90004A1208C11200BCFFE3
:100A3000120C7280E7D28322900088E0D3940040A9
:100A400017A28F50028001C350F7120B3740E97F85
:100A5000187E02120B5A80E0C28EC2AB2275F1FFE3
:100A600075F2FF75F3FF75A48D75A563E4F5A675A2
:100A7000806A75907F75A0FFF5E143E24075E465FB
:100A80002290004DEFF0E4FF120BD3EF54F3FF90F0
:100A9000004DE0FE25E025E04FFDE4FF0205AAEF52
:100AA000B4010AE4FF120BD3EF44018008E4FF1203
:100AB0000BD3EF54FEFDE4FF1205AA22EFB4010AA6
:100AC000E4FF120BD3EF44028008E4FF120BD3EFD4
:100AD00054FDFDE4FF1205AA22120C5E9000497439
:100AE00014F0D284900049E0FF14F0EF70F6C28455
:100AF0007F05020CA9E4FD308F14120B3740097FEB
:100B0000187E02120B5A80067D01C28EC2ABAF0561
:100B100022AB07AE04AF057C007DFA1200F9EF149A
:100B2000C454F04BFD7F040205AAC290D28CD2A916
:100B3000D2AF900089E022900088E014F0E0D394D6
:100B4000002243B203E4F5B943B980120C4A43B919
:100B5000C0E5B930E5FBE4F5A922EF4E601043890A
:100B6000108F8BEEF58DD28EC2ABC28FD2AF22C268
:100B7000837F60120C72E4FF120C72D28322C28354
:100B80007F50120C727F73120C72D283228FA27567
:100B9000A140C2FAC2FB43E102D2F8227BFF7A0CE9
:100BA00079B522D290D291D292227F1D120BD3EF2F
:100BB0004404FD7F1D0205AA7F1D120BD3EF4402E2
:100BC000FD7F1D0205AA74562FF582E43400F583DB
:100BD000E0FF22C283120C72E4FF120C72D2832255
:100BE000C291D28CD2A9D2AF900089E02230A1FD6F
:100BF00030A2FA30A3F7020C407D707F071205AADD
:100C0000EF5470FF22120C68BF07037F01227F00A0
:100C100022900049E0FBA3E0FAA3E0F9229000490A
:100C2000E0FBA3E0FAA3E0F922900049E0FBA3E097
:100C3000FAA3E0F922D28CD2A9D2AF900089E022A7
:100C40007F0A7E001203F2020A387F647E001203DC
:100C5000F2020A387F03120BD3EF2402FF22900026
:100C600055EDF07F070207C4120003EF540EC313C3
:100C7000FF228FA330FFFDC2FFAFA322EF24FEFDB2
:100C80007F030205AAEF543FFD7F1C0205AAEF2453
:100C900011FF0205AAAD077F050205AAE4FD7FE169
:100CA0000205AA900060E0FF22900060EFF0227F32
:0A0CB0000812037C22223344550190
:00000001FF
