:020000040800F2
:100000007823002051230008150600081706000871
:100010001B0600081F060008230600080000000059
:10002000000000000000000000000000270600089B
:1000300029060008000000002B0600082D06000815
:100040006B2300086B2300086B2300086B23000858
:100050006B2300086B2300086B2300086B23000848
:100060006B2300086B2300086B2300086B23000838
:100070006B2300086B2300086B2300086B23000828
:100080006B2300086B2300086B2300086B23000818
:100090006B2300086B2300086B2300086B23000808
:1000A0006B2300086B2300086B2300086B230008F8
:1000B0006B2300086B2300086B2300086B230008E8
:1000C0006B2300086B2300086B2300086B230008D8
:1000D0006B230008CB0900086B2300086B23000882
:1000E0006B2300086B2300086B2300086B230008B8
:1000F0006B2300086B2300086B2300086B230008A8
:100100006B2300086B2300086B2300086B23000897
:100110006B2300086B2300086B2300086B23000887
:100120006B2300086B2300086B2300086B23000877
:1001300000F002F800F062F80AA090E8000C824497
:100140008344AAF10107DA4501D100F057F8AFF274
:10015000090EBAE80F0013F0010F18BFFB1A43F0A5
:1001600001031847D0500000F05000000A444FF03F
:10017000000C10F8013B13F0070408BF10F8014B06
:100180001D1108BF10F8015B641E05D010F8016B4B
:10019000641E01F8016BF9D113F0080F1EBF10F8AF
:1001A000014BAD1C0C1B09D16D1E58BF01F801CBD2
:1001B000FAD505E014F8016B01F8016B6D1EF9D555
:1001C0009142D6D37047000000230024002500266A
:1001D000103A28BF78C1FBD8520728BF30C148BFAA
:1001E0000B607047642904F03384732904F0178589
:1001F000002070471FB51FBD10B510BD04F02AFDCB
:100200001146FFF7F7FF00F07FF804F048FD03B454
:10021000FFF7F2FF03BC00F06BFB0000F0B591B0FC
:1002200005467A480F904FF4807010902946684632
:1002300003F0E1FF0446002C39D1284604F044FCC9
:10024000064600BF09A9684604F00EF8044614B932
:100250009DF82D0000B929E09DF82D002E2800D131
:10026000F0E70F98007808B10F9801E00DF12D002C
:1002700007469DF82C0000F0100088B1A8193A46F6
:1002800063A104F073FB294662A004F063FB2846D7
:10029000FFF7C4FF044604B108E00020A85504E0BD
:1002A0003A46294660A004F055FBCBE703E021461F
:1002B00062A004F04FFB204611B0F0BD1CB504460F
:1002C00001AA6946204604F01CF8624908700846F5
:1002D0000078A0B9214660A004F03CFB0198806939
:1002E000801E019B9B785843C10A01988078009B2F
:1002F0005843C20A5EA004F02DFB01201CBD68A07B
:1003000004F028FB0020F9E700F082FA00F0EAFA96
:100310004FF4E13000F0FBFA6AA004F01BFB00F0A0
:10032000D3FB7349002003F065FB4A490870084677
:10033000007820B1084601786EA004F00BFB76A08F
:1003400004F008FB0A227AA17F4803F066FB4149CA
:1003500008700846007828B1084601787BA004F0B0
:10036000F9FA18E07F4B37227F49774803F0FDFC0C
:10037000384908700846007828B97A4801687BA097
:1003800004F0E8FA04E0334801787DA004F0E2FAD2
:100390006D4803F04DFE80A004F0DCFA012264A158
:1003A000834803F03AFB2B4908700846007828B1CF
:1003B0000846017865A004F0CDFA1CE07D4B372299
:1003C0007D497B4803F0EBFB224908700846007822
:1003D00048B97848016879A004F0BCFA764910A0C1
:1003E00004F0B8FA04E01B4801787AA004F0B2FAED
:1003F0006F4803F01DFE7DA004F0ACFA8448FFF7BF
:100400000DFF8348FFF75AFF00BFFEE7F8180020F2
:100410002F2573007363616E2066696C65202D2043
:1004200025730A0D000000007363616E2066696C1D
:1004300065202D2025732F25730A0D007363616ECF
:100440002066696C6573206572726F72203A202590
:10045000640A0D00000000200A0D676574202573F2
:100460002064726976652073706163652E0A0D00E1
:100470002564204D4220746F74616C20647269762B
:10048000652073706163652E0D0A2564204D42203E
:10049000617661696C61626C652E0D0A0000000076
:1004A0000A0D47657420746F74616C2064726976FC
:1004B00065207370616365206661696C64210A0D53
:1004C000000000002A2A2A2A2A2A2A2A2A2A2A2A34
:1004D0002A2053442074657374202A2A2A2A2A2A3F
:1004E0002A2A2A2A2A2A2A2A2A2A0D0A0000000051
:1004F000800200206D6F756E742066696C6573797B
:100500007374656D2030206661696C6564203A20E3
:1005100025640A0D00000000777269746520666921
:100520006C6520746573742E2E2E2E2E2E0A0D00EF
:10053000303A2F6C6F6E6766696C656E616D6574BD
:100540006573742E74787400D40600206F70656E25
:100550002066696C65206572726F72203A2025648E
:100560000A0D0000080000200C0200207772697458
:10057000652064617461206F6B212025640A0D0081
:1005800077726974652064617461206572726F723C
:10059000203A2025640A0D00726561642066696C4A
:1005A0006520746573742E2E2E2E2E2E0A0D0000DB
:1005B000B004002004000020F80800207265616487
:1005C0002064617461206E756D203A2025640A0DE7
:1005D00000000000726561642066696C65206572C8
:1005E000726F72203A2025640A0D00000A0D6265C0
:1005F00067696E207363616E2066696C6573207035
:10060000617468302E2E2E2E2E2E0A0D0000000052
:100610000C000020704700BFFEE700BFFEE700BFF0
:10062000FEE700BFFEE77047704770477047000065
:100630000CB50020019000906C48006840F48030B8
:100640006A49086000BF6948006800F40030009003
:100650000198401C0190009818B90198B0F5A06F5E
:10066000F1D16248006800F4003010B10120009020
:1006700001E0002000900098012843D15C48006808
:1006800040F010005A4908600846006820F0030056
:1006900008600846006840F002000860534840685F
:1006A000524948600846406848600846406840F43F
:1006B000806048600846406820F47C104860084626
:1006C000406840F4E81048600846006840F08070D8
:1006D000086000BF4548006800F000700028F9D0AD
:1006E0004248406820F0030040494860084640689E
:1006F00040F00200486000BF3C48406800F00C0039
:100700000828F9D10CBD10B5FFF792FF10BD10B548
:100710003648006840F001003449086008464068E7
:100720003449084031494860084600683249084069
:100730002E4908600846006820F4802008600846BA
:10074000406820F4FE0048604FF41F008860FFF707
:10075000DAFF4FF000602949086010BD10B5002194
:1007600000200022214B5B6803F00C0121B1042919
:1007700006D0082928D107E0214B224C236027E02E
:100780001F4B204C236023E0184B5B6803F4701070
:10079000164B5B6803F48032022303EB904022B9CE
:1007A000194B4343174C23600DE0104B5B6803F477
:1007B000003323B1144B4343124C236003E0104B2E
:1007C0004343104C236003E00D4B0E4C236000BFED
:1007D00000BF064B5B68C3F303130C4CE15C094B91
:1007E0001B68CB40074C236010BD00000010024086
:1007F000002002400000FFF8FFFFF6FE08ED00E0D9
:1008000000127A004402002000093D004802002046
:1008100010B56FF0040000F072FE2E4800682E49FB
:10082000B0FBF1F02D4908700846007800EB40015C
:10083000C1EBC0104FF6FF7101EAC00028490880E3
:1008400010BD0146254A12784A434FF0E0235A6111
:1008500000229A611A46126942F001021A6100BF31
:100860004FF0E022106900F001021AB100F480326A
:10087000002AF5D04FF0E022126922F001024FF079
:10088000E0231A6100229A6170470146144A1288D7
:100890004A434FF0E0235A6100229A611A461269D6
:1008A00042F001021A6100BF4FF0E022106900F02F
:1008B00001021AB100F48032002AF5D04FF0E02294
:1008C000126922F001024FF0E0231A6100229A61BE
:1008D000704700004402002000127A0058020020F5
:1008E0005A02002010B54FF4A06000F0B9FD10BD11
:1008F000014600BF704700BF5A4A128802F040020A
:10090000002AF9D0C2B2574B1B1D1A80704710B590
:1009100086B00446012144F2040001F02BF951484D
:1009200001F012FB4FF40070ADF8140003208DF8B5
:10093000160018208DF8170005A94B4800F05EFE40
:100940004FF48060ADF8140004208DF8170005A95D
:10095000454800F053FE25208DF8000003208DF857
:1009600001008DF8020001208DF80300684600F0B8
:100970007CFD01940020ADF80800ADF80A00ADF848
:100980000C00ADF810000C20ADF80E0001A93548A0
:1009900001F01DFB012240F22551324801F0AFFB6E
:1009A0000121304801F09FFB06B010BD70B5044630
:1009B0000D462946204601F003FC00BF4021204699
:1009C00001F06CFC0128F9D170BD10B540F2255141
:1009D000244801F079FC002843D040F225512148F9
:1009E00001F09CFC1F4801F0EFFBC4B21F480088D7
:1009F00000F40040F8B91D48008800F4804090B130
:100A00000A2C03D00020194908802AE017480088E2
:100A100040F400401549088000200988C1F30D0109
:100A2000134A50541DE00D2C06D11048008840F4A4
:100A300080400E49088014E00C480088C0F30D0087
:100A40000B490C542146074801F0BAFB07480088BF
:100A5000401C0649088008460088C72801DD0020A0
:100A6000088010BD003801400008014060020020ED
:100A7000F819002010B586B004460020ADF8040037
:100A80004FF48270ADF806000020ADF80800022097
:100A9000ADF80A000120ADF80C004002ADF80E00E0
:100AA0000020ADF812000720ADF814001CB9382062
:100AB000ADF8100002E01020ADF8100001A9F748D1
:100AC00001F0E2F806B010BD08B50121080301F0FD
:100AD00051F801210D2001F04DF8E020ADF80000A3
:100AE00003208DF8020018208DF803006946EC48B9
:100AF00000F084FD1020ADF8000003208DF8020006
:100B000010208DF803006946E54800F077FD0120CC
:100B1000ADF8000003208DF8020048208DF8030096
:100B20006946E04800F06AFD1020DD491031086098
:100B30000120FFF79FFF0121D84801F04AF908BDC5
:100B40002DE9F04106460C461746FF2004F0B4F8A4
:100B50001020D3491431086046F0400004F0ACF88E
:100B6000200E04F0A9F8C4F3074004F0A5F8C4F37C
:100B7000072004F0A1F8E0B204F09EF8384604F033
:100B80009BF84FF000080AE0FF2004F095F8C5B28A
:100B9000FF2D00D006E008F1010000F0FF08B8F1D9
:100BA000C80FF1DB00BF2846BDE8F0812DE9F04118
:100BB00006460C461746FF2004F07EF81020B84980
:100BC0001431086046F0400004F076F8200E04F07E
:100BD00073F8C4F3074004F06FF8C4F3072004F07F
:100BE0006BF8E0B204F068F8384604F065F84FF0AE
:100BF00000080AE0FF2004F05FF8C5B2FF2D00D026
:100C000006E008F1010000F0FF08B8F1C80FF1DBC1
:100C100000BF1020A24910310860FF2004F04CF8FA
:100C20002846BDE8F0817CB50020009001909D48E9
:100C30000830006800F0010010B14FF0FF307CBDBB
:100C4000002401E0601C84B2FF2CFBDD002404E0E2
:100C5000FF2004F031F8601C84B20A2CF8DB002479
:100C60000BE0952200210846FFF7A0FFC5B2012D39
:100C700001D1002405E0601C84B240F6FF7084427C
:100C8000EFDB00BF40F6FF70844201D10120D6E7C0
:100C900087224FF4D5710820FFF752FFC5B2052D0A
:100CA0005DD10120804981F84E0010207C4910312F
:100CB0000860FF2004F000F8002414E00022114630
:100CC0003720FFF773FFC5B2012D01D02846B6E7E4
:100CD000002211462920FFF769FFC5B20DB9002493
:100CE00005E0601C84B240F6FF708442E6DB00BF82
:100CF00040F6FF7084421BD100240AE00022114616
:100D00000120FFF753FFC5B20DB9002405E0601CB8
:100D100084B240F6FF708442F0DB00BF40F6FF7003
:100D2000844201D102208AE700205F4981F84E0009
:100D30000120FFF79FFE012200213B20FFF736FF35
:100D4000C5B20DB128467AE7FF224FF4007110209A
:100D5000FFF72CFFC5B2002D7DD028466FE7012D8F
:100D600079D1FF2003F0A8FFC0B28DF80000FF206A
:100D700003F0A2FFC0B28DF80100FF2003F09CFF3A
:100D8000C0B28DF80200FF2003F096FFC0B28DF8CC
:100D900003001020424910310860FF2003F08CFF4F
:100DA0009DF80200012861D19DF80300AA285DD1B9
:100DB000002415E0002211463720FFF7F7FEC5B2E8
:100DC000012D01D028463AE700224FF0804129202A
:100DD000FFF7ECFEC5B20DB9002405E0601C84B23B
:100DE00040F6FF708442E5DB00BF40F6FF708442AE
:100DF00001D1032023E7002211463A20FFF7A0FE8D
:100E0000C5B20DB128461AE7FF2003F055FFC0B266
:100E10008DF80000FF2003F04FFFC0B28DF80100F5
:100E2000FF2003F049FFC0B28DF80200FF2003F05D
:100E300043FFC0B28DF8030010201949103108603B
:100E4000FF2003F039FF9DF8000000F0400030B1B2
:100E50000420154900E009E081F84E0003E002207B
:100E6000114981F84E000120FFF704FE0020E6E65C
:100E70002DE9F04105460E46174610200849143169
:100E80000860002414E0FF2003F016FF00F0FF08C4
:100E9000B8F1FE0F0AD100240DE00000003001403F
:100EA00000080140000C0140C01A0020601C84B200
:100EB000B4F5FA6FE7DB00BFB4F5FA6F05D1102087
:100EC000F94908600120BDE8F081002405E0FF2019
:100ED00003F0F2FE2855601C84B2B442F7DBFF2019
:100EE00003F0EAFEFF2003F0E7FE2FB11020EE49E9
:100EF0000860FF2003F0E0FE0020E4E730B589B091
:100F00000446FF2200210920FFF750FEC5B215B1AB
:100F1000284609B030BD0122102105A8FFF7A8FF1F
:100F200008B10120F5E7FF2200210A20FFF73EFE6D
:100F3000C5B20DB12846ECE70122102101A8FFF748
:100F400097FF08B10220E4E79DF8140080092070A3
:100F50009DF81400C0F3830060709DF8140000F049
:100F60000300A0709DF81500E0709DF81600207138
:100F70009DF8170060719DF818000001E080E0887E
:100F80009DF8191040EA1110E0809DF8190000F05A
:100F90000F0020729DF81A00C00960729DF81A00B7
:100FA000C0F38010A0729DF81A00C0F34010E072E8
:100FB0009DF81A00C0F300102073002060739DF8A4
:100FC0001A008007000D206120699DF81B1040EA7F
:100FD0008100206120699DF81C1040EA9110206179
:100FE0009DF81C00C0F3C20020759DF81C0000F0A5
:100FF000070060759DF81D004009A0759DF81D0053
:10100000C0F38200E0759DF81D008007400F207638
:10101000207E9DF81E1040EAD11020769DF81E001B
:10102000C0F3840060769DF81E008007C00EA07695
:10103000A07E9DF81F1040EA5110A0769DF81F0079
:1010400000F01F00E0769DF82000C00920779DF891
:101050002000C0F3411060779DF82000C0F38200AB
:10106000A0779DF820008007000FE077E07F9DF8D3
:10107000211040EA9110E0779DF82100C0F3401064
:1010800084F82000002084F821009DF8210000F061
:10109000010084F822009DF82200C00984F8230092
:1010A0009DF82200C0F3801084F824009DF82200EF
:1010B000C0F3401084F825009DF82200C0F3001012
:1010C00084F826009DF82200C0F3810084F82700F0
:1010D0009DF8220000F0030084F828009DF823000A
:1010E000400884F82900012084F82A0094F84E0072
:1010F000042808D19DF81C000002206120699DF899
:101100001D10084420612069C00460644FF4007021
:10111000A0649DF8040084F82C009DF805000102ED
:10112000E185E08D9DF806100843E0859DF80700F5
:1011300001062163206B9DF8081040EA01412163FC
:10114000206B9DF8091040EA01212163206B9DF876
:101150000A10084320639DF80B10342001559DF8B8
:101160000C10352001559DF80D000106A163A06B00
:101170009DF80E1040EA0141A163A06B9DF80F108D
:1011800040EA0121A163A06B9DF810100843A06301
:101190003C20005D9DF8111040EA11113C200155E2
:1011A0009DF811000007010DE187E08F9DF81210F6
:1011B0000843E0879DF813004108402001550121B4
:1011C000412001550020A4E670B504460E4637487C
:1011D00090F84E00042800D064020022214611201D
:1011E000FFF7E4FCC5B20DB1012070BD0122510230
:1011F0003046FFF73DFEC5B2002211460C20FFF736
:10120000D5FC2846F1E72DE9F04105460E46174684
:10121000264890F84E00042800D06D02002229468E
:101220001220FFF7C3FC00F0FF08B8F1000F02D056
:101230000120BDE8F081002412E006EB44200022EA
:101240004FF40071FFF714FE48B1002211460C2044
:10125000FFF7ACFC1020144908600220E9E7641C89
:10126000BC42EAD3002211460C20FFF79FFC10205D
:101270000D490860FF2003F01FFD0020D9E72DE98C
:10128000F04104460D46094890F84E00042800D06D
:101290006402002221461820FFF788FCC6B23EB146
:1012A0000120BDE8F081000010080140C01A0020B4
:1012B000102069490860FF2003F0FEFCFF2003F0C6
:1012C000FBFCFF2003F0F8FCFE2003F0F5FC0027F8
:1012D00005E015F8010B03F0EFFC781C87B2B7F5B9
:1012E000007FF6DBFF2003F0E7FCFF2003F0E4FCC7
:1012F000FF2003F0E1FCC6B206F01F00052805D070
:1013000010205549091F08600220CAE74FF0000865
:101310000BE0404608F10108B0F5802F05D1102000
:101320004D49091F08600320BBE7FF2003F0C4FC00
:101330000028EED010204849091F0860FF2003F064
:10134000BBFC0020ADE72DE9F04705460E461746E9
:10135000424890F84E00042800D06D023F4890F8B3
:101360004E0020B1002239461720FFF71FFC002253
:1013700029461920FFF71AFCC4B214B10120BDE8B8
:10138000F087102034490860FF2003F095FC4FF0EF
:1013900000083AE0FC2003F08FFC4FF0000907E062
:1013A00016F8010B03F088FC09F101001FFA80F91F
:1013B000B9F5007FF4DBFF2003F07EFCFF2003F093
:1013C0007BFCFF2003F078FCC4B204F01F0005286A
:1013D00005D010202049091F08600220CFE74FF0F8
:1013E000000A0BE050460AF1010AB0F5802F05D142
:1013F00010201949091F08600320C0E7FF2003F0EF
:101400005BFCFF28EED108F10108B845C2D3FD20EE
:1014100003F052FCC4B20CB90420B0E74FF0000A4C
:101420000BE050460AF1010AB0F5802F05D11020DB
:101430000949091F08600520A1E7FF2003F03CFCD3
:10144000FF28EED110200449091F0860FF2003F097
:1014500033FC002093E7000014080140C01A00206C
:1014600031490143314A1160704770B500210023B2
:101470000F22C47804B32D4C246804F4E064C4F54E
:10148000E064210AC1F10403CA40447804FA03F17C
:101490008478144021430901254C0678A15504782D
:1014A00004F01F050124AC4005786D11AD0005F175
:1014B000E025C5F8004109E0047804F01F05012487
:1014C000AC401C4D0678761145F8264070BD1A4A8E
:1014D0000A400243154B1B1F1A60704739B1134A6B
:1014E000121D12680243114B1B1D1A6006E00F4AC1
:1014F000121D126882430D4B1B1D1A607047042891
:1015000008D14FF0E021096941F004014FF0E022D9
:10151000116107E04FF0E021096921F004014FF06B
:10152000E0221161704700000000FA050CED00E0B8
:1015300000E400E080E100E080FFFF1F10B50446FA
:10154000CC48844208D10121042000F02DFB002169
:10155000042000F029FB46E0C748844208D101215D
:10156000082000F021FB0021082000F01DFB3AE0DC
:10157000C248844208D10121102000F015FB00214F
:10158000102000F011FB2EE0BD48844208D101215B
:10159000202000F009FB0021202000F005FB22E0C4
:1015A000B848844208D10121402000F0FDFA002112
:1015B000402000F0F9FA16E0B348844208D1012136
:1015C000802000F0F1FA0021802000F0EDFA0AE01E
:1015D000AE48844207D10121801500F0E5FA0021D0
:1015E000A01500F0E1FA10BD10B50121084600F089
:1015F000DBFA0021012000F0D7FA10BD2DE9F041FF
:10160000024600250026002000230024002791F830
:1016100003C00CF00F0591F803C00CF0100CBCF1E6
:10162000000F03D091F802C04CEA050591F800C004
:10163000BCF1000F31D0146800202BE04FF0010CFA
:101640000CFA00F3B1F800C00CEA03069E4220D168
:1016500083004FF00F0C0CFA03F7BC4305FA03FCB0
:101660004CEA040491F803C0BCF1280F06D14FF0F6
:10167000010C0CFA00FCC2F814C00AE091F803C097
:10168000BCF1480F05D14FF0010C0CFA00FCC2F878
:1016900010C0401C0828D1D31460B1F800C0BCF1C0
:1016A000FF0F34DD546800202EE000F1080C4FF0ED
:1016B000010808FA0CF3B1F800C00CEA03069E42D8
:1016C00021D183004FF00F0C0CFA03F7BC4305FA4D
:1016D00003FC4CEA040491F803C0BCF1280F05D1C7
:1016E00000F1080C08FA0CF8C2F8148091F803C055
:1016F000BCF1480F07D100F1080C4FF0010808FABF
:101700000CF8C2F81080401C0828CED35460BDE805
:10171000F0814FF6FF710180022181700421C170B8
:1017200070470246002093680B400BB1012000E097
:10173000002070470146886880B27047024600204A
:10174000D3680B400BB1012000E000207047014638
:10175000C86880B2704701617047416170470AB143
:10176000016100E041617047C16070474FF4803211
:101770000A4382618161826182698269704702469F
:101780000020434B18684FF68073184040EA02105F
:1017900008433F4B186070473E49C8617047F0B539
:1017A0000A46002300240021002500F00046B6F17F
:1017B000004F02D1364EF16901E0354E7168C0F339
:1017C000034583B200F44016B6F5401F08D121F05E
:1017D00070612F4E766826F070662D4F7E6012E0A5
:1017E00000F48016B6F5801F06D1032606FA05F42C
:1017F000A14341F0706106E0460D360103FA06F69A
:10180000B14341F0706122B1460D360103FA06F68C
:10181000314300F00046B6F1004F02D11C4EF16199
:1018200001E01B4E7160F0BD30B500228B071C0F2C
:101830000F2303FA04F2164B08338C1053F82430AC
:101840009343134C08348D1044F8253023468C10F4
:1018500053F824308C07240F00FA04F423430C4C73
:1018600008348D1044F8253030BD0A49DC31086059
:101870007047000000080140000C014000100140CA
:101880000014014000180140001C014000200140EC
:101890000000014000002042DF48006840F00100E5
:1018A000DD49086008464068DC490840DA4948607C
:1018B00008460068DA490840D749086008460068C9
:1018C00020F4802008600846406820F4FE0048604C
:1018D0004FF41F0088607047CF49096821F48031B8
:1018E000CD4A11601146096821F480211160B0F5DC
:1018F000803F03D0B0F5802F0ED106E0C6490968BD
:1019000041F48031C44A116007E0C349096841F4D9
:10191000A021C14A116000E000BF00BF704710B5B0
:1019200001460022002300204A11012A02D1BA4CAC
:10193000236806E0022A02D1B74C236A01E0B64CC4
:10194000636A01F01F02012494401C400CB1012085
:1019500000E0002010BD38B50020009000240025D4
:1019600000BF3120FFF7DBFF05460098401C0090C8
:101970000098B0F5A06F01D0002DF2D03120FFF714
:10198000CEFF08B1012400E00024204638BD014606
:101990000020A14A106820F0F80040EAC100106061
:1019A0007047A04908607047024600209A4B58686B
:1019B00020F47C1042EA01031843974B58607047AB
:1019C00098490866704701460020934A506820F005
:1019D00003000843506070478F48406800F00C00D7
:1019E0007047014600208C4A506820F0F000084300
:1019F0005060704701460020874A506820F4E0603C
:101A000008435060704701460020834A506820F424
:101A1000605040EAC1005060704729B17E4A527A56
:101A200002437D4B5A7204E07B4A527A82437A4BDE
:101A30005A7270477B49D8310860704701460020D0
:101A4000754A506820F440400843506070470021B8
:101A5000714A20321170704A82F82010012802D099
:101A600004280AD104E001216B4A2032117005E0FC
:101A70000521694A2032117000E000BF00BF7047A5
:101A80006949086070476449096A0143624A116202
:101A90007047654944390860704730B5002100221D
:101AA000002400235C4D6D6805F00C0121B1042970
:101AB00005D0082923D105E05C4D056022E05B4D8F
:101AC00005601FE0544D6D6805F47012524D6D684D
:101AD00005F48034022505EB92421CB9544D554360
:101AE00005600BE04C4D6D6805F400351DB1504D9F
:101AF0005543056002E04D4D5543056002E04B4DF6
:101B0000056000BF00BF444D6D6805F0F001090994
:101B1000484D6B5C0568DD4045603F4D6D6805F4E0
:101B2000E061090A434D6B5C4568DD4085603A4DD4
:101B30006D6805F46051C90A3E4D6B5C4568DD4037
:101B4000C560354D6D6805F44041890B3A4D6B5CBD
:101B5000C568B5FBF3F5056130BD29B12E4A526960
:101B600002432D4B5A6104E02B4A526982432A4BAF
:101B70005A61704729B1284A92690243264B9A61FB
:101B800004E0254A92698243234B9A61704729B148
:101B9000214AD2690243204BDA6104E01E4AD2692D
:101BA00082431D4BDA61704729B11B4AD268024358
:101BB000194BDA6004E0184AD2688243164BDA60A7
:101BC000704729B1144A12690243134B1A6104E0A9
:101BD000114A12698243104B1A6170471249403909
:101BE000086070470F49C86470470B49C871704757
:101BF0000948406A40F080700749486270470146D2
:101C00000020054A92680A400AB1012000E0002045
:101C10007047014988727047001002400000FFF8C9
:101C2000FFFFF6FE000042428004424200127A00AA
:101C300000093D00620200207202002010B5044637
:101C4000BE48844208D101218014FFF7ADFF002176
:101C5000A014FFF7A9FF16E0B948844208D101217A
:101C60000014FFF7AEFF00212014FFF7AAFF0AE0DF
:101C7000B448844207D10121C013FFF7A2FF00211D
:101C8000E013FFF79EFF10BD10B50022028802F49A
:101C900041520B884C8823438C882343CC882343B0
:101CA0000C8923434C8923438C892343CC892343C8
:101CB0001A430280838B4FF2FF74234083830B8A85
:101CC000038210BD2DE9F04F85B005460C464FF05C
:101CD000000902274FF000084FF0010B0026B24622
:101CE000A88B4FF240010840A88302202884B5F851
:101CF0001C90A068022801D100BF38E0A08810B96C
:101D00004FF0010B01E04FF0020B8D48854200D1EE
:101D100000E000BF6846FFF7C0FEDDF800A0E088E5
:101D2000B0F5007F0AD14FEA1A2000EB8000400096
:101D3000A168B0FBF1F0401D86B20BE04FEA4B10FA
:101D4000BAFBF0F000EB80004000A168B0FBF1F0BE
:101D5000401D86B20A20B6FBF0F606F00108A6EB9D
:101D60000800C0F34F074FF6FF7000EA0828022F63
:101D700001DBFF2F02DD02274FF00008E08840EA78
:101D8000080038432884A088A18908436188084353
:101D90002188084340F4006040EA0909A5F81C9036
:101DA00005B0BDE8F08F0021018041808180C180B5
:101DB000018141818181C181072101827047002118
:101DC000018041808180C180022181600021818168
:101DD000704721B1028842F04002028004E002888C
:101DE0004FF6BF731A400280704721B1828B42F4D4
:101DF0008062828304E0828B4FF6FF331A40828335
:101E0000704730B5002400230C110125A540ABB26A
:101E10001AB185881D43858002E085889D438580B1
:101E200030BD1AB183880B43838002E083888B43E3
:101E300083807047818170470146888970474FF6DB
:101E4000FF62914204D0028842F48072028004E072
:101E500002884FF6FF631A400280704721B18288E2
:101E600042F00402828004E082884FF6FB731A403D
:101E70008280704702884FF2FF731A400280028806
:101E80000A4302807047018841F480510180704705
:101E900021B1028842F40052028004E002884DF62B
:101EA000FF731A400280704702460020012901D0CA
:101EB000108B00E0908A70470146088A7047B1F5A0
:101EC000804F04D1028842F48042028004E00288FC
:101ED0004BF6FF731A4002807047024600201389B8
:101EE0000B400BB1012000E000207047CA43028183
:101EF0007047F0B50246002000240023002501F0C1
:101F00000F070126BE40B4B20B1101269E40B3B2AA
:101F1000968806EA03051689264016B10DB1012000
:101F200000E00020F0BD10B5002201F00F040123F5
:101F3000A3409AB2D343038110BD0000003001409A
:101F400000380040003C004010B50446FB48844285
:101F500009D101218803FFF727FE00214FF48040BB
:101F6000FFF722FE32E0F648844209D101214804FD
:101F7000FFF727FE00214FF40030FFF722FE25E097
:101F8000F048844209D101218804FFF71AFE00219C
:101F90004FF48020FFF715FE18E0EB48844209D18A
:101FA0000121C804FFF70DFE00214FF40020FFF7C8
:101FB00008FE0BE0E548844208D101210805FFF73F
:101FC00000FE00214FF48010FFF7FBFD10BD2DE94E
:101FD000F04786B005460E460024A24600BFA14643
:101FE0000027B08900B100BF2F462C8A4CF6FF7045
:101FF0000440F08804432C82AC894EF6F310044070
:10200000B08831890843718908430443AC81AC8AA4
:102010004FF6FF400440B0890443AC8201A8FFF7AB
:102020003CFDC648874202D1DDF810A001E0DDF892
:102030000CA0A88900F4004040B10AEBCA0000EBF4
:102040000A1031684900B0FBF1F807E00AEBCA005A
:1020500000EB0A1031688900B0FBF1F86420B8FB8E
:10206000F0F004012009642101FB1089A88900F423
:10207000004040B1322000EBC900B0FBF1F000F0AD
:102080000700044308E0322000EB09106421B0FB94
:10209000F1F000F00F0004432C8106B0BDE8F0879A
:1020A0004FF41651016000218180C18001810C2113
:1020B000418100218181704710B502460020108ABD
:1020C0004FF2FF0318400B884C8823438C8823432E
:1020D000CC8823431843108210BD00210180418029
:1020E0008180C180704721B1828942F4005282818F
:1020F00004E082894DF6FF731A4082817047F0B583
:102100000346002400260025002040F66A17B94245
:1021100000D100BF1846C1F3421401F01F06012789
:1021200007FA06F5012C01D10C3004E0022C01D194
:10213000103000E014301AB107682F43076002E046
:102140000768AF430760F0BD1AB1838A0B438382EF
:1021500002E0838A8B4383827047028A4FF6F073D2
:102160001A400282028A0A430282704782894FF231
:10217000FF731A40828182890A438281704721B1AC
:10218000828942F00202828104E082894FF6FD7367
:102190001A4082817047028A4FF6DF731A4002822A
:1021A000028A0A430282704721B1028A42F48042C5
:1021B000028204E0028A4BF6FF731A4002827047E3
:1021C000C1F308028280704701468888C0F3080086
:1021D0007047818941F0010181817047028BD2B241
:1021E0000283028B42EA012202837047028B02F4CF
:1021F0007F420283028B0A430283704721B1828AA5
:1022000042F02002828204E0828A4FF6DF731A4095
:102210008282704721B1828A42F01002828204E0F9
:10222000828A4FF6EF731A408282704721B1828A08
:1022300042F00802828204E0828A4FF6F7731A4065
:102240008282704721B1828942F40042828103E098
:102250008289C2F30E028281704721B1828A42F4E0
:102260000062828204E0828A4FF2FF731A40828207
:102270007047828A4FF6FB731A408282828A0A4331
:102280008282704721B1828A42F00202828204E097
:10229000828A4FF6FD731A40828270470246002000
:1022A000B1F5007F00D100BF13880B400BB10120B6
:1022B00000E00020704701F40072B2F5007F00D109
:1022C00000BFCA430280704770B502460024002355
:1022D0000025002040F66A16B14200D100BFC1F3CC
:1022E000421501F01F03012606FA03F3012D02D166
:1022F0009689334006E0022D02D1168A334001E070
:10230000968A33400C12012606FA04F416883440EB
:1023100013B10CB1012000E0002070BD10B5002207
:10232000002340F66A14A14200D100BF0A12012422
:102330009440A3B2DC43048010BD0000003801408B
:102340000044004000480040004C00400050004065
:102350000948804709480047FEE7FEE7FEE7FEE739
:10236000FEE7FEE7FEE7FEE7FEE7FEE70448054975
:10237000054A064B704700000F07000831010008AE
:10238000781D002078230020781F0020781F00206F
:1023900070B5054635B1012D0CD0022D0CD0032DA2
:1023A0000ED10BE0FEF73FFC04460CB9002070BDD7
:1023B0000120FCE70020FAE70020F8E70020F6E71C
:1023C0000120F4E7014621B1012904D0022906D1F8
:1023D00003E0002070470020FCE70020FAE701201E
:1023E000F8E72DE9F0410646884617461C4614B921
:1023F0000420BDE8F08116B1012E1DD116E0012C9C
:1024000009D141463846FEF7DFFE05460DB90020EA
:10241000EFE70120EDE7224641463846FEF7F3FE9E
:1024200005460DB90020E4E70120E2E7012C01D1C7
:102430000020DEE70020DCE70120DAE72DE9F041AB
:102440000646884617461C4614B90420BDE8F081AC
:1024500016B1012E1DD116E0012C09D14146384696
:10246000FEF70DFF05460DB90020EFE70120EDE76F
:10247000224641463846FEF766FF05460DB9002064
:10248000E4E70120E2E7012C01D10020DEE7002093
:10249000DCE70120DAE770B505460C46164645BB79
:1024A0002648FEF72BFD0F2C22D2DFE804F0080AA5
:1024B000211321191A1B21211C1D1E1F2000002081
:1024C00070BD1E48406C1D49896CB0FBF1F0306056
:1024D0000020F5E71948B0F8480030800020EFE709
:1024E00006E005E004E003E002E001E000E000BFF8
:1024F00020E0012D1CD10F2C19D2DFE804F0080ACE
:102500000C0E1810111218181314151617000020AD
:10251000D6E70020D4E70020D2E70020D0E706E08D
:1025200005E004E003E002E001E000E000BF01E0BC
:102530000420C5E70420C3E700207047C01A00202C
:1025400070B503460C4603E014F8015B03F8015B29
:10255000151EA2F10102F7D170BD30B5034601E0AE
:1025600003F8011B141EA2F10102F9D130BDF0B530
:1025700003461C460D46002000BF161EA2F10102B4
:1025800007D014F8017B15F801CBA7EB0C06301E21
:10259000F3D0F0BD024600E0521C107810B1107864
:1025A0008842F9D1107870472DE9F04104460D4674
:1025B000E66AAE422FD0207908B360780123324614
:1025C00004F13001FFF73AFF10B10120BDE8F081BE
:1025D00000202071D4E907100844B0420FD9E778F1
:1025E0000AE0E069064460780123324604F13001D4
:1025F000FFF724FF781EC7B2012FF2DC00BF55B1F0
:10260000607801232A4604F13001FFF7EAFE08B1A1
:102610000120DBE7E5620020D8E770B50446002121
:102620002046FFF7C1FF0546002D59D12078032829
:102630004FD1607900284CD00020E0624FF4007246
:10264000002104F13000FFF788FF552184F82E1295
:10265000AA2184F82F12522084F830005221312010
:10266000015561213220015541213320015572214C
:1026700084F8141284F81512412184F8161261218D
:1026800084F81712217C84F81812208A010A84F831
:1026900019122069010C84F81A122069010E84F8BD
:1026A0001B12217B84F81C12A089010A84F81D12D8
:1026B000E068010C84F81E12E068010E84F81F1215
:1026C0006078012304F130016269FFF7B7FE002052
:1026D0006071607800221146FFF7DDFE00B1012530
:1026E000284670BD0246891E9069801E884201D826
:1026F000002070479378906A01FB0300F9E72DE909
:10270000F04105460C46022C02D3A869A04202D82B
:102710000120BDE8F0812878012804D002282CD0BF
:1027200003285AD13DE0274607EB5707286A00EBFC
:1027300057212846FFF738FF00B14EE0C7F30801E4
:1027400005F1300010F801807F1C286A00EB57214A
:102750002846FFF729FF00B13FE0C7F3080105F164
:102760003000405C48EA002804F0010010B14FEA54
:102770001810CEE7C8F30B00CBE7286A00EB142152
:102780002846FFF711FF00B127E040F2FF1000EAF2
:10279000440105F130000E183078717840EA0120CC
:1027A000B7E7286A00EBD4112846FFF7FDFE00B119
:1027B00013E040F2FF1000EA840105F130000E182A
:1027C000F0780006B17840EA0140717840EA0120D3
:1027D0003178084320F070409BE700BF4FF0FF3096
:1027E00097E72DE9F04705460E461746022E02D31D
:1027F000A869B04202D84FF002088AE02878012880
:1028000004D0022841D003287DD154E0B14609EB21
:102810005909286A00EB59212846FFF7C5FE804672
:10282000B8F1000F00D071E0C9F3080105F13000E4
:102830000C1806F0010020B1F9B2207861F31F10E6
:1028400000E03846207009F1010901202871286A4A
:1028500000EB59212846FFF7A7FE8046B8F1000F8C
:1028600000D053E0C9F3080105F130000C1806F060
:10287000010010B1C7F3071005E0207800F0F00068
:10288000C7F303210843207040E0286A00EB1621BB
:102890002846FFF789FE8046B8F1000F00D035E0EA
:1028A00040F2FF1000EA460105F130000C182770D5
:1028B000380A60702AE0286A00EBD6112846FFF734
:1028C00073FE8046B8F1000F00D01FE040F2FF1009
:1028D00000EA860105F130000C18E0780006A178C6
:1028E00040EA0140617840EA01202178084300F085
:1028F000704007432770380A6070380CA070380E9B
:10290000E07003E0FFE74FF0020800BF00BF0120C6
:1029100028714046BDE8F0872DE9F04104460E4697
:10292000022E02D3A069B04201D8022725E0002779
:102930001FE031462046FFF7E2FE054605B91BE0E1
:10294000012D01D1022717E0681C08B9012713E007
:10295000002231462046FFF744FF074607B10BE04F
:102960002069401C20B12069401C20610120607159
:102970002E46A069B042DCD800BF3846BDE8F081E1
:102980002DE9F04704468946B9F1000F06D1E76802
:1029900017B1A069B84211D801270FE04946204677
:1029A000FFF7ADFE0646022E02D20120BDE8F087F9
:1029B000A069B04201D93046F8E74F463D4600BF16
:1029C0006D1CA069A84204D80225BD4201D900208F
:1029D000ECE729462046FFF792FE064606B909E0D5
:1029E000701C08B1012E01D13046DFE7BD42E7D1AE
:1029F0000020DBE700BF6FF0704229462046FFF75A
:102A0000F0FE8046B8F1000F08D1B9F1000F05D0F3
:102A10002A4649462046FFF7E4FE8046B8F1000FFB
:102A200009D1E5602069401C68B12069401E206121
:102A30000120607107E0B8F1010F02D14FF0FF30C3
:102A400000E0012005462846B0E72DE9F0410446A4
:102A50000E46E680A568012D03D020688069A84253
:102A600002D80220BDE8F0812DB920680078032843
:102A700001D12068456A65B9E56020680089B042E7
:102A800001DC0220EEE72068406A00EB16102061AE
:102A900020E020688078070112E029462068FFF7CF
:102AA0002EFE0546681C08B90120DBE7022D03D382
:102AB00020688069A84201D80220D3E7F01B86B2C3
:102AC000BE42EADAE56029462068FFF70BFE00EB1C
:102AD000161020612068303006F00F0100EB411025
:102AE00060610020BEE72DE9F0410446884600BF42
:102AF000E088401C86B20EB1206910B90420BDE800
:102B0000F08106F00F0000286FD12069401C206181
:102B1000E06828B920680089B04266DC0420EEE74E
:102B200020688078401E00EA161000285DD1E16818
:102B30002068FFF7E4FD0546012D01D80220DEE7FD
:102B4000681C08B90120DAE720688069A84246D8E5
:102B5000B8F1000F01D10420D1E7E1682068FFF748
:102B60000FFF05460DB90720C9E7012D01D102204D
:102B7000C5E7681C08B90120C1E700212068FFF7FC
:102B800013FD08B10120BAE7216801F130004FF4CC
:102B900000720021FFF7E1FC29462068FFF7A2FD43
:102BA0002168C862002710E0012021680871002117
:102BB0002068FFF7F9FC08B10120A0E72068C06A8F
:102BC000401C2168C862781CC7B220688078B8426F
:102BD000EADC2068C06AC01B2168C86200BFE560EB
:102BE00029462068FFF77EFD2061E68020683030AE
:102BF00006F00F0100EB4110606100207FE72DE936
:102C0000F04705460C46207820F04000401E00EBBF
:102C1000800101EBC00600274FF0010800BFFA4811
:102C2000C05D205CF849C95D2144497840EA01292A
:102C3000B8F1000F10D0484601F06DFE8046FF2E1F
:102C400007D23146761C35F8110001F064FE40458C
:102C500008D00020BDE8F0874FF6FF70814501D015
:102C60000020F7E7781C07460D28D8D3207800F01D
:102C7000400038B1B8F1000F04D035F8160008B1A3
:102C80000020E7E70120E5E7F0B50346087800F00B
:102C90003F00401E00EB800707EBC0020025012625
:102CA00000BFD948405D085CD74F7F5D0F447F78F7
:102CB00040EA07244EB1FF2A01D30020F0BD26468A
:102CC0001046521C23F8104005E04FF6FF70844276
:102CD00001D00020F2E7681C05460D28E1D30878F2
:102CE00000F0400030B1FF2A01D30020E6E70020C9
:102CF00023F812000120E1E7F0B504461D464D73AC
:102D00000F27CF7200270F738F76BC4681F81BC048
:102D1000571E07EB870C0CEBC706002738463B46CF
:102D200000BF4FF6FF77B84203D03746761C34F821
:102D30001700DFF8D4C21CF803C001F80C0007121A
:102D4000DFF8C4C21CF803C08C448CF8017008B9C9
:102D50004FF6FF705F1C3B460D2FE2D34FF6FF7717
:102D6000B84202D034F816700FB942F040020A702F
:102D7000F0BD2DE9FC4780468A4617461C460B22CB
:102D800051464046FFF7DCFB052C0ADD00BF601012
:102D900000EBC43137F8022B881884B23888002839
:102DA000F5D1072500BF2046E11704EB1171091189
:102DB000A4EB0111303101F0FF09B9F1390F03DD46
:102DC00009F1070000F0FF0928466D1E0DF800907C
:102DD0002046E11704EB1171C1F30F14002CE2D16E
:102DE0007E200DF80500002600E0761CAE4203D2DE
:102DF00018F806002028F8D100BF082D04D2284674
:102E00006D1C1DF8000000E020203146761C08F8FB
:102E10000100082EF1D3BDE8FC8730B50146002043
:102E20000B2200BF431003EBC01411F8015B6319C0
:102E3000D8B2531E1A1EF5D130BD2DE9F047044615
:102E400000212046FFF701FE074617B13846BDE8CE
:102E5000F0874FF0FF09CA4600BF21692068FFF7DD
:102E6000A3FB074607B154E065692E780EB9042725
:102E70004FE0E87A00F03F08E52E05D008F00800A2
:102E800028B1B8F10F0F02D04FF0FF093AE0B8F1C6
:102E90000F0F1CD1E069A0B306F0400030B195F8E7
:102EA0000DA026F04006B146E08820844E450AD1A8
:102EB000687B504507D12946E069FFF7A0FE10B1B5
:102EC000A9F1010000E0FF2000F0FF091AE0B9F1CC
:102ED000000F05D12846FFF7A0FF504500D118E0AC
:102EE0004FF0FF094FF6FF702084A069C07A00F010
:102EF000010030B90B222846A169FFF738FB00B961
:102F000007E0FFE700212046FFF7EDFD0746002F11
:102F1000A3D000BF38469AE72DE9F04704464FF0AA
:102F2000FF09CA4604274CE021692068FFF73CFBF3
:102F3000074607B148E0666935780DB9042743E0D4
:102F4000F07A00F03F08E52D07D02E2D05D008F0CF
:102F5000080028B1B8F10F0F02D04FF0FF0929E0A7
:102F6000B8F10F0F1AD105F0400030B196F80DA05E
:102F700025F04005A946E08820844D450AD1707BA4
:102F8000504507D13146E069FFF77EFE10B1A9F147
:102F9000010000E0FF2000F0FF090BE0B9F1000F95
:102FA00004D13046FFF739FF504502D04FF6FF708D
:102FB000208409E000212046FFF795FD074607B170
:102FC00002E020690028AFD100BF0FB100202061CE
:102FD0003846BDE8F0872DE9F04F85B00446D4F8B7
:102FE0001880D4F81CB00C22414601A8FFF7A8FABB
:102FF00000BF9DF80F0000F0010040B3002088F8EA
:103000000B00E06101270FE0E44C00083B465A4604
:1030100001A94046FFF7ADFE2046FFF70EFF05462B
:1030200005B103E0781C87B2642FEFDB00BF642F8B
:1030300003D1072005B0BDE8F08F042D01D028464C
:10304000F8E79DF80F0088F80B00C4F81CB09DF855
:103050000F0000F0020070B1002601E0701C86B283
:103060003BF816000028F9D106F119000D2190FB5C
:10307000F1F086B200E0012600212046FFF7E5FCD2
:1030800005460DB12846D5E700200746049000BF4D
:1030900021692068FFF788FA054605B119E06069E3
:1030A00090F80090B9F1E50F02D0B9F1000F08D106
:1030B0000FB9E0880490781C80B20746B04201D175
:1030C00007E0002701212046FFF70DFD0546002DF2
:1030D000DED000BF4DBB012E27DD20460499FFF74F
:1030E000B4FC05460DBBA069FFF797FE0090701E6B
:1030F00086B200BF21692068FFF756FA054605B180
:1031000012E0F2B26169E069009BFFF7F5FD012072
:103110002168087100212046FFF7E5FC05461DB92E
:10312000701E80B2061EE5D100BFD5B921692068A6
:10313000FFF73AFA0546A5B9D4F814A020220021D9
:103140005046FFF70AFA0B225046A169FFF7F8F93B
:10315000A069C07A00F018008AF80C0001202168EC
:103160000871284666E770B50446E688208C4FF65D
:10317000FF72904201D1304600E0208C014620468B
:10318000FFF763FC0546E5B900BF21692068FFF73A
:103190000BFA054605B110E0E520616908700120D1
:1031A00021680871E088B04200DB06E0002120467B
:1031B000FFF799FC0546002DE7D000BF042D00D194
:1031C0000225284670BD2DE9F34F83B0824604984E
:1031D000D0F800B001E00BF1010B9BF800002F28A4
:1031E000F9D09BF800005C28F5D0DAF81C90002597
:1031F0002E4600BF3046761C1BF80040202C03DB17
:103200002F2C01D05C2C00D11CE0FF2D03D3062015
:1032100005B0BDE8F08FE4B20121204601F058FB73
:1032200004460CB90620F3E7802C06DA2146FEA0FE
:10323000FFF7B0F908B10620EAE728466D1C29F827
:103240001040D7E700BF0BEB060104980160202C6B
:1032500001DA042000E00020074608E0681E39F883
:103260001040202C02D02E2C00D002E06D1E002D2C
:10327000F4D100BF0DB90620CAE7002029F81500D7
:103280000B222021DAF81800FFF767F9002600E08A
:10329000761C39F816002028FAD039F816002E28A6
:1032A000F6D00EB147F0030700E06D1E25B1681E91
:1032B00039F810002E28F8D14FF00008CDF808801A
:1032C0000820019000BF3046761C39F8104004B940
:1032D00055E0202C03D02E2C04D1AE4202D047F072
:1032E0000307F0E7DDE90110884201D2AE4216D1B2
:1032F00001980B2802D147F0030740E0AE4201D00D
:1033000047F00307AE4200D939E02E46082002906C
:103310000B2001904FEA88604FEA1068D3E7802CB9
:103320000BDB0021204601F0D3FA04461CB1A4F1C6
:103330008000C0490C5C47F0020700BF24B1214661
:10334000BDA0FFF727F918B15F2447F003070FE08E
:10335000412C04DB5A2C02DC48F0020808E0612C06
:1033600006DB7A2C04DC48F00108A4F1200084B2CA
:10337000DAF818300298411C02911C54A3E700BFF0
:10338000DAF818000078E52803D10520DAF81810DB
:1033900008700198082803D14FEA88604FEA106846
:1033A00008F00C000C2803D008F00300032801D11A
:1033B00047F0020707F0020058B908F0030001289F
:1033C00001D147F0100708F00C00042801D147F0A4
:1033D0000807DAF81800C772002019E72DE9FC5F2A
:1033E00081460E4606F10908D9F81000002851D090
:1033F000D9F81440207B0190002714E0E55D202DD2
:1034000000D112E0052D00D1E525019800F008005B
:1034100030B1412D04DB5A2D02DC05F12000C5B28C
:1034200008F8015B7F1C082FE8D300BF207A202812
:1034300019D02E2008F8010B082711E0E55D202D9A
:1034400000D10FE0019800F0100030B1412D04DBF5
:103450005A2D02DC05F12000C5B208F8015B7F1C83
:103460000B2FEBD300BFE07A3072E07F0106A07F24
:1034700041EA0041607F41EA0020217F084330603B
:10348000217E607E41EA0020B080A17DE07D41EA9E
:103490000020F080002088F80000B06980B3F06957
:1034A00070B3B06900900027D9F8100020B3B9F8C4
:1034B00020004FF6FF7188421ED0D9F81CB015E0ED
:1034C0000021504601F004FA8246BAF1000F01D102
:1034D000002710E000BFF069401EB84201D8002765
:1034E00009E038467F1C009901F800A03BF8021B58
:1034F000B1F1000AE4D100BF00210098C15500BF1E
:10350000BDE8FC9F2DE9F3410446019800782F287F
:1035100003D0019800785C2802D10198401C0190EA
:103520000020A06001980078202807D200212046C2
:10353000FFF78BFA0646002060612FE000BF01A96B
:103540002046FFF740FE064606B126E02046FFF77C
:1035500074FC0646A069C77A46B1042E00D01CE070
:1035600000BF07F0040000B9052616E007F00400CC
:1035700000B112E06569E87A00F0100008B905268C
:103580000BE0A97EE87E41EA00212A7D687D42EABF
:10359000002041EA0040A060D1E700BF3046BDE80E
:1035A000FC8170B504460D46607801232A4604F17B
:1035B0003001FEF716FF08B1032070BD94F82E12FB
:1035C00094F82F0241EA00204AF65521884201D0A2
:1035D0000220F2E794F86900010694F8680041EAD5
:1035E000004194F8670041EA002094F8661008430F
:1035F00020F07F401249884201D10020DDE794F895
:103600008500010694F8840041EA004194F88300A3
:1036100041EA002094F88210084320F07F400849D6
:1036200088420FD10020C8E7222A3A3C3E3F7C7FE7
:1036300000000000F14C00082B2C3B3D5B5D0000BE
:10364000464154000120B8E72DE9F74F88B00898AB
:103650000068019001980078303807900798092891
:103660000AD8019840783A2806D10198801C019028
:1036700008990198086001E000200790079818B1A8
:103680000B200BB0BDE8F08FFA49079851F82040A5
:10369000099804600CB90C20F3E7207878B16078C1
:1036A000FEF790FE804608F0010040B90A9820B16C
:1036B00008F0040008B10A20E3E70020E1E7002059
:1036C0002070079860706078FEF762FE804608F010
:1036D000010008B10320D4E70A9820B108F00400E3
:1036E00008B10A20CDE74FF0000B59462046FFF7FE
:1036F00058FF054600BF012D21D14FF0000ABAF155
:10370000000F03D0AAF1010000F0FF0A4FF4DF70B0
:1037100000EB0A1104F130000F18387978B1F87A0B
:103720000106B87A41EA0041787A41EA0020397A04
:1037300040EA010B59462046FFF733FF0546032DAB
:1037400001D101209DE70DB10D209AE73B20015DDD
:1037500094F83C0041EA0020B0F5007F01D00D2034
:103760008FE74620015D94F8470041EA0029B9F14E
:10377000000F0ED194F85700010694F8560041EA64
:10378000004194F8550041EA002094F8541040EAB2
:103790000109C4F81C904020065DE670012E03D09C
:1037A000022E01D00D206CE709FB06F93D20005DDB
:1037B0000646A07016B1701E304008B10D2060E7BB
:1037C0004120015D94F8420041EA00202081207AE6
:1037D00000F00F0008B10D2053E74320015D94F87D
:1037E000440041EA00200690069870B994F853000E
:1037F000010694F8520041EA004194F8510041EA70
:10380000002094F85010084306903E20015D94F883
:103810003F0041EA00200290029808B90D2030E7ED
:1038200002984844218900EB11100590DDE905015B
:10383000814201D20D2024E7DDE90510401AA1786C
:10384000B0FBF1F00490049808B90D2019E70125A8
:1038500040F6F6710498884200D302254FF6F671BF
:103860000498884200D303250498801CA061059821
:103870005844A062029858442062032D16D1208932
:1038800008B10D20FDE694F85F00010694F85E0093
:1038900041EA004194F85D0041EA002094F85C1090
:1038A00008436062A0698000039014E0208908B991
:1038B0000D20E6E6206A48446062022D02D1A0692C
:1038C000400007E0207E00F00100A16901EB41010A
:1038D00000EB51000390E169039800F2FF10B1EB97
:1038E000502F01D20D20CCE64FF0FF302061002098
:1038F000E060032D5CD1607194F8601094F8610071
:1039000041EA0020584460616078012304F13001ED
:103910006269FEF766FDE8BB94F82E1294F82F0258
:1039200041EA00204AF65521884241D13320005D0A
:1039300001063220005D41EA00413120005D41EA8C
:10394000002094F8301008434B49884230D194F855
:103950001702010694F8160241EA004194F8150294
:1039600041EA002094F814120843444988421FD1C8
:1039700094F81F02010694F81E0241EA004194F8EF
:103980001D0241EA002094F81C120843E06094F8FC
:103990001B0200E00CE0010694F81A0241EA004123
:1039A00094F8190241EA002094F8181208432061A3
:1039B000257033480088401C80B231490880E0807F
:1039C0000020E062207100BF5BE670B504460D4642
:1039D00024B1207810B1E088A84201D0092070BD40
:1039E0006078FEF7EFFC00F0010008B10320F6E775
:1039F0000020F4E70246012A01DB0B2070471D4836
:103A000050F822300BB10020187009B10020087066
:103A1000184840F822100020F0E72DE9F7438CB059
:103A2000054616460020286006F01F0626F0010213
:103A300003A90DA8FFF708FE0746CDF824D01148CA
:103A40000A9027B903A80D99FFF75CFD0746089C6B
:103A50000FB904B9062706F01C00002862D09FB1F8
:103A6000042F03D103A8FFF7B6FA074646F008066D
:103A7000089C13E078020020525261417272416149
:103A80007C020020181B0020E07A00F0110008B131
:103A9000072703E006F0040000B10827002F40D1FB
:103AA00006F0080000283CD0FEF746FD804684F86A
:103AB0000E804FEA1821E1734FEA184121744FEA52
:103AC000186161740020E072207700216177A1778E
:103AD000E177A17EE07E41EA0021227D607D42EA1D
:103AE000002041EA00490020A0760021E1762075FF
:103AF0006175012003990871B9F1000F11D0039885
:103B0000D0F82C8049460398FEF706FF074647B9D0
:103B1000A9F101000399C86041460398FEF744FDEE
:103B200007460EE06FB9E07A00F0100008B10427F4
:103B300007E006F0020020B1E07A00F0010000B1D9
:103B4000072747B906F0080008B146F02006039899
:103B5000C06AE8612C62F7B9AE71A17EE07E41EAED
:103B60000021227D607D42EA002041EA0040286178
:103B7000E07F0106A07F41EA0041607F41EA00202A
:103B8000217F0843E8600020A860A86103982860AE
:103B90000398C088A88038460FB0BDE8F0832DE9AF
:103BA000FF4F83B0044615469A46DDF810B000205A
:103BB000CAF80000A1882068FFF707FF029002986A
:103BC00018B1029807B0BDE8F08FA07900F080002E
:103BD00008B10220F6E7A07900F0010008B907203B
:103BE000F0E7D4E90210401A00900098854200D90D
:103BF000009DB5E02089C0F3080000287ED1206830
:103C00008078401EA16800EA512000F0FF09B9F158
:103C1000000F1DD1A06810B92069019004E061690E
:103C20002068FEF76CFD01900198022805D2A0796A
:103C300040F08000A0710220C4E70198401C28B920
:103C4000A07940F08000A0710120BBE7019860617D
:103C500061692068FEF746FD06462EB9A07940F05E
:103C60008000A0710220ADE74E444FEA5528B8F11C
:103C7000000F2DD009EB080021688978884203D90C
:103C800020688078A0EB090808F0FF0321684878D5
:103C900032465946FEF7A5FB28B1A07940F08000D6
:103CA000A07101208EE7A07900F0400068B1A06902
:103CB000801B404509D2A169891B0BEB41204FF4C1
:103CC000007204F12401FEF73BFC4FEA48273DE077
:103CD000A069B04226D0A07900F0400098B12168D8
:103CE0004878012304F12401A269FEF7A7FB30B153
:103CF000A07940F08000A071012063E713E0A07973
:103D000020F04000A071216848780123324604F178
:103D10002401FEF766FB28B1A07940F08000A07175
:103D200001204FE7A6612089C0F30800C0F50077A5
:103D3000AF4200D92F462089C0F3080204F12400C5
:103D400011183A465846FEF7FBFB00BFBB44A0687B
:103D50003844A060DAF800003844CAF80000ED1BCF
:103D6000002D7FF447AF00202CE72DE9FF4F83B0F3
:103D7000044615469B46049801900020CBF80000AD
:103D8000A1882068FFF721FE0290029818B10298DE
:103D900007B0BDE8F08FA07900F0800008B10220E4
:103DA000F6E7A07900F0020008B90720F0E7E06824
:103DB0002844E168884200D20025CDE02089C0F384
:103DC0000800002877D120688078401EA16800EAAA
:103DD000512000F0FF0ABAF1000F2AD1A06858B9AB
:103DE000D4F81080B8F1000F0BD100212068FEF745
:103DF000C7FD8046206104E061692068FEF7C0FDD0
:103E00008046B8F1000F00D1A9E0B8F1010F05D14B
:103E1000A07940F08000A0710220B9E708F101000C
:103E200028B9A07940F08000A0710120B0E7C4F863
:103E30001480A07900F0400090B1216848780123F7
:103E400004F12401A269FEF7F9FA28B1A07940F043
:103E50008000A07101209BE7A07920F04000A071B4
:103E600061692068FEF73EFC06462EB9A07940F055
:103E70008000A07102208BE756444FEA5529B9F122
:103E8000000F2FD00AEB090021688978884203D9F6
:103E900020688078A0EB0A0909F0FF0321684878C0
:103EA00032460199FEF7CAFA30B1A07940F080009D
:103EB000A07101206CE72CE0A069801B48450ED260
:103EC000A069801B019A02EB40214FF4007204F1BB
:103ED0002400FEF735FBA07920F04000A0714FEAE6
:103EE00049272DE0A069B04212D0D4E902018842EE
:103EF0000ED2216848780123324604F12401FEF7EE
:103F000070FA28B1A07940F08000A07101203FE74D
:103F1000A6612089C0F30800C0F50077AF4200D940
:103F20002F462189C1F3080204F1240150183A46B2
:103F30000199FEF705FBA07940F04000A07100BF99
:103F4000019838440190A0683844A060DBF8000074
:103F50003844CBF80000ED1B002D7FF42FAF00BFDD
:103F6000D4E90201884201D9A068E060A07940F05C
:103F70002000A07100200BE72DE9F0410446A18844
:103F80002068FFF722FD0746002F4FD1A07900F0EF
:103F9000200000284AD0A07900F0400078B12168C4
:103FA0004878012304F12401A269FEF747FA10B111
:103FB0000120BDE8F081A07920F04000A071E16906
:103FC0002068FEF7F1FA0746002F2FD1256AE87A1C
:103FD00040F02000E872207B2877A089010A6977E9
:103FE000E068010CA977E068010EE977207CA876EB
:103FF000208A010AE9762069000C28752069010EE3
:104000006975FEF799FA0646AE75310AE975310C05
:104010002976310E6976A07920F02000A071012068
:10402000216808712068FEF7F8FA07463846C0E7AD
:1040300070B504462046FFF79FFF05460DB90020E6
:104040002060284670BD2DE9F04704460E46A18841
:104050002068FFF7BAFC8246BAF1000F02D0504642
:10406000BDE8F087A07900F0800008B10220F7E7F2
:10407000E068B04204D2A07900F0020000B9E6681E
:10408000D4F808904FF00008C4F80880002E77D0CC
:10409000206880784702B9F1000F11D0701EB0FB84
:1040A000F7F1A9F10100B0FBF7F0814208D3A9F1C3
:1040B0000100791E8843A060A068361A656918E07F
:1040C0002569ADB900212068FEF75AFC0546012D8F
:1040D00005D1A07940F08000A0710220C0E7681CE3
:1040E00028B9A07940F08000A0710120B8E72561CF
:1040F0006561002D44D029E0A07900F0020038B1BC
:1041000029462068FEF73CFC054635B93E461FE0CF
:1041100029462068FEF7F3FA0546681C28B9A079FD
:1041200040F08000A07101209AE7012D03D920689A
:104130008069A84205D8A07940F08000A0710220D3
:104140008EE76561A0683844A060F61BBE42D3D8F4
:1041500000BFA0683044A060C6F3080068B12946DB
:104160002068FEF7BFFA8046B8F1000F06D1A079AB
:1041700040F08000A071022072E701E008EB5628B1
:104180002089C0F3080050B3A069404527D0A0792A
:1041900000F0400090B121684878012304F1240127
:1041A000A269FEF74BF928B1A07940F08000A07118
:1041B000012055E7A07920F04000A07121684878DF
:1041C0000123424604F12401FEF70BF928B1A0793E
:1041D00040F08000A071012042E7C4F81880D4E9C3
:1041E0000201884205D9A068E060A07940F0200073
:1041F000A071504634E733B583B00446002221460F
:1042000004A8FFF721FA05465DBBC4F818D0FE48A4
:10421000E06120460499FFF775F90546F5B9606934
:1042200098B16069C07A00F0100068B16069817E61
:10423000C07E41EA00216069027D407D42EA0020A3
:1042400041EA0040A06000E005253DB92068C08833
:10425000A08000212046FEF7F8FB0546042D00D182
:104260000525284605B030BDFEB504460E46A1889A
:104270002068FFF7AAFB054615BB2EB90021204692
:10428000FEF7E3FB05461BE0C4F818D0DE48E0610A
:104290002046FEF741FE0546042D02D10020206194
:1042A00000256DB931462046FFF798F800212046D9
:1042B000FEF719FC0546042D02D1002020610025DF
:1042C0002846FEBD33B58DB00D46002204A90DA8C9
:1042D000FFF7BAF904468CB901A80A90CA480B90B6
:1042E00004A80D99FFF70EF904463CB9099820B1CE
:1042F000294604A8FFF772F800E0062420460FB014
:1043000030BD2DE9F74F82B08B461446002221467E
:1043100002A8FFF799F901900198002877D1206849
:1043200001698069801E814204D820680069CBF849
:1043300000006CE0206890F800A00026BAF1010FA0
:104340001DD1022700BF39462068FEF7D8F9804604
:1043500008F1010010B9012001900FE0B8F1010F40
:1043600002D10220019009E0B8F1000F00D1761CC3
:10437000781C0746216889698842E4D33DE02068BB
:1043800087692068006A00904FF00009002500BF8F
:10439000B9F1000F0FD1009A531C11460093206809
:1043A000FEF702F90190019800B125E0206800F1C4
:1043B00030054FF40079BAF1020F09D128786978F5
:1043C00040EA012000B9761CAD1CA9F1020910E0F9
:1043D000E8780006A97840EA0140697840EA0120BF
:1043E0002978084320F0704000B9761C2D1DA9F1F2
:1043F0000409781E071ECBD100BF20680661BAF100
:10440000030F02D1012021684871CBF800600198A8
:1044100005B0BDE8F08F70B50446A1882068FFF7AD
:10442000D4FA054655B9A07900F0800008B10225FC
:1044300004E0A07900F0020000B90725002D36D174
:10444000D4E9021088422DD9A068E060A07940F03C
:104450002000A071A06838B921692068FEF75CFAD5
:104460000546002020611DE061692068FEF747F9DC
:1044700006460025701C00B90125012E00D1022539
:1044800085B920688069B0420CD96FF070426169CB
:104490002068FEF7A6F9054625B931462068FEF7E3
:1044A0003BFA05461DB1A07940F08000A071284676
:1044B00070BD71B595B001220CA915A8FFF7C4F81D
:1044C0000446002C4DD1CDF848D04F4813900CA88D
:1044D0001599FFF717F8044600BF002C41D1119D34
:1044E0000DB9062404E0E87A00F0010000B10724C9
:1044F000A97EE87E41EA00212A7D687D42EA00200B
:1045000041EA0046E4B9E87A00F01000C0B1022E9A
:1045100001D2022414E024220CA903A8FEF710F80B
:104520000596022103A8FEF790FA044644B903A8B1
:10453000FEF7F2FC044604B90724042C00D1002441
:104540007CB90CA8FEF70FFE044654B926B13146DB
:104550000C98FEF7E1F904461CB90C98FEF75DF8DB
:104560000446204616B070BD2DE9F1478DB0FDF729
:10457000E3FF0746012204A90DA8FFF765F80646E8
:10458000002E71D101A80A901F480B9004A80D9924
:10459000FEF7B8FF064606B9082600BF042EF0D184
:1045A00000210498FEF7ECF90546002605B9072618
:1045B000012D00D10226681C00B9012626B9002170
:1045C0000498FDF7F1FF0646002E6BD129460498AA
:1045D000FEF788F88246049800F130044FF4007228
:1045E00000212046FDF7B9FF0B2220212046FDF7D0
:1045F000B4FF2E2020701020E072A775390AE175F3
:10460000390C2176390E01E0181B00206176A57661
:10461000290AE176280C2075290E61752022214691
:1046200004F12000FDF78CFF2E2084F82100DDF836
:10463000188004980078032804D10498406A404503
:1046400000D1B04684F83A804FEA182184F83B1034
:10465000C8F30741342001554FEA186184F835103A
:10466000049890F8029019E03FE00498C0F82CA05C
:104670000AF1010A01200499087100210498FDF74C
:1046800093FF064606B10CE04FF40072002120466D
:10469000FDF763FFA9F1010000F0FF09B9F1000F78
:1046A000E3D100BF1EB904A8FEF795FC064626B16B
:1046B00029460498FEF730F917E0099C1020E072B3
:1046C000A775390AE175390C2176390E6176A57620
:1046D000290AE176280C2075290E617501200499BC
:1046E00008710498FDF799FF064630460EB0BDE804
:1046F000F087F7B58CB00F461446012203A90CA829
:10470000FEF7A2FF0646EEB9CDF824D06F480A9016
:1047100003A80C99FEF7F6FE064600BF96B9089D61
:104720000DB906260EE004F0270407EA0400E97A32
:10473000A1430843E8720120039908710398FDF72B
:104740006CFF064630460FB0F0BD73B58CB00D4619
:10475000012203A90CA8FEF777FF0646FEB9CDF8A3
:1047600024D05A480A9003A80C99FEF7CBFE0646BF
:1047700000BFA6B9089C0CB9062610E0A879A07560
:10478000E8880112E17528792076A88801126176FF
:104790000120039908710398FDF73FFF0646304654
:1047A0000EB070BDF3B59BB00F46012212A91BA835
:1047B000FEF74AFF0546002D10D112980990CDF85A
:1047C00060D04248199012A81B99FEF79BFE05463F
:1047D00000BF002D76D1179808B9042572E017980C
:1047E00000F10B01152203A8FDF7AAFE242212A94D
:1047F00009A8FDF7A5FE394609A8FEF783FE054680
:1048000005B90825042D5DD109A8FEF7E4FB05468E
:10481000002D57D10E9C13220DF10E0104F10D0055
:10482000FDF78EFE9DF80C0040F02000E0720120A4
:10483000129908710B991498884239D0E07A00F0E7
:104840001000002834D0A37EE27E43EA022394F8CD
:1048500014C0627D4CEA022243EA02410998FDF746
:1048600041FF06460EB9022522E031460998FDF7C0
:104870009BFE0546099800F15004CDB960782E28BA
:1048800016D109980078032806D109990B98496A2E
:10489000884201D1002000E00B980646A676310A36
:1048A000E176300C2075310E61750120099908718F
:1048B00045B912A8FEF757FC05461DB91298FDF739
:1048C000ACFE054628461DB0F0BD0000181B0020B8
:1048D00010B50246802A01DA10461BE051B1FF2ACA
:1048E00001DD002304E0A2F18003164C34F81330FC
:1048F00018460FE0002007E0124B33F810309342C7
:1049000000D103E0431C98B28028F5DB00BF00F122
:104910008003D8B210BD0246002100E0491C0A48BD
:1049200030F8110020B1084830F811009042F5D15C
:10493000054830F8110018B1044830F811007047EC
:104940001046FCE7724D0008724E000852500008F5
:10495000704700000FB4044910B503AA029800F094
:1049600063F910BC5DF814FB5C0200200FB41CB5A9
:10497000074B06AA7B4469460090059800F025F98C
:104980000020694600F034F91CBC5DF814FB0000FF
:10499000790200002DE9F0410E4604460020206215
:1049A0002046E168884730B3252805D0D4E90121A5
:1049B0009047206A401CF2E7E168204600278847BC
:1049C000050018D0A5F14100192802D820354FF470
:1049D00000673246294620462760FBF703FC40B1BA
:1049E000012804D0F61D26F007060836D8E7361D44
:1049F000D6E72846DAE7206ABDE8F08170B50C46B4
:104A00000546012A05D02878800600D5EA690023EA
:104A100002E0012305E05B1C934202D2E05C002827
:104A2000F9D1A869E618C01AA861286A1844286252
:104A30002846AFF3008004E0D5E9012114F8010B0A
:104A40009047B442F8D32846AFF3008070BD000011
:104A50002DE9F0410646002410687529314616A557
:104A600010D0AFF30080002802DA404213A507E01F
:104A700031688A0701D512A502E0490704D511A5BE
:104A8000012401E0AFF3008000210A2206F124078F
:104A900009E0B0FBF2FCB0FBF2F302FB1C0030308B
:104AA00078541846491C0028F3D123462A4630463C
:104AB000BDE8F04100F02BB8000000002D00000020
:104AC0002B0000002000000010B5431C02E010F88D
:104AD000011B71B18107FAD14FF0013202C88C1A63
:104AE0008C4314EAC211F9D0C01A0A0603D0C01EC2
:104AF00010BDC01A10BD0A0401D0801E10BD0902ED
:104B0000FCD0401E10BD70477047704770472DE9BC
:104B1000F0470D4699469246044600F12408016884
:104B2000880604D5E06921F01001216000E0012031
:104B3000A84201DD471B00E00027A1697A1902EBBA
:104B40000900081AA0612078C00602D42046AFF3FD
:104B50000080002608E0D4E901211AF806009047F9
:104B6000206A401C761C20624E45F4DB2078C0068B
:104B70000AD52046AFF3008006E0D4E901213020B9
:104B80009047206A401C2062381EA7F10107F4DC20
:104B900007E0D4E9012118F805009047206A401C7D
:104BA0002062281EA5F10105F3DC2046AFF300804A
:104BB0002078000602D50220BDE8F0870120FBE73F
:104BC00001694A1C02610878704700B58FB0CDE9D1
:104BD00001310021059105497944CDE903101146C1
:104BE0006846FFF7D7FE0FB000BD0000E5FFFFFFEE
:104BF0000A6802F8010B0A60704710B5436913B1E7
:104C0000AFF3008001E0FFF7F9FE012010BD12783C
:104C100000F124010A7000224A700122EDE71168B8
:104C20004FF0FF32E9E70000074B70B50D467B44BB
:104C3000FFF7CBFF0446284600F008F810B14FF00C
:104C4000FF3070BD204670BDC5BCFFFF007B00F08B
:104C500080007047754600F02BF8AE4605006946A7
:104C6000534620F00700854618B020B5FDF77EFBBF
:104C7000BDE820404FF000064FF000074FF000085D
:104C80004FF0000B21F00701AC46ACE8C009ACE8DE
:104C9000C009ACE8C009ACE8C0098D46704710B542
:104CA0000446AFF300802046BDE81040FBF7AFBAE2
:104CB00000487047181D0020014600BF08480089C1
:104CC00000F002000028F9D00548818100BF0448A7
:104CD000008900F001000028F9D001488089704760
:104CE0000030014001030507090E10121416181CAC
:104CF0001E809A90418E418F804545454949498E95
:104D00008F9092924F994F555559999A9B9C9D9E81
:104D10009F41494F55A5A5A6A7A8A9AAABAC21AE0E
:104D2000AFB0B1B2B3B4B5B6B7B8B9BABBBCBDBE1B
:104D3000BFC0C1C2C3C4C5C6C7C8C9CACBCCCDCE0B
:104D4000CFD0D1D2D3D4D5D6D7D8D9DADBDCDDDEFB
:104D5000DFE0E1E2E3E4E5E6E7E8E9EAEBECEDEEEB
:104D6000EFF0F1F2F3F4F5F6F7F8F9FAFBFCFDFEDB
:104D7000FF00C700FC00E900E200E400E000E500FD
:104D8000E700EA00EB00E800EF00EE00EC00C400F2
:104D9000C500C900E600C600F400F600F200FB0002
:104DA000F900FF00D600DC00A200A300A500A720A8
:104DB0009201E100ED00F300FA00F100D100AA0039
:104DC000BA00BF001023AC00BD00BC00A100AB00C6
:104DD000BB00912592259325022524256125622576
:104DE000562555256325512557255D255C255B25D1
:104DF0001025142534252C251C2500253C255E2551
:104E00005F255A25542569256625602550256C2582
:104E1000672568256425652559255825522553257C
:104E20006B256A2518250C25882584258C25902539
:104E30008025B103DF009303C003A303C303B500C0
:104E4000C403A6039803A903B4031E22C603B50333
:104E500029226122B1006522642220232123F70048
:104E60004822B0001922B7001A227F20B200A025E4
:104E7000A0006100620063006400650066006700D6
:104E8000680069006A006B006C006D006E006F00C6
:104E90007000710072007300740075007600770076
:104EA000780079007A00A100A200A300A500AC0060
:104EB000AF00E000E100E200E300E400E500E6000E
:104EC000E700E800E900EA00EB00EC00ED00EE008E
:104ED000EF00F000F100F200F300F400F500F6003E
:104EE000F800F900FA00FB00FC00FD00FE00FF00E6
:104EF000010103010501070109010B010D010F016A
:104F0000110113011501170119011B011D011F01D9
:104F1000210123012501270129012B012D012F0149
:104F200031013301350137013A013C013E014001B5
:104F300042014401460148014B014D014F0151011D
:104F400053015501570159015B015D015F01610189
:104F500063016501670169016B016D016F017101F9
:104F60007301750177017A017C017E019201B10321
:104F7000B203B303B403B503B603B703B803B9036D
:104F8000BA03BB03BC03BD03BE03BF03C003C1031D
:104F9000C303C403C503C603C703C803C903CA03C5
:104FA0003004310432043304340435043604370445
:104FB000380439043A043B043C043D043E043F04F5
:104FC00040044104420443044404450446044704A5
:104FD000480449044A044B044C044D044E044F0455
:104FE00051045204530454045504560457045804FD
:104FF00059045A045B045C045E045F04702171214F
:1050000072217321742175217621772178217921EC
:105010007A217B217C217D217E217F2141FF42FF5E
:1050200043FF44FF45FF46FF47FF48FF49FF4AFF54
:105030004BFF4CFF4DFF4EFF4FFF50FF51FF52FF04
:1050400053FF54FF55FF56FF57FF58FF59FF5AFFB4
:105050000000410042004300440045004600470074
:10506000480049004A004B004C004D004E004F00E4
:105070005000510052005300540055005600570094
:10508000580059005A002100E0FFE1FFE5FFE2FF70
:10509000E3FFC000C100C200C300C400C500C600D9
:1050A000C700C800C900CA00CB00CC00CD00CE00AC
:1050B000CF00D000D100D200D300D400D500D6005C
:1050C000D800D900DA00DB00DC00DD00DE0078016A
:1050D000000102010401060108010A010C010E0190
:1050E000100112011401160118011A011C011E0100
:1050F000200122012401260128012A012C012E0170
:10510000300132013401360139013B013D013F01DB
:1051100041014301450147014A014C014E01500143
:1051200052015401560158015A015C015E016001AF
:1051300062016401660168016A016C016E0170011F
:1051400072017401760179017B017D019101910366
:10515000920393039403950396039703980399038B
:105160009A039B039C039D039E039F03A003A1033B
:10517000A303A403A503A603A703A803A903AA03E3
:105180001004110412041304140415041604170463
:10519000180419041A041B041C041D041E041F0413
:1051A00020042104220423042404250426042704C3
:1051B000280429042A042B042C042D042E042F0473
:1051C000010402040304040405040604070408049B
:1051D00009040A040B040C040E040F04602161216D
:1051E000622163216421652166216721682169218B
:1051F0006A216B216C216D216E216F2121FF22FF1D
:1052000023FF24FF25FF26FF27FF28FF29FF2AFF72
:105210002BFF2CFF2DFF2EFF2FFF30FF31FF32FF22
:1052200033FF34FF35FF36FF37FF38FF39FF3AFFD2
:10523000000000005452000800000020800200001E
:105240006C010008AC52000880020020F820000029
:10525000C8010008C103FF303A01FF1834D6D0D38B
:10526000A2CEC4B2E2CAD4D7D6B7FBB4AE200D0AE0
:105270004368696E65736520616E6420456E676C76
:10528000697368207465737420737472696E6773D0
:10529000233184A24A04E009010203040607080935
:0C52A0002916691AA50204060800000087
:0400000508000131BD
:00000001FF
