:020000040800F2
:1000000030040020010100086D0500082D050008DE
:1000100069050008F7030008F70A0008000000005F
:1000200000000000000000000000000011070008B0
:10003000FB0300080000000019060008250800085E
:100040001B0100081B0100081B0100081B01000820
:100050001B0100081B0100081B0100081B01000810
:100060001B0100081B0100081B0100081B01000800
:100070001B0100081B0100081B0100081B010008F0
:100080001B0100081B0100081B0100081B010008E0
:100090001B0100081B0100081B0100081B010008D0
:1000A0001B0100081B0100081B0100081B010008C0
:1000B0001B0100081B0100081B0100081B010008B0
:1000C0001B0100081B0100081B0100081B010008A0
:1000D0001B010008890800081B0100081B0100081B
:1000E0001B0100081B0100081B010008DFF80CD0F1
:1000F00000F058F900480047E913000830040020D8
:100100000648804706480047FEE7FEE7FEE7FEE7B1
:10011000FEE7FEE7FEE7FEE7FEE7FEE72908000848
:10012000ED0000082DE9FE4F81EA030404F00044CD
:1001300021F0004100944FF0000B23F0004350EAFF
:1001400001045ED052EA03045BD0C3F30A54C1F346
:100150000A552C44A4F2F3340194A0FB0254C1F3D9
:10016000130141F48011C3F3130343F4801301FB23
:10017000024400FB034E840A970A44EA815447EA8A
:100180008357A4FB076802958D0A05FB07854FEA94
:10019000932C04FB0C542705029D4FEA065847EAAE
:1001A0001637B5EB08056EEB070C870E920E47EA83
:1001B000811742EA8312A7FB0201B6EB0B0164EB45
:1001C00000042B0D43EA0C335E1844EB1C50DA4656
:1001D0005146E7FB0201C5F313044FEA0B3343EA30
:1001E00014534FEA0432019C43EA0603A4F10C04C1
:1001F0000294009CCDE900B400F086F803B0BDE89D
:10020000F08F00200146F9E70EB5C10F80EAE070DB
:100210000844CA07002140F233438DE80E000A4625
:100220000B4600F071F803B000BD70B5C1F30A527F
:1002300001F000450024C1F3130140F2FF3341F403
:1002400080119A4201DA002070BD40F233439A4295
:10025000A2F2334203DC524200F037F800E0904053
:100260002C43F1D0404270BD2DE9F05F05460020DF
:1002700092469B4688460646814640241BE0284617
:1002800041464746224600F020F853465A46C01AD7
:10029000914110D311461846224600F095F82D1AC8
:1002A00067EB01084F4622460120002100F08CF840
:1002B00017EB00094E41201EA4F10104DFDC484683
:1002C00031462A464346BDE8F09F202A04DB203A07
:1002D00021FA02F00021704721FA02F3D040C2F166
:1002E0002002914008431946704710B5141E73F15F
:1002F000000408DA401C41F1000192185B411A43E6
:1003000001D120F0010010BD2DE9F04D92469B4631
:1003100011B1B1FA81F202E0B0FA80F220329046D7
:1003200000F052F804460F4640EA0A0041EA0B0189
:1003300053465A46084313D0114653EA010019D0D8
:10034000C8F140025046FFF7C0FF05460E46504632
:100350005946424600F038F8084305D0012004E031
:1003600020463946BDE8F08D0020054346EAE07698
:100370002C4337430A986305E40AA0EB08000022E7
:10038000FD0A44EA47540A3002D500200146E9E755
:10039000010510196941DDE9084500196941BDE809
:1003A000F04DA2E7064C074D06E0E06840F001037F
:1003B00094E8070098471034AC42F6D3FFF79AFE52
:1003C0002814000848140008202A04DB203A00FA08
:1003D00002F1002070479140C2F1200320FA03F39C
:1003E00019439040704710B500F06CFA00F0A0F887
:1003F00000F030FD10BD00BFFEE770472DE9F04171
:10040000024600250026002000230024002791F842
:1004100003C00CF00F0591F803C00CF0100CBCF1F8
:10042000000F03D091F802C04CEA050591F800C016
:10043000BCF1000F31D0146800202BE04FF0010C0C
:100440000CFA00F3B1F800C00CEA03069E4220D17A
:1004500083004FF00F0C0CFA03F7BC4305FA03FCC2
:100460004CEA040491F803C0BCF1280F06D14FF008
:10047000010C0CFA00FCC2F814C00AE091F803C0A9
:10048000BCF1480F05D14FF0010C0CFA00FCC2F88A
:1004900010C0401C0828D1D31460B1F800C0BCF1D2
:1004A000FF0F34DD546800202EE000F1080C4FF0FF
:1004B000010808FA0CF3B1F800C00CEA03069E42EA
:1004C00021D183004FF00F0C0CFA03F7BC4305FA5F
:1004D00003FC4CEA040491F803C0BCF1280F05D1D9
:1004E00000F1080C08FA0CF8C2F8148091F803C067
:1004F000BCF1480F07D100F1080C4FF0010808FAD1
:100500000CF8C2F81080401C0828CED35460BDE817
:10051000F0810246002093680B400BB1012000E0FF
:1005200000207047416170470161704700BFFEE7DE
:1005300008B50121112000F071F84FF40050ADF81A
:10054000000010208DF8030003208DF8020069469A
:100550000448FFF753FF4FF400510248FFF7E4FF50
:1005600008BD00000010014000BFFEE7704708B55D
:100570004FF4A06000F046F825208DF8000001201F
:100580008DF801008DF802008DF80300684600F038
:1005900001F808BD70B5002100230F22C47804B310
:1005A000154C246804F4E064C4F5E064210AC1F148
:1005B0000403CA40447804FA03F1847814402143C8
:1005C00009010E4C0678A155047804F01F0501249A
:1005D000AC4005786D11AD0005F1E025C5F800418E
:1005E00009E0047804F01F050124AC40044D0678AE
:1005F000761145F8264070BD0CED00E000E400E007
:1006000080E100E002490143024A116070470000A6
:100610000000FA050CED00E07047000029B1064A21
:1006200092690243044B9A6104E0034A926982434F
:10063000014B9A61704700000010024030B5002164
:100640000022002400232D4D6D6805F00C0121B11E
:10065000042905D0082923D105E0294D056022E0B1
:10066000274D05601FE0254D6D6805F47012234D80
:100670006D6805F48034022505EB92421CB9214DCA
:10068000554305600BE01D4D6D6805F400351DB147
:100690001C4D5543056002E0194D5543056002E0CD
:1006A000174D056000BF00BF144D6D6805F0F001E7
:1006B0000909154D6B5C0568DD4045600F4D6D689F
:1006C00005F4E061090A104D6B5C4568DD4085600A
:1006D0000A4D6D6805F46051C90A0B4D6B5C4568A5
:1006E000DD40C560054D6D6805F44041890B074D3F
:1006F0006B5CC568B5FBF3F5056130BD00100240C9
:1007000000127A0000093D0014000020240000209F
:10071000704710B500F002F810BD00000CB50020C5
:10072000019000903348006840F4803031490860FF
:1007300000BF3048006800F4003000900198401C71
:100740000190009818B90198B0F5A06FF1D129482F
:10075000006800F4003010B10120009001E000209A
:1007600000900098012843D12348006840F0100011
:10077000214908600846006820F003000860084628
:10078000006840F0020008601A4840681949486053
:100790000846406848600846406840F48060486009
:1007A0000846406820F47C1048600846406840F4E1
:1007B000E81048600846006840F08070086000BF9C
:1007C0000C48006800F000700028F9D00948406823
:1007D00020F00300074948600846406840F00200E6
:1007E000486000BF0348406800F00C000828F9D1B9
:1007F0000CBD00000010024000200240042808D177
:100800004FF0E021096941F004014FF0E02211614D
:1008100007E04FF0E021096921F004014FF0E022E8
:10082000116170477047000010B51348006840F030
:1008300001001149086008464068104908400E4907
:100840004860084600680E4908400B4908600846A1
:10085000006820F4802008600846406820F4FE000C
:1008600048604FF41F008860FFF753FF4FF00060AF
:100870000449086010BD0000001002400000FFF8AD
:10088000FFFFF6FE08ED00E010B540F225510648E6
:1008900000F06DF838B1044800F024F9C4B22146E4
:1008A000014800F024F910BD0038014021B18289CF
:1008B00042F40052828104E082894DF6FF731A40AF
:1008C0008281704700B585B0012144F20500FFF731
:1008D000A5FE4FF40070ADF8100018208DF813003D
:1008E00003208DF8120004A91848FFF787FD4FF484
:1008F0008060ADF8100004208DF8130003208DF8FF
:10090000120004A91148FFF779FD4FF4E13000907F
:100910000020ADF80400ADF80600ADF80800ADF811
:100920000C000C20ADF80A006946094800F06EF88A
:10093000FFF71DFE012240F22551054800F041F865
:1009400001210348FFF7B2FF05B000BD00080140D8
:100950000038014002460020B1F5007F00D100BF01
:1009600013880B400BB1012000E00020704770B5E8
:100970000246002400230025002040F66A16B142FA
:1009800000D100BFC1F3421501F01F03012606FA92
:1009900003F3012D02D19689334006E0022D02D1E6
:1009A000168A334001E0968A33400C12012606FA7B
:1009B00004F41688344013B10CB1012000E000208B
:1009C00070BDF0B50346002400260025002040F647
:1009D0006A17B94200D100BF1846C1F3421401F0B2
:1009E0001F06012707FA06F5012C01D10C3004E09F
:1009F000022C01D1103000E014301AB107682F43E7
:100A0000076002E00768AF430760F0BD2DE9F047DB
:100A100086B005460E460024A24600BFA146002728
:100A2000B08900B100BF2F462C8A4CF6FF700440FD
:100A3000F08804432C82AC894EF6F3100440B08851
:100A400031890843718908430443AC81AC8A4FF66D
:100A5000FF400440B0890443AC8201A8FFF7EEFDDB
:100A60001F48874202D1DDF810A001E0DDF80CA09C
:100A7000A88900F4004040B10AEBCA0000EB0A105C
:100A800031684900B0FBF1F807E00AEBCA0000EB5F
:100A90000A1031688900B0FBF1F86420B8FBF0F06F
:100AA00004012009642101FB1089A88900F4004099
:100AB00040B1322000EBC900B0FBF1F000F00700BC
:100AC000044308E0322000EB09106421B0FBF1F090
:100AD00000F00F0004432C8106B0BDE8F087000051
:100AE0000038014001468888C0F308007047C1F310
:100AF00008028280704700BFFEE700000FB4054B7C
:100B000010B503A9044A029800F018F810BC5DF86B
:100B100014FB0000911200082C00002002E008C81D
:100B2000121F08C1002AFAD170477047002001E067
:100B300001C1121F002AFBD1704700002DE9FF4FB1
:100B40008DB09B460F460446002606E025280BD0B4
:100B50005A460F999047641C761C20780028F5D1DE
:100B600011B03046BDE8F08F0025A8460122984913
:100B700000E0054314F8013F203B02FA03F008426D
:100B8000F7D120782E2817D114F8010F45F004056D
:100B90002A280ED06FF02F022078A0F13001092909
:100BA0000AD808EB880102EB410100EB0108641C44
:100BB000F2E757F8048B641C20786C280DD004DC15
:100BC0004C2812D06A2811D104E074280DD07A285C
:100BD0000CD10AE045F4001507E0617845F4801572
:100BE000814202D1641C05F58015641C2278692AB3
:100BF00045D008DC002AB3D0582A69D0632A10D027
:100C0000642A08D13BE0702A67D0732A13D0752A72
:100C10005CD0782A5CD010465A460F999047761CD3
:100C2000D3E017F8040B8DF8000000208DF80100C8
:100C3000E946012003E057F8049B4FF0FF306907B5
:100C40004FF0000501D40AE06D1C45450DDA8542E0
:100C5000FADB19F805100029F6D106E06D1C854273
:100C6000FCDB19F805100029F8D12E4404E019F82E
:100C7000010B5A460F9990476D1EF8D2A5E00A2045
:100C80000021CDE90801C5F3025002280DD001CFA3
:100C9000C117031E71F100030DDA4FF0000CD0EB09
:100CA0000C006CEB01012D2308E0FF1D27F0070766
:100CB000F7E80201EDE72B0504D52B238DF828304A
:100CC00001233BE0EB0739D02023F7E70A2000E0BF
:100CD00010200021CDE9080107E01020002145F097
:100CE0000405CDE908014FF00808C5F302500228B9
:100CF0000FD001CF00214FF0000A2B071FD5702A1B
:100D00000DD0DDE908C38CF0100C5CEA030C0CD0AC
:100D100015E0FF1D27F00707F7E80201EBE7402287
:100D20008DF828204FF0010A0BE050EA010306D0AD
:100D300030238DF828308DF8292002239A46582A2E
:100D400004D024A20DF120090B9209E026A2F9E7B4
:100D5000DDE90823FFF788FA0B9B9B5C09F8013D4E
:100D600050EA0102F4D1ADEB090020300890680789
:100D700001D44FF001080899884502DDA8EB010075
:100D800000E000208046002506E00AA85A46405DA3
:100D90000F9990476D1C761C5545F6DB04E030201A
:100DA0005A460F999047761CB8F10001A8F1010846
:100DB000F5DC05E019F8010B5A460F999047761CAF
:100DC0000899481E08900029F4DC641CC5E6000060
:100DD0000928010030313233343536373839616211
:100DE00063646566000000003031323334353637D5
:100DF00038394142434445460000000010B500F038
:100E0000DDFA02210D48FFF78DFBF02000F06AF8B3
:100E100000F0BEFA3C2000F065F802210748FFF719
:100E200078FB50B9502000F05DF802210348FFF72D
:100E300070FB10B902A0FFF761FE10BD0008014071
:100E4000BCECB2E2B5BD44533138423230A3A10DFF
:100E50000A00000010B56FF00400FFF7CFFC0A484D
:100E600000680A49B0FBF1F00949087008460078AB
:100E700000EB4001C1EBC0104FF6FF7101EAC0006A
:100E80000449088010BD00000000002000127A0014
:100E9000280000202A0000200146114A12884A43F7
:100EA0004FF0E0235A6100229A611A46126942F01B
:100EB00001021A6100BF4FF0E022106900F0010248
:100EC0001AB100F48032002AF5D04FF0E022126906
:100ED00022F001024FF0E0231A6100229A6170476C
:100EE0002A0000200146114A12784A434FF0E023BD
:100EF0005A6100229A611A46126942F001021A618F
:100F000000BF4FF0E022106900F001021AB100F4B6
:100F10008032002AF5D04FF0E022126922F001025F
:100F20004FF0E0231A6100229A61704728000020E8
:100F300010B500F043FA00200D4908600220FFF7C9
:100F4000D1FF01200B49C1F8840100F021FA0C20E7
:100F5000FFF7C8FF02210848FFF7DBFA08B10124B8
:100F600000E000243220FFF7BDFF204610BD000046
:100F700084012142000021420008014070B5002692
:100F80000025002409E0FFF7D3FF054615B105FA57
:100F900004F0C5B22E43601CC4B2082CF3DB30460B
:100FA00070BD00002DE9F041002400F0D5F9332098
:100FB00000F040F9FFF7E2FF0746002606E0FFF7E2
:100FC000DDFF05462C432402701CC6B2062EF6DB5C
:100FD000FFF7D4FF8046394606A0FFF78FFD214674
:100FE00008A0FFF78BFD41460BA0FFF787FDBDE88A
:100FF000F0810000CFB5C1D0BAC5CAC7A3BA256475
:101000000D0A0000D0F2C1D0BAC5CAC7A3BA307861
:1010100025780D0A00000000435243D0A3D1E9CE49
:10102000AAA3BA307825780D0A0000002DE9F04116
:1010300000F092F9CC2000F0FDF8BE2000F0FAF8A4
:10104000FFF79CFF0746FFF799FF0746FFF796FF5C
:101050000646FFF793FF0546FFF790FF044631462B
:1010600014A0FFF74BFDC5F1800119A0FFF746FD65
:1010700004F06004641134B1012C08D0022C0AD0B1
:10108000032C10D10BE019A0FFF738FD0FE021A0D1
:10109000FFF734FD0BE029A0FFF730FD07E032A099
:1010A000FFF72CFD03E03BA0FFF728FD00BF00BFCA
:1010B000BDE8F081B9FDCEC2B1A8BEAFB5C4CEC205
:1010C000B6C8CEAAA3BA2564A1E60D0A00000000A6
:1010D000B5CDCEC2B1A8BEAFB5C4CEC2B6C8CEAA39
:1010E000A3BA2564A1E60D0A00000000647331383C
:1010F000623230B5C4B2E2C1BFBEABB6C8CEAA3907
:10110000CEBBA3ACBEABB6C8CEAA302E35A1E60D81
:101110000A00000064733138623230B5C4B2E2C1F3
:10112000BFBEABB6C8CEAA3130CEBBA3ACBEABB649
:10113000C8CEAA302E3235A1E60D0A0064733138CC
:10114000623230B5C4B2E2C1BFBEABB6C8CEAA31BE
:1011500031CEBBA3ACBEABB6C8CEAA302E31323531
:10116000A1E60D0A0000000064733138623230B528
:10117000C4B2E2C1BFBEABB6C8CEAA3132CEBBA3A9
:10118000ACBEABB6C8CEAA302E30363235A1E60D95
:101190000A0000006572726F7221210D0A000000C2
:1011A00010B5FFF72BFEFFF7FDFEFFF73FFF10BD69
:1011B0002DE9F04107460D46164636B1012E06D000
:1011C000022E06D0032E08D105E01F240AE03F249A
:1011D00008E05F2406E07F2404E012A0FFF78EFC05
:1011E0007F2400BF00BF05F18000C5B200F0B4F855
:1011F000CC2000F01FF84E2000F01CF8384600F01C
:1012000019F8284600F016F8204600F013F800F010
:10121000A3F8CC2000F00EF8482000F00BF8BDE851
:10122000F08100006D6F6465206572726F7221211C
:101230000D0A000070B50446002600F0BFF8002536
:101240001FE004F001066EB100200F4908600F2076
:10125000FFF748FE01200D49C1F884013C20FFF74B
:1012600041FE0BE00020084908603C20FFF73AFEF1
:1012700001200649C1F88401FFF734FE6410681CA0
:10128000C5B2082DDDDB70BD840121420000214282
:1012900070B504460D46E1B20548FFF728FC00BFD3
:1012A00080210348FFF756FB0028F9D0204670BD87
:1012B000003801402DE9F05F4FF0000B00F0A9F875
:1012C0000A20FFF70FFE00F047F8CC20FFF7B2FF2F
:1012D000BE20FFF7AFFFFFF751FE8246FFF74EFE3D
:1012E0008146B9F1070F09DD00BF6FEA090000F080
:1012F000FF096FEA0A0000F0FF0A01E04FF0010B5E
:101300004C46200204B204EB0A0004B22046FEF769
:101310007BFF074600220C4BFEF704FF0546FEF755
:1013200084FF04B2BBF1000F06D0214607A0FFF7EF
:10133000E5FB2046BDE8F09F214604A0FFF7DEFB59
:10134000604200B2F6E700000000E43F74656D7093
:101350003A25640D0A00000010B500F02FF80221B4
:101360000A48FFF7DFF84FF4F070FFF7BBFD00F01D
:101370000FF83C20FFF7B6FD02210448FFF7C9F83B
:1013800010B97820FFF7AEFD10BD00000008014045
:1013900008B501210420FFF741F90220ADF8000053
:1013A00004208DF8030003208DF8020069460248EE
:1013B000FFF724F808BD00000008014008B501212E
:1013C0000420FFF72BF90220ADF8000010208DF863
:1013D000030003208DF8020069460248FFF70EF86B
:1013E00008BD000000080140FEF7FDFF0322EC21CC
:1013F0007820FFF7DDFEFFF719FEFFF7D1FE00F0C2
:1014000008F805E04FF47A70FFF746FDFFF752FF4A
:10141000F8E710B5FFF7A0FFCC20FFF70BFF442043
:10142000FFF708FF10BD000048140008000000206E
:10143000300000001C0B0008781400083000002069
:10144000000400002C0B000800A24A040000000069
:101450000000000001020304060708090000000064
:101460000102030401020304060708090204060836
:08147000000000000000000074
:04000005080000ED02
:00000001FF
