:020000040800F2
:10000000300400204501000825030008E50200082F
:1000100021030008C50100084F0C00080000000083
:100020000000000000000000000000006908000857
:10003000C901000800000000C50500087D0900088E
:100040005F0100085F0100085F0100085F01000810
:100050005F0100085F0100085F0100085F01000800
:100060005F0100085F0100085F0100085F010008F0
:100070005F0100085F0100085F0100085F010008E0
:100080005F0100085F0100085F0100085F010008D0
:100090005F0100085F0100085F0100085F010008C0
:1000A0005F0100085F0100085F0100085F010008B0
:1000B0005F0100085F0100085F0100085F010008A0
:1000C0005F0100085F0100085F0100085F01000890
:1000D0005F010008E10900085F0100085F010008F6
:1000E0005F0100085F0100085F0100085F01000870
:1000F0005F0100085F0100085F0100085F01000860
:100100005F0100085F0100085F0100085F0100084F
:100110005F0100085F0100085F0100085F0100083F
:100120005F0100085F0100085F0100085F0100082F
:10013000DFF80CD000F02AF800480047D10D000885
:10014000300400200648804706480047FEE7FEE7E7
:10015000FEE7FEE7FEE7FEE7FEE7FEE7FEE7FEE777
:10016000810900083101000840EA01039B0703D020
:1001700009E008C9121F08C0042AFAD203E011F8E6
:10018000013B00F8013B521EF9D27047064C074D67
:1001900006E0E06840F0010394E807009847103457
:1001A000AC42F6D3FFF7C8FF680E0008880E0008BF
:1001B00010B500F033FC00F097F800F0D5FD00F02A
:1001C000DBF810BD00BFFEE770472DE9F0410246A5
:1001D00000250026002000230024002791F803C0FA
:1001E0000CF00F0591F803C00CF0100CBCF1000FDF
:1001F00003D091F802C04CEA050591F800C0BCF1AB
:10020000000F31D0146800202BE04FF0010C0CFAE5
:1002100000F3B1F800C00CEA03069E4220D183002F
:100220004FF00F0C0CFA03F7BC4305FA03FC4CEA41
:10023000040491F803C0BCF1280F06D14FF0010C63
:100240000CFA00FCC2F814C00AE091F803C0BCF13B
:10025000480F05D14FF0010C0CFA00FCC2F810C099
:10026000401C0828D1D31460B1F800C0BCF1FF0FC6
:1002700034DD546800202EE000F1080C4FF0010836
:1002800008FA0CF3B1F800C00CEA03069E4221D133
:1002900083004FF00F0C0CFA03F7BC4305FA03FC84
:1002A0004CEA040491F803C0BCF1280F05D100F119
:1002B000080C08FA0CF8C2F8148091F803C0BCF1DD
:1002C000480F07D100F1080C4FF0010808FA0CF8AC
:1002D000C2F81080401C0828CED35460BDE8F081DD
:1002E0000161704700BFFEE708B50121112000F051
:1002F0006BF94FF40050ADF8000010208DF80300AA
:1003000003208DF8020069460448FFF75EFF4FF4B2
:1003100000510248FFF7E4FF08BD00000010014053
:1003200000BFFEE7704700001CB511A103C9CDE96D
:100330000001012000F06AFA05226946302000F031
:10034000B5F805226946102000F05EF8002406E0AA
:100350001DF80400A52800D003E0601CC4B2052CE1
:10036000F6DB00BF052C01D001201CBD0020FCE7FE
:10037000A5A5A5A5A500000010B51C48806940F002
:1003800004001A4988610846806940F010008861BD
:100390001748006817490840154908600846006872
:1003A000154908431249086011480C30006840F0B4
:1003B0001C000F490C3108601048006820F47F00D1
:1003C0000E4908600846006840F4030008600846CB
:1003D000C06840F03000C86000F09CF90020084977
:1003E000086001200749C1F8900110BD00100240CB
:1003F00000080140FF00F0FF00330300001001403F
:1004000090012142000022422DE9F04107460D46AD
:10041000164600200A490860384600F0D1F98046A7
:10042000002405E0FF2000F0CBF92855601CC4B281
:10043000B442F7DB0120024908604046BDE8F08184
:100440009001224270B5044600200749086020460A
:1004500000F0B6F9FF2000F0B3F90546012003498A
:10046000C1F89001284670BD90012242000022424E
:1004700070B50446012000F0C9F90720FFF7E2FF3C
:1004800005462946272000F02FF805F0400050B11E
:10049000202221466120FFF7B7FFFF21E22000F074
:1004A00023F8002070BD0120FCE700002DE9F04199
:1004B00007460C46154600200A490860384600F0F9
:1004C0007FF98046002605E014F8010B00F078F96A
:1004D000701CC6B2AE42F7DB0120024908604046FC
:1004E000BDE8F0819001224270B505460C4600201F
:1004F00007490860284600F063F90646204600F0E8
:100500005FF901200349C1F89001304670BD000039
:10051000900122420000224208B54FF4A06000F092
:1005200047F825208DF8000001208DF801008DF896
:1005300002008DF80300684600F002F808BD0000D4
:1005400070B5002100230F22C47804B3154C246831
:1005500004F4E064C4F5E064210AC1F10403CA4074
:10056000447804FA03F184781440214309010E4CC5
:100570000678A155047804F01F050124AC400578E5
:100580006D11AD0005F1E025C5F8004109E00478E2
:1005900004F01F050124AC40044D0678761145F89F
:1005A000264070BD0CED00E000E400E080E100E0DA
:1005B00002490143024A1160704700000000FA0539
:1005C0000CED00E07047000029B1064A9269024331
:1005D000044B9A6104E0034A92698243014B9A6199
:1005E000704700000010024030B5002100220024B6
:1005F00000232D4D6D6805F00C0121B1042905D0B3
:10060000082923D105E0294D056022E0274D05602A
:100610001FE0254D6D6805F47012234D6D6805F4DB
:100620008034022505EB92421CB9214D55430560EB
:100630000BE01D4D6D6805F400351DB11C4D554393
:10064000056002E0194D5543056002E0174D056055
:1006500000BF00BF144D6D6805F0F0010909154D8C
:100660006B5C0568DD4045600F4D6D6805F4E06129
:10067000090A104D6B5C4568DD4085600A4D6D6868
:1006800005F46051C90A0B4D6B5C4568DD40C560DF
:10069000054D6D6805F44041890B074D6B5CC568DD
:1006A000B5FBF3F5056130BD0010024000127A0081
:1006B00000093D00140000202400002010B5002097
:1006C00011490860052211492A20FFF7EFFE012198
:1006D0002120FFF709FF01212220FFF705FF282134
:1006E0002520FFF701FF20213120FFF7FDFE0F211C
:1006F0002620FFF7F9FE0F212020FFF7F5FE01204D
:100700000349C1F8900110BD90012142620E00081A
:100710000000214200B52648806940F004002449C9
:1007200088610846806940F48050886121480068EB
:10073000C0F313001F490860084600681E490843BB
:100740001C4908601B480C30006840F0E000194963
:100750000C3108601948008818490880084600884C
:1007600040F4007008800846008840F480700880DB
:100770000846008840F00400088008460088088089
:1007800008460088088008460088088008460088D7
:1007900040F0380008800846008808800846008835
:1007A00040F040000880FF2000F00AF800BD000083
:1007B00000100240000801400000B0BB00300140C2
:1007C0000246002105E0481CC1B2C82901DD002015
:1007D00070470D48008900F002000028F3D00A4855
:1007E0008281002105E0481CC1B2C82901DD00203A
:1007F000EEE70548008900F001000028F3D0024828
:100800008089C0B2E4E70000003001401549098842
:100810004FF6C7721140134A118018B91146098862
:10082000118017E0012806D10E49098841F0100116
:100830000C4A11800EE0022806D10A49098841F0CD
:100840001801084A118005E00649098841F038017D
:10085000044A11800349098841F04001014A11808E
:100860007047000000300140704710B500F002F8FA
:1008700010BD00000CB500200190009033480068C6
:1008800040F480303149086000BF3048006800F40F
:10089000003000900198401C0190009818B9019810
:1008A000B0F5A06FF1D12948006800F4003010B114
:1008B0000120009001E0002000900098012843D121
:1008C0002348006840F0100021490860084600688D
:1008D00020F0030008600846006840F0020008604D
:1008E0001A48406819494860084640684860084608
:1008F000406840F4806048600846406820F47C10FE
:1009000048600846406840F4E810486008460068BF
:1009100040F08070086000BF0C48006800F0007074
:100920000028F9D00948406820F0030007494860D2
:100930000846406840F00200486000BF0348406835
:1009400000F00C000828F9D10CBD00000010024096
:1009500000200240042808D14FF0E021096941F04D
:1009600004014FF0E022116107E04FF0E021096936
:1009700021F004014FF0E022116170477047000040
:1009800010B51348006840F001001149086008469E
:100990004068104908400E494860084600680E4902
:1009A00008400B4908600846006820F48020086071
:1009B0000846406820F4FE0048604FF41F0088603D
:1009C000FFF753FF4FF000600449086010BD0000BE
:1009D000001002400000FFF8FFFFF6FE08ED00E007
:1009E00010B540F22551064800F06DF838B10448C2
:1009F00000F024F9C4B22146014800F024F910BDEA
:100A00000038014021B1828942F40052828104E021
:100A100082894DF6FF731A408281704700B585B018
:100A2000012144F20500FFF7CFFD4FF40070ADF84F
:100A3000100018208DF8130003208DF8120004A96F
:100A40001848FFF7C2FB4FF48060ADF81000042097
:100A50008DF8130003208DF8120004A91148FFF748
:100A6000B4FB4FF4E13000900020ADF80400ADF885
:100A70000600ADF80800ADF80C000C20ADF80A0037
:100A80006946094800F06EF8FFF746FD012240F282
:100A90002551054800F041F801210348FFF7B2FF56
:100AA00005B000BD000801400038014002460020AA
:100AB000B1F5007F00D100BF13880B400BB10120BE
:100AC00000E00020704770B5024600240023002596
:100AD000002040F66A16B14200D100BFC1F34215B2
:100AE00001F01F03012606FA03F3012D02D19689B6
:100AF000334006E0022D02D1168A334001E0968A87
:100B000033400C12012606FA04F41688344013B15F
:100B10000CB1012000E0002070BDF0B503460024B8
:100B200000260025002040F66A17B94200D100BF18
:100B30001846C1F3421401F01F06012707FA06F513
:100B4000012C01D10C3004E0022C01D1103000E066
:100B500014301AB107682F43076002E00768AF43FB
:100B60000760F0BD2DE9F04786B005460E4600242B
:100B7000A24600BFA1460027B08900B100BF2F46A2
:100B80002C8A4CF6FF700440F08804432C82AC8918
:100B90004EF6F3100440B088318908437189084348
:100BA0000443AC81AC8A4FF6FF400440B089044353
:100BB000AC8201A8FFF718FD1F48874202D1DDF87B
:100BC00010A001E0DDF80CA0A88900F4004040B1BD
:100BD0000AEBCA0000EB0A1031684900B0FBF1F8DB
:100BE00007E00AEBCA0000EB0A1031688900B0FB8D
:100BF000F1F86420B8FBF0F004012009642101FB46
:100C00001089A88900F4004040B1322000EBC900EF
:100C1000B0FBF1F000F00700044308E0322000EBE5
:100C200009106421B0FBF1F000F00F0004432C81A7
:100C300006B0BDE8F0870000003801400146888812
:100C4000C0F308007047C1F308028280704700BFFC
:100C5000FEE700000FB4054B10B503A9044A029843
:100C600000F017F810BC5DF814FB0000AD0D000893
:100C70002C00002002E008C8121F08C1002AFAD187
:100C800070477047002001E001C1121F002AFBD10C
:100C900070472DE9F84F9946924688460546002749
:100CA00006E025280AD051464A4690476D1C7F1C15
:100CB00028780028F5D13846BDE8F88F002315F8CC
:100CC000011F18462E2915D115F8011F04232A29C2
:100CD0000DD06FF02F022978A1F13004092C09D82A
:100CE00000EB800002EB400008446D1CF3E758F86D
:100CF000040B6D1C2A78002ADDD0632A07D0732AE2
:100D00000FD0104651464A4690477F1C2AE018F8FB
:100D1000042B8DF8002000218DF801106E46012172
:100D200003E058F8046B4FF0FF315A074FF000040E
:100D300001D409E0641C84420BDA8C42FADB325D98
:100D4000002AF7D105E0641C8C42FCDB305D0028F2
:100D5000F9D1274404E016F8010B51464A46904762
:100D6000641EF8D26D1CA3E710B56FF00400FFF706
:100D7000F1FD0A4800680A49B0FBF1F00949087022
:100D80000846007800EB4001C1EBC0104FF6FF7140
:100D900001EAC0000449088010BD000000000020E6
:100DA00000127A00280000202A00002070B50446B6
:100DB0000D46E1B20548FFF746FF00BF802103481A
:100DC000FFF774FE0028F9D0204670BD00380140BE
:100DD0008AB024220F4901A8FFF7C6F9FFF7E8F906
:100DE00002E00DA0FFF736FFFFF79EFA0028F8D1CA
:100DF0000DA0FFF72FFFFFF761FC0AE001A8FFF746
:100E000037FB30B900208DF8240001A90AA0FFF7B4
:100E100021FFF3E73C0E00084465766963652045D1
:100E200072726F72210D0A00446576696365204312
:100E30006865636B210D0A00257300004F682C69FB
:100E400020676F74206E6F7468696E672E2E2E0097
:100E50000000000000000000000000000066666660
:100E60006666888888888800880E00080000002050
:100E700030000000740C0008B80E0008300000209C
:100E800000040000840C000800A24A0400000000D6
:100E9000000000000102030406070809000000002A
:100EA00001020304010203040607080902040608FC
:080EB00000000000000000003A
:0400000508000131BD
:00000001FF
