:020000040800F2
:100000007807002001010008D5190008D719000859
:10001000DB190008DF190008E319000800000000E0
:10002000000000000000000000000000E7190008C8
:10003000E919000800000000EB190008ED1900089C
:100040001B0100081B0100081B0100081B01000820
:100050001B0100081B0100081B0100081B01000810
:100060001B0100081B0100081B0100081B01000800
:100070001B0100081B0100081B0100081B010008F0
:100080001B0100081B0100081B0100081B010008E0
:100090001B0100081B0100081B0100081B010008D0
:1000A0001B0100081B0100081B0100081B010008C0
:1000B0001B0100081B0100081B0100081B010008B0
:1000C0001B0100081B0100081B0100081B010008A0
:1000D0001B010008F9190008191A00081B01000883
:1000E0001B0100081B0100081B010008DFF80CD0F1
:1000F00004F0E2FE004800473719000878070020A6
:100100000648804706480047FEE7FEE7FEE7FEE7B1
:10011000FEE7FEE7FEE7FEE7FEE7FEE70302000874
:10012000ED0000080CB50020019000906C480068BC
:1001300040F480306A49086000BF6948006800F4F4
:10014000003000900198401C0190009818B9019867
:10015000B0F5A06FF1D16248006800F4003010B132
:100160000120009001E0002000900098012843D178
:100170005C48006840F010005A4908600846006872
:1001800020F0030008600846006840F002000860A4
:1001900053484068524948600846406848600846ED
:1001A000406840F4806048600846406820F47C1055
:1001B00048600846406840F4E81048600846006817
:1001C00040F08070086000BF4548006800F0007093
:1001D0000028F9D04248406820F0030040494860B8
:1001E0000846406840F00200486000BF3C48406854
:1001F00000F00C000828F9D10CBD10B5FFF792FFF4
:1002000010BD10B53648006840F001003449086060
:10021000084640683449084031494860084600684B
:10022000324908402E4908600846006820F48020C2
:1002300008600846406820F4FE0048604FF41F0044
:100240008860FFF7DAFF4FF000602949086010BDB1
:1002500010B5002100200022214B5B6803F00C0147
:1002600021B1042906D0082928D107E0214B224CCE
:10027000236027E01F4B204C236023E0184B5B6872
:1002800003F47010164B5B6803F48032022303EB17
:10029000904022B9194B4343174C23600DE0104B9B
:1002A0005B6803F4003323B1144B4343124C2360C7
:1002B00003E0104B4343104C236003E00D4B0E4C06
:1002C000236000BF00BF064B5B68C3F303130C4CF5
:1002D000E15C094B1B68CB40074C236010BD00005C
:1002E00000100240002002400000FFF8FFFFF6FE71
:1002F00008ED00E000127A000000002000093D0037
:100300000400002031490143314A1160704770B543
:10031000002100230F22C47804B32D4C246804F478
:10032000E064C4F5E064210AC1F10403CA404478E2
:1003300004FA03F18478144021430901254C06781E
:10034000A155047804F01F050124AC4005786D1117
:10035000AD0005F1E025C5F8004109E0047804F09E
:100360001F050124AC401C4D0678761145F8264047
:1003700070BD1A4A0A400243154B1B1F1A60704792
:1003800039B1134A121D12680243114B1B1D1A602A
:1003900006E00F4A121D126882430D4B1B1D1A60A6
:1003A0007047042808D14FF0E021096941F00401A9
:1003B0004FF0E022116107E04FF0E021096921F0E0
:1003C00004014FF0E0221161704700000000FA05BF
:1003D0000CED00E000E400E080E100E080FFFF1FA2
:1003E00001460020FE4A106800F038000843106003
:1003F0007047FB49096821F00801F94A116011466C
:100400000968014311607047F549096821F010013E
:10041000F34A116011460968014311607047F148C1
:10042000EF494860F04848607047EE48EC49486042
:10043000ED4848607047EA48006940F08000E849AC
:1004400008617047E648006940F08000E4490861AF
:1004500070470420E249C96801F0010109B1012097
:100460000EE0DF49C96801F0040109B1022007E08C
:10047000DB49C96801F0100109B1032000E0042044
:10048000704700B502460423FFF7E3FF034603E08D
:10049000FFF7DFFF0346521E012B01D1002AF7D1DF
:1004A00002B90523184600BD30B5044604254FF4B3
:1004B0003020FFF7E6FF0546042D17D1C848006934
:1004C00040F00200C649086108464461006940F0F6
:1004D000400008614FF43020FFF7D3FF0546C048C5
:1004E000006941F6FD710840BD490861284630BDEC
:1004F00010B504244FF43020FFF7C3FF0446042C4A
:1005000016D1B748006940F00400B54908610846B3
:10051000006940F0400008614FF43020FFF7B1FF60
:100520000446AF48006941F6FB710840AC490861D8
:10053000204610BD00B502460423FFF78AFF03469C
:1005400003E0FFF786FF0346521E012B01D1002A6C
:10055000F7D102B90523184600BD10B504244FF4A5
:100560003020FFF7E7FF0446042C16D19C480069B1
:1005700040F004009A4908610846006940F04000D4
:1005800008614FF43020FFF7D5FF04469448006916
:1005900041F6FB71084092490861204610BD0020D9
:1005A0008F49C96901F0020109B1012000E0002072
:1005B000704730B5A5250424FFF7F1FF00B10025F1
:1005C0004FF43020FFF75DFF0446042C3AD18548F4
:1005D00083498860844888600846006940F02000AC
:1005E00008610846006940F0400008614FF430207F
:1005F000FFF747FF0446042C1BD17948006941F6F8
:10060000DF710840764908610846006940F0100033
:10061000086176480580E002FFF733FF0446052CA9
:1006200010D06F48006941F6EF7108406C490861CD
:1006300008E0052C06D06A48006941F6EF710840D1
:1006400067490861204630BD78B506460C4604254A
:1006500000200090E802FFF714FF0546042D24D186
:100660005F48006940F001005D4908613480E8029C
:10067000FFF707FF0546042D10D1B01C0090200C99
:1006800000990880E802FFF7FCFE0546544800691F
:1006900041F6FE7108405249086106E05048006981
:1006A00041F6FE7108404E490861284678BD70B594
:1006B00004460D460426F002FFF7E3FE0646042E2C
:1006C00011D14748006940F0010045490861258083
:1006D000F002FFF7D6FE06464148006941F6FE717A
:1006E00008403F490861304670BD70B505460E466A
:1006F0000424E002FFF7C5FE0446042C17D1394854
:1007000037498860384888600846006940F0100022
:1007100008612E80E002FFF7B4FE0446052C06D0E7
:100720002F48006941F6EF7108402D4908612046C5
:1007300070BD2DE9F04304464FF6FF763746B046CC
:10074000B1460425E443E6B2C4F30727C4F30748DF
:100750004FEA1469E802FFF794FE0546042D49D1DB
:1007600020481F498860204888600846006940F09A
:1007700010000861FF2E06D01C4808300680E802F1
:10078000FFF77FFE0546042D08D1FF2F06D017483E
:100790000A300780E802FFF774FE0546042D0AD1EF
:1007A000B8F1FF0F07D011480C30A0F80080E80224
:1007B000FFF767FE0546042D0AD1B9F1FF0F07D0F8
:1007C0000A480E30A0F80090E802FFF75AFE0546EE
:1007D000052D0FD00248006941F6EF71084007E08F
:1007E0000020024023016745AB89EFCD00F8FF1FD1
:1007F000664908612846BDE8F08330B50546042403
:100800004FF43020FFF73DFE0446042C41D16048F0
:100810005E4988605F4888600846006940F02000B3
:1008200008610846006940F0400008614FF430203C
:10083000FFF727FE0446042C22D15448006941F6F4
:10084000DF710840514908610846006940F0100016
:1008500008611DB100205049088002E0A5204E49E2
:1008600008804FF43020FFF70CFE0446052C10D012
:100870004648006941F6EF7108404449086108E0C4
:10088000052C06D04148006941F6DF7108403F4918
:100890000861204630BDF0B505460E4617460424D3
:1008A0003B483A4988603B488860E002FFF7E9FD31
:1008B0000446042C19D13548006940F01000334932
:1008C000086147F0F800304328433349891C088009
:1008D000E002FFF7D6FD0446052C06D02B48006940
:1008E00041F6EF710840294908612046F0BD2748CC
:1008F000C069800870472548006A70470020234976
:10090000096801F0200109B1012000E000207047D2
:1009100029B11E4A126902431C4B1A6104E01B4AAA
:1009200012698243194B1A61704701460020012960
:1009300008D1164AD26902F001020AB1012008E08A
:10094000002006E0114AD2680A400AB1012000E006
:10095000002070470D49C860704704200B49C968E2
:1009600001F0010109B101200EE00849C96801F058
:10097000040109B1022007E00449C96801F010012F
:1009800009B1032000E0042070470000002002406D
:1009900023016745AB89EFCD00F8FF1F10B5044672
:1009A000CC48844208D10121042000F02DFB002115
:1009B000042000F029FB46E0C748844208D1012109
:1009C000082000F021FB0021082000F01DFB3AE088
:1009D000C248844208D10121102000F015FB0021FB
:1009E000102000F011FB2EE0BD48844208D1012107
:1009F000202000F009FB0021202000F005FB22E070
:100A0000B848844208D10121402000F0FDFA0021BD
:100A1000402000F0F9FA16E0B348844208D10121E1
:100A2000802000F0F1FA0021802000F0EDFA0AE0C9
:100A3000AE48844207D10121801500F0E5FA00217B
:100A4000A01500F0E1FA10BD10B50121084600F034
:100A5000DBFA0021012000F0D7FA10BD2DE9F041AA
:100A6000024600250026002000230024002791F8DC
:100A700003C00CF00F0591F803C00CF0100CBCF192
:100A8000000F03D091F802C04CEA050591F800C0B0
:100A9000BCF1000F31D0146800202BE04FF0010CA6
:100AA0000CFA00F3B1F800C00CEA03069E4220D114
:100AB00083004FF00F0C0CFA03F7BC4305FA03FC5C
:100AC0004CEA040491F803C0BCF1280F06D14FF0A2
:100AD000010C0CFA00FCC2F814C00AE091F803C043
:100AE000BCF1480F05D14FF0010C0CFA00FCC2F824
:100AF00010C0401C0828D1D31460B1F800C0BCF16C
:100B0000FF0F34DD546800202EE000F1080C4FF098
:100B1000010808FA0CF3B1F800C00CEA03069E4283
:100B200021D183004FF00F0C0CFA03F7BC4305FAF8
:100B300003FC4CEA040491F803C0BCF1280F05D172
:100B400000F1080C08FA0CF8C2F8148091F803C000
:100B5000BCF1480F07D100F1080C4FF0010808FA6A
:100B60000CF8C2F81080401C0828CED35460BDE8B1
:100B7000F0814FF6FF710180022181700421C17064
:100B800070470246002093680B400BB1012000E043
:100B9000002070470146886880B2704702460020F6
:100BA000D3680B400BB1012000E0002070470146E4
:100BB000C86880B2704701617047416170470AB1EF
:100BC000016100E041617047C16070474FF48032BD
:100BD0000A4382618161826182698269704702464B
:100BE0000020434B18684FF68073184040EA02100B
:100BF00008433F4B186070473E49C8617047F0B5E5
:100C00000A46002300240021002500F00046B6F12A
:100C1000004F02D1364EF16901E0354E7168C0F3E4
:100C2000034583B200F44016B6F5401F08D121F009
:100C300070612F4E766826F070662D4F7E6012E050
:100C400000F48016B6F5801F06D1032606FA05F4D7
:100C5000A14341F0706106E0460D360103FA06F645
:100C6000B14341F0706122B1460D360103FA06F638
:100C7000314300F00046B6F1004F02D11C4EF16145
:100C800001E01B4E7160F0BD30B500228B071C0FD8
:100C90000F2303FA04F2164B08338C1053F8243058
:100CA0009343134C08348D1044F8253023468C10A0
:100CB00053F824308C07240F00FA04F423430C4C1F
:100CC00008348D1044F8253030BD0A49DC31086005
:100CD0007047000000080140000C01400010014076
:100CE0000014014000180140001C01400020014098
:100CF0000000014000002042DF48006840F0010091
:100D0000DD49086008464068DC490840DA49486027
:100D100008460068DA490840D74908600846006874
:100D200020F4802008600846406820F4FE004860F7
:100D30004FF41F0088607047CF49096821F4803163
:100D4000CD4A11601146096821F480211160B0F587
:100D5000803F03D0B0F5802F0ED106E0C649096868
:100D600041F48031C44A116007E0C349096841F485
:100D7000A021C14A116000E000BF00BF704710B55C
:100D800001460022002300204A11012A02D1BA4C58
:100D9000236806E0022A02D1B74C236A01E0B64C70
:100DA000636A01F01F02012494401C400CB1012031
:100DB00000E0002010BD38B5002000900024002580
:100DC00000BF3120FFF7DBFF05460098401C009074
:100DD0000098B0F5A06F01D0002DF2D03120FFF7C0
:100DE000CEFF08B1012400E00024204638BD0146B2
:100DF0000020A14A106820F0F80040EAC10010600D
:100E00007047A04908607047024600209A4B586816
:100E100020F47C1042EA01031843974B5860704756
:100E200098490866704701460020934A506820F0B0
:100E300003000843506070478F48406800F00C0082
:100E40007047014600208C4A506820F0F0000843AB
:100E50005060704701460020874A506820F4E060E7
:100E600008435060704701460020834A506820F4D0
:100E7000605040EAC1005060704729B17E4A527A02
:100E800002437D4B5A7204E07B4A527A82437A4B8A
:100E90005A7270477B49D83108607047014600207C
:100EA000754A506820F44040084350607047002164
:100EB000714A20321170704A82F82010012802D045
:100EC00004280AD104E001216B4A2032117005E0A8
:100ED0000521694A2032117000E000BF00BF704751
:100EE0006949086070476449096A0143624A1162AE
:100EF0007047654944390860704730B500210022C9
:100F0000002400235C4D6D6805F00C0121B104291B
:100F100005D0082923D105E05C4D056022E05B4D3A
:100F200005601FE0544D6D6805F47012524D6D68F8
:100F300005F48034022505EB92421CB9544D55430B
:100F400005600BE04C4D6D6805F400351DB1504D4A
:100F50005543056002E04D4D5543056002E04B4DA1
:100F6000056000BF00BF444D6D6805F0F001090940
:100F7000484D6B5C0568DD4045603F4D6D6805F48C
:100F8000E061090A434D6B5C4568DD4085603A4D80
:100F90006D6805F46051C90A3E4D6B5C4568DD40E3
:100FA000C560354D6D6805F44041890B3A4D6B5C69
:100FB000C568B5FBF3F5056130BD29B12E4A52690C
:100FC00002432D4B5A6104E02B4A526982432A4B5B
:100FD0005A61704729B1284A92690243264B9A61A7
:100FE00004E0254A92698243234B9A61704729B1F4
:100FF000214AD2690243204BDA6104E01E4AD269D9
:1010000082431D4BDA61704729B11B4AD268024303
:10101000194BDA6004E0184AD2688243164BDA6052
:10102000704729B1144A12690243134B1A6104E054
:10103000114A12698243104B1A61704712494039B4
:10104000086070470F49C86470470B49C871704702
:101050000948406A40F0807007494862704701467D
:101060000020054A92680A400AB1012000E00020F1
:101070007047014988727047001002400000FFF875
:10108000FFFFF6FE000042428004424200127A0056
:1010900000093D00140000202400002010B5044683
:1010A000BE48844208D101218014FFF7ADFF002122
:1010B000A014FFF7A9FF16E0B948844208D1012126
:1010C0000014FFF7AEFF00212014FFF7AAFF0AE08B
:1010D000B448844207D10121C013FFF7A2FF0021C9
:1010E000E013FFF79EFF10BD10B50022028802F446
:1010F00041520B884C8823438C882343CC8823435C
:101100000C8923434C8923438C892343CC89234373
:101110001A430280838B4FF2FF74234083830B8A30
:10112000038210BD2DE9F04F85B005460C464FF007
:10113000000902274FF000084FF0010B0026B246CD
:10114000A88B4FF240010840A88302202884B5F8FC
:101150001C90A068022801D100BF38E0A08810B917
:101160004FF0010B01E04FF0020B8D48854200D19A
:1011700000E000BF6846FFF7C0FEDDF800A0E08891
:10118000B0F5007F0AD14FEA1A2000EB8000400042
:10119000A168B0FBF1F0401D86B20BE04FEA4B10A6
:1011A000BAFBF0F000EB80004000A168B0FBF1F06A
:1011B000401D86B20A20B6FBF0F606F00108A6EB49
:1011C0000800C0F34F074FF6FF7000EA0828022F0F
:1011D00001DBFF2F02DD02274FF00008E08840EA24
:1011E000080038432884A088A189084361880843FF
:1011F0002188084340F4006040EA0909A5F81C90E2
:1012000005B0BDE8F08F0021018041808180C18060
:10121000018141818181C1810721018270470021C3
:10122000018041808180C180022181600021818113
:10123000704721B1028842F04002028004E0028837
:101240004FF6BF731A400280704721B1828B42F47F
:101250008062828304E0828B4FF6FF331A408283E0
:10126000704730B5002400230C110125A540ABB216
:101270001AB185881D43858002E085889D4385805D
:1012800030BD1AB183880B43838002E083888B438F
:1012900083807047818170470146888970474FF687
:1012A000FF62914204D0028842F48072028004E01E
:1012B00002884FF6FF631A400280704721B182888E
:1012C00042F00402828004E082884FF6FB731A40E9
:1012D0008280704702884FF2FF731A4002800288B2
:1012E0000A4302807047018841F4805101807047B1
:1012F00021B1028842F40052028004E002884DF6D7
:10130000FF731A400280704702460020012901D075
:10131000108B00E0908A70470146088A7047B1F54B
:10132000804F04D1028842F48042028004E00288A7
:101330004BF6FF731A400280704702460020138963
:101340000B400BB1012000E000207047CA4302812E
:101350007047F0B50246002000240023002501F06C
:101360000F070126BE40B4B20B1101269E40B3B256
:10137000968806EA03051689264016B10DB10120AC
:1013800000E00020F0BD10B5002201F00F040123A1
:10139000A3409AB2D343038110BD00000030014046
:1013A00000380040003C004010B50446FB48844231
:1013B00009D101218803FFF727FE00214FF4804067
:1013C000FFF722FE32E0F648844209D101214804A9
:1013D000FFF727FE00214FF40030FFF722FE25E043
:1013E000F048844209D101218804FFF71AFE002148
:1013F0004FF48020FFF715FE18E0EB48844209D136
:101400000121C804FFF70DFE00214FF40020FFF773
:1014100008FE0BE0E548844208D101210805FFF7EA
:1014200000FE00214FF48010FFF7FBFD10BD2DE9F9
:10143000F04786B005460E460024A24600BFA146EE
:101440000027B08900B100BF2F462C8A4CF6FF70F0
:101450000440F08804432C82AC894EF6F31004401B
:10146000B08831890843718908430443AC81AC8A50
:101470004FF6FF400440B0890443AC8201A8FFF757
:101480003CFDC648874202D1DDF810A001E0DDF83E
:101490000CA0A88900F4004040B10AEBCA0000EBA0
:1014A0000A1031684900B0FBF1F807E00AEBCA0006
:1014B00000EB0A1031688900B0FBF1F86420B8FB3A
:1014C000F0F004012009642101FB1089A88900F4CF
:1014D000004040B1322000EBC900B0FBF1F000F059
:1014E0000700044308E0322000EB09106421B0FB40
:1014F000F1F000F00F0004432C8106B0BDE8F08746
:101500004FF41651016000218180C18001810C21BE
:10151000418100218181704710B502460020108A68
:101520004FF2FF0318400B884C8823438C882343D9
:10153000CC8823431843108210BD002101804180D4
:101540008180C180704721B1828942F4005282813A
:1015500004E082894DF6FF731A4082817047F0B52E
:101560000346002400260025002040F66A17B942F1
:1015700000D100BF1846C1F3421401F01F06012735
:1015800007FA06F5012C01D10C3004E0022C01D140
:10159000103000E014301AB107682F43076002E0F2
:1015A0000768AF430760F0BD1AB1838A0B4383829B
:1015B00002E0838A8B4383827047028A4FF6F0737E
:1015C0001A400282028A0A430282704782894FF2DD
:1015D000FF731A40828182890A438281704721B158
:1015E000828942F00202828104E082894FF6FD7313
:1015F0001A4082817047028A4FF6DF731A400282D6
:10160000028A0A430282704721B1028A42F4804270
:10161000028204E0028A4BF6FF731A40028270478E
:10162000C1F308028280704701468888C0F3080031
:101630007047818941F0010181817047028BD2B2EC
:101640000283028B42EA012202837047028B02F47A
:101650007F420283028B0A430283704721B1828A50
:1016600042F02002828204E0828A4FF6DF731A4041
:101670008282704721B1828A42F01002828204E0A5
:10168000828A4FF6EF731A408282704721B1828AB4
:1016900042F00802828204E0828A4FF6F7731A4011
:1016A0008282704721B1828942F40042828103E044
:1016B0008289C2F30E028281704721B1828A42F48C
:1016C0000062828204E0828A4FF2FF731A408282B3
:1016D0007047828A4FF6FB731A408282828A0A43DD
:1016E0008282704721B1828A42F00202828204E043
:1016F000828A4FF6FD731A408282704702460020AC
:10170000B1F5007F00D100BF13880B400BB1012061
:1017100000E00020704701F40072B2F5007F00D1B4
:1017200000BFCA430280704770B502460024002300
:101730000025002040F66A16B14200D100BFC1F377
:10174000421501F01F03012606FA03F3012D02D111
:101750009689334006E0022D02D1168A334001E01B
:10176000968A33400C12012606FA04F41688344097
:1017700013B10CB1012000E0002070BD10B50022B3
:10178000002340F66A14A14200D100BF0A120124CE
:101790009440A3B2DC43048010BD00000038014037
:1017A0000044004000480040004C00400050004011
:1017B00010B57F49096848698047022820D003286E
:1017C00002D004286ED164E050207A490870492084
:1017D00048704E2088704720C870042404E0201F01
:1017E00074490855601CC4B2734800888442F6DB13
:1017F0006F4800680269704801886E48904752E05F
:101800006B4800686C49C2686A489047002406E04B
:101810006848015D694800F071FA601CC4B2112C7F
:10182000F6DB65480088002832DD042264496148FF
:1018300003F03AF8F8B92021624800F066F9502028
:101840005C490870492048704E2088704720C87055
:10185000042404E0201F57490855601CC4B25648B0
:1018600000888442F6DB52480068026952480188C9
:10187000504890470CE0042253494E4803F014F8B6
:1018800030B900205149087020214E48FFF793F9E4
:1018900009E020214B4800F038F94549096888687B
:1018A000804700E000BF00BF10BD10B54049096887
:1018B00048698047022802D0042839D12FE03C48EB
:1018C00000683D49C2683B4890473B480088002873
:1018D00024DD04223C49374802F0E6FFF0B920211C
:1018E000384800F012F95020324908704F204870F3
:1018F0004E2088704720C870042404E0201F2D4922
:101900000855601CC4B22C4800888442F6DB284885
:1019100000680269284801882648904709E020218C
:10192000284800F0F2F8224909688868804700E0FA
:1019300000BF00BF10BD00F0D6F802F013FE00F0AB
:101940002FFA1B4908600968086880471849096828
:10195000886880472AE023E0154800681649C26875
:1019600014489047002406E01248015D134800F037
:10197000C5F9601CC4B2104800888442F4DB202101
:10198000104800F0C2F8002404E00020094908557E
:10199000601CC4B20A2CF8DB0549096888688047D6
:1019A00003490968486980470228D5D0D3E7000079
:1019B0002C000020E4000020280000200038014016
:1019C000755C0008000C0140705C00082A000020D3
:1019D00000BFFEE7704700BFFEE700BFFEE700BFA5
:1019E000FEE700BFFEE77047704770471248006887
:1019F000401C11490860704710B540F225510F484E
:101A0000FFF792FE38B10D48FFF70EFEC4B2214633
:101A10000BA003F0B5FA10BD10B540F225510948EE
:101A2000FFF782FE38B10748FFF7FEFDC4B221463A
:101A300003A003F0A5FA10BDD80000200038014033
:101A4000256300000044004008B501210820FFF78D
:101A5000C1FA2020ADF8000003208DF8020010200C
:101A60008DF8030069463B48FEF7F8FF202139480E
:101A7000FFF7A3F808BD10B54FF4A060FEF742FCD5
:101A800010BD10B5FFF738F94FF48030FFF754F967
:101A9000FFF791F90446012C24D11020FEF7B4FC85
:101AA0000220FEF79DFC0020FFF7CBF90020FFF796
:101AB000DAF9A002FFF7CEF94FF4E0112004FFF7A6
:101AC000A3F90120FFF7ACF900BF3920FFF757F960
:101AD0000028FAD00220FFF7A6F900BFFFF7ACF903
:101AE0000828FBD110BD10B5FFF7CBFFFFF7C3FFF0
:101AF00000F034F801210846FFF76CFA012116487E
:101B0000FFF77DF8FFF7A0FF10BDC2684A40C26032
:101B1000704709E0082100BF0A1EA1F10101FBD1B5
:101B200000BF00BF00BF00BF021EA0F1010398B2BA
:101B3000F0D17047002107E041F60E7100BF0A1E88
:101B4000A1F1010399B2FAD1021EA0F1010398B2EA
:101B5000F2D17047000C01400002300000B587B0A0
:101B6000012144F20400FFF735FA4FF40070ADF89C
:101B7000180018208DF81B0003208DF81A0006A904
:101B80007848FEF76BFF4FF48060ADF81800042032
:101B90008DF81B0006A97348FEF760FF25208DF81D
:101BA000140000208DF815008DF8160001208DF826
:101BB000170005A8FEF7ABFB4FF4E13001900020C1
:101BC000ADF80800ADF80A00ADF80C00ADF8100053
:101BD0000C20ADF80E0001A96348FFF728FC012294
:101BE00040F225516048FFF7BAFC01215E48FFF73B
:101BF000AAFC5EA003F0C4F907B000BD00B587B031
:101C000001210420FFF7E6F901214804FFF7EFF96D
:101C10000420ADF8180018208DF81B0003208DF863
:101C20001A0006A94F48FEF719FF0820ADF8180062
:101C300004208DF81B0006A94A48FEF70FFF262056
:101C40008DF8140000208DF815008DF81600012085
:101C50008DF8170005A8FEF75AFB4FF4E13001900C
:101C60000020ADF80800ADF80A00ADF80C00ADF8A2
:101C700010000C20ADF80E0001A94248FFF7D7FB79
:101C8000012240F225513F48FFF769FC01213D4800
:101C9000FFF759FC3CA003F073F907B000BD70B525
:101CA00004460D460BE021782F48FFF7B9FC00BF32
:101CB00040212D48FFF722FD0028F9D0641C281E82
:101CC000A5F10101CDB2EED170BDC0F30801264AE5
:101CD000121D118000BF2449098801F0400100292C
:101CE000F9D0704710B50446234603E01878FFF793
:101CF000ECFF5B1C18780028F8D110BD70B50446C5
:101D00000D4629462046FFF78BFC00BF8021204668
:101D1000FFF7F4FC0028F9D000BF40212046FFF770
:101D2000EDFC0028F9D070BD70B504460D46E1B257
:101D30000D48FFF775FC00BF40210B48FFF7DEFCA4
:101D40000028F9D0204670BD10B5044600BF202100
:101D50000548FFF7D3FC0028F9D00348FFF764FCDF
:101D600010BD000000080140003801400D0A20B4F9
:101D7000AEBFDA31B3F5CABCBBAFCDEAB3C9200DF3
:101D80000A000000004400400D0A20B4AEBFDA3261
:101D9000B3F5CABCBBAFCDEAB3C9200D0A00000041
:101DA00007480849086008484860084888600848AB
:101DB000C860084808610848486108467047000044
:101DC000B51E0008F0000020871E0008A51F0008AF
:101DD000BD1F0008DD1F00082B20000810B50446B9
:101DE00097480078A04200D110BD954804709548EE
:101DF0000470007801282BD1002001F01BFB9248D1
:101E00000068407800F07F0040F080008E4909684B
:101E100048708D4800684178012002F0A7FC01203D
:101E200001F008FB00208849096881F83F008649D5
:101E3000096881F840000222834801683F31402050
:101E400002F076FC6F228149012002F097FC18E035
:101E5000002001F0EFFA7C480068407800F07F0035
:101E6000794909684870784800684178012002F093
:101E70007DFC012001F0DEFA6F227449012002F09E
:101E80007DFC00BFB0E710B5012002F027FC7048D0
:101E9000046800BF6E480068001BFBD0002002F001
:101EA0001DFC6B48046800BF69480068001B0628D9
:101EB000FAD310BD08B56548401E664908606249FE
:101EC000086002F0B1FBFFF7DEFF6946062002F072
:101ED00074FC05E060A003F053F86420FFF72AFECD
:101EE0009DF800006C28F5D101205649087008467D
:101EF0000078FFF773FF01F0D1FA08BD5148007870
:101F0000704710B504464F48007818B9204600F0D5
:101F1000ABF802E0204601F08DFA10BD10B549483B
:101F2000007810B900F08BF910BD01F029FBFBE738
:101F300010B54448007810B900F0E0F910BD01F088
:101F400038FBFBE710B53F48007810B900F0CAF93C
:101F500010BD01F022FBFBE710B53A48007810B93C
:101F600000F0E1F910BD01F05AFBFBE710B5354870
:101F7000007808B900BFFEE701F054FB10BD10B5B2
:101F80003048007810B900F0D1F910BD01F04EFBD7
:101F9000FBE710B52B48007810B900F0CAF910BD66
:101FA00000BFFEE710B52748007818B9012000F0FF
:101FB000C3F902E0012001F03CFB10BD70B50446FE
:101FC0000D462048007820B92946204600F0BCF98B
:101FD00003E02946204601F034FB70BD70B504468D
:101FE0000D461848007820B92946204600F0BBF974
:101FF00003E02946204601F033FB70BD10B51148BF
:10200000007810B900F0FFF910BD01F03FFBFBE7CD
:1020100010B504460B48007818B9204600F08CF93A
:1020200002E0204601F005FB10BD10B50548007820
:1020300010B900F0EBF910BD01F02BFBFBE700003D
:102040003100002030000020B400002009010020F1
:10205000D800002054000020486172642053504989
:1020600020457272210D0A0070B504460025F7481C
:102070000068407820F0F800F549087008460078BC
:1020800084421CD0032C01D1012500E00025F14839
:102090000078854204D0EF480570284602F0D2FB54
:1020A000EA480068407800F0F8002043E7490968F2
:1020B0004870E64800684178012002F057FB70BD87
:1020C00010B5E24801684231422002F076FB10BDB3
:1020D00010B50020E0490870FFF7F2FF6F22DF49DA
:1020E000012002F04BFB0020D84909684870D7480E
:1020F00000684178012002F039FB2020D3490968AB
:102100008872D2480068817A0A2002F02FFB2020D2
:10211000CE4909680873CD480068017B0C2002F0A5
:1021200025FBCF48407E012804D11E20C7490968FD
:10213000487303E00E20C549096848730820C34965
:10214000096881F82600AA20C0490968C877FF20DD
:10215000BE49096808749320BC49096881F82700C2
:102160006920BA49096881F828008120B7490968BF
:1021700081F829007E20B549096881F82A00962057
:10218000B249096881F82B00B548007E802141EAF8
:102190000010AE49096881F8300000F0ACFFB0488B
:1021A000807EAA49096881F832006F22AB4901207C
:1021B00002F0BEFAAA49086800F030FCA849486855
:1021C00000F0CCFCA649886800F012FDA44800216C
:1021D00002699E480068123000F0F5FEA048002118
:1021E00042699A480068133000F0EDFE002001F0CB
:1021F00071F89B4800689B4988420DD9802001F006
:1022000015F8012000F0D5FF14209549087391F9C5
:102210000C0000F044FD0CE0002001F007F8002065
:1022200000F0C7FF0E208E49087391F90C0000F0F2
:1022300036FD0120FFF718FF00F03EFC10BD10B581
:1022400082480168491C012002F0B7FA7F48006803
:10225000407820F0F80010BD2DE9F04702227B48BD
:1022600001681D311D2002F089FA78490968897FCB
:10227000764A1268527F41EA022002F0ACFC8046A6
:1022800002F0C7FC824602F0A6FC06460022764B0E
:1022900002F0C0FB044602F0BCFCBDE8F0872DE96B
:1022A000F0470222694801681B311B2002F066FAE0
:1022B00066490968097F654A1268D27E41EA0220B0
:1022C00002F089FC804602F0A4FC824602F083FC06
:1022D00006460022644B02F09DFB044602F099FC86
:1022E000BDE8F08710B5594801680C310C2002F0A8
:1022F00064FA56480068007B400910BD70B5534829
:1023000001681131112002F058FA50490968487CDF
:1023100002F072FC044600224FF0804302F0ECFB16
:1023200081F0004170BD514800787047504903C9A1
:10233000704750480068704747490870704700B5BB
:102340000120FFF7F9FF00BD70B505460C464A486D
:102350000088208000204849088022884749284674
:1023600002F07EFA70BD70B504460D464448058003
:1023700002882146414802F073FA07203649087066
:1023800070BD30B53148006890F8270000F00700B4
:10239000421C2E48006890F83000C3092B480068A2
:1023A00090F8300000F0060008B1012000E00020A5
:1023B00004462648006890F832102448006890F8D7
:1023C000300000F01000102801D1022000E00020B1
:1023D0000546D01820440844284480B230BD1B482C
:1023E000006890F82600194B1B6893F8253040EAE6
:1023F00003211648006890F8270000F00700421CEF
:10240000881880B270471448007870472DE9F04F63
:102410008BB001200990104800780C287ED2DFE8AC
:1024200000F00607A3FDFCFBFAF9F8F7F6F5DFE28A
:102430000648006890F8300000F01000102821D104
:102440004C200249096881F8400020E05400002037
:102450009000002091000020590000200901002078
:1024600038000020008F423380844E407C000020E2
:102470007000002078000020680000207801002013
:10248000880000200C20FE49096881F84000E12006
:10249000FB49096881F841000222F948016840318E
:1024A000402002F045F90520FFF7DEFD4FF4807172
:1024B000F44802F0EEF9F449486802F09DFBCDE9DA
:1024C0000201FFF75EFF019002F096FB80460022BA
:1024D000EE4B02F09FFA0646DDE9022302F00CFB08
:1024E0000022EB4BCDE9040102F094FACDE906019C
:1024F00003F04EFB089002F06EFB04460022E54B11
:1025000002F0E1F9824602F0A3FB80B2E2490860E2
:102510000846006800EB5000086000E067E20846EB
:102520000068DE490860DE480068DE490860DE4970
:102530000860A020D249096881F83500D0480068B9
:1025400090F83510352002F011F90020D7490870B5
:10255000D7490870D7490870D7490870D74908800B
:102560000220D749087043E202F05EF9012809D140
:10257000CE48007830B90120CC490870C8480068BE
:10258000C949086002F042F901281ED1C748007805
:1025900001281AD1C6480078B8B90120C44908708A
:1025A000FFF7ACFEC74A03C2FFF779FEC6490860D1
:1025B000FFF798FEC5490870B9480068B949086036
:1025C000B94908600320BE490870B9480078B8B915
:1025D000B6480078012813D1B1480068B2490968AB
:1025E000401AAE49096888420AD90120B4490870E6
:1025F000A3480068407B40F020010D2002F0B6F8AF
:10260000AB480078D8B9A948007808E0E9E1E2E1F0
:1026100095E160E10FE1FBE0E7E0DDE010E070B99B
:10262000A448007858B99E4800689E490968401A35
:1026300099490968884202D90520A1490870D7E163
:102640009E480088B0F5807F03DD06209C49087015
:10265000CEE102F0D4F8012853D198480088A8B9F7
:102660009548007890B98648006890F8300000F0EE
:102670008000802804D10121904802F0B0F805E0E4
:102680007F48006890F832008C4908808B480088A9
:1026900089490978401A7A49096891F8351001F09A
:1026A0003F01884217DD764A126892F8352002F021
:1026B0003F01744A804B1B78D01802F090F87048A4
:1026C000006890F8350000F03F007B490978084425
:1026D0007949087015E0794A1278774B1B78D21A3D
:1026E000D1B2684A744B1B78D01802F078F873485E
:1026F000007871490978401A6F49097808446E4991
:10270000087002F075F8012856D1654800686549DF
:1027100008606A48008890BB6748007878BB5848D2
:10272000006890F8300000F08000802804D101217A
:10273000624802F054F805E05148006890F8320011
:102740005E4908805D4A12785B4B1B78D21AD1B281
:102750004C4A594B1B78D01802F041F85748007882
:1027600055490978401A5449097808445249087073
:102770000120504908700420514908701CE0FFE70F
:102780004E4A12784C4B1B78D21AD1B23D4A4A4B72
:102790001B78D01802F023F8484800784649097899
:1027A000401A4549097808444349087001204149C5
:1027B00008700420424908703E48007858B93848EB
:1027C000006838490968401A33490968884202D9C3
:1027D00005203B4908700BE10020374908700120B3
:1027E000374908700220099002E100203249087040
:1027F0003249088022480068407B40F020010D20CB
:1028000001F0B4FF01202E49087003200990EFE089
:102810000020294908702949088019480068407B30
:1028200040F020010D2001F0A1FF01202449087093
:1028300006200990DCE001201149096881F8400078
:1028400020200F49096881F8410002220C480168E4
:102850004031402001F06CFF98200949096881F857
:1028600035000748006890F83510352001F07EFFEC
:102870000320FFF7F9FB082011490870002027E02A
:102880005400002078010020380000200000204083
:1028900000408F400000F03F5C00002060000020FE
:1028A000D800002080000020840000206400002068
:1028B00065000020660000206A00002068000020FB
:1028C0005900002070000020780000207C000020CB
:1028D0004A4908708CE001F0A0FF01282ED1484839
:1028E000006890F8300000F08000802803D10121BA
:1028F000444801F06BFF43480088002808DD414848
:102900000088402804DC3F4800783F49087002E016
:1029100020203D4908703C4801783C4801F056FFB2
:1029200036480078384909780844344908703848EE
:1029300000683849086009203749087058E001F0FC
:102940005EFF70BB2F4800882C490978401A2E4939
:10295000097888420FDD2D49284A127888182A49BB
:10296000097801F033FF25480078274909780844A1
:102970002249087015E0234A1278204B1B78D21A9E
:10298000D1B2224A1D4B1B78D01801F01FFF1D4801
:1029900000781A490978401A1849097808441749F3
:1029A000087001F025FF012809D11948006819496C
:1029B00008600A20184908700120FFF755FB1448E9
:1029C000006814490968401AB0F57A7F02D90B20D3
:1029D000114908700CE000200F490870042009908C
:1029E00006E000200C4908700520099000E000BFB7
:1029F00000BF09980BB0BDE8F08F00006B0000200D
:102A00005400002088000020580000207801002099
:102A1000D80000208C000020590000202DE9F04152
:102A20000446FB480460204602F0E6F80546002212
:102A3000F84B02F061F8074602F00AF90446200C50
:102A4000F54909688871200AF3490968C871F24993
:102A500009680C720322F0480168891D062001F004
:102A600067FEBDE8F0812DE9F0410322EA480168E4
:102A7000891D062001F082FEE74800688079000485
:102A8000E5490968C97940EA0120E3490968097AFA
:102A90000843DF490860086802F0AEF806460022E5
:102AA000DC4B01F0B7FF044602F0D2F8D8490860C9
:102AB00008460068BDE8F08138B56946092001F094
:102AC0007CFEFFF7D0FF04460020D3490968487216
:102AD000D1480068417A092001F048FECF48FFF74D
:102AE0009DFFCD4801683B313B2001F066FECA489E
:102AF000006890F83B0000F0BF0040F04000C6497D
:102B0000096881F83B00C448006890F83B103B20FE
:102B100001F02CFEC04801683B313B2001F04DFE26
:102B200005E0BD4801683B313B2001F046FEBA4854
:102B3000006890F83B0000F020002028F1D09DF8BC
:102B40000000B54909684872B3480068417A092015
:102B500001F00CFE2046FFF761FF38BD2DE9F04182
:102B60000446AB484460204602F046F805462A4633
:102B70000B460020AA4901F0BFFF074602F068F8A3
:102B800084B2200AA44909688870A3490968CC70F6
:102B90000222A1480168891C104601F0C9FDBDE868
:102BA000F0812DE9F04102229B480168891C104602
:102BB00001F0E4FD98480068C07897490968897871
:102BC00040EA012092494860486802F015F806463C
:102BD00032460B460020924901F08EFF044602F077
:102BE00037F880B28A49486008464068BDE8F081FD
:102BF0002DE9F04104468648846087480168091D34
:102C0000042001F0DAFD204601F0F6FF054600221F
:102C1000804B01F071FF074602F01AF884B27E483B
:102C20000068007900F0C000210A21F0C0010843CB
:102C3000794909680871784909684C710222764817
:102C40000168091D042001F073FDBDE8F0812DE944
:102C5000F041022270480168091D042001F08EFD38
:102C60006D48006800796FF0C00101EA00206A49F0
:102C700009684979084366498860886801F0BCFFA3
:102C800006460022634B01F0C5FE044601F0E0FF5A
:102C900080B25F49886008468068BDE8F08110B561
:102CA00004465D4801680931092001F086FD5A4853
:102CB00001684D314D2001F080FD57480068407A91
:102CC00000F08000802841D15348006890F84D0002
:102CD00000F0870087281CD1052C00DA0524142C6D
:102CE00000DD14244C480068407A00F08F0040F06A
:102CF000700049490968487247480068407A00F006
:102D0000F000611F01F00F01084343490968487250
:102D10003AE0022C00DA0224112C00DD11243E4896
:102D20000068407A00F08F0040F070003A4909686E
:102D3000487239480068407A00F0F000A11E01F0A6
:102D40000F0108433449096848721DE0B4F1FF3FA0
:102D500001DA4FF0FF340E2C00DD0E242E480068FF
:102D6000407A00F08F0040F070002B4909684872EB
:102D700029480068407A00F0F000611C01F00F0162
:102D8000084325490968487223480068417A0920A8
:102D900001F0ECFC1E48047310BD10B51E4801681C
:102DA0000931092001F009FD1B4801684D314D2012
:102DB00001F003FD18480068407A00F08000802888
:102DC00019D11548006890F84D0000F00700072859
:102DD00008D111480068407A20F0F000401D0C49ED
:102DE000087310E00C480068407A20F0F000801C66
:102DF0000749087307E008480068407A20F0F000AF
:102E0000401E03490873024890F90C0010BD0000F1
:102E10003800002080844E4054000020008F423350
:102E200080847E412DE9FF5F83468A46002018BBDF
:102E30000AF1020001F0CFFE064632460B460020A2
:102E40004FF0804102F0B8F9CDE90001584601F099
:102E5000D3FE8046DDE9002301F0DCFD02460B468F
:102E6000CDE902010020FD4901F046FE044601F0D3
:102E7000EFFE04B0BDE8F09F0AF1030001F0ABFEE5
:102E800002460B46CDE9000100204FF0804102F0E0
:102E900093F9CDE90201584601F0AEFE0646DDE9A0
:102EA000022301F0B7FD044622460B460020EB4901
:102EB00001F022FE804601F0CBFEDAE72DE9F74F64
:102EC00088B08A4693460024A14600BF0027DFF859
:102ED000908300BF72E04FF010096AE0002008BB49
:102EE000A01C01F078FE02460B46CDE9000100204F
:102EF0004FF0804102F060F9CDE90401484601F04D
:102F00007BFECDE90201DDE9042301F083FD0246E9
:102F10000B46CDE906010020D04901F0EDFD054644
:102F20000E4620E0E01C01F056FE02460B46CDE9BD
:102F3000000100204FF0804102F03EF9CDE904018C
:102F4000484601F059FECDE90201DDE9042301F014
:102F500061FD02460B46CDE906010020BF4901F0A4
:102F6000CBFD05460E46089801F046FE2A4633463C
:102F7000CDE9040101F04BFD21F000413A46434602
:102F8000CDE9060101F07EFE0FD2089801F034FE73
:102F90002A463346CDE9060101F039FD21F000480B
:102FA00007468AF800908BF8004009F1040000F011
:102FB000FF09B9F1180F91DD601CC4B2082C8ADB3F
:102FC0000BB0BDE8F08F7CB504460E4615460020D8
:102FD00001900090A34800681230844203D106F0AB
:102FE0006000207001E0002020706A4601A9284698
:102FF000FFF764FF9DF80400102804D014280AD0BD
:1030000018281CD111E020789DF8001001F007016C
:103010000843207014E020789DF8001001F00701AB
:1030200041F00801084320700AE020789DF8001064
:1030300001F0070141F010010843207000E000BFDB
:1030400000BF884800681230844206D121781220DF
:1030500001F08CFB8448056105E02178132001F024
:1030600085FB814845617CBD70B50446002500267E
:103070002078C0F3C10020B1012804D0022806D175
:1030800003E0102604E0142602E0182600E000BF4A
:1030900000BF207800F007013046FFF7C3FE054669
:1030A000704800681230844203D128466E490D6191
:1030B00070BD28466C494D61FAE710B50446694871
:1030C00001683031302001F078FB6648006890F8E4
:1030D000300000F0EF0040EA04106249096881F80E
:1030E00030006048006890F83010302001F03EFB5E
:1030F0005D48047610BD10B55A4801683031302063
:1031000001F05BFB5748006890F83000C0F30010F6
:10311000554908760846007E10BD10B50446514852
:1031200001680D310D2001F048FB4E480068407BDE
:1031300000F0EF0040EA04104A4909684873494822
:103140000068417B0D2001F011FB4748447610BD1B
:1031500010B5444801680D310D2001F02EFB4148A7
:103160000068407BC0F300103F4948760846407E27
:1031700010BD10B504463B48006880F8324039481D
:10318000006890F83210322001F0F0FA3648847668
:1031900010BD10B5334801683231322001F00DFB0B
:1031A0003048006890F832002F4988760846807EC3
:1031B00010BD10B504462B4801684D314D2001F07B
:1031C000FCFA284801680931092001F0F6FA25487F
:1031D0000068407A00F08000802807D1012C0AD1D5
:1031E00087202049096881F84D0004E084201D49AA
:1031F000096881F84D001B48006890F84D104D207B
:1032000001F0B4FA10BD10B5164801684D314D20DB
:1032100001F0D3FA1348006890F84D0000F0070061
:10322000072801D1012010BD0020FCE710B504469D
:103230000C4801680931092001F0BFFA094800680B
:10324000407A00F07F00204306490968487205482B
:103250000068417A092001F089FA10BD80847E411E
:10326000D0126341540000203800002010B56F4890
:1032700001680931092001F0A0FA6C480068407A21
:1032800020F07F0010BD10B50446684801680A317F
:103290000A2001F092FA65480068807A00F0F00098
:1032A00024F0F00108436149096888725F480068AA
:1032B000817A0A2001F05AFA10BD10B55B48016806
:1032C0000A310A2001F079FA58480068807A20F023
:1032D000F00010BD10B50446544801680E310E20B0
:1032E00001F06BFA002C04DA1F2020EA0404641CAD
:1032F00064424E480068807B04F01F0140EAC10030
:103300004A490968887349480068817B0E2001F0AA
:103310002DFA10BD10B5454801680E310E2001F0A0
:103320004CFA42480068807BC41004F0100010285A
:1033300004D11F2020EA0404641C6442204610BD0E
:1033400070B50024394801683B313B2001F035FA63
:103350003648006890F83B0000F0FE0033490968E9
:1033600081F83B003148006890F83B103B2001F0A9
:10337000FDF92E480168491C012001F01EFA2B4876
:103380000068457804202949096848702748006882
:103390004178012001F0EAF92548066800BF244879
:1033A0000068801BFBD0214801683B313B2001F0C5
:1033B00004FA1E48006890F83B0000F0FE00401C34
:1033C0001A49096881F83B001848006890F83B10DA
:1033D0003B2001F0CBF9154801683C313C2001F05D
:1033E000ECF91248006890F83C0000F07F040F48A8
:1033F000006890F83C0000F08000802801D1604215
:1034000044B22946012001F0B1F9204670BD10B543
:103410000446FFF795FF201A40B210BD10B50446D0
:10342000FFF78EFF204440B210BD00005400002082
:10343000D800002070B504460025FE48006840789A
:1034400020F0F800FC4908700846007884421CD03F
:10345000032C01D1012500E00025F84800788542C1
:1034600004D0F6480570284601F0ECF9F1480068F0
:10347000407800F0F8002043EE4909684870ED48B4
:1034800000684178012001F071F970BD10B5E9487C
:1034900001684131422001F090F910BD10B50020C3
:1034A000E7490870FFF7F2FF6F22E649012001F0BB
:1034B00065F92020DF49096808736F22E14901207E
:1034C00001F036F9E049086800F052FCDE498879DD
:1034D00000F098FDDC49C87900F0CDFDDA49087AA2
:1034E00000F0F6FDD849487900F048FDD649487A01
:1034F00000F052FE40F2FF3000F05AFFD249087E41
:1035000000F0ADFE012000F087FFCF480068CF49F2
:1035100088420DD9802000F0FFFE012000F0BFFEA0
:103520001420C949087191F9040000F06FFC0CE007
:10353000002000F0F1FE002000F0B1FE0E20C24994
:10354000087191F9040000F061FC0120FFF772FF9F
:1035500010BD10B5012001F0C1F8BD48046800BFDE
:10356000BB480068001BFBD0002001F0B7F8B8484A
:10357000046800BFB6480068001B0628FAD310BDD7
:1035800010B5AC480168491C012001F016F9A948A2
:103590000068407820F0F80010BD10B5A54801681B
:1035A0000C310C2001F009F9A2480068007B4009A9
:1035B00010BD2DE9F0419F4801681B311B2001F02F
:1035C000FCF8A1480068A349884214D299490968C7
:1035D000C87E01F011FB04460D469B4840799E4988
:1035E00001EBC000D0E9006332462046294601F0D5
:1035F0006AF9BDE8F0818F490968C87E01F0FCFADC
:1036000004460D4690484079944901EBC000D0E94A
:10361000006332462046294601F055F9E9E7904813
:10362000007870478F4890F9000070478E4903C9B1
:10363000704783490870704700B50120FFF7F9FF14
:1036400000BD70B505460C468848008820800020E3
:103650008649088022888649284601F001F970BD14
:1036600070B504460D467848C07A10B98148058087
:1036700002E0FF207F4908807E48028821467C487E
:1036800001F0EEF805206E49087070BD6C480078B6
:1036900070472DE9FE4F01200290694800780B2801
:1036A00074D2DFE800F0060774FCF4F3F2F173F073
:1036B000EF0055E30120FFF7BDFE9D205D4909683D
:1036C00048745C480068417C112001F04FF85E4866
:1036D000C07A012816D15C48007B5649096881F8F8
:1036E0002400544801681C311C2001F066F851493F
:1036F0000968097F01F03F015F4A52F8210000F09C
:1037000037FB04E0FF204B49096881F82400494851
:10371000006890F82410242001F028F80020454982
:10372000096881F83F004349096881F84000022296
:10373000404801683F31402000F0FAFF4248807A5B
:10374000012803D10620FFF775FE0EE03948006816
:10375000C07B38490968487336480068417B0D20B2
:1037600001F004F80520FFF765FE4FF48071404832
:1037700001F08FF8344840694049086034480068D7
:103780003F49086002202E490870E9E2E7E201F0B3
:103790002FF801281ED12E480068394908602A48B0
:1037A000C07A01280FD1234801681C311C2001F088
:1037B00004F820490968097F01F03F012E4A52F8B8
:1037C000210000F0D5FA4021122000F0CFFF0320A5
:1037D0001B49087001F01AF801281FD11C48006825
:1037E000274908601848C07A01280FD1114801689C
:1037F0001C311C2000F0E1FF0E490968097F01F02F
:103800003F011D4A52F8210000F0B2FA02211220B5
:1038100000F0ACFFFFF7C1FE114908700A48807A3A
:1038200001283BD10A48006815490968401A134924
:1038300009682EE0B4000020D6000020D700002048
:10384000B800002009010020980000200057A616AB
:10385000D8000020008F4233E05C0008305D000893
:10386000C8000020BC000020C0000020BA000020DA
:1038700078020020D4000020805D0008D0000020E5
:10388000CC0000204FE22AE220E2D4E159E152E1EB
:1038900005E0884202D90420FB49087060E2FB4839
:1038A00001681231122000F088FFF8480068807C1F
:1038B00000F0200020280ED12021122000F056FF19
:1038C000F348807A012802D1EF49087002E0022013
:1038D000ED49087044E201A9192000F06EFF9DF83F
:1038E000040000F0800068B19DF80400C043401C53
:1038F000C0F38500E749087008460078404240B2AE
:10390000087004E09DF804008008E2490870E0486F
:103910000068E149884246D2DE4890F9000000285C
:1039200025DADC4890F9000001F055F904460D460F
:10393000D7484079D94901EBC000D0E9006332464D
:103940000020D74901F066F882460022D54B00F0EE
:10395000BAFF0022D44BCDE9000100F0B4FF80464D
:1039600022462B4600F0AFFFD04A03C261E0C748B1
:1039700001681A311A2000F020FFC4490968887EC6
:1039800001F03AF904460D46C1484079C84901EBB7
:10399000C000D0E9006332462046294600F093FF7C
:1039A000C24A03C245E0BB4890F90000002825DA6E
:1039B000B84890F9000001F00EF980468946B448F5
:1039C0004079B64901EBC000D0E9006332460020DF
:1039D000B34901F01FF804460022B24B00F073FF18
:1039E0000022B44BCDE9000100F06DFF8246424653
:1039F0004B4600F068FFAD4A03C21AE0A3480168D5
:103A00001A311A2000F0D9FEA0490968887E01F019
:103A1000F3F804460D469E484079A74901EBC000E3
:103A2000D0E9006332462046294600F04CFF9F4A09
:103A300003C29748807A01282FD194480068C07B40
:103A400092490968487391480068417B0D2000F055
:103A50008DFE8F48407A01280DD18C48006890F87F
:103A60002200964908808948006890F822109448FE
:103A700000F0B5FE52E0854801681331132000F0D4
:103A80009CFE82480068C07C8C4908807F480068A2
:103A9000C17C8B4800F0A3FE40E07C4801681031F7
:103AA000102000F08AFE7A48407A012819D1774820
:103AB000006890F822008149088074480068007C02
:103AC00072490968487371480068417B0D2000F015
:103AD0004DFE6E48006890F82210794800F07FFE95
:103AE0001CE06A4801681331132000F066FE674845
:103AF0000068C07C7149088064480068007C6349A4
:103B00000968487361480068417B0D2000F02EFE73
:103B10005E480068C17C6A4800F061FE5C48807ABB
:103B2000012802D15849087002E002205649087065
:103B30000220029014E101205349087003200290F2
:103B40000EE10120FFF776FC5148C07A01281AD116
:103B5000F5204E49096848744D48007B4B49096877
:103B600081F82400494801681C311C2000F025FE22
:103B700046490968097F01F03F01524A52F8210085
:103B800000F0F6F808E0F720404909684874002082
:103B90003E49096881F824003C48006890F82410E8
:103BA000242000F0E3FD39480068417C112000F03A
:103BB000DDFD454800783549096881F82200334821
:103BC000006890F82210222000F0D0FD00202F493C
:103BD000096888732D480068817B0E2000F0C6FDBF
:103BE0002A480068807B294909684873274800688B
:103BF000417B0D2000F0BAFD2448006890F82210A7
:103C00002F4800F0E3FD41202049096881F83F007A
:103C100040201E49096881F8400002221B480168C3
:103C20003F31402000F084FD0320FFF703FC062015
:103C30001549087094E000F0DBFD012806D1082149
:103C4000122000F093FD07200F49087000F0DEFD00
:103C5000012817D10E48C07A01280FD10B480168FE
:103C60001C311C2000F0A9FD08490968097F01F0FA
:103C70003F01144A52F8210000F07AF80221122084
:103C800000F074FD6CE00000B8000020B4000020DB
:103C900098000020BC000020008F4233905C000898
:103CA0000000244000C065C000001040C00000209B
:103CB000E05C000800001840305D0008BA000020F9
:103CC00078020020805D0008D40000200120FFF76A
:103CD000B1FB0020244908700420029040E001203C
:103CE000FFF7A8FBFA202149096848741F480068BB
:103CF000417C112000F03AFD00201C49096881F840
:103D00003F001A49096881F84000022217480168FB
:103D10003F31402000F00CFD0720FFF78BFB0A200D
:103D2000114908701CE000F078FD012816D104212B
:103D3000122000F01BFD00F077FD012809D10121C0
:103D4000122000F013FD012007490870082002909E
:103D500004E00020044908700720029000E000BF42
:103D600000BF0298BDE8FE8FB8000020B40000201C
:103D70002DE9F0410446FA480460204600F03CFF7B
:103D800005460022F74B00F0B7FE074600F060FF43
:103D90000446200CF44909688871200AF249096830
:103DA000C871F14909680C720322EF480168891D46
:103DB000062000F0BDFCBDE8F0812DE9F0410322B2
:103DC000E9480168891D062000F0D8FCE648006833
:103DD00080790004E4490968C97940EA0120E24990
:103DE0000968097A0843DE490860086800F004FFA2
:103DF00006460022DB4B00F00DFE044600F028FFD3
:103E0000D749086008460068BDE8F08110B504464F
:103E1000D54801680931092000F0CFFCD24801687B
:103E20004C314D2000F0C9FCCF480068407A00F0CA
:103E30008000802841D1CC48006890F84C0000F008
:103E4000870087281CD1052C00DA0524142C00DDFE
:103E50001424C5480068407A00F08F0040F07000DC
:103E6000C14909684872C0480068407A00F0F00013
:103E7000611F01F00F010843BB49096848723AE02D
:103E8000022C00DA0224112C00DD1124B64800684F
:103E9000407A00F08F0040F07000B3490968487222
:103EA000B1480068407A00F0F000A11E01F00F0157
:103EB0000843AD49096848721DE0B4F1FF3F01DADB
:103EC0004FF0FF340E2C00DD0E24A7480068407A26
:103ED00000F08F0040F07000A34909684872A248C2
:103EE0000068407A00F0F000611C01F00F01084307
:103EF0009D49096848729C480068417A092000F091
:103F000035FC9748047110BD10B597480168093118
:103F1000092000F052FC944801684C314D2000F01B
:103F20004CFC91480068407A00F08000802819D14C
:103F30008D48006890F84C0000F00700072808D171
:103F400089480068407A20F0F000401D84490871DB
:103F500010E085480068407A20F0F000801C80491D
:103F6000087107E080480068407A20F0F000401EA9
:103F70007B4908717A4890F9040010BD10B50446D9
:103F8000794801681D311D2000F017FC7648006853
:103F9000407F64F31F1074490968487772480068CD
:103FA000417F1D2000F0E2FB6D48447110BD10B54B
:103FB0006D4801681D311D2000F0FFFB6A48006854
:103FC000407F0011664948710846407910BD10B520
:103FD0000446654801683031312000F0EEFB62484C
:103FE000006890F8300000F0F80020435E4909684E
:103FF00081F830005C48006890F83010312000F003
:10400000B5FB10BD10B504460C2C01DD0C2402E0FC
:10401000062C00DA0624062C03D10520FFF7D7FF73
:1040200002E00320FFF7D3FF4F4801681E311E2036
:1040300000F0C3FB4C480068807F64F31F104A49BE
:104040000968887748480068817F1E2000F08EFB51
:104050004348847110BD10B5434801681E311E20CD
:1040600000F0ABFB40480068807F00113C4988713C
:104070000846807910BD10B504463B4801681D31E3
:104080001D2000F09AFB38480068407F00F0F100E6
:1040900040EA440034490968487733480068417F62
:1040A0001D2000F063FB2E48C47110BD10B52E48D2
:1040B00001681D311D2000F080FB2B480068407F07
:1040C00020F0F10040102649C8710846C07910BDA3
:1040D00010B50446244801681E311E2000F06DFB17
:1040E00021480068807F00F0FB0040EA84001E4900
:1040F000096888771C480068817F1E2000F036FB25
:104100001748047210BD10B5044602221648016813
:104110002031202000F032FB200A1349096881F881
:1041200020001149096881F8214002220E480168E7
:104130002031202000F0FCFA10BD10B502220A4800
:1041400001682031202000F019FB0748006890F832
:1041500021100548006890F8200041EA002010BDB9
:104160009800002080844E40B400002010B5C6485E
:1041700001681E311E2000F020FBC3480068807FCC
:1041800000F00400401008B1012000E00020BF4909
:1041900008720846007A10BD10B50446BA48016896
:1041A0001D311D2000F009FBB7480068407F00F07A
:1041B000FE002043B44909684877B3480068417F4E
:1041C0001D2000F0D3FAB148447210BD10B5AE48BE
:1041D00001681D311D2000F0F0FAAB480068407FF7
:1041E00000F00100A94948720846407A10BDA7496D
:1041F00088727047A548807A7047A449C872704792
:10420000A248C07A704710B504469F48006880F8FD
:1042100024409D48006890F82410242000F0A6FA5D
:104220009A48047310BD10B59748016824312420C2
:1042300000F0C3FA9448006890F82400934908738A
:104240000846007B10BD9149086170478F4800699E
:1042500070478E49486170478C484069704710B577
:1042600004468948006880F822408748006890F832
:104270002210222000F07AFA8448047610BD10B58E
:10428000814801682231222000F097FA7E480068B8
:1042900090F822007D4908760846007E10BD10B5D2
:1042A0000446794801684C314D2000F086FA764882
:1042B00001680931092000F080FA73480068407AEB
:1042C00000F08000802807D1012C0AD187206E4998
:1042D000096881F84C0004E084206B49096881F882
:1042E0004C006948006890F84C104D2000F03EFAF0
:1042F00010BD10B5644801684C314D2000F05DFAE6
:104300006148006890F84C0000F00700072801D1D0
:10431000012010BD0020FCE710B504465A48016892
:104320000931092000F049FA57480068407A00F046
:104330007F00204354490968487253480068417A15
:10434000092000F013FA10BD10B54F48016809317B
:10435000092000F032FA4C480068407A20F07F00D3
:1043600010BD10B50446484801680A310A2000F023
:1043700024FA45480068807A00F0F00024F0F0014B
:1043800008434149096888723F480068817A0A20D9
:1043900000F0ECF910BD10B53B4801680A310A2065
:1043A00000F00BFA38480068807A20F0F00010BD69
:1043B00010B504460222344801681E311E2000F068
:1043C000DDF931480068807F00F0FC006FF0FC01EF
:1043D00001EA242108432C49096888772A49096899
:1043E000CC770222284801681E311E2000F0A0F977
:1043F00010BD10B50222244801681E311E2000F0B5
:10440000BDF921480068C07F1F490968897F21F0F4
:10441000FC0140EA012010BD10B504461A480168AD
:104420002631262000F0C9F91748006890F82600C8
:1044300000F0F70040EAC4001349096881F826003B
:104440001148006890F82610262000F08FF910BD62
:1044500010B50D4801682631262000F0AEF90A4853
:10446000006890F82600C0F3C00010BD10B50648E3
:1044700001683031312000F0A0F90348006890F85D
:10448000300000F0070010BDB400002098000020AC
:1044900000B587B001210420FCF79CFD0121080331
:1044A000FCF798FD03208DF8060018208DF8070012
:1044B0002020ADF8040001A92748FCF7CFFA80209E
:1044C000ADF8040001A92448FCF7C8FA4020ADF873
:1044D000040001A92048FCF7C1FA01210846FCF7B5
:1044E00079FD01211D48FCF78AFB0020ADF808008A
:1044F0004FF48270ADF80A000020ADF80C00ADF862
:104500000E00ADF810004FF40070ADF8120010204E
:10451000ADF814000020ADF816000720ADF8180023
:1045200002A90F48FCF7E0FD01210D48FCF781FED0
:1045300007B000BD10B5044621460948FCF7AAFEA5
:1045400000BF01210648FCF7F8FE0028F9D0044816
:10455000FCF7A2FEC0B210BD00080140000230000E
:104560000030014070B5224800684FF47A72B0FB09
:10457000F2F1B1F1807F01D301201DE021F07F40F5
:10458000401E4FF0E022506150170F22002807DA3A
:1045900013071D0E174B00F00F04241F1D5503E0D9
:1045A00013071C0E144B1C5400BF00204FF0E022D8
:1045B000906107201061002008B100BFFEE7FFF7FF
:1045C00067FF70BD0D4A116800BF0C4A1268521A8D
:1045D0008242FAD370474FF47A7300FB03F1074B22
:1045E0001A6800BF054B1B689B1A8B42FAD37047B1
:1045F0000000002018ED00E000E400E0D8000020FA
:1046000010B504219448FCF7D6FA08219248FCF72B
:10461000D4FA10BD10B504218F48FCF7CEFA08215A
:104620008D48FCF7C8FA10BD08B501217D20FCF7C4
:10463000D1FC10208DF8030003208DF802008020AB
:10464000ADF8000069468548FCF708FA0122802190
:104650008248FCF7B4FA0420ADF8000069467E48B1
:10466000FCF7FCF90820ADF8000069467A48FCF731
:10467000F5F9FFF7C5FF04208DF803008002ADF8BF
:10468000000069467548FCF7E9F94FF40050ADF8B1
:10469000000069467148FCF7E1F94FF48040ADF83D
:1046A000000069466D48FCF7D9F94FF40040ADF8B9
:1046B000000069466948FCF7D1F94FF40060ADF895
:1046C000000069466448FCF7C9F94FF48050ADF822
:1046D000000069466048FCF7C1F908BD38B50446DA
:1046E000012C12D10220ADF8000003208DF8020049
:1046F00010208DF8030069465748FCF7AFF90022F7
:1047000002215548FCF75BFA11E00220ADF80000E9
:1047100003208DF8020010208DF8030069464E48F2
:10472000FCF79CF9012202214B48FCF748FA38BDFE
:104730002DE9F04105460E461746002280214748E4
:10474000FCF73DFA45F08000FFF7F4FE002404E09A
:10475000305DFFF7EFFE601CC4B2BC42F8DB012203
:1047600080213E48FCF72BFABDE8F08113B50446E2
:10477000012201A92046FFF7DBFF1CBD2DE9F04116
:1047800005460E461746002280213448FCF717FAEA
:1047900005F07F00FFF7CEFE002405E00020FFF7C4
:1047A000C9FE3055601CC4B2BC42F7DB0122802137
:1047B0002A48FCF704FABDE8F08170B504460D46BE
:1047C000012229462046FFF7D9FF70BD70B5044687
:1047D0000D462A4621460020FFF7AAFF70BD70B59E
:1047E00004460D462A4621460020FFF7C7FF70BD4C
:1047F00010B54FF480511948FCF7C3F910BD10B53E
:104800004FF400511548FCF7BCF910BD10B54FF43A
:1048100080411248FCF7B5F910BD10B54FF40041C6
:104820000E48FCF7AEF910BD10B54FF400610A4810
:10483000FCF7A7F910BD10B54FF480510648FCF7FE
:10484000A0F910BD10B5044614B1FFF7E3FE01E076
:10485000FFF7D6FE10BD000000080140000C01402B
:1048600040EA01039B0703D009E008C9121F08C0F2
:10487000042AFAD203E011F8013B00F8013B521E72
:10488000F9D27047D2B201E000F8012B491EFBD2E9
:1048900070470022F6E710B513460A46044619464B
:1048A000FFF7F0FF204610BD30B505460020034657
:1048B00000E05B1C934205D2EC5CC85C201A01D17D
:1048C000002CF6D130BD2DE9FE4F804681EA030071
:1048D000C00F0C46009021F0004123F00045B8EBDA
:1048E0000200A94105D24046214690461C460B468F
:1048F000024623F00040104347D0270DC7F30A00BB
:10490000C3F30A510290401A019040286BDAC3F3B6
:10491000130040F4801B0098924620B10023D2EB94
:10492000030A63EB0B0B01985946C0F14002504655
:1049300000F0C0F906460D4650465946019A00F06F
:10494000D8F910EB08006141002487EA115284EA8B
:10495000E7731A4340D0009A62B3019A012A4FEAE2
:10496000075215DC001B61EB02014FF0004202EA26
:104970000752CDE90042001C41F5801132462B461A
:1049800000F0D8F903B0BDE8F08F40462146F9E7C2
:10499000001B61EB0201001C41F5801300185B4114
:1049A0002018A2F5001747EB030140EAD570B619AD
:1049B0006D4111E06D084FEA360645EAC0754FEAD1
:1049C0000752001B61EB0201001C41F580114908F0
:1049D0004FEA30000019514132462B4603B0BDE882
:1049E000F04F00F098B90098012240000023D0EB6E
:1049F000020263EBE073009821464FEAE074B8EBE3
:104A0000000061EB0401E9E783F000435BE781F01C
:104A1000004158E72DE9FE4F81EA030404F0004409
:104A200021F0004100944FF0000B23F0004350EAC6
:104A300001045ED052EA03045BD0C3F30A54C1F30D
:104A40000A552C44A4F2F3340194A0FB0254C1F3A0
:104A5000130141F48011C3F3130343F4801301FBEA
:104A6000024400FB034E840A970A44EA815447EA51
:104A70008357A4FB076802958D0A05FB07854FEA5B
:104A8000932C04FB0C542705029D4FEA065847EA75
:104A90001637B5EB08056EEB070C870E920E47EA4A
:104AA000811742EA8312A7FB0201B6EB0B0164EB0C
:104AB00000042B0D43EA0C335E1844EB1C50DA461D
:104AC0005146E7FB0201C5F313044FEA0B3343EAF7
:104AD00014534FEA0432019C43EA0603A4F10C0488
:104AE0000294009CCDE900B400F024F903B0BDE8C5
:104AF000F08F00200146F9E72DE9F04D81EA03042B
:104B000004F0004B21F0004514464FF0000A23F05A
:104B1000004150EA050220D054EA01021DD0C5F33D
:104B20000A570246C5F31303C1F31300C1F30A5633
:104B300040F4801543F48013A7EB0608101BD646FB
:104B400008F2FD3873EB050002D308F1010801E01B
:104B500092185B41B8F1000F03DA00200146BDE86E
:104B6000F08D00204FF48011064684460EE0171B9E
:104B700073EB050705D3121B63EB050306434CEAF1
:104B8000010C49084FEA300092185B4150EA0107D6
:104B9000EDD152EA030012D082EA040083EA050153
:104BA000084305D0101BAB4106D20122002306E0CA
:104BB00000224FF0004302E06FF0010253101AEBA5
:104BC00006004CEB085110EB0A0041EB0B01BDE86D
:104BD000F04D00F0A0B80EB5C10F80EAE0700844B7
:104BE000CA07002140F233438DE80E000A460B4607
:104BF00000F0A0F803B000BD0EB540F233410291C1
:104C00000021CDE900110A460B4600F093F803B0ED
:104C100000BD70B5C1F30A5201F000450024C1F394
:104C2000130140F2FF3341F480119A4201DA00206F
:104C300070BD40F233439A42A2F2334203DC524247
:104C400000F047F800E090402C43F1D0404270BDA6
:104C5000C1F30A5210B5C1F3130140F2FF3341F41E
:104C600080119A4201DA002010BD40F233439A428B
:104C7000A2F2334203DC524200F02BF810BD904008
:104C800010BD000030B5041E71F1000404DB4FF0CC
:104C90000044404264EB0101141E73F1000405DB83
:104CA0001C464FF00043524263EB04038B4208BFA3
:104CB000824230BD202A04DB203A00FA02F10020B3
:104CC00070479140C2F1200320FA03F3194390404A
:104CD0007047202A04DB203A21FA02F000217047B5
:104CE00021FA02F3D040C2F1200291400843194654
:104CF0007047202A06DBCB17203A41FA02F043EA3C
:104D0000E07306E041FA02F3D040C2F12002914084
:104D100008431946704710B5141E73F1000408DAF1
:104D2000401C41F1000192185B411A4301D120F06F
:104D3000010010BD2DE9F04D92469B4611B1B1FA2C
:104D400081F202E0B0FA80F220329046FFF7B2FF23
:104D500004460F4640EA0A0041EA0B0153465A4610
:104D6000084313D0114653EA010019D0C8F140029C
:104D70005046FFF7AEFF05460E465046594642469E
:104D8000FFF798FF084305D0012004E0204639468C
:104D9000BDE8F08D0020054346EAE0762C4337431A
:104DA0000A986305E40AA0EB08000022FD0A44EA21
:104DB00047540A3002D500200146E9E701051019E1
:104DC0006941DDE9084500196941BDE8F04DA2E7F8
:104DD00070B521F0004303430CD0C1F30A55002401
:104DE000D5EB040564EB0403D617AD1AB34102DB1F
:104DF0000020014670BD201841EB025170BD00003B
:104E00002DE9F041054621F000400C46284309D029
:104E1000C4F30A5040F23341884205DD284621465A
:104E2000BDE8F0812846FBE740F2FE31884210DC05
:104E30000CDB4FEA043040EA155050EA053105D04A
:104E4000104804F0004101430020E9E7002001463A
:104E5000E6E7A0F233404642C6F14002284621462A
:104E6000FFF728FF07468846284621463246FFF7C7
:104E700030FF43463A46FFF74EFF3246BDE8F04169
:104E8000FFF718BF0000F03F30B5041E71F10004B9
:104E900004DB4FF00044404264EB0101141E73F147
:104EA000000405DB1C464FF00043524263EB040351
:104EB000994208BF904230BD064C074D06E0E068BD
:104EC00040F0010394E8070098471034AC42F6D351
:104ED000FBF710F9E05E0008005F00082DE9F04DD7
:104EE00000231A461B1A8A4103DB00200146BDE855
:104EF000F08DC1F30A52C1F3130141F480154FF054
:104F0000000BD10702D100186D41521E0027044644
:104F100040F2FF11384601EB620A3E4680460246E7
:104F200000204FF48011FFF7D4FEC2197141BB1865
:104F300046EB0100B4EB030C75EB000C04D3E41A50
:104F400065EB000517460E46241908F101006D4176
:104F500080463428E3DDF91946EB0600091BA84119
:104F600003D24FF0FF32134601E0002213461BEB41
:104F7000070046EB0A51BDE8F04DFFF7CCBE00003C
:104F80000FB4054B10B503A9044A029800F0A8F825
:104F900010BC5DF814FB0000291D0008DC00002097
:104FA000490050EAC12018BF04204A0D18BF40F044
:104FB000010040F2FF72B2EB515F08BF40F0020007
:104FC000012808BF052070472DE9F0414F1E00EB76
:104FD000C7010446D1E9000115461E4637F0060216
:104FE0000DD02A463346FFF715FD7F1E04EBC7039D
:104FF000D3E90023FFF767FC37F00602F1D1022F57
:1050000025D0042F13D0062F18BFBDE8F0812A4603
:105010003346FFF7FFFCD4E90A23FFF754FC2A4686
:105020003346FFF7F7FCD4E90823FFF74CFC2A4688
:105030003346FFF7EFFCD4E90623FFF744FC2A468A
:105040003346FFF7E7FCD4E90423FFF73CFC2A468C
:105050003346FFF7DFFCD4E90223FFF734FC2A468E
:105060003346FFF7D7FCD4E90023BDE8F041FFF752
:105070002ABC00000022134610460149FFF73CBD40
:105080000000F03FFFF71FBC0022134610461146F8
:10509000FFF732BD40F2013200204FF0E041FFF750
:1050A00097BE0000024A00201107FFF791BE0000E2
:1050B00001FDFFFF02E008C8121F08C1002AFAD153
:1050C00070477047002001E001C1121F002AFBD188
:1050D000704700000149086070470000E0000020B0
:1050E0002DE9F84F9946924688460546002706E086
:1050F00025280AD051464A4690476D1C7F1C2878C7
:105100000028F5D13846BDE8F88F002315F8011FB7
:1051100018462E2915D115F8011F04232A290DD070
:105120006FF02F022978A1F13004092C09D800EB87
:10513000800002EB400008446D1CF3E758F8040BB4
:105140006D1C2A78002ADDD0632A07D0732A0FD07D
:10515000104651464A4690477F1C2AE018F8042B17
:105160008DF8002000218DF801106E46012103E02A
:1051700058F8046B4FF0FF315A074FF0000401D488
:1051800009E0641C84420BDA8C42FADB325D002AAF
:10519000F7D105E0641C8C42FCDB305D0028F9D1BE
:1051A000274404E016F8010B51464A469047641E16
:1051B000F8D26D1CA3E700002DE9F04D1D460C460A
:1051C00098B0174621F0004123F00043002814BF97
:1051D0004FF0010C4FF0000C0CEB440CFE4A0CEBB2
:1051E00002064FEA620C66452BD33E0018BF01262B
:1051F00006EB45061644F94A964222D3F84A53EA8A
:10520000070C02D0944205D148B918B000201146CD
:10521000BDE8F08D002808BF4FF0000C01D04FF022
:10522000010C0CEB440212F5001F0AD8002F14BF2A
:105230004FF0010C4FF0000C0CEB450212F5001F73
:1052400007D918B03A462B462146BDE8F04DFFF786
:1052500019BF0022DFF88CA3002CB8BF534526DA13
:10526000DFF884C36345A8BF022220DADFF870C3E9
:105270009C451CDCDFF874C30CEB235CBCF1140F01
:1052800008DDCCF1340627FA06FC0CFA06F6BE421D
:105290000DD108E05FB9CCF1140623FA06FC0CFA34
:1052A00006F69E4203D10CF00102C2F1020251EA5D
:1052B000000C19D1002D17DA002C18BF022A01D0DA
:1052C000012A07D00220FFF705FF18B0BDE8F04D16
:1052D000FFF7D0BE0220FFF7FDFEFFF7CBFE18B0B0
:1052E00081F00041BDE8F08DB7F1000C6CD1534561
:1052F00025D104F1804212F5801201BF0028002060
:10530000B74918B008BFBDE8F08DB548884207DC42
:10531000002DA1BF6046294618B0BDE8F08D07E01A
:10532000281E05DA80F0004118B06046BDE8F08D17
:10533000AF497944D1E9000118B0BDE8F08DDFF83C
:10534000A0C2634525D1002D1FDA19B1514512D1F4
:10535000D8B909E0002840F0EC82A24A214618B0F2
:1053600062F31E01BDE8F08D0020214618B060F305
:105370001E01BDE8F08D08DA18B02346BDE8F04DF7
:10538000024600206146FFF7B7BB18B02146BDE8D2
:10539000F08D514518DAB5F1804F0DD0A5F1005CC4
:1053A000BCF1FF5C10D1B4F1000C0DDB18B061460C
:1053B000BDE8F04D00F036BC234618B00246BDE80B
:1053C000F04D1946FFF726BB060024F0004C3BD1F8
:1053D000D9B1514533D1002C06DD002DA1BF0020ED
:1053E000514618B0BDE8F08D002C01DD002D1BDB0F
:1053F000002C13DA002D11DB012A4FF0000014BF3E
:1054000078497C4918B0BDE8F08D022A18BF002CFD
:105410000AD0012A08D1002C06DA0AE0002CB8BF15
:10542000002D11DA012A04D0002018B00146BDE891
:10543000F08D18B000204FF00041BDE8F08DA1F1D3
:105440004050B0F17F601AD0012000EBE47050EAC8
:10545000020421D0624C521E4FF0000B104304BFD7
:105460004FF0000B644C654883427CDD644A65481C
:1054700093421FDD884217DB002D25DB37E0002C2F
:1054800000DA4AB1022A0CBF01204FF0FF3018B0F9
:10549000BDE8F04DFFF79FBB0120FFF71BFE18B0E2
:1054A000BDE8F04DFFF7F0BD4D4A8A4202DC002D09
:1054B0000ADC1CE0814202DA002D18DA04E0484BD5
:1054C000994220DD002D12DD0220FFF703FEFFF7D9
:1054D000E1FD05460E460022534658462146FFF799
:1054E00099FA18B066F31E012846BDE8F08D022037
:1054F000FFF7F0FDFFF7D6FD0A46214618B062F32C
:105500001E01BDE8F08D002230466146FFF77CFAAF
:1055100080460E466FF00102FFF75AFC4FF05532FD
:10552000394BFFF774FA42463346FFF773FA00220D
:10553000364BFFF76CFA82464246334604911046DA
:105540001946FFF767FA5246049BFFF763FA8A464B
:1055500000904FF0C0422E4B40463146FFF75AFABA
:105560002C4A2B4B00E027E0CDE90601514600987C
:10557000FFF750FA82460191274A284B40463146B0
:10558000FFF748FA5246019BFFF73EFA82460B4668
:1055900002460591DDE90601FFF795F9DDE90623ED
:1055A000002688463046FFF72FFA5246059BFFF744
:1055B0002EFA024600F07EB90020B1F5801F07DA0E
:1055C000352230466146FFF703FC06466FF0340093
:1055D00000EB215024E00000FFFF1F00FFFF0F0041
:1055E0000000F03F0000F07F0000404301FCFFFF9F
:1055F000A20B00000000F0FF0000F0BF0000E0413F
:105600000000F043FFFFEF3F5555D53F0000E03F5E
:105610004715F73FFE822B6544DF5DF80BAE543E25
:10562000A0F2FF300190C1F3130040F07F6141F020
:1056300040510291FE498842D8BF002004DDFD4957
:105640008142C8BF012001DD0D9008E000200D90CF
:105650000198401C01900298A0F5801002900299D8
:10566000F54878440B910D9900EBC100D0E9002377
:105670000F9330460A920B99FFF7C6F9CDE9060160
:10568000DDE90A2130460F9BFFF71DF902460B4664
:105690000020EA49FFF730FA059102460B460090D8
:1056A000DDE90601FFF7B6F91490E5488A464FF0A8
:1056B000000878440299006812904FF0005040EAC8
:1056C00061010D980F9B01EB804000F500210991CD
:1056D0000A9A1298FFF798F932460B9BFFF797F951
:1056E00042465346FFF796F9064602914046514618
:1056F000099B129AFFF78EF9DDE90623FFF787F978
:105700003246029BFFF780F9059B009AFFF782F96A
:105710000091149A0490534610461946FFF77AF9FF
:1057200006460246C7480B46029106217844FFF719
:105730004BFCCDE90510029B324610461946FFF797
:1057400069F9DDE90532FFF765F90591064653462B
:1057500040461946149AFFF7B6F8009B049AFFF7E3
:1057600059F93246059BFFF7AEF8CDE905104246E0
:10577000534610461946FFF74DF90022B24B0291ED
:105780000A90FFF7A0F8DDE90532FFF79CF80E4616
:105790004246AD4B4046FFF737F9029B0A9AFFF7A6
:1057A00033F9DDE90532FFF732F9424602910A90FA
:1057B000334610465146FFF72DF9CDE90601534611
:1057C000149A02990A98FFF725F98A4602903346FF
:1057D000424600990498FFF71DF95346029AFFF7D5
:1057E00072F882460B4602460591DDE90601FFF795
:1057F0006AF8DDE90623002088460646FFF704F92B
:105800005246059BFFF703F9824609914FF060422B
:105810008E4B30464146FFF7FDF8049006918C4AC6
:105820008A4B50460999FFF7F5F882460291894A5A
:10583000894B30464146FFF7EDF85246029BFFF791
:1058400042F8864B7B440D9A03EBC203D3E9002355
:10585000FFF739F80E9007910198FFF7BCF9059111
:10586000DDE9061382460E9A0498FFF72CF87C4A6D
:105870007A440D9B02EBC303D3E900230093029209
:10588000FFF721F85246059BFFF71DF800268846D2
:1058900052463046059BFFF7B7F8009B029AFFF788
:1058A000B3F8069B049AFFF7AFF8079B0E9AFFF731
:1058B000AEF8024600200B46029038462946FFF714
:1058C000A9F8824601912B4638461946029AFFF7FD
:1058D0009BF832464346FFF79DF85246019BFEF780
:1058E000F2FF07468A463246434629460298FFF7AA
:1058F00091F805460E463A465346FEF7E4FF594AEC
:105900008846914221DBA8EB020353EA000210D142
:105910002A463346FFF778F8CDE90401524A534B43
:1059200038465146FEF7CFFFDDE90423FFF7ACFA16
:1059300021D20220FFF7CEFBFFF7ACFB0A4621463F
:1059400018B062F31E01BDE8F08D494B28F000420B
:105950009A4210D3474A08EB020353EA00027FF44D
:10596000C6AD2A463346FFF74FF83A465346FFF78F
:105970008BFA7FF6BCAD0022019228F000403E4930
:105980003E4A01EB2051824223DA481C4FF4801139
:1059900021FA00F040443A4AC0F30A517A44394BA4
:1059A000A1F2FF31CB4020EA0303C0F3130040F41F
:1059B0008010C1F11401C84012680190B8F1000FC5
:1059C000BCBF4042019028463146FFF71DF805460E
:1059D0000E462A46334638465146FEF774FF4FF0CE
:1059E00000084246284B40460591FFF713F8CDE9E1
:1059F0000601264A264B40460599FFF70BF8009111
:105A000002902A46334640460599FEF7FDFF3A4686
:105A10005346FEF7FCFF1F4A1F4BFEF7FBFF009BA0
:105A2000029AFEF750FF0746884602460B4635E0CD
:105A30008E9803007AB60B00EA0700000000F03FE2
:105A400022080000500700000000084009C7EE3F90
:105A5000FD033ADCF5015B14E02F3EBE2806000092
:105A6000EC05000000009040FE822B654715973C36
:105A700000CC904000346F3F01FCFFFF0000E03F8E
:105A800038050000FFFF0F00432EE63F396CA80CDD
:105A9000615C20BEEF39FAFE422EE63FDDE90601E9
:105AA000FEF711FFDDE9062305460E46FEF7ACFFC3
:105AB0003A464346FEF7ABFF0F462A463346009070
:105AC00010461946FEF7A6FF824602462E48884633
:105AD0000B4605217844FFF777FA52464346FEF716
