:020000040800F2
:1000000060070020290600083106000833060008B2
:100010003506000837060008390600080000000011
:100020000000000000000000000000003B06000887
:100030003D060008000000003F06000841060008D9
:10004000430600084306000843060008430600086C
:10005000430600084306000843060008430600085C
:10006000430600084306000843060008430600084C
:10007000430600084306000843060008430600083C
:10008000430600084306000843060008430600082C
:10009000430600084306000843060008430600081C
:1000A000430600084306000843060008430600080C
:1000B00043060008430600084306000843060008FC
:1000C00043060008430600084306000843060008EC
:1000D000430600089305000843060008430600088D
:1000E00043060008430600084306000800F002F833
:1000F00000F03CF80AA090E8000C82448344AAF186
:100100000107DA4501D100F031F8AFF2090EBAE883
:100110000F0013F0010F18BFFB1A43F0010318473B
:10012000C8130000E8130000103A24BF78C878C153
:10013000FAD8520724BF30C830C144BF04680C60ED
:10014000704700000023002400250026103A28BF35
:1001500078C1FBD8520728BF30C148BF0B60704739
:100160001FB501F0B9F91FBD10B510BD01F06EF952
:100170001146FFF7F5FF00F00DF901F09FF903B408
:10018000FFF7F2FF03BC00F09FF900004FF0000101
:1001900008466D4A126842F480326B4B1A6000BF09
:1001A000694A126802F4003001F1010110B9B1F599
:1001B000A06FF5D1644A126812F4003F02D04FF0EC
:1001C000010001E04FF00000012842D15F4A1268AF
:1001D00042F010025D4B1A601A46126822F00302C8
:1001E0001A601A46126842F002021A60564A5268B1
:1001F000554B5A601A4652685A601A46526842F481
:1002000080625A601A46526822F47C125A601A467A
:10021000526842F4E8125A601A46126842F080723C
:100220001A6000BF484A126812F0007FFAD0464AAE
:10023000526822F00302444B5A601A46526842F058
:1002400002025A6000BF404A526802F00C02082ABB
:10025000F9D1704710B5FFF799FF10BD10B53A48B6
:10026000006840F001003849086008464068384995
:1002700000EA01003449486008460068354900EA50
:100280000100314908600846006820F480200860B9
:100290000846406820F4FE0048604FF41F00886064
:1002A000FFF7D8FF4FF000602B49086010BD10B574
:1002B0004FF0000108460246234B5B6803F00C0137
:1002C00021B1042906D008292CD107E0234B244C66
:1002D00023602BE0214B224C236027E01A4B5B6804
:1002E00003F47010184B5B6803F480324FF0020384
:1002F00003EB90402AB91B4B00FB03F3184C23601F
:100300000FE0114B5B6813F4003F05D0154B00FB69
:1003100003F3134C236004E0104B00FB03F3104C79
:10032000236003E00D4B0E4C236000BF00BF064B63
:100330005B68C3F303130C4CE15C094B1B6823FAA5
:1003400001F3074C236010BD001002400020024062
:100350000000FFF8FFFFF6FE08ED00E000127A0053
:100360000000002000093D000400002010B50446F4
:100370000CE000BF8021144800F0BCFF0028F9D039
:100380002178114800F040FF04F101042078002892
:10039000EFD110BD00F02EF84FF4165000F0A1F888
:1003A00010E00AA0FFF7E2FF09A001F011F87B219D
:1003B000054800F029FF0CA001F00AF84FF00000FA
:1003C0000B490880EDE7000000380140313233006E
:1003D0000D0AC4FAB7A2CBCDB5C4CFFBCFA2CEAA2B
:1003E0003A0D0A0D0A0000000D0A0D0A0000000077
:1003F0001800002010B56FF0040000F092F92E48AC
:1004000000682E49B0FBF1F02D49087008460078CD
:100410004FF47A7100FB01F02A49088010BD0146B3
:10042000274A127801FB02F24FF0E0235A614FF0A5
:1004300000029A611A46126942F001021A6100BF75
:100440004FF0E022106910F0010F02D010F4803F4D
:10045000F6D04FF0E022126922F001024FF0E023C3
:100460001A614FF000029A6170470146154A1288DE
:1004700001FB02F24FF0E0235A614FF000029A6153
:100480001A46126942F001021A6100BF4FF0E022E1
:10049000106910F0010F02D010F4803FF6D04FF039
:1004A000E022126922F001024FF0E0231A614FF0BE
:1004B00000029A61704700000000002000127A00DC
:1004C0001400002016000020014600BF704700BF46
:1004D000504A128812F0400FFAD0C2B24E4B1A8026
:1004E000704710B586B004464FF0010144F2040095
:1004F00000F0A4FC474800F017FD4FF40070ADF881
:1005000014004FF003008DF816004FF018008DF81E
:10051000170005A9414800F087F94FF48060ADF855
:1005200014004FF004008DF8170005A93B4800F0B7
:100530007BF94FF025008DF800004FF003008DF897
:1005400001008DF802004FF001008DF803006846AD
:1005500000F090F801944FF00000ADF80800ADF8FD
:100560000A00ADF80C00ADF810004FF00C00ADF82B
:100570000E0001A9274800F01AFD012240F2255182
:10058000244800F0CBFD0121224800F0BAFD06B05E
:1005900010BD10B540F225511E4800F0D0FE18B332
:1005A0001C4800F035FEC4B21D48008810F4004F0E
:1005B0002ED11B48008810F4804F0DD00A2C04D097
:1005C0004FF000001649088022E01548008840F4EA
:1005D0000040134908801BE00D2C06D1104800880C
:1005E00040F480400E49088012E00D480088C0F3B6
:1005F0000D000C490C540A48008800F1010008491C
:10060000088008460088C72802DD4FF000000880F7
:1006100010BD0000003801400438014000080140CE
:10062000180000203400002009488047094800478E
:10063000FEE7FEE7FEE7FEE7FEE7FEE7FEE7FEE792
:10064000FEE7FEE704480549054A064B70470000EF
:100650005D020008ED000008600100206007002036
:100660006003002060030020384940EA0101384A55
:100670001160704770B54FF000010B464FF00F024C
:10068000C4784CB3324C246804F4E064C4F5E064EC
:100690004FEA1421C1F1040322FA01F2447804FA6A
:1006A00003F1847804EA020444EA01014FEA0111EB
:1006B000284C0678A155047804F01F054FF001047A
:1006C00004FA05F405784FEA65154FF0E02606EBCD
:1006D0008505C5F800410CE0047804F01F054FF0D3
:1006E000010404FA05F41C4D06784FEA661645F835
:1006F000264070BD194A01EA020242EA0002184B84
:100700001A60704731B1174A126842EA0002154B6D
:100710001A6005E0134A126822EA0002114B1A60BF
:100720007047042808D14FF0E021096941F0040125
:100730004FF0E022116107E04FF0E021096921F05C
:1007400004014FF0E0221161704700000000FA053B
:100750000CED00E000E400E080E100E080FFFF1F1E
:1007600008ED00E010ED00E010B50446DE488442DC
:1007700008D10121042000F07FFB0021042000F0BB
:100780007BFB46E0D948844208D10121082000F0D3
:1007900073FB0021082000F06FFB3AE0D44884424C
:1007A00008D10121102000F067FB0021102000F08B
:1007B00063FB2EE0CF48844208D10121202000F0C5
:1007C0005BFB0021202000F057FB22E0CA48844256
:1007D00008D10121402000F04FFB0021402000F013
:1007E0004BFB16E0C548844208D10121802000F06F
:1007F00043FB0021802000F03FFB0AE0C048844218
:1008000007D10121801500F037FB0021A01500F071
:1008100033FB10BD10B50121084600F02DFB00216F
:10082000012000F029FB10BD2DE9F04102464FF0F8
:1008300000052E46284603460446074691F803C0A5
:100840000CF00F0591F803C01CF0100F03D091F8C5
:1008500002C04CEA0505B1F800C01CF0FF0F35D00E
:1008600014684FF000002EE04FF0010C0CFA00F37A
:10087000B1F800C00CEA03069E4222D14FEA800381
:100880004FF00F0C0CFA03F724EA070405FA03FCF7
:100890004CEA040491F803C0BCF1280F06D14FF0D4
:1008A000010C0CFA00FCC2F814C00AE091F803C075
:1008B000BCF1480F05D14FF0010C0CFA00FCC2F856
:1008C00010C000F101000828CED31460B1F800C0B8
:1008D000BCF1FF0F38DD54684FF0000031E000F14B
:1008E000080C4FF0010808FA0CF3B1F800C00CEA4C
:1008F00003069E4223D14FEA80034FF00F0C0CFAFF
:1009000003F724EA070405FA03FC4CEA040491F80F
:1009100003C0BCF1280F05D100F1080C08FA0CF84F
:10092000C2F8148091F803C0BCF1480F07D100F160
:10093000080C4FF0010808FA0CF8C2F8108000F11A
:1009400001000828CBD35460BDE8F0814FF6FF7159
:1009500001804FF0020181704FF00401C1707047B7
:1009600002464FF0000093680B4202D04FF00100A6
:1009700001E04FF0000070470146886880B2704780
:1009800002464FF00000D3680B4202D04FF0010046
:1009900001E04FF0000070470146C86880B2704720
:1009A00001617047416170470AB1016100E0416136
:1009B0007047C16070474FF4803242EA01028261A1
:1009C0008161826182698269704702464FF000004E
:1009D0004C4B18684FF6807300EA030040EA02109F
:1009E00040EA0100474B186070474749C8617047AB
:1009F000F0B50A464FF000031C4619460D4600F0BC
:100A00000046B6F1004F02D13E4EF16901E03D4E85
:100A10007168C0F3034583B200F44016B6F5401F79
:100A200008D121F07061374E766826F07066354F38
:100A30007E6017E000F48016B6F5801F08D14FF0F5
:100A4000030606FA05F421EA040141F0706109E0A9
:100A50004FEA50564FEA061603FA06F621EA060157
:100A600041F070613AB14FEA50564FEA061603FA68
:100A700006F646EA010100F00046B6F1004F02D149
:100A8000204EF16101E01F4E7160F0BD30B54FF0B6
:100A900000024FEA81734FEA13744FF00F0303FA19
:100AA00004F21A4B4FEAA10453F8243023EA02035C
:100AB000164C4FEAA10544F8253023464FEAA1041D
:100AC00053F824304FEA81744FEA147400FA04F4A6
:100AD00043EA04030D4C4FEAA10544F8253030BD2C
:100AE0000B4908607047000000080140000C0140FD
:100AF000001001400014014000180140001C01409A
:100B00000020014000000140000020420800014098
:100B1000DC002042F748006840F00100F549086019
:100B200008464068F44900EA0100F2494860084676
:100B30000068F24900EA0100EE49086008460068D2
:100B400020F4802008600846406820F4FE004860D9
:100B50004FF41F0088607047E649096821F480312E
:100B6000E44A11601146096821F480211160B0F552
:100B7000803F03D0B0F5802F0ED106E0DD49096833
:100B800041F48031DB4A116007E0DA49096841F439
:100B9000A021D84A116000E000BF00BF704710B527
:100BA00001464FF00002134610464FEA6112012A37
:100BB00002D1D04C236806E0022A02D1CD4C236A30
:100BC00001E0CC4C636A01F01F024FF0010404FA0B
:100BD00002F41C4202D04FF0010001E04FF000008F
:100BE00010BD70B54FF000042546264600BF3120E9
:100BF000FFF7D5FF064604F10104B4F5A06F01D05C
:100C0000002EF4D03120FFF7CAFF10B14FF00105DC
:100C100001E04FF00005284670BD01464FF000008E
:100C2000B44A106820F0F80040EAC1001060704734
:100C3000B3490860704702464FF00000AD4B58685A
:100C400020F47C1042EA010343EA0000A94B5860FB
:100C50007047AB490866704701464FF00000A54A4F
:100C6000506820F0030040EA010050607047A1483E
:100C7000406800F00C00704701464FF000009D4AAC
:100C8000506820F0F00040EA0100506070470146D3
:100C90004FF00000974A506820F4E06040EA0100FD
:100CA0005060704701464FF00000924A506820F4AF
:100CB000605040EAC1005060704731B18D4A527AAD
:100CC00042EA00028B4B5A7208E08A4A527A6FEA73
:100CD0000003DBB202EA0302864B5A72704789496D
:100CE0000860704701464FF00000824A506820F4C7
:100CF000404040EA0100506070474FF00001824AD6
:100D000011707C4A82F82010012802D004280AD1F0
:100D100004E04FF001017C4A117005E04FF005013D
:100D2000794A117000E000BF00BF70477749086042
:100D300070477049096A41EA00016E4A11627047C2
:100D400073490860704730B54FF000010A460C4601
:100D50000B46684D6D6805F00C0121B1042905D0E2
:100D6000082927D105E06B4D056026E0694D056037
:100D700023E0604D6D6805F470125E4D6D6805F4FA
:100D800080344FF0020505EB924224B9624D02FB1C
:100D900005F505600DE0574D6D6815F4003F04D072
:100DA0005D4D02FB05F5056003E05A4D02FB05F5BC
:100DB000056002E0574D056000BF00BF4D4D6D68F6
:100DC00005F0F0014FEA1111544D6B5C056825FAEE
:100DD00003F54560474D6D6805F4E0614FEA112168
:100DE0004E4D6B5C456825FA03F58560414D6D6895
:100DF00005F460514FEAD121484D6B5C456825FAF6
:100E000003F5C5603B4D6D6805F440414FEA9131F3
:100E1000434D6B5CC568B5FBF3F5056130BD31B181
:100E2000344A526942EA0002324B5A6105E0314AC3
:100E3000526922EA00022F4B5A61704731B12D4AA4
:100E4000926942EA00022B4B9A6105E0294A9269B5
:100E500022EA0002274B9A61704731B1254AD269D4
:100E600042EA0002234BDA6105E0224AD26922EA13
:100E70000002204BDA61704731B11E4AD26842EA63
:100E800000021C4BDA6005E01A4AD26822EA00022E
:100E9000184BDA60704731B1164A126942EA000213
:100EA000144B1A6105E0134A126922EA0002114B41
:100EB0001A6170471B49086070471149C864704740
:100EC0000C49C87170470B48406A40F0807009496E
:100ED0004862704701464FF00000064A92680A4295
:100EE00002D04FF0010001E04FF0000070470149CF
:100EF00088727047001002400000FFF8FFFFF6FE06
:100F000000004242D8004242201002408004424287
:100F10003C04424200127A0000093D0020000020FB
:100F2000300000204004424210B50446F848844294
:100F300009D101218803FFF79FFF00214FF4804072
:100F4000FFF79AFF32E0F348844209D101214804B7
:100F5000FFF7A1FF00214FF40030FFF79CFF25E0D1
:100F6000ED48844209D101218804FFF794FF002154
:100F70004FF48020FFF78FFF18E0E848844209D142
:100F80000121C804FFF787FF00214FF40020FFF77D
:100F900082FF0BE0E248844208D101210805FFF7F7
:100FA0007AFF00214FF48010FFF775FF10BD2DE987
:100FB000F04786B005460E464FF00004A24600BF3B
:100FC000A1462746B08900B100BF2F462C8A4CF6B7
:100FD000FF7004EA0004F08840EA04042C82AC8923
:100FE0004EF6F31004EA0004B088318940EA0100AB
:100FF000718940EA010040EA0404AC81AC8A4FF6F2
:10100000FF4004EA0004B08940EA0404AC8201A86D
:10101000FFF799FEBE48874202D1DDF810A001E03B
:10102000DDF80CA0A88910F4004F09D00AEBCA0023
:1010300000EB0A1031684FEA4101B0FBF1F808E01B
:101040000AEBCA0000EB0A1031684FEA8101B0FBDD
:10105000F1F84FF06400B8FBF0F04FEA00144FEAEB
:1010600014104FF0640101FB1089A88910F4004F9F
:101070000AD04FF0320000EBC900B0FBF1F000F0F5
:10108000070040EA04040BE04FF0320000EB0910C7
:101090004FF06401B0FBF1F000F00F0040EA0404EF
:1010A0002C8106B0BDE8F0874FF4165101604FF077
:1010B00000018180C18001814FF00C0141814FF01E
:1010C00000018181704710B502464FF00000108A80
:1010D0004FF2FF0300EA03000B884C8843EA040345
:1010E0008C8843EA0403CC8843EA040343EA000003
:1010F000108210BD4FF00001018041808180C180CD
:10110000704721B1828942F40052828105E08289D0
:101110004DF6FF7302EA030282817047F0B5034681
:101120004FF00004264625462046A1F510676A3F89
:1011300000D100BF1846C1F3421401F01F064FF062
:10114000010707FA06F5012C02D100F10C0006E0B8
:10115000022C02D100F1100001E000F1140022B1D4
:10116000076847EA0507076003E0076827EA0507FD
:101170000760F0BD10B522B1838A43EA0103838280
:1011800006E0838A6FEA0104A4B203EA04038382BF
:1011900010BD028A4FF6F07302EA03020282028A4D
:1011A00042EA01020282704782894FF2FF7302EA2B
:1011B00003028281828942EA01028281704721B161
:1011C000828942F00202828105E082894FF6FD7336
:1011D00002EA030282817047028A4FF6DF7302EA55
:1011E00003020282028A42EA01020282704721B1AE
:1011F000028A42F48042028205E0028A4BF6FF73C3
:1012000002EA030202827047C1F30802828070473B
:1012100001468888C0F308007047818941F00101C8
:1012200081817047028BD2B20283028B42EA012293
:1012300002837047028B02F47F420283028B42EAF0
:1012400001020283704721B1828A42F02002828229
:1012500005E0828A4FF6DF7302EA0302828270475A
:1012600021B1828A42F01002828205E0828A4FF622
:10127000EF7302EA03028282704721B1828A42F050
:101280000802828205E0828A4FF6F77302EA0302BF
:101290008282704721B1828942F40042828103E058
:1012A0008289C2F30E028281704721B1828A42F4A0
:1012B0000062828205E0828A4FF2FF7302EA030233
:1012C00082827047828A4FF6FB7302EA03028282AF
:1012D000828A42EA01028282704721B1828A42F008
:1012E0000202828205E0828A4FF6FD7302EA03025F
:1012F0008282704702464FF00000B1F5007F00D1B6
:1013000000BF13880B420DD04FF001000CE000002D
:10131000003801400044004000480040004C0040BC
:10132000005000404FF00000704701F40072B2F529
:10133000007F00D100BF6FEA01020280704770B5E4
:1013400002464FF0000423461D461846A1F51066DC
:101350006A3E00D100BFC1F3421501F01F034FF0F8
:10136000010606FA03F3012D03D1968906EA030369
:1013700008E0022D03D1168A06EA030302E0968AEA
:1013800006EA03034FEA21244FF0010606FA04F4AB
:10139000168806EA04041BB114B14FF0010001E005
:1013A0004FF0000070BD10B54FF000021346A1F5DC
:1013B00010646A3C00D100BF4FEA21224FF00104C3
:1013C00004FA02F4A3B26FEA0304048010BD70476C
:1013D0000FB4044910B503AA029800F009F810BC34
:1013E0005DF814FB1C000020704770477047704781
:1013F000074B70B50C467B4400F011F805462046BB
:1014000000F020F810B14FF0FF3070BD284670BDDD
:10141000D5F0FFFF01694A1C02610878704700B5EA
:101420008FB0CDE901310021059105497944CDE91D
:1014300003101146684600F02EF80FB000BD000002
:10144000E5FFFFFFC06800F080007047754600F0C0
:101450003BF8AE4605006946534620F00700854636
:1014600018B020B5FFF7EEF8BDE820404FF00006B9
:101470004FF000074FF000084FF0000B21F007017C
:10148000AC46ACE8C009ACE8C009ACE8C009ACE8BF
:10149000C0098D4670472DE9F04106460024D6E983
:1014A0000170F568804602E04146B847641C30464A
:1014B000A8470028F8D12046BDE8F0810446AFF3E4
:1014C00000802046FEF75BFE00487047FC000020CD
:1014D000004870470001002010B5FFF7F9FF4FF0FA
:1014E0000001016010BD0000081500080000002088
:1014F00034000000280100083C15000834000020DA
:101500002C0700004401000800A24A04000000006B
:1015100000000000010203040607080900000000A3
:1015200000000000000000000000000001020304B1
:0C15300001020304060708090204060873
:04000005080000ED02
:00000001FF
