:020000040800F2
:10000000B00C0020450100083D060008FD05000871
:1000100039060008A10200085F0D0008000000007A
:10002000000000000000000000000000210800089F
:10003000DD04000800000000E9060008350900089A
:100040005F0100085F0100085F0100085F01000810
:100050005F0100085F0100085F0100085F01000800
:100060005F0100085F0100085F0100085F010008F0
:100070005F0100085F0100085F0100085F010008E0
:100080005F0100085F0100085F0100085F010008D0
:100090005F0100085F0100085F0100085F010008C0
:1000A0005F0100085F0100085F0100085F010008B0
:1000B0005F0100085F0100085F0100085F010008A0
:1000C0005F0100085F0100085F0100085F01000890
:1000D0005F010008090B00085F0100085F010008CC
:1000E0005F0100085F0100085F0100085F01000870
:1000F0005F0100085F0100085F0100085F01000860
:100100005F0100085F0100085F0100085F0100084F
:100110005F0100085F0100085F0100085F0100083F
:100120005F0100085F0100085F0100085F0100082F
:10013000DFF80CD000F09AF800480047991000084A
:10014000B00C00200648804706480047FEE7FEE75F
:10015000FEE7FEE7FEE7FEE7FEE7FEE7FEE7FEE777
:10016000390900083101000880EA010210B502F0E7
:100170000043400022D04A001FD0010E01EB126163
:10018000C0F35600C2F3560240F4000042F40002ED
:10019000A0FB022000047F39140400D0401C50EA68
:1001A000124001D44000491EC2B20C0604EBD0102C
:1001B000401C4008802A02D003E0002010BD20F03F
:1001C0000100002900DA0020184310BD9623002208
:1001D000114600F01DB820F00040C10DC0F316001C
:1001E00040F400007F2901DA00207047962903DCE3
:1001F000C1F19601C8407047963988407047002980
:10020000A8BF7047401C490008BF20F0010070479C
:1002100010B4B0FA80FC00FA0CF050EA010404BFFC
:1002200010BC704749B1CCF1200421FA04F411FA52
:100230000CF118BF012121430843A3EB0C01CB1D96
:100240004FEA00614FEA102042BF002010BC704707
:1002500000EBC35010440029A4BF10BC7047401CE1
:10026000490008BF20F0010010BC7047064C074D44
:1002700006E0E06840F0010394E807009847103476
:10028000AC42F6D3FFF758FFE41000080411000851
:1002900010B500F057FC00F0B3F900F0B5FE10BD4A
:1002A00000BFFEE700F0805111B10349086001E092
:1002B0000249486070470000040402400000024008
:1002C00021B1026842F00102026004E002684FF6C8
:1002D000FE731A400260704701684FF6FE721140CB
:1002E00001600021016041608160C1604B4988422A
:1002F00008D14A490839496841F00F01474A083A8C
:1003000051608AE045491431884208D1434908398F
:10031000496841F0F001414A083A51607DE03F49A7
:100320002831884208D13D490839496841F4706153
:100330003A4A083A516070E038493C31884208D165
:1003400036490839496841F47041344A083A5160E5
:1003500063E032495031884208D130490839496850
:1003600041F470212D4A083A516056E02B4964311E
:10037000884208D129490839496841F47001274A5F
:10038000083A516049E025497831884208D123492B
:100390000839496841F07061204A083A51603CE0F0
:1003A0001F49884206D1011F096841F00F01021F51
:1003B000116032E01A491431884208D11849091FE6
:1003C000096841F0F001164A121F116025E0144936
:1003D0002831884208D11249091F096841F4706127
:1003E0000F4A121F116018E00D493C31884208D1B4
:1003F0000B49091F096841F47041094A121F116035
:100400000BE007495031884207D10549091F0968A7
:1004100041F47021024A121F116070470800024027
:100420000804024001460020002201F0805313B16D
:10043000054B1A6801E0054B1A6802EA01030BB18B
:10044000012000E00020704700040240000002404C
:1004500010B50022026847F6F0739A430C6A8B6865
:1004600023430C6923434C6923438C692343CC69A0
:1004700023434C6A23438C6A23431A430260CB68AC
:1004800043600B6883604B68C36010BD4160704778
:1004900010B5044621460F48FFF7F8FF01210D482B
:1004A000FFF70EFF01210C4800F076FA00BF4FF471
:1004B0000070FFF7B7FF0028F9D00021064800F0D0
:1004C0006BFA00210348FFF7FBFE4FF40070FFF7C3
:1004D000E9FE10BD300002400004004070472DE9E5
:1004E000F0410246002500260020002300240027BA
:1004F00091F803C00CF00F0591F803C00CF0100C3C
:10050000BCF1000F03D091F802C04CEA050591F848
:1005100000C0BCF1000F31D0146800202BE04FF078
:10052000010C0CFA00F3B1F800C00CEA03069E427D
:1005300020D183004FF00F0C0CFA03F7BC4305FAEF
:1005400003FC4CEA040491F803C0BCF1280F06D167
:100550004FF0010C0CFA00FCC2F814C00AE091F84C
:1005600003C0BCF1480F05D14FF0010C0CFA00FCA0
:10057000C2F810C0401C0828D1D31460B1F800C0E4
:10058000BCF1FF0F34DD546800202EE000F1080CB0
:100590004FF0010808FA0CF3B1F800C00CEA0306AA
:1005A0009E4221D183004FF00F0C0CFA03F7BC439D
:1005B00005FA03FC4CEA040491F803C0BCF1280FCF
:1005C00005D100F1080C08FA0CF8C2F8148091F873
:1005D00003C0BCF1480F07D100F1080C4FF001082F
:1005E00008FA0CF8C2F81080401C0828CED35460DA
:1005F000BDE8F081416170470161704700BFFEE7CF
:1006000008B50121112000F091F84FF40050ADF829
:10061000000010208DF8030003208DF802006946C9
:100620000448FFF75CFF4FF400510248FFF7E4FF76
:1006300008BD00000010014000BFFEE7704708B58C
:100640004FF4A06000F046F825208DF8000001204E
:100650008DF801008DF802008DF80300684600F067
:1006600001F808BD70B5002100230F22C47804B33F
:10067000154C246804F4E064C4F5E064210AC1F177
:100680000403CA40447804FA03F1847814402143F7
:1006900009010E4C0678A155047804F01F050124C9
:1006A000AC4005786D11AD0005F1E025C5F80041BD
:1006B00009E0047804F01F050124AC40044D0678DD
:1006C000761145F8264070BD0CED00E000E400E036
:1006D00080E100E002490143024A116070470000D6
:1006E0000000FA050CED00E07047000029B1064A51
:1006F00052690243044B5A6104E0034A526982433F
:10070000014B5A61704700000010024029B1064AAF
:10071000D2690243044BDA6104E0034AD26982439E
:10072000014BDA61704700000010024029B1064A0F
:1007300092690243044B9A6104E0034A926982433E
:10074000014B9A61704700000010024030B5002153
:100750000022002400232D4D6D6805F00C0121B10D
:10076000042905D0082923D105E0294D056022E0A0
:10077000274D05601FE0254D6D6805F47012234D6F
:100780006D6805F48034022505EB92421CB9214DB9
:10079000554305600BE01D4D6D6805F400351DB136
:1007A0001C4D5543056002E0194D5543056002E0BC
:1007B000174D056000BF00BF144D6D6805F0F001D6
:1007C0000909154D6B5C0568DD4045600F4D6D688E
:1007D00005F4E061090A104D6B5C4568DD408560F9
:1007E0000A4D6D6805F46051C90A0B4D6B5C456894
:1007F000DD40C560054D6D6805F44041890B074D2E
:100800006B5CC568B5FBF3F5056130BD00100240B7
:1008100000127A0000093D0014000020240000208E
:10082000704710B500F002F810BD00000CB50020B4
:10083000019000903348006840F4803031490860EE
:1008400000BF3048006800F4003000900198401C60
:100850000190009818B90198B0F5A06FF1D129481E
:10086000006800F4003010B10120009001E0002089
:1008700000900098012843D12348006840F0100000
:10088000214908600846006820F003000860084617
:10089000006840F0020008601A4840681949486042
:1008A0000846406848600846406840F480604860F8
:1008B0000846406820F47C1048600846406840F4D0
:1008C000E81048600846006840F08070086000BF8B
:1008D0000C48006800F000700028F9D00948406812
:1008E00020F00300074948600846406840F00200D5
:1008F000486000BF0348406800F00C000828F9D1A8
:100900000CBD00000010024000200240042808D165
:100910004FF0E021096941F004014FF0E02211613C
:1009200007E04FF0E021096921F004014FF0E022D7
:10093000116170477047000010B51348006840F01F
:1009400001001149086008464068104908400E49F6
:100950004860084600680E4908400B490860084690
:10096000006820F4802008600846406820F4FE00FB
:1009700048604FF41F008860FFF753FF4FF000609E
:100980000449086010BD0000001002400000FFF89C
:10099000FFFFF6FE08ED00E021B1028842F00102FF
:1009A000028004E002884FF6FE731A40028070470E
:1009B0001AB183890B43838102E083898B4383814E
:1009C0007047000070B5002400220023058C4FF60C
:1009D000FF6635400584028C8388848B4FF68F75C3
:1009E0002C404FF6FC752C400D882C434FF6FF55DC
:1009F0002A400D894FF6FF7606EA05252A434D88E1
:100A000006EA05252A43154DA84202D0144DA842F6
:100A10001DD14FF2FF752A404D894FF6FF7606EA49
:100A200005252A434FF6FF352A408D8806EA05251D
:100A30002A434EF6FF752B404DF6FF752B408D89EE
:100A400006EA05152B43CD8906EA05152B4383805D
:100A50008483CD888587028470BD0000002C01400E
:100A600000340140002202881D4B98420ED01D4BDD
:100A700098420BD0B0F1804F08D01B4B984205D064
:100A80001A4B984202D01A4B984204D14FF68F73FA
:100A90001A404B881A43174B984207D0164B98427E
:100AA00004D04FF6FF431A40CB881A4302808B884C
:100AB00083850B8803850A4B98420BD0094B9842DB
:100AC00008D00E4B984205D00D4B984202D00D4BEA
:100AD000984201D10B7A038601238382704700007C
:100AE000002C014000340140000400400008004098
:100AF000000C004000100040001400400040014085
:100B0000004401400048014010B540F2255106481C
:100B100000F060F838B1044800F018F9C4B221467A
:100B2000014800F018F910BD0038014021B1828958
:100B300042F40052828104E082894DF6FF731A402C
:100B40008281704700B585B0012144F20500FFF7AE
:100B5000EDFD4FF40070ADF8100018208DF8130073
:100B600003208DF8120004A91848FFF7B8FC4FF4D1
:100B70008060ADF8100004208DF8130003208DF87C
:100B8000120004A91148FFF7AAFC4FF4E1300090CD
:100B90000020ADF80400ADF80600ADF80800ADF88F
:100BA0000C000C20ADF80A006946094800F062F814
:100BB000FFF745FD012240F22551054800F034F8C9
:100BC00001210348FFF7B2FF05B000BD0008014056
:100BD0000038014070B502460024002300250020A3
:100BE00040F66A16B14200D100BFC1F3421501F0D0
:100BF0001F03012606FA03F3012D02D19689334023
:100C000006E0022D02D1168A334001E0968A334075
:100C10000C12012606FA04F41688344013B10CB104
:100C2000012000E0002070BDF0B50346002400263E
:100C30000025002040F66A17B94200D100BF1846CF
:100C4000C1F3421401F01F06012707FA06F5012C33
:100C500001D10C3004E0022C01D1103000E014303E
:100C60001AB107682F43076002E00768AF430760C7
:100C7000F0BD00002DE9F04786B005460E46002481
:100C8000A24600BFA1460027B08900B100BF2F4691
:100C90002C8A4CF6FF700440F08804432C82AC8907
:100CA0004EF6F3100440B088318908437189084337
:100CB0000443AC81AC8A4FF6FF400440B089044342
:100CC000AC8201A8FFF742FD1F48874202D1DDF840
:100CD00010A001E0DDF80CA0A88900F4004040B1AC
:100CE0000AEBCA0000EB0A1031684900B0FBF1F8CA
:100CF00007E00AEBCA0000EB0A1031688900B0FB7C
:100D0000F1F86420B8FBF0F004012009642101FB34
:100D10001089A88900F4004040B1322000EBC900DE
:100D2000B0FBF1F000F00700044308E0322000EBD4
:100D300009106421B0FBF1F000F00F0004432C8196
:100D400006B0BDE8F0870000003801400146888801
:100D5000C0F308007047C1F308028280704700BFEB
:100D6000FEE7000000B593B001210820FFF7DEFC8C
:100D70000120ADF82C0018208DF82F0003208DF8ED
:100D80002E000BA92648FFF7AAFB01210220FFF73E
:100D9000BDFC5920ADF844000020ADF84000ADF88E
:100DA0004600ADF8420010A91E48FFF75BFE602028
:100DB000ADF830000120ADF832000020ADF836006B
:100DC000ADF838000CA91748FFF7FCFD01210846D3
:100DD000FFF78CFC1448FFF77FFA12483C30009074
:100DE00012480190102002902A20039000200490C5
:100DF0008020059040000690800007900020089019
:100E00004FF40050099000200A9069460648FFF709
:100E10001FFB012211020348FFF7CAFD13B000BDFA
:100E2000000C01400004004030000240AC000020F3
:100E30002DE9FF5F0546884617464FF0000908EB8D
:100E400048002B2101EBC0001FFA80FA0026BCE00D
:100E5000A7B962480078FFF7B9F90090A85D00EBE8
:100E600040005F4A02EB800041680098FFF77CF980
:100E70008346FFF7B0F9C0B2039013E057480078FB
:100E8000FFF7A4F90090287800EB4000544A02EBE9
:100E9000800041680098FFF767F98346FFF79BF9E8
:100EA000C0B20390002410E00398A04000F080003E
:100EB00008B1322200E019224846411C1FFA81F98C
:100EC000484921F81020601CC4B2082CECDB9FB903
:100ED00042480078FFF77AF90090A85D00EB4000E7
:100EE0003F4A52F820100098FFF73EF98346FFF77B
:100EF00072F9C0B2029012E038480078FFF766F944
:100F00000090287800EB4000354A52F820100098F5
:100F1000FFF72AF98346FFF75EF9C0B2029000247A
:100F200010E00298A04000F0800008B1322200E0FA
:100F300019224846411C1FFA81F92A4921F810203C
:100F4000601CC4B2082CECDBA7B924480078FFF77A
:100F50003DF90090A85D00EB4000214A02EB8000C3
:100F600081680098FFF700F98346FFF734F9C0B2B3
:100F7000019013E019480078FFF728F900902878CD
:100F800000EB4000164A02EB800081680098FFF7F2
:100F9000EBF88346FFF71FF9C0B20190002410E080
:100FA0000198A04000F0800008B1322200E0192230
:100FB0004946481C1FFA80F90A4820F81120601C95
:100FC000C4B2082CECDB701CC6B24645FFF640AF3D
:100FD0005046FFF75DFABDE8FF9F00002C0000209F
:100FE0004C000020AC00002002E008C8121F08C11D
:100FF000002AFAD170477047002001E001C1121F9A
:10100000002AFBD17047000010B56FF00400FFF715
:101010007DFC0A4800680A49B0FBF1F009490870F4
:101020000846007800EB4001C1EBC0104FF6FF719D
:1010300001EAC0000449088010BD00000000002043
:1010400000127A00280000202A0000200146114AE0
:1010500012884A434FF0E0235A6100229A611A46EF
:10106000126942F001021A6100BF4FF0E0221069DC
:1010700000F001021AB100F48032002AF5D04FF0DE
:10108000E022126922F001024FF0E0231A610022EF
:101090009A6170472A000020FFF7FAF8FFF762FE16
:1010A00000221E210348FFF7C3FE01E000F004F810
:1010B000FCE700002D00002010B54FF40051084857
:1010C000FFF79AFA4FF4FA70FFF7C0FF4FF40051A0
:1010D0000348FFF78FFA4FF4FA70FFF7B7FF10BD20
:1010E000001001400411000800000020AC000000C6
:1010F000E80F0008B0110008AC000020040C00004C
:10110000F80F000800A24A040000000000000000E0
:10111000010203040607080900000000010203049D
:101120000102030406070809020406080000000083
:101130006401020304050607010203040506070112
:101140000203040506070102030405060701020065
:101150000000803F0000803F0000803F0000803F93
:1011600000000000000000000000803FCDCC4C3E9D
:10117000000000000000803F0000803F00000000F1
:10118000000000000000803F0000000000000000A0
:101190000000803F0000803F0000000000000000D1
:1011A0000000803F0000803F000000000000803F02
:0400000508000131BD
:00000001FF
