:020000040800F2
:1000000048C3002001070008FD040008FF040008A1
:1000100003050008070500080B05000800000000A4
:100020000000000000000000000000000F050008B4
:100030001105000800000000130500081505000860
:100040001B0700081B0700081B0700081B07000808
:100050001B0700081B0700081B0700081B070008F8
:100060001B0700081B0700081B0700081B070008E8
:100070001B0700081B0700081B0700081B070008D8
:100080001B0700081B0700081B0700081B070008C8
:100090001B0700081B0700081B0700081B070008B8
:1000A0001B0700081B0700081B0700081B070008A8
:1000B0001B0700081B0700081B0700081B07000898
:1000C0001B0700081B0700081B0700081B07000888
:1000D0001B070008FB0800081B0700081B07000897
:1000E0001B0700081B0700081B0700081B07000868
:1000F0001B0700081B0700081B0700081B07000858
:100100001B070008170500081B0700081B0700084D
:100110001B0700081B0700081B0700081B07000837
:100120001B0700081B0700081B0700081B07000827
:1001300000F002F800F062F80AA090E8000C824497
:100140008344AAF10107DA4501D100F057F8AFF274
:10015000090EBAE80F0013F0010F18BFFB1A43F0A5
:100160000103184760250300802503000A444FF06F
:10017000000C10F8013B13F0070408BF10F8014B06
:100180001D1108BF10F8015B641E05D010F8016B4B
:10019000641E01F8016BF9D113F0080F1EBF10F8AF
:1001A000014BAD1C0C1B09D16D1E58BF01F801CBD2
:1001B000FAD505E014F8016B01F8016B6D1EF9D555
:1001C0009142D6D37047000000230024002500266A
:1001D000103A28BF78C1FBD8520728BF30C148BFAA
:1001E0000B607047642907F01382732907F05D8361
:1001F000002070471FB51FBD10B510BD07F070FB84
:100200001146FFF7F7FF00F009F807F08EFB03B483
:10021000FFF7F2FF03BC00F003FB00001CB500F089
:100220008FFA00F0F7FA4FF4E13000F008FB0020FD
:1002300007F06BF806F0B2FE43A007F06BF903F08D
:1002400018FD4C480168002005F0EEF84A49087096
:100250000846007820B10846017848A007F05AF90E
:100260004FA007F057F90A2253A15648006805F03D
:10027000FEF8414908700846007828B10846017820
:1002800051A007F047F921E0554B372255494D4819
:10029000006805F0A0FA384908700846007828B9C7
:1002A0004F48016850A007F035F904E03248017862
:1002B00052A007F02FF94A4B092256A14148006885
:1002C00005F089FA3F48006805F0F4FB54A007F0F8
:1002D00021F95C4806F029FF6A4601A9594806F051
:1002E000FFFE59A0DDE9002107F014F900BFFEE789
:1002F00010B5ADF58C6D8BA9002005F095F804467E
:100300001CB121465BA007F005F90A225FA101A8F4
:1003100005F0ADF804466B46222260A101A805F065
:100320005AFA04461CB967A007F0F4F802E06CA082
:1003300007F0F0F801A805F0BDFB0021084605F024
:1003400073F80DF58C6D10BD2A2A2A2A2A2A2A2A2A
:100350002A2A2A2A2A2053442074657374202A2AC0
:100360002A2A2A2A2A2A2A2A2A2A2A2A2A2A0D0A2A
:100370000000000094050020E80300206D6F756EFA
:10038000742066696C6573797374656D20302066BE
:1003900061696C6564203A2025640D0A0000000044
:1003A00077726974652066696C6520746573742E54
:1003B0002E2E2E2E2E0D0A00303A2F746573742EB9
:1003C00074787400D80300206F70656E2066696CC5
:1003D00065206572726F72203A2025640D0A000054
:1003E000E4030020000200207772697465206461D4
:1003F0007461206F6B212025640D0A007772697487
:10040000652064617461206572726F72203A2025E4
:10041000640D0A007365616E6F793636360D0A0019
:100420000A0D626567696E207363616E2066696C90
:1004300065732070617468302E2E2E2E2E2E0D0ABC
:100440000000000000000020534420546F74616CD1
:100450002053697A653A2564204B420D0A534420A3
:10046000467265652053697A653A202564204B42BF
:1004700000000000B9D2D4D8CEC4BCFECFB5CDB3F5
:10048000CAA7B0DC20282564290D0A00303A2F6164
:10049000726D666C792E7478740000004661744643
:1004A000532057726974652044656D6F200D0A20D2
:1004B0007777772E61726D666C792E636F6D200D84
:1004C0000A00000061726D666C792E74787420CE1B
:1004D000C4BCFED0B4C8EBB3C9B9A60D0A00000075
:1004E00061726D666C792E74787420CEC4BCFED0B7
:1004F000B4C8EBCAA7B0DC0D0A000000704700BF0B
:10050000FEE700BFFEE700BFFEE700BFFEE7704763
:1005100070477047704710B503F07CFA10BD0000BB
:100520000CB50020019000906C48006840F48030C9
:100530006A49086000BF6948006800F40030009014
:100540000198401C0190009818B90198B0F5A06F6F
:10055000F1D16248006800F4003010B10120009031
:1005600001E0002000900098012843D15C48006819
:1005700040F010005A4908600846006820F0030067
:1005800008600846006840F0020008605348406870
:10059000524948600846406848600846406840F450
:1005A000806048600846406820F47C104860084637
:1005B000406840F4E81048600846006840F08070E9
:1005C000086000BF4548006800F000700028F9D0BE
:1005D0004248406820F003004049486008464068AF
:1005E00040F00200486000BF3C48406800F00C004A
:1005F0000828F9D10CBD10B5FFF792FF10BD10B55A
:100600003648006840F001003449086008464068F8
:10061000344908403149486008460068324908407A
:100620002E4908600846006820F4802008600846CB
:10063000406820F4FE0048604FF41F008860FFF718
:10064000DAFF4FF000602949086010BD10B50021A5
:1006500000200022214B5B6803F00C0121B104292A
:1006600006D0082928D107E0214B224C236027E03F
:100670001F4B204C236023E0184B5B6803F4701081
:10068000164B5B6803F48032022303EB904022B9DF
:10069000194B4343174C23600DE0104B5B6803F488
:1006A000003323B1144B4343124C236003E0104B3F
:1006B0004343104C236003E00D4B0E4C236000BFFE
:1006C00000BF064B5B68C3F303130C4CE15C094BA2
:1006D0001B68CB40074C236010BD00000010024097
:1006E000002002400000FFF8FFFFF6FE08ED00E0EA
:1006F00000127A003802002000093D003C02002070
:100700000948804709480047FEE7FEE7FEE7FEE7A5
:10071000FEE7FEE7FEE7FEE7FEE7FEE704480549E1
:10072000054A064B70470000FF050008310100082C
:1007300048B1002048C3002048B3002048B300203F
:1007400010B56FF0040000F07CF92E4800682E49C7
:10075000B0FBF1F02D4908700846007800EB40012D
:10076000C1EBC0104FF6FF7101EAC00028490880B4
:1007700010BD0146254A12784A434FF0E0235A61E2
:1007800000229A611A46126942F001021A6100BF02
:100790004FF0E022106900F001021AB100F480323B
:1007A000002AF5D04FF0E022126922F001024FF04A
:1007B000E0231A6100229A6170470146144A1288A8
:1007C0004A434FF0E0235A6100229A611A461269A7
:1007D00042F001021A6100BF4FF0E022106900F000
:1007E00001021AB100F48032002AF5D04FF0E02265
:1007F000126922F001024FF0E0231A6100229A618F
:10080000704700003802002000127A004C020020DD
:100810004E02002010B54FF4A06000F0C3F810BDE8
:10082000014600BF704700BF5A4A128802F04002DA
:10083000002AF9D0C2B2574B1B1D1A80704710B561
:1008400086B00446012144F2040000F05FFD5148E7
:1008500000F0AAFE4FF40070ADF8140003208DF8EC
:10086000160018208DF8170005A94B4800F092FAE1
:100870004FF48060ADF8140004208DF8170005A92E
:10088000454800F087FA25208DF8000003208DF8F8
:1008900001008DF8020001208DF80300684600F089
:1008A00086F801940020ADF80800ADF80A00ADF814
:1008B0000C00ADF810000C20ADF80E0001A9354871
:1008C00000F0B5FE012240F22551324800F047FF0A
:1008D0000121304800F037FF06B010BD70B5044666
:1008E0000D462946204600F09BFF00BF40212046D0
:1008F00001F004F80128F9D170BD10B540F225517E
:10090000244801F011F8002843D040F22551214835
:1009100001F034F81F4800F087FFC4B21F48008878
:1009200000F40040F8B91D48008800F4804090B100
:100930000A2C03D00020194908802AE017480088B3
:1009400040F400401549088000200988C1F30D01DA
:10095000134A50541DE00D2C06D11048008840F475
:1009600080400E49088014E00C480088C0F30D0058
:100970000B490C542146074800F052FF07480088F5
:10098000401C0649088008460088C72801DD002071
:10099000088010BD003801400008014054020020CA
:1009A0000C04002031490143314A1160704770B591
:1009B000002100230F22C47804B32D4C246804F4D2
:1009C000E064C4F5E064210AC1F10403CA4044783C
:1009D00004FA03F18478144021430901254C067878
:1009E000A155047804F01F050124AC4005786D1171
:1009F000AD0005F1E025C5F8004109E0047804F0F8
:100A00001F050124AC401C4D0678761145F82640A0
:100A100070BD1A4A0A400243154B1B1F1A607047EB
:100A200039B1134A121D12680243114B1B1D1A6083
:100A300006E00F4A121D126882430D4B1B1D1A60FF
:100A40007047042808D14FF0E021096941F0040102
:100A50004FF0E022116107E04FF0E021096921F039
:100A600004014FF0E0221161704700000000FA0518
:100A70000CED00E000E400E080E100E080FFFF1FFB
:100A800001684FF6FE721140016000210160416073
:100A90008160C1608D49884208D18C490839496814
:100AA00041F00F01894A083A51608AE087491431C0
:100AB000884208D185490839496841F0F001834AE4
:100AC000083A51607DE081492831884208D17F4948
:100AD0000839496841F470617C4A083A516070E015
:100AE0007A493C31884208D178490839496841F44B
:100AF0007041764A083A516063E074495031884247
:100B000008D172490839496841F470216F4A083A9E
:100B1000516056E06D496431884208D16B4908390B
:100B2000496841F47001694A083A516049E06749EF
:100B30007831884208D165490839496841F07061C7
:100B4000624A083A51603CE06149884206D1011F7F
:100B5000096841F00F01021F116032E05C49143155
:100B6000884208D15A49091F096841F0F001584AE2
:100B7000121F116025E056492831884208D1544996
:100B8000091F096841F47061514A121F116018E091
:100B90004F493C31884208D14D49091F096841F449
:100BA00070414B4A121F11600BE049495031884295
:100BB00007D14749091F096841F47021444A121FAF
:100BC0001160704710B50022026847F6F0739A432F
:100BD0000C6A8B6823430C6923434C6923438C695B
:100BE0002343CC6923434C6A23438C6A23431A432F
:100BF0000260CB6843600B6883604B68C36010BDC4
:100C00000021016041608160C160016141618161D9
:100C1000C161016241628162704721B1026842F0A4
:100C20000102026004E002684FF6FE731A4002609F
:100C300070471AB103680B43036002E003688B43FB
:100C400003607047416070470146486880B2704752
:100C500001460020002201F080531BB11C4B083BD1
:100C60001A6802E0194B083B1A6802EA01030BB14B
:100C7000012000E00020704700F0805119B11449B4
:100C8000091F086002E011490839486070470146B1
:100C90000020002201F080531BB10D4B083B1A6865
:100CA00002E00A4B083B1A6802EA01030BB101207B
:100CB00000E00020704700F0805119B10449091F7D
:100CC000086002E0014908394860704708000240A6
:100CD0000804024010B50446CC48844208D10121E2
:100CE000042000F02DFB0021042000F029FB46E049
:100CF000C748844208D10121082000F021FB0021CF
:100D0000082000F01DFB3AE0C248844208D10121CE
:100D1000102000F015FB0021102000F011FB2EE048
:100D2000BD48844208D10121202000F009FB0021A8
:100D3000202000F005FB22E0B848844208D10121C0
:100D4000402000F0FDFA0021402000F0F9FA16E002
:100D5000B348844208D10121802000F0F1FA00213B
:100D6000802000F0EDFA0AE0AE48844207D101216C
:100D7000801500F0E5FA0021A01500F0E1FA10BDA1
:100D800010B50121084600F0DBFA0021012000F037
:100D9000D7FA10BD2DE9F0410246002500260020BB
:100DA00000230024002791F803C00CF00F0591F8F0
:100DB00003C00CF0100CBCF1000F03D091F802C07E
:100DC0004CEA050591F800C0BCF1000F31D0146861
:100DD00000202BE04FF0010C0CFA00F3B1F800C03A
:100DE0000CEA03069E4220D183004FF00F0C0CFA50
:100DF00003F7BC4305FA03FC4CEA040491F803C072
:100E0000BCF1280F06D14FF0010C0CFA00FCC2F81F
:100E100014C00AE091F803C0BCF1480F05D14FF0AF
:100E2000010C0CFA00FCC2F810C0401C0828D1D3F9
:100E30001460B1F800C0BCF1FF0F34DD546800202D
:100E40002EE000F1080C4FF0010808FA0CF3B1F89D
:100E500000C00CEA03069E4221D183004FF00F0C24
:100E60000CFA03F7BC4305FA03FC4CEA040491F8BE
:100E700003C0BCF1280F05D100F1080C08FA0CF8EA
:100E8000C2F8148091F803C0BCF1480F07D100F1FB
:100E9000080C4FF0010808FA0CF8C2F81080401C4A
:100EA0000828CED35460BDE8F0814FF6FF71018071
:100EB000022181700421C1707047024600209368AE
:100EC0000B400BB1012000E000207047014688680C
:100ED00080B2704702460020D3680B400BB101205E
:100EE00000E0002070470146C86880B27047016189
:100EF0007047416170470AB1016100E0416170478C
:100F0000C16070474FF480320A438261816182611F
:100F100082698269704702460020434B18684FF689
:100F20008073184040EA021008433F4B1860704736
:100F30003E49C8617047F0B50A46002300240021ED
:100F4000002500F00046B6F1004F02D1364EF1699F
:100F500001E0354E7168C0F3034583B200F44016DA
:100F6000B6F5401F08D121F070612F4E766826F04B
:100F700070662D4F7E6012E000F48016B6F5801F7B
:100F800006D1032606FA05F4A14341F0706106E09C
:100F9000460D360103FA06F6B14341F0706122B105
:100FA000460D360103FA06F6314300F00046B6F16D
:100FB000004F02D11C4EF16101E01B4E7160F0BD8B
:100FC00030B500228B071C0F0F2303FA04F2164BD7
:100FD00008338C1053F824309343134C08348D108D
:100FE00044F8253023468C1053F824308C07240F06
:100FF00000FA04F423430C4C08348D1044F82530D7
:1010000030BD0A49DC31086070470000000801402B
:10101000000C014000100140001401400018014084
:10102000001C01400020014000000140000020425F
:10103000DF48006840F00100DD490860084640686C
:10104000DC490840DA49486008460068DA49084047
:10105000D74908600846006820F4802008600846E8
:10106000406820F4FE0048604FF41F00886070471D
:10107000CF49096821F48031CD4A116011460968D1
:1010800021F480211160B0F5803F03D0B0F5802FAE
:101090000ED106E0C649096841F48031C44A1160A6
:1010A00007E0C349096841F4A021C14A116000E08A
:1010B00000BF00BF704710B501460022002300208A
:1010C0004A11012A02D1BA4C236806E0022A02D151
:1010D000B74C236A01E0B64C636A01F01F02012499
:1010E00094401C400CB1012000E0002010BD38B538
:1010F000002000900024002500BF3120FFF7DBFF17
:1011000005460098401C00900098B0F5A06F01D0F3
:10111000002DF2D03120FFF7CEFF08B1012400E00E
:101120000024204638BD01460020A14A106820F066
:10113000F80040EAC10010607047A049086070479D
:10114000024600209A4B586820F47C1042EA0103C2
:101150001843974B58607047984908667047014696
:101160000020934A506820F0030008435060704705
:101170008F48406800F00C007047014600208C4A00
:10118000506820F0F000084350607047014600208E
:10119000874A506820F4E060084350607047014679
:1011A0000020834A506820F4605040EAC10050603B
:1011B000704729B17E4A527A02437D4B5A7204E04D
:1011C0007B4A527A82437A4B5A7270477B49D831B4
:1011D0000860704701460020754A506820F440407E
:1011E0000843506070470021714A20321170704AE4
:1011F00082F82010012802D004280AD104E001213D
:101200006B4A2032117005E00521694A20321170C5
:1012100000E000BF00BF704769490860704764493B
:10122000096A0143624A116270476549443908609E
:10123000704730B500210022002400235C4D6D680A
:1012400005F00C0121B1042905D0082923D105E0BE
:101250005C4D056022E05B4D05601FE0544D6D68FC
:1012600005F47012524D6D6805F48034022505EBCB
:1012700092421CB9544D554305600BE04C4D6D68CE
:1012800005F400351DB1504D5543056002E04D4D4C
:101290005543056002E04B4D056000BF00BF444D63
:1012A0006D6805F0F0010909484D6B5C0568DD408B
:1012B00045603F4D6D6805F4E061090A434D6B5C84
:1012C0004568DD4085603A4D6D6805F46051C90A96
:1012D0003E4D6B5C4568DD40C560354D6D6805F47D
:1012E0004041890B3A4D6B5CC568B5FBF3F5056170
:1012F00030BD29B12E4A526902432D4B5A6104E098
:101300002B4A526982432A4B5A61704729B1284AB5
:1013100092690243264B9A6104E0254A926982430E
:10132000234B9A61704729B1214AD2690243204B6D
:10133000DA6104E01E4AD26982431D4BDA617047CC
:1013400029B11B4AD2680243194BDA6004E0184AFB
:10135000D2688243164BDA60704729B1144A126989
:101360000243134B1A6104E0114A12698243104B85
:101370001A61704712494039086070470F49C864C4
:1013800070470B49C87170470948406A40F0807047
:1013900007494862704701460020054A92680A40A2
:1013A0000AB1012000E000207047014988727047AF
:1013B000001002400000FFF8FFFFF6FE000042426E
:1013C0008004424200127A0000093D0056020020CB
:1013D0006602002000206F49086048608860C8608D
:1013E00048628862C8626C4888630020C86370479E
:1013F0000021684A516847F6FF629143027D836885
:101400001A4343681A43C3681A4303681A430369BB
:101410001A4311435F4A5160704700210175016012
:1014200041608160C160016170475C49086070473C
:101430005849096821F00301564A116011460968AC
:101440000143116070475348006800F00300704783
:1014500029B1504AD26B02434E4BDA6304E04D4A45
:10146000D26B82434B4BDA6370474D49086070473B
:101470000021484B02689A601A46D1686FF30A014E
:10148000D0E901231A43C3681A4303691A4311437D
:10149000404AD16070470021016041608160C160B5
:1014A000016170473B480069C0B2704708B501460A
:1014B00000200090374814300844009000980068DD
:1014C00008BD0021334B02685A6242689A621A468C
:1014D000D16A21F0F701D0E902231A4303691A43C4
:1014E00043691A4311432B4AD16270474FF0FF31D1
:1014F0000160002141608160C1600161416170470C
:101500002448006B704723488030006870472149A9
:101510008031086070471F48806C70472049143143
:10152000086070471E491831086070471C491C311B
:10153000086070471A4920310860704719490860EF
:1015400070471849091D0860704701218143154AF9
:1015500008321160704713490C310860704701462A
:1015600000200C4A526B0A400AB1012000E0002022
:10157000704708498863704701460020054A526B4E
:101580000A400AB1012000E0002070470149886349
:101590007047000000800140FF07C000A0003042FB
:1015A0008C053042AC01304210B50446FB48844201
:1015B00009D101218803FFF7C3FE00214FF48040C9
:1015C000FFF7BEFE32E0F648844209D1012148040B
:1015D000FFF7C3FE00214FF40030FFF7BEFE25E009
:1015E000F048844209D101218804FFF7B6FE0021AA
:1015F0004FF48020FFF7B1FE18E0EB48844209D198
:101600000121C804FFF7A9FE00214FF40020FFF7D5
:10161000A4FE0BE0E548844208D101210805FFF74C
:101620009CFE00214FF48010FFF797FE10BD2DE9BE
:10163000F04786B005460E460024A24600BFA146EC
:101640000027B08900B100BF2F462C8A4CF6FF70EE
:101650000440F08804432C82AC894EF6F310044019
:10166000B08831890843718908430443AC81AC8A4E
:101670004FF6FF400440B0890443AC8201A8FFF755
:10168000D8FDC648874202D1DDF810A001E0DDF8A0
:101690000CA0A88900F4004040B10AEBCA0000EB9E
:1016A0000A1031684900B0FBF1F807E00AEBCA0004
:1016B00000EB0A1031688900B0FBF1F86420B8FB38
:1016C000F0F004012009642101FB1089A88900F4CD
:1016D000004040B1322000EBC900B0FBF1F000F057
:1016E0000700044308E0322000EB09106421B0FB3E
:1016F000F1F000F00F0004432C8106B0BDE8F08744
:101700004FF41651016000218180C18001810C21BC
:10171000418100218181704710B502460020108A66
:101720004FF2FF0318400B884C8823438C882343D7
:10173000CC8823431843108210BD002101804180D2
:101740008180C180704721B1828942F40052828138
:1017500004E082894DF6FF731A4082817047F0B52C
:101760000346002400260025002040F66A17B942EF
:1017700000D100BF1846C1F3421401F01F06012733
:1017800007FA06F5012C01D10C3004E0022C01D13E
:10179000103000E014301AB107682F43076002E0F0
:1017A0000768AF430760F0BD1AB1838A0B43838299
:1017B00002E0838A8B4383827047028A4FF6F0737C
:1017C0001A400282028A0A430282704782894FF2DB
:1017D000FF731A40828182890A438281704721B156
:1017E000828942F00202828104E082894FF6FD7311
:1017F0001A4082817047028A4FF6DF731A400282D4
:10180000028A0A430282704721B1028A42F480426E
:10181000028204E0028A4BF6FF731A40028270478C
:10182000C1F308028280704701468888C0F308002F
:101830007047818941F0010181817047028BD2B2EA
:101840000283028B42EA012202837047028B02F478
:101850007F420283028B0A430283704721B1828A4E
:1018600042F02002828204E0828A4FF6DF731A403F
:101870008282704721B1828A42F01002828204E0A3
:10188000828A4FF6EF731A408282704721B1828AB2
:1018900042F00802828204E0828A4FF6F7731A400F
:1018A0008282704721B1828942F40042828103E042
:1018B0008289C2F30E028281704721B1828A42F48A
:1018C0000062828204E0828A4FF2FF731A408282B1
:1018D0007047828A4FF6FB731A408282828A0A43DB
:1018E0008282704721B1828A42F00202828204E041
:1018F000828A4FF6FD731A408282704702460020AA
:10190000B1F5007F00D100BF13880B400BB101205F
:1019100000E00020704701F40072B2F5007F00D1B2
:1019200000BFCA430280704770B5024600240023FE
:101930000025002040F66A16B14200D100BFC1F375
:10194000421501F01F03012606FA03F3012D02D10F
:101950009689334006E0022D02D1168A334001E019
:10196000968A33400C12012606FA04F41688344095
:1019700013B10CB1012000E0002070BD10B50022B1
:10198000002340F66A14A14200D100BF0A120124CC
:101990009440A3B2DC43048010BD00000038014035
:1019A0000044004000480040004C0040005000400F
:1019B00008B50020FFF739FD0020FFF739FDFFF7DC
:1019C00009FD00214FF48060FFF793FC4FF4F850BD
:1019D000ADF8000004208DF803006946FD48FFF7CC
:1019E000D9F90420ADF800006946FB48FFF7D2F9A9
:1019F00008BD10B5FFF7DCFF10BD01462A2019B164
:101A0000012901D0022902D1F44A116000E0262008
:101A100070472DE9F04106462A27F148456B01E061
:101A2000EF48456B05F045000028F9D005F00400AB
:101A300030B103270420FFF79CFD3846BDE8F08154
:101A400005F0010028B101270120FFF792FD38467B
:101A5000F4E7FFF727FDB04202D010273846EDE744
:101A600040F2FF50FFF785FD0020FFF71FFD044601
:101A7000DC48204008B93846E0E704F0004008B1EF
:101A80001C20DBE704F0804008B10920D6E704F011
:101A9000005008B10A20D1E704F0805008B10B20B3
:101AA000CCE704F0006008B10C20C7E704F08060C8
:101AB00008B10D20C2E704F0807008B10E20BDE728
:101AC00004F4000008B10F20B8E704F4800008B166
:101AD0001020B3E704F4001008B11120AEE704F4BD
:101AE000801008B11220A9E704F4002008B11320E7
:101AF000A4E704F4802008B114209FE704F4003028
:101B000008B115209AE704F4803008B1162095E753
:101B100004F4004008B1172090E704F4804008B1B5
:101B200018208BE704F4005008B1192086E704F070
:101B3000080008B11A2081E738467FE72DE9FC410B
:101B400007460D4600262A24002000900190082018
:101B5000A549086010204860402088600020C860C7
:101B60004FF4806008610846FFF782FC1020FFF701
:101B700050FF04462A2C02D02046BDE8FC819B4839
:101B80000088000498490860372048604020886039
:101B90000020C8604FF4806008610846FFF768FCC9
:101BA0003720FFF736FF04462A2C01D02046E4E711
:101BB0008F489049086008204860302088600220E3
:101BC000C86000200861012048610846FFF779FCE1
:101BD000002085490860332048604020886000204C
:101BE000C8604FF4806008610846FFF741FC33206D
:101BF000FFF70FFF04462A2C01D02046BDE709E07D
:101C00004FF40010FFF7ABFC20B1FFF77CFC4DF860
:101C10002600761C7248406B40F22A61084000287A
:101C2000EED00820FFF79BFC28B10820FFF7A1FCAD
:101C300004242046A1E70220FFF791FC28B10220EE
:101C4000FFF797FC0224204697E72020FFF787FC48
:101C500028B12020FFF78DFC062420468DE74FF4A5
:101C60000070FFF77CFC30B14FF40070FFF781FC8F
:101C70000724204681E740F2FF50FFF77AFC0098E6
:101C80000006009901F47F4140EA0120009901F427
:101C90007F0140EA1120009940EA116068600198D4
:101CA0000006019901F47F4140EA0120019901F405
:101CB0007F0140EA1120019940EA11602860204626
:101CC0005BE77CB505462A24002000900190FFF7D1
:101CD000EDFB00F0007010B10E2420467CBD43499E
:101CE000098888B26946FFF729FF04462A2C01D0EB
:101CF0002046F3E7012D38D1019800F48020002818
:101D000030D03A48008800043749086037204860DE
:101D1000402088600020C860A80208610846FFF7DC
:101D2000A7FB3720FFF775FE04462A2C01D020467A
:101D3000D4E702202C4908600620486040208860D3
:101D40000020C8604FF4806008610846FFF790FBF0
:101D50000620FFF75EFE04462A2C01D02046BDE790
:101D60002046BBE725242046B8E7019800F48030E0
:101D700078B31E48008800041B490860372048607B
:101D8000402088600020C8604FF4806008610846E9
:101D9000FFF76EFB3720FFF73CFE04462A2C01D0EC
:101DA00020469BE70020104908600620486040203C
:101DB00088600020C8604FF4806008610846FFF723
:101DC00057FB0620FFF725FE04462A2C14D0204698
:101DD00084E713E000100140001401407402002069
:101DE0000080014008E0FFFD5C050020700200203B
:101DF000FFFF0F007005002020466FE725242046D6
:101E00006CE770B504462A25FB480068032802D118
:101E10002725284670BDF848006838B1F6480068A4
:101E2000012803D0F4480068022830D1B4F5805F5F
:101E300002D127252846EDE7B4F5006F15D1012022
:101E4000FFF73FFF05462A2D21D10220EB490875F7
:101E500000200860486088604FF40060C86000207F
:101E600008610846FFF7C4FA11E00020FFF729FFD8
:101E700005462A2D0BD10220E04908750020086094
:101E800048608860C86008610846FFF7B1FA2846D4
:101E9000C0E770B504462A25D94804600720D84910
:101EA0004860402088600020C8604FF4806008616E
:101EB0000846FFF7DDFA0720FFF7ABFD0546284689
:101EC00070BD30B501462A200022CB4B1B7881F82B
:101ED0004E30CC4B1B88A1F84C30CB4B1B681A0EF4
:101EE00093090B70C2F383034B7002F003038B70F2
:101EF000C54B1B68C3F30742CA70C34B1B88C3F3AF
:101F000007220A71C04B1A784A715B681A0E1301D6
:101F1000CB80BD4B5B68C3F30742CB8843EA121307
:101F2000CB8002F00F030B72B74B9B88C3F30722E1
:101F3000D3094B72C2F380138B72C2F34013CB727E
:101F4000C2F300130B7300234B73AB4B1B681BB125
:101F5000A94B1B68012B3CD193071B0D0B61AA4BAE
:101F60001A790B6943EA82030B61A74B9B681A0E2F
:101F70000B6943EA92130B61C2F3C2030B7502F0C3
:101F800007034B75A04B9B68C3F3074253098B753E
:101F9000C2F38203CB7593075B0F0B769A4B1B89B9
:101FA000C3F307220B7E43EAD2130B760B695B1C4B
:101FB0004B640C7E4B6CA41C0125A5406B434B6409
:101FC0000C7A0123A3408B64D1E9113463434B6441
:101FD00021E0894B1B68022B1DD18B4B1A7993068C
:101FE0009B0A0B61884B9B681A0E0B6943EA02231C
:101FF0000B61854B9B68C3F307420B6913430B616D
:10200000814B1B89C3F307220B695B1CDB044B6408
:102010004FF400738B64C2F3801301F8193F9306E9
:102020005B0E4B70784B1A7A4B7843EAD2134B70A5
:1020300002F07F038B70744BDB681A0ED309CB70F0
:10204000C2F341130B71C2F382034B7193071B0F51
:102050008B716D4BDB68C3F307428B7943EA9213B4
:102060008B71C2F34013CB7100230B7202F001039A
:102070004B72654B9B89C3F30722D3098B72C2F362
:102080008013CB72C2F340130B73C2F300134B7374
:10209000C2F381038B7302F00303CB735A4B1A7B99
:1020A00053080B7401234B74584B1B681A0ECA74E7
:1020B0001939564B1B68C3F307421402CC85534BA6
:1020C0001B88C3F30722CB8D1343CB854F4B1A7864
:1020D00014060C635B681A0E0B6B43EA02440C6334
:1020E0004A4B5B68C3F307420B6B43EA02240C6361
:1020F000464B9B88C3F307220B6B13430B63434B85
:102100001A7934235A54414B9B681A0E35235A547A
:102110003E4B9B68C3F3074214068C633B4B1B8901
:10212000C3F307228B6B43EA02448C63374B1A7A62
:102130008B6B43EA02248C63344BDB681A0E8B6B87
:1021400013438B63314BDB68C3F307423C235B5C77
:1021500043EA12143C235C5413071C0DCC872B4B11
:102160009B89C3F30722CB8F1343CB87274B1A7B63
:10217000540840235C54012441235C5430BD70B5A5
:102180002A252348446B01E02148446B04F04500B4
:102190000028F9D004F0040028B103250420FFF73B
:1021A000E8F9284670BD04F0010028B1012501209E
:1021B000FFF7DFF92846F5E740F2FF50FFF7D9F9BE
:1021C0002846EFE72DE9F04106460F464FF02A0872
:1021D0000F48456B01E00E48456B05F045000028AF
:1021E000F9D005F00400A8B14FF003080420FFF770
:1021F000C0F94046BDE8F0816C0200204405002093
:102200005C05002070020020D4040020E4040020BB
:102210000080014005F0010030B14FF001080120BD
:10222000FFF7A7F94046E5E7FFF73CF9B04203D0D6
:102230004FF010084046DDE740F2FF50FFF799F9F4
:102240000020FFF733F9044604F4604018B9200C6D
:1022500038804046CEE704F4005008B11320C9E7A7
:1022600004F4804008B11020C4E704F4004008B131
:102270000F20BFE74046BDE738B52A240120009073
:10228000FFF7E1F810B92524204638BDFE48006864
:10229000042829D00020FD49086002204860C020A1
:1022A00088600020C8604FF4806008610846FFF72E
:1022B000DFF8FFF764FF04462A2C01D02046E4E74C
:1022C0000020FFF7F3F8F24908600420FFF7EEF86A
:1022D000EF4948600820FFF7E9F8ED4988600C20D5
:1022E000FFF7E4F8EA49C860E748006858B1E648F3
:1022F0000068012807D0E4480068062803D0E248B7
:102300000068022817D10020E049086003204860D7
:10231000402088600020C8604FF480600861084653
:10232000FFF7A6F869460320FFF74CFF04462A2C66
:1023300001D02046A9E7D448006804282FD0BDF872
:102340000000D4490860BDF800000004CF490860CF
:1023500009204860C02088600020C8604FF4806079
:1023600008610846FFF784F8FFF709FF04462A2CA6
:1023700001D0204689E70020FFF798F8C649086099
:102380000420FFF793F8C44948600820FFF78EF84F
:10239000C14988600C20FFF789F8BF49C8602A242A
:1023A000204672E770B52A25BC48446B01E0BB4863
:1023B000446B04F045000028F9D004F0040028B173
:1023C00003250420FFF7D5F8284670BD40F2FF50E2
:1023D000FFF7CFF82846F8E770B52A264FF4803586
:1023E000AE48446B02E06D1EAC48446B04F04500FF
:1023F00008B9002DF7D115B104F0040028B1032667
:102400000420FFF7B6F8304670BD04F0400028B154
:102410002A264020FFF7ADF83046F5E73046F3E7CF
:1024200070B52A254FF4803400E0641E24B180206A
:10243000FFF795F80028F8D014B90325284670BD99
:1024400040F2FF50FFF795F82846F8E72DE9F041F4
:102450002A240026002500274FF00008B2209049CA
:1024600008750020086048608860C86008610846F8
:10247000FEF7BEFF0320FEF7DBFF0120FEF7D5FFCE
:1024800000208249086048608860C8604FF480601E
:1024900008610846FEF7ECFFFFF7C2FF04462A2C4E
:1024A00002D02046BDE8F0814FF4D570774908602E
:1024B00008204860402088600020C8604FF4806099
:1024C00008610846FEF7D4FFFFF786FF04462A2C72
:1024D00005D101206C4908604FF0804812E00020CF
:1024E0006A49086037204860402088600020C86042
:1024F0004FF4806008610846FEF7BAFF3720FFF707
:1025000088FA04460020614908603720486040206E
:1025100088600020C8604FF4806008610846FEF7BC
:10252000A7FF3720FFF775FA04462A2C4CD138E074
:10253000002056490860372048604020886000200D
:10254000C8604FF4806008610846FEF791FF3720AD
:10255000FFF75FFA04462A2C01D02A20A2E751484F
:1025600048EA000049490860292048604020886006
:102570000020C8604FF4806008610846FEF778FFCD
:10258000FFF710FF04462A2C01D020468AE70020DE
:10259000FEF78CFF0646012080EAD67080F0010726
:1025A0006D1C1FB94FF6FF708542C1D34FF6FF7007
:1025B000854202D31B24204674E706F08040061EA5
:1025C00002D002203049086020466BE708B501219F
:1025D0003020FEF79BFE4FF4F850ADF800000320CA
:1025E0008DF8020018208DF8030069462E48FEF78A
:1025F000D1FB0420ADF8000069462C48FEF7CAFB69
:102600008020ADF8000048208DF803006946264878
:10261000FEF7C0FB01218802FEF76BFE01210220BC
:10262000FEF767FE08BD10B52A24FFF7CFFFFEF7BF
:10263000D1FEFFF70BFF04462A2C01D0204610BD27
:10264000FFF71AFE04462A2C01D02046F7E70220A5
:10265000134908750020086048608860C8600861F8
:102660000846FEF7C5FE2A2C03D11148FFF729FCC6
:1026700004462A2C06D10E49B1F84C100804FFF785
:1026800008FC04462A2C15E06C0200205C050020A2
:10269000E404002070020020D404002000800140E7
:1026A000440500200000108000100140001401408B
:1026B000F404002004D14FF40060FFF7A2FB0446AD
:1026C0002A2C03D10020FFF798F904462046B6E7EC
:1026D00070B504462A2514B92625284670BDFE4843
:1026E00000880004FD4908600D2048604020886093
:1026F0000020C8604FF4806008610846FEF7B8FE0D
:102700000D20FFF786F905462A2D01D02846E5E77A
:102710000020FEF7CBFE20602846DFE708B5012049
:1027200000908021EE48FEF7C8FB08B10020009021
:102730009DF8000008BD08B500200090FFF7EEFFEF
:1027400001280AD16846FFF7C3FF2A2801D0FF20DD
:1027500008BD0098C0F34320FAE7FF20F8E710B562
:102760000424FFF7E8FF0446042C01D1002010BD2B
:10277000FF2C01D10220FAE70120F8E710B52A2446
:102780000020FEF755FE204610BD10B5D548FEF7D7
:102790005FFA10BD30B58BB005460C46D248FEF747
:1027A0006BFA0021D148FEF738FAD1480090019524
:1027B00000200290A0080390002004908020059043
:1027C0008000069080000790002008904FF4005091
:1027D000099000200A906946C448FEF7F3F90121E8
:1027E000C248FEF71AFA0BB030BD0146002002E0E5
:1027F0004910421CD0B20129FAD170472DE9F047A7
:1028000006460F4614464FF02A084FF00009354699
:102810004FF0000A26B94FF026084046BDE8F08781
:102820002A20B44908700020B3490860B349086001
:10283000B348B4490860002048608860C8600861F7
:1028400048610846FEF73DFE0020FEF70EFE002020
:10285000FEF72CFE00F0007018B14FF00E08404655
:10286000DCE7A9480068022801D104027F0A002C95
:1028700021DDB4F5006F1EDC601E2040D8B9204673
:10288000FFF7B3FF824695480460102093494860E3
:10289000402088600020C8604FF4806008610846CE
:1028A000FEF7E6FD1020FFF7B4F88046B8F12A0FD6
:1028B00005D04046B2E74FF026084046AEE79048C4
:1028C00090490860084644604FEA0A108860022078
:1028D000C86000200861012048610846FEF7F1FD4C
:1028E00086480460002089490860894806607B4862
:1028F0000760112079494860402088600020C86046
:102900004FF4806008610846FEF7B2FD1120FFF722
:1029100080F88046B8F12A0F01D040467EE77D4816
:102920000068022858D111E04FF40040FEF717FE6E
:1029300060B14FF0000905E0FEF7E5FD45F829001C
:1029400009F10109B9F1080FF6D32035684880383C
:10295000406B40F22A6108400028E5D00820FEF7CD
:10296000FEFD30B10820FEF704FE4FF0040840469B
:1029700054E70220FEF7F3FD30B10220FEF7F9FD27
:102980004FF00208404649E72020FEF7E8FD30B14D
:102990002020FEF7EEFD4FF0060840463EE74FF4DC
:1029A0000070FEF7DCFD38B14FF40070FEF7E1FD7A
:1029B0004FF00708404631E703E0FEF7A4FD28602A
:1029C0002D1D4FF40010FEF7CAFD0028F5D140F28E
:1029D000FF50FEF7CEFD38E04E480068012813D1C5
:1029E000012148F22A30FEF733FD00BF424800685B
:1029F00018B9404800782A28F8D03E4800782A289C
:102A000023D03C48007809E742480068E8B9012132
:102A100040F22A30FEF71CFD0120FEF726FD21467C
:102A20003046FFF7B7FE00BFFFF7AFFE30B93248C0
:102A3000006818B92F4800782A28F5D02D4800786A
:102A40002A2802D02B480078E8E64046E6E62DE941
:102A5000F05F0746894614461D464FF02A084FF09E
:102A6000000A3E464FF0000B27B94FF026084046BB
:102A7000BDE8F09F2A201F49087000201E49086009
:102A80001E4908601E481F49086000204860886091
:102A9000C860086148610846FEF713FD0020FEF794
:102AA000E4FC0020FEF702FD00F0007018B14FF0CA
:102AB0000E084046DCE714480068022802D10402F0
:102AC0004FEA5929002C43DDB4F5006F40DC601E4D
:102AD0002040E0BB20461FE0700200205C05002083
:102AE000001001400020001000F0001044040240DB
:102AF00080800140880200208C02002078020020A3
:102B0000FFFF0F00700500206C0200207C020020F7
:102B10008402002074020020FFF767FE8346FE480F
:102B200004601020FC494860402088600020C86094
:102B30004FF4806008610846FEF79AFC1020FEF70B
:102B400068FF8046B8F12A0F06D0404690E7FFE7BD
:102B50004FF0260840468BE7012D70D905FB04F0A5
:102B6000B0F1007F03D34FF02608404680E705FB15
:102B700004F0EA4908600120E9490860E948076073
:102B8000E948EA49086005FB04F048604FEA0B1089
:102B900088600220C8600020086101204861084662
:102BA000FEF78FFCDC48C0F800901220DA4948603C
:102BB000402088600020C8604FF4806008610846AB
:102BC000FEF756FC1220FEF724FF8046B8F12A0FCC
:102BD00001D040464CE7D648006802287BD111E07E
:102BE0004FF40040FEF7BBFC60B14FF0000A05E077
:102BF000FEF789FC46F82A000AF1010ABAF1080F2B
:102C0000F6D32036CB48406B40F22A3108400028EA
:102C1000E6D00820FEF7A3FC30B10820FEF7A9FC9F
:102C20004FF00408404623E70220FEF798FC38B135
:102C30000220FEF79EFC4FF00208404618E78AE0AB
:102C40002020FEF78CFC30B12020FEF792FC4FF0E4
:102C5000060840460CE74FF40070FEF780FC38B1E0
:102C60004FF40070FEF785FC4FF007084046FFE682
:102C700003E0FEF748FC3060361D4FF40010FEF70D
:102C80006EFC0028F5D14FF48070FEF768FC18B395
:102C9000A948006838B1A8480068022803D0A648AF
:102CA0000068012818D100209B4908600C2048606A
:102CB000402088600020C8604FF4806008610846AA
:102CC000FEF7D6FB0C20FEF7A4FE8046B8F12A0FD3
:102CD00002D04046CCE604E040F2FF50FEF749FC4B
:102CE00039E093480068012813D1012148F22A30C5
:102CF000FEF7AEFB00BF9148006818B99048007815
:102D00002A28F8D08E4800782A2824D08C480078C9
:102D1000AEE687480068F0B9012140F22A30FEF79C
:102D200097FB0120FEF7A1FB05FB04F13846FFF7F6
:102D300031FD00BFFFF729FD30B98048006818B9A0
:102D40007F4800782A28F5D07D4800782A2802D0CC
:102D50007B4800788CE640468AE67CB504462A2506
:102D60000020019000907748008800046A490860BC
:102D70000D204860402088600020C8604FF48060CB
:102D800008610846FEF774FB6A48406B009002E059
:102D90006848406B0090009800F045000028F7D08C
:102DA000009800F0040028B103250420FEF7E1FBA1
:102DB00028467CBD009800F0010028B101250120C3
:102DC000FEF7D7FB2846F4E7FEF76CFB009000986F
:102DD0000D2802D010252846EBE740F2FF50FEF701
:102DE000C8FB0020FEF762FB01900198C0F343206E
:102DF000207055490198084008B92846D9E701983C
:102E000000F0004008B11C20D3E7019800F080409A
:102E100008B10920CDE7019800F0005008B10A2060
:102E2000C7E7019800F0805008B10B20C1E7019876
:102E300000F0006008B10C20BBE7019800F0806052
:102E400008B10D20B5E7019800F0807008B10E20A0
:102E5000AFE7019800F4000008B10F20A9E701983E
:102E600000F4800008B11020A3E7019800F40010DE
:102E700008B111209DE7019800F4801008B11220DC
:102E800097E7019800F4002008B1132091E701981A
:102E900000F4802008B114208BE7019800F4003082
:102EA00008B1152085E7019800F4803008B116209C
:102EB0007FE7019800F4004008B1172079E70198F6
:102EC00000F4804008B1182073E7019800F4005026
:102ED00008B119206DE7019800F0080008B11A2028
:102EE00067E7284665E730B58BB005460C461748BE
:102EF000FDF7C2FE00211648FDF78FFE0D48803019
:102F00000090019510200290A008039000200490EA
:102F10008020059080001DE05C05002078020020E4
:102F20007C02002084020020FFFF0F0070050020BB
:102F300074020020008001406C0200208C020020FE
:102F4000880200207002002008E0FFFD00F0001061
:102F500044040240069080000790002008904FF43F
:102F60000050099000200A906946FE48FDF72AFEAD
:102F70000121FC48FDF751FE0BB030BD2DE9FF5F8C
:102F800081468A4614462A250020039002908346F3
:102F90000026019000270090C846B9F1000F04D127
:102FA0002625284604B0BDE8F09F2A20EE49087087
:102FB0000020EE490860EE490860EE48EE490860DE
:102FC000002048608860C860086148610846FEF7D4
:102FD00078FA0020FEF749FA0020FEF767FA00F0C1
:102FE000007010B10E252846DCE7E448006802288E
:102FF00002D104024FEA5A2A002C20DDB4F5006FFA
:103000001DDC601E2040D0B92046FFF7EEFB039088
:10301000DB4804601020DA494860402088600020C6
:10302000C8604FF4806008610846FEF721FA10205E
:10303000FEF7EFFC05462A2D04D02846B2E72625E8
:103040002846AFE7CF4800880004CD4908600D202E
:103050004860402088600020C8604FF480600861AC
:103060000846FEF705FA0D20FEF7D3FC05462A2D8B
:1030700001D0284696E70020FEF718FA0190DFF805
:10308000F4B21EE0ABF1010BBE4800880004BC495D
:1030900008600D204860402088600020C8604FF420
:1030A000806008610846FEF7E3F90D20FEF7B1FCE9
:1030B00005462A2D01D0284674E70020FEF7F6F9D0
:1030C0000190019800F4807010B9BBF1000FD9D1C4
:1030D000BBF1000F01D1292064E7A948C0F800A086
:1030E0001820A7494860402088600020C8604FF43D
:1030F000806008610846FEF7BBF91820FEF789FCDE
:1031000005462A2D01D028464CE799480460002046
:103110009D4908609D48C0F800909648964908600F
:10312000084644600398000188600020C860086178
:10313000012048610846FEF7C4F995480068022856
:1031400066D134E04FF48040FEF709FA78B388483E
:103150000068801B20281ED285480078801B00F064
:10316000030020B982480068801B800804E0804882
:103170000068801B8008401C0090002707E0D8F8FA
:103180000000FEF7C4F97F1C08F10408361D009802
:1031900087420CD2F3E7002704E058F82700FEF737
:1031A000B6F97F1C082FF8D308F12008203679489B
:1031B000406B40F21A6108400028C3D00820FEF797
:1031C000CEF928B10820FEF7D4F904252846E9E60F
:1031D0000220FEF7C4F928B10220FEF7CAF9022541
:1031E0002846DFE61020FEF7BAF928B11020FEF7D6
:1031F000C0F905252846D5E64FF40070FEF7AFF973
:10320000F0B34FF40070FEF7B4F907252846C9E67D
:103210005F480068012813D1012144F21A30FEF7FB
:1032200017F900BF5148006818B94F4800782A289C
:10323000F8D04D4800782A2825D04B480078B1E6D0
:1032400053480068E0B9012140F21A30FEF700F956
:1032500021464846FFF747FE0120FEF706F900BF6A
:10326000FFF793FA30B94148006818B93E48007832
:103270002A28F5D03C4800782A2804D03A4800E0B3
:1032800001E000788EE640F2FF50FEF772F902A8E6
:10329000FFF763FD054603E002A8FFF75EFD054664
:1032A0002A2D07D19DF808000728F5D09DF80800C1
:1032B0000628F1D0284675E62DE9FE4F81468A465C
:1032C00014461E462A254FF0000B002002900027CE
:1032D0000190C8460090B9F1000F03D12625284679
:1032E000BDE8FE8F2A202049087000201F49086091
:1032F0001F4908601F482049086000204860886016
:10330000C860086148610846FEF7DBF80020FEF758
:10331000ACF80020FEF7CAF800F0007010B10E25DE
:103320002846DDE715480068022802D104024FEA6A
:103330005A2A002C3CDDB4F5006F39DC601E2040B9
:1033400050BB2046FFF751FA83460D480460102019
:103350000B494860402088600020C8604FF48060BE
:1033600008611AE044040240880200208C02002018
:1033700078020020FFFF0F00700500206C02002083
:103380005C050020700200207C02002080020020EA
:1033900074020020008001400AE00846FEF768F849
:1033A0001020FEF736FB05462A2D04D0284697E765
:1033B0002625284694E7FC4800880004FB4908605D
:1033C0000D204860402088600020C8604FF4806075
:1033D00008610846FEF74CF80D20FEF71AFB05467B
:1033E0002A2D01D028467BE7012E7AD906FB04F06E
:1033F000B0F1007F02D32625284671E7EC4800682B
:1034000038B1EB480068012803D0E9480068022879
:103410002FD1E54800880004E4490860372048605F
:10342000402088600020C8604FF480600861084632
:10343000FEF71EF83720FEF7ECFA05462A2D01D0DC
:1034400028464DE7D94806601720D84948604020F3
:1034500088600020C8604FF4806008610846FEF76D
:1034600007F81720FEF7D5FA05462A2D01D0284681
:1034700036E7CE48C0F800A01920CC49486040206B
:1034800088600020C8604FF4806008610846FDF73E
:10349000EFFF1920FEF7BDFA05462A2D01D0284678
:1034A0001EE706FB04F0C34908600120C24908601A
:1034B000C248C0F80090C248C249086006FB04F048
:1034C00048604FEA0B1088600020C8600861012046
:1034D00048610846FDF7F5FFBB480068022870D137
:1034E0003EE0D1E04FF48040FEF739F8C0B3B14878
:1034F0000068C01B202811D30020009007E000992D
:1035000058F82100FEF703F80098401C009000983E
:103510000828F4D308F12008203721E0A5480078D6
:10352000C01B00F0030020B9A2480068C01B80083F
:1035300004E0A0480068C01B8008401C01900020E7
:10354000009009E0D8F80000FDF7E1FF0098401C6A
:10355000009008F104083F1DDDE900108142F1D31D
:103560009A48406B40F21A3108400028BAD008202F
:10357000FDF7F5FF28B10820FDF7FBFF04252846DD
:10358000AEE60220FDF7EBFF28B10220FDF7F1FFC8
:1035900002252846A4E61020FDF7E1FF28B11020FF
:1035A000FDF7E7FF052528469AE64FF40070FDF782
:1035B000D6FF38B14FF40070FDF7DBFF0725284632
:1035C0008EE627E04FF48070FDF7C9FF00285BD03E
:1035D0007748006838B176480068012803D07448FD
:1035E0000068022850D10020704908600C20486013
:1035F000402088600020C8604FF480600861084661
:10360000FDF736FF0C20FEF704FA05462A2D3BD0C5
:10361000284665E66C480068012813D1012144F270
:103620001A30FDF715FF00BF6948006818B96948EE
:1036300000782A28F8D0674800782A2824D06548DE
:1036400000784DE660480068F0B9012140F21A3078
:10365000FDF7FEFE0120FDF708FF06FB04F14846DA
:10366000FFF741FC00BFFFF790F830B958480068F9
:1036700018B9584800782A28F5D0564800782A28E2
:1036800002D0544800782BE640F2FF50FDF771FF5E
:103690000020009002E00098401C00904FF6FF715F
:1036A00000988842F7D302A8FFF757FB054603E0CE
:1036B00002A8FFF752FB05462A2D07D19DF8080006
:1036C0000728F5D09DF808000628F1D0284607E61F
:1036D0003E48406B00F4405008B101207047002084
:1036E000FCE710B52A240020304908600C2048600F
:1036F000402088600020C8604FF480600861084660
:10370000FDF7B6FE0C20FEF784F90446204610BDF6
:103710002DE9FC4105460E462A2400270020019091
:1037200000902D484068202101EA105018B9252446
:103730002046BDE8FC8125484068C0B2801C27496E
:10374000B1FBF0F001900020FDF7B0FE00F000703A
:1037500010B10E242046ECE715480068022801D17C
:103760006D0A760A1248006838B1114800680128CD
:1037700003D00F480068022849D10C48056020207A
:103780000A494860402088600020C8604FF480608B
:1037900008610846FDF76CFE2020FEF73AF9044662
:1037A0002A2C1DD02046C4E7700200205C050020B2
:1037B0006C020020780200207C02002080020020A1
:1037C000FFFF0F0070050020740200200080014000
:1037D0008C02002088020020D4040020C0D4010004
:1037E000F84806602120F7494860402088600020A2
:1037F000C8604FF4806008610846FDF739FE21205B
:10380000FEF707F904462A2C01D0204691E7002054
:10381000EC49086026204860402088600020C8608D
:103820004FF4806008610846FDF722FE2620FEF76F
:10383000F0F804462A2C01D020467AE7002700E061
:103840007F1C01988742FBD36846FFF786FA04463F
:1038500003E06846FFF781FA04462A2C07D19DF859
:1038600000000728F5D09DF800000628F1D020467A
:103870005FE770B504462A2600250020FDF716FEF6
:1038800000F0007010B10E26304670BD4020CD49CA
:10389000086010204860402088600020C8604FF415
:1038A000806008610846FDF7E3FD1020FEF7B1F8DF
:1038B00006462A2E01D03046E7E7C34800880004B8
:1038C000C049086037204860402088600020C860F8
:1038D0004FF4806008610846FDF7CAFD3720FEF707
:1038E00098F806462A2E01D03046CEE7B748B849A8
:1038F000086040204860602088600220C860002086
:103900000861012048610846FDF7DBFD0020AD4954
:1039100008600D204860402088600020C8604FF497
:10392000806008610846FDF7A3FD0D20FEF771F8E1
:1039300006462A2E01D03046A7E70EE04FF400409D
:10394000FDF70DFE48B1002504E0FDF7DCFD44F86D
:1039500025006D1C082DF8D320349E48406B40F2A2
:103960002A6108400028E9D00820FDF7F8FD28B1B9
:103970000820FDF7FEFD0426304686E70220FDF70D
:10398000EEFD28B10220FDF7F4FD022630467CE76B
:103990002020FDF7E4FD28B12020FDF7EAFD0626F2
:1039A000304672E74FF40070FDF7D9FD30B14FF4A7
:1039B0000070FDF7DEFD0726304666E703E0FDF701
:1039C000A2FD2060241D4FF40010FDF7C8FD002863
:1039D000F5D140F2FF50FDF7CCFD403C002515E04D
:1039E00014F82500000634F8251001F47F4140EA60
:1039F000012054F8251001F47F0140EA112054F809
:103A0000251040EA116044F825006D1C102DE7D305
:103A100030463AE770B5002400256F480068012859
:103A200067D1C003FDF7A8FDA8B100BF06E0FDF710
:103A30006AFD6A49096841F82400641C082CF6D321
:103A40006648006820306549086065480068203095
:103A5000634908604DE04FF48040FDF78DFD00287C
:103A600047D0604800685E490968401A20282BD278
:103A70005C4800785A490968401A00F0030030B9E0
:103A80005848006856490968401A800806E05548B9
:103A9000006853490968401A8008401C0546002404
:103AA0000FE0514909680868FDF731FD641C4E4874
:103AB0000068001D4C49086049480068001D4849DD
:103AC0000860AC42EDD314E0002406E046490968E2
:103AD00051F82400FDF71BFD641C082CF6D3424866
:103AE00000682030404908603D48006820303C496B
:103AF00008604FF48070FDF73FFDD8B3364800688A
:103B0000D0B10EE0FDF7FFFC344909680860334886
:103B10000068001D3149086031480068001D3049C7
:103B200008604FF40010FDF71AFD28B12C4800681A
:103B30002C4909688842E5D32C480068012804D143
:103B4000FFF7CFFD2A49087002E02A2028490870B3
:103B50004FF48070FDF71AFD00214CF23A30FDF76A
:103B600077FC01202349086000201D490860204897
:103B7000007870BDFFE70220FDF7FEFC70B1022067
:103B8000FDF704FD00214CF23A30FDF761FC002006
:103B900013490860022016490870EAE70820FDF77B
:103BA000EBFC70B10820FDF7F1FC00214CF23A303B
:103BB000FDF74EFC00200A49086004200C490870FB
:103BC000D7E719E05C05002070020020FFFF0F001E
:103BD0007005002000800140740200208402002053
:103BE0009002002078020020800200207C02002049
:103BF000880200208C0200202020FDF7BDFC70B15F
:103C00002020FDF7C3FC00214CF23A30FDF720FCE8
:103C1000002022490860062021490870A9E71020E9
:103C2000FDF7AAFC70B11020FDF7B0FC00214CF2AA
:103C30003A30FDF70DFC00201849086005201849AE
:103C4000087096E74FF40070FDF796FC78B14FF4DA
:103C50000070FDF79BFC00214CF23A30FDF7F8FBB9
:103C600000200E49086007200D49087081E72A20CE
:103C70007FE708B54FF4C060FCF794FE31208DF863
:103C8000000000208DF801008DF8020001208DF861
:103C900003006846FCF78BFE08BD00009002002080
:103CA00088020020F0B595B0074600250026FEF7F3
:103CB000BAFC04462A2C00D042E001A8FEF701F924
:103CC000BDF850100804FEF7E4F89DF81C00851CB0
:103CD0009DF85200022805D10598401C80024049F9
:103CE000086011E09DF80C20012101FA02F0C117D3
:103CF00000EBD1514E120598401C0121A9404843C8
:103D00007108884036490860BDF850100804FEF775
:103D1000C0F804464FF40060FEF773F804462A2CFE
:103D200000D00DE00020FDF768FE04462A2C00D0EC
:103D300006E04FF400702B490860002015B0F0BD7C
:103D40000120FBE70146002070472DE9F041804645
:103D50000E4614461D462A27012D06D161025A023D
:103D60003046FEF74BFD074607E061022B464FF455
:103D700000723046FEF76BFE07462A2F02D1002064
:103D8000BDE8F0812A46214617A003F0C3FB0120BD
:103D9000F6E72DE9F04180460E4614461D462A27D7
:103DA00009E061024FF400723046FFF7E7F807467A
:103DB0002A2F00D004E0281EA5F10101CDB2F0D1D8
:103DC00000BF2A2F02D10020BDE8F0812A462146FB
:103DD0000EA003F09FFB0120F6E70346002070478A
:103DE00098020020940200204572723A2053445FEA
:103DF000526561644D756C7469426C6F636B7328B6
:103E00002C25642C2564290D0A0000004572723AA5
:103E10002053445F5772697465426C6F636B7328FB
:103E20002C25642C2564290D0A00000070B503467A
:103E30000C4603E014F8015B03F8015B151EA2F1C8
:103E40000102F7D170BD30B5034601E003F8011B54
:103E5000141EA2F10102F9D130BDF0B503461C4693
:103E60000D46002000BF161EA2F1010207D014F873
:103E7000017B15F801CBA7EB0C06301EF3D0F0BD8B
:103E8000024600E0521C107810B110788842F9D137
:103E9000107870472DE9F04104460D46266BAE427E
:103EA0002FD0207908B360780123324604F1340121
:103EB000FFF76FFF10B10120BDE8F08100202071F5
:103EC000D4E908100844B0420FD9E7780AE0206A24
:103ED000064460780123324604F13401FFF759FFAC
:103EE000781EC7B2012FF2DC00BF55B16078012304
:103EF0002A4604F13401FFF728FF08B10120DBE76F
:103F000025630020D8E770B5044600212046FFF75E
:103F1000C1FF0546002D59D1207803284FD1607983
:103F200000284CD0002020634FF40072002104F1DF
:103F30003400FFF788FF552184F83212AA2184F853
:103F40003312522084F8340052213520015561216A
:103F500036200155412137200155722184F818126D
:103F600084F81912412184F81A12612184F81B1275
:103F7000217C84F81C12208A010A84F81D12206911
:103F8000010C84F81E122069010E84F81F12217B97
:103F900084F82012A089010A84F82112E068010C3B
:103FA00084F82212E068010E84F82312607801235D
:103FB00004F134016269FFF7ECFE00206071607863
:103FC00000221146FFF709FF00B10125284670BD08
:103FD0000246891ED069801E884201D800207047A1
:103FE0009378D06A01FB0300F9E72DE9F04105461B
:103FF0000C46022C02D3E869A04202D80120BDE899
:10400000F0812878012804D002282CD003285AD126
:104010003DE0274607EB5707686A00EB5721284623
:10402000FFF738FF00B14EE0C7F3080105F1340097
:1040300010F801807F1C686A00EB57212846FFF7C3
:1040400029FF00B13FE0C7F3080105F13400405CEF
:1040500048EA002804F0010010B14FEA1810CEE73A
:10406000C8F30B00CBE7686A00EB14212846FFF782
:1040700011FF00B127E040F2FF1000EA440105F112
:1040800034000E183078717840EA0120B7E7686A8A
:1040900000EBD4112846FFF7FDFE00B113E040F21B
:1040A000FF1000EA840105F134000E18F0780006D4
:1040B000B17840EA0140717840EA01203178084344
:1040C00020F070409BE700BF4FF0FF3097E72DE9ED
:1040D000F04705460E461746022E02D3E869B04265
:1040E00002D84FF002088AE02878012804D002287C
:1040F00041D003287DD154E0B14609EB5909686AE3
:1041000000EB59212846FFF7C5FE8046B8F1000FA5
:1041100000D071E0C9F3080105F134000C1806F075
:10412000010020B1F9B2207861F31F1000E0384699
:10413000207009F1010901202871686A00EB5921FA
:104140002846FFF7A7FE8046B8F1000F00D053E0E5
:10415000C9F3080105F134000C1806F0010010B194
:10416000C7F3071005E0207800F0F000C7F3032143
:104170000843207040E0686A00EB16212846FFF7EC
:1041800089FE8046B8F1000F00D035E040F2FF1004
:1041900000EA460105F134000C182770380A6070F7
:1041A0002AE0686A00EBD6112846FFF773FE8046C6
:1041B000B8F1000F00D01FE040F2FF1000EA8601C6
:1041C00005F134000C18E0780006A17840EA0140BF
:1041D000617840EA01202178084300F070400743ED
:1041E0002770380A6070380CA070380EE07003E059
:1041F000FFE74FF0020800BF00BF012028714046D2
:10420000BDE8F0872DE9F04104460E46022E02D3A8
:10421000E069B04201D8022725E000271FE03146BF
:104220002046FFF7E2FE054605B91BE0012D01D14E
:10423000022717E0681C08B9012713E00022314665
:104240002046FFF744FF074607B10BE02069401CFA
:1042500020B12069401C2061012060712E46E06978
:10426000B042DCD800BF3846BDE8F0812DE9F04708
:1042700004468946B9F1000F06D1E76817B1E06935
:10428000B84211D801270FE049462046FFF7ADFE9E
:104290000646022E02D20120BDE8F087E069B04256
:1042A00001D93046F8E74F463D4600BF6D1CE06936
:1042B000A84204D80225BD4201D90020ECE72946D6
:1042C0002046FFF792FE064606B909E0701C08B1C9
:1042D000012E01D13046DFE7BD42E7D10020DBE708
:1042E00000BF6FF0704229462046FFF7F0FE80467F
:1042F000B8F1000F08D1B9F1000F05D02A464946A0
:104300002046FFF7E4FE8046B8F1000F09D1E560D2
:104310002069401C68B12069401E20610120607145
:1043200007E0B8F1010F02D14FF0FF3000E00120AB
:1043300005462846B0E770B503460D46586A021D8B
:10434000680A1E68B678B0FBF6F400BF02CA09B965
:10435000002070BD8C4200D202E0641A121DF5E705
:1043600000BF10682044F4E72DE9F04104460E46F2
:10437000E680A568012D03D02068C069A84202D854
:104380000220BDE8F0812DB920680078032801D112
:104390002068856A65B9E56020680089B04201DC63
:1043A0000220EEE72068806A00EB1610206120E012
:1043B00020688078070112E029462068FFF715FE83
:1043C0000546681C08B90120DBE7022D03D32068ED
:1043D000C069A84201D80220D3E7F01B86B2BE42D2
:1043E000EADAE56029462068FFF7F2FD00EB1610D7
:1043F00020612068343006F00F0100EB411060614D
:104400000020BEE72DE9F0410446884600BFE08861
:10441000401C86B20EB1206910B90420BDE8F081BD
:1044200006F00F0000286FD12069401C2061E06871
:1044300028B920680089B04266DC0420EEE72068D5
:104440008078401E00EA161000285DD1E1682068DF
:10445000FFF7CBFD0546012D01D80220DEE7681CE1
:1044600008B90120DAE72068C069A84246D8B8F147
:10447000000F01D10420D1E7E1682068FFF7F6FEC4
:1044800005460DB90720C9E7012D01D10220C5E776
:10449000681C08B90120C1E700212068FFF7FAFC79
:1044A00008B10120BAE7216801F134004FF400722D
:1044B0000021FFF7C8FC29462068FFF789FD216825
:1044C0000863002710E0012021680871002120689E
:1044D000FFF7E0FC08B10120A0E72068006B401C5A
:1044E00021680863781CC7B220688078B842EADC8B
:1044F0002068006BC01B2168086300BFE560294687
:104500002068FFF765FD2061E6802068343006F002
:104510000F0100EB4110606100207FE72DE9F047BB
:1045200005460C46207820F04000401E00EB80013C
:1045300001EBC00600274FF0010800BFFD48C05D39
:10454000205CFC49C95D2144497840EA0129B8F161
:10455000000F10D0484602F0A1FE8046FF2E07D281
:104560003146761C35F8110002F098FE404508D01F
:104570000020BDE8F0874FF6FF70814501D0002094
:10458000F7E7781C07460D28D8D3207800F04000C4
:1045900038B1B8F1000F04D035F8160008B100208A
:1045A000E7E70120E5E7F0B50346087800F03F00B3
:1045B000401E00EB800707EBC0020025012600BF6C
:1045C000DC48405D085CDB4F7F5D0F447F7840EA4C
:1045D00007244EB1FF2A01D30020F0BD2646104625
:1045E000521C23F8104005E04FF6FF70844201D0C2
:1045F0000020F2E7681C05460D28E1D3087800F09A
:10460000400030B1FF2A01D30020E6E7002023F864
:1046100012000120E1E7F0B504461D464D730F2757
:10462000CF7200270F738F76BC4681F81BC0571ED0
:1046300007EB870C0CEBC706002738463B4600BF4C
:104640004FF6FF77B84203D03746761C34F8170090
:10465000DFF8E0C21CF803C001F80C000712DFF815
:10466000D4C21CF803C08C448CF8017008B94FF612
:10467000FF705F1C3B460D2FE2D34FF6FF77B84229
:1046800002D034F816700FB942F040020A70F0BD43
:104690002DE9FC4707468A4690461C460B225146A8
:1046A0003846FFF7C3FB052C0BDD00BF601000EBA5
:1046B000C43138F8022B881884B2B8F800000028FA
:1046C000F4D1072600BF2046E11704EB1171091150
:1046D000A4EB0111303101F0FF09B9F1390F03DD0D
:1046E00009F1070000F0FF093046761E0DF8009032
:1046F0002046E11704EB1171C1F30F14002CE2D135
:104700007E200DF8060000250BE0785D812807DB90
:10471000785DFE2804DC701EA84200D106E06D1C06
:104720006D1CB54202D2785D2028EED100BF00BFDB
:10473000082E04D23046761C1DF8000000E0202030
:1047400029466D1C7854082DF2D3BDE8FC8730B59E
:10475000014600200B2200BF431003EBC01411F8E8
:10476000015B6319D8B2531E1A1EF5D130BD2DE975
:10477000F047044600212046FFF7F6FD074617B133
:104780003846BDE8F0874FF0FF09CA4600BF2169EF
:104790002068FFF77FFB074607B154E065692E7874
:1047A0000EB904274FE0E87A00F03F08E52E05D067
:1047B00008F0080028B1B8F10F0F02D04FF0FF0940
:1047C0003AE0B8F10F0F1CD1E069A0B306F0400049
:1047D00030B195F80DA026F04006B146E08820845F
:1047E0004E450AD1687B504507D12946E069FFF75D
:1047F00095FE10B1A9F1010000E0FF2000F0FF09D3
:104800001AE0B9F1000F05D12846FFF7A0FF504587
:1048100000D118E04FF0FF094FF6FF702084A06927
:10482000C07A00F0010030B90B222846A169FFF7D9
:1048300014FB00B907E0FFE700212046FFF7E2FD87
:104840000746002FA3D000BF38469AE72DE9F0476E
:1048500004464FF0FF09CA4604274BE0216920684F
:10486000FFF718FB074607B147E065692E780EB9D8
:10487000042742E0E87A00F03F08E52E06D000BFAA
:1048800008F0080028B1B8F10F0F02D04FF0FF096F
:1048900029E0B8F10F0F1AD106F0400030B195F8B9
:1048A0000DA026F04006B146E08820844E450AD18E
:1048B000687B504507D12946E069FFF774FE10B1C7
:1048C000A9F1010000E0FF2000F0FF090BE0B9F1C1
:1048D000000F04D12846FFF73AFF504502D04FF6AB
:1048E000FF70208409E000212046FFF78BFD07467A
:1048F00007B102E020690028B0D100BF0FB100204D
:1049000020613846BDE8F0872DE9F04F85B00446B8
:10491000D4F81880D4F81CB00C22414601A8FFF747
:1049200085FA9DF80F0000F0200028B1062005B0A0
:10493000BDE8F08F447900089DF80F0000F00100F9
:1049400020B3002088F80B00E06101270DE03B4612
:104950005A4601A94046FFF79BFE2046FFF707FF96
:10496000054605B103E0781C87B2642FEFDB00BF7A
:10497000642F01D10720DAE7042D01D02846D6E7BD
:104980009DF80F0088F80B00C4F81CB09DF80F00CC
:1049900000F0020070B1002601E0701C86B23BF806
:1049A00016000028F9D106F119000D2190FBF1F055
:1049B00086B200E0012600212046FFF7D5FC05461F
:1049C0000DB12846B3E700200746049000BF2169D7
:1049D0002068FFF75FFA054605B119E0606990F8B5
:1049E0000090B9F1E50F02D0B9F1000F08D10FB96D
:1049F000E0880490781C80B20746B04201D107E0FD
:104A0000002701212046FFF7FDFC0546002DDED0E2
:104A100000BF4DBB012E27DD20460499FFF7A4FC03
:104A200005460DBBA069FFF792FE0090701E86B28E
:104A300000BF21692068FFF72DFA054605B112E095
:104A4000F2B26169E069009BFFF7E5FD0120216892
:104A5000087100212046FFF7D5FC05461DB9701EE0
:104A600080B2061EE5D100BFD5B921692068FFF7E5
:104A700011FA0546A5B9D4F814A020220021504609
:104A8000FFF7E1F90B225046A169FFF7CFF9A069C2
:104A9000C07A00F018008AF80C0001202168087123
:104AA000284644E770B50446E688208C4FF6FF722E
:104AB000904201D1304600E0208C01462046FFF7AD
:104AC00053FC0546E5B900BF21692068FFF7E2F90C
:104AD000054605B110E0E5206169087001202168F4
:104AE0000871E088B04200DB06E000212046FFF7B5
:104AF00089FC0546002DE7D000BF042D00D102251A
:104B0000284670BD2DE9F34F83B0834604980068B2
:104B1000019002E00198401C0190019800782F2834
:104B2000F8D0019800785C28F4D0DBF81C900025C0
:104B3000A84600BF404608F1010801990C5C202CF2
:104B400003DB2F2C01D05C2C00D133E0FF2D03D3ED
:104B5000062005B0BDE8F08FE4B2812C14DBE0B292
:104B6000FE2811DC404608F1010801990E5C402E38
:104B700001DB7E2E05DD802E01DBFE2E01DD062011
:104B8000E7E706EB042084B20121204602F04CFB4B
:104B900004460CB90620DCE7802C06DA2146F8A092
:104BA000FFF76EF908B10620D3E728466D1C29F8F7
:104BB0001040BFE700BF019800EB080104980160B6
:104BC000202C01DA042000E000200746012D04D14A
:104BD000681E39F810002E280BD0022D24D1681E33
:104BE00039F810002E281FD1A81E39F810002E28E1
:104BF0001AD1002029F8150082460AE0AA4501D200
:104C00002E2000E02020DBF8181001F80A000AF13D
:104C1000010ABAF10B0FF1D347F02000DBF81810AE
:104C200001F80A00002094E708E0681E39F81040F7
:104C3000202C02D02E2C00D002E06D1E002DF4D1CD
:104C400000BF0DB9062084E7002029F815000B22CB
:104C50002021DBF81800FFF7F6F84FF0000801E01C
:104C600008F1010839F818002028F9D039F818009F
:104C70002E28F5D0B8F1000F01D047F0030700E06F
:104C80006D1E25B1681E39F810002E28F8D14FF09E
:104C9000000A56460820029000BF404608F101086D
:104CA00039F8104004B962E0202C03D02E2C04D136
:104CB000A84502D047F00307EFE70298824501D2EA
:104CC000A84514D102980B2802D147F003074EE003
:104CD000A84501D047F00307A84500D947E0A846FA
:104CE0004FF0080A0B200290B006060ED5E7802C84
:104CF00009DB204602F0D2FA0021009002F094FA7B
:104D0000044647F00207FF2C10DD0298401E504574
:104D100004D847F00307DDF808A0BEE7221250468A
:104D20000AF1010ADBF818301A5419E024B12146BF
:104D300096A0FFF7A5F818B15F2447F003070FE02E
:104D4000412C04DB5A2C02DC46F0020608E0612C00
:104D500006DB7A2C04DC46F00106A4F1200084B2C4
:104D600050460AF1010ADBF818301C5495E700BFE1
:104D7000DBF818000078E52803D10520DBF81810CF
:104D800008700298082801D1B006060E06F00C0043
:104D90000C2803D006F00300032801D147F00207D6
:104DA00007F0020058B906F00300012801D147F0CE
:104DB000100706F00C00042801D147F00807DBF8C3
:104DC0001800C7720020C4E62DE9FC5F81460F463B
:104DD00007F10908D9F81000002851D0D9F814407B
:104DE000207B0190002514E0665D202E00D112E0AA
:104DF000052E00D1E526019800F0080030B1412EC3
:104E000004DB5A2E02DC06F12000C6B208F8016B62
:104E10006D1C082DE8D300BF207A202819D02E2041
:104E200008F8010B082511E0665D202E00D10FE087
:104E3000019800F0100030B1412E04DB5A2E02DC44
:104E400006F12000C6B208F8016B6D1C0B2DEBD3E8
:104E500000BFE07A3872E07F0106A07F41EA00419E
:104E6000607F41EA0020217F08433860217E607E18
:104E700041EA0020B880A17DE07D41EA0020F88071
:104E8000002088F80000B869D0B3F869C0B3D7F83B
:104E900018B00025D9F8100070B3B9F820004FF60B
:104EA000FF71884228D0D9F81C0000901CE0002136
:104EB000504602F0B9F98246BAF1000F01D100253F
:104EC00019E0BAF1FF0F05DD4FEA2A2228466D1CD2
:104ED0000BF80020F869401EA84201D800250AE01E
:104EE00028466D1C0BF800A0009830F8021BB1F1A9
:104EF000000A0090DBD100BF00200BF8050000BFC6
:104F0000BDE8FC9F2DE9F3410446019800782F2865
:104F100003D0019800785C2805D10198401C0190CD
:104F20000020A06002E020688069A06001980078FD
:104F3000202807D200212046FFF716FA0746002056
:104F4000606144E000BF01A92046FFF7DBFD074692
:104F500007B13BE02046FFF70AFC0746A069C67A86
:104F6000EFB1042F00D031E006F0200090B1002016
:104F7000A0606061002706F0040078B9E3E7000054
:104F8000222A3A3C3E3F7C7F000000002B2C3B3D18
:104F90005B5D000006F0040000B9052716E006F08E
:104FA000040000B112E06569E87A00F0100008B969
:104FB00005270BE0A97EE87E41EA00212A7D687D75
:104FC00042EA002041EA0040A060BCE700BF38464A
:104FD000BDE8FC8170B504460D46607801232A4681
:104FE00004F13401FEF7B1FE08B1032070BD94F85E
:104FF000321294F8330241EA00204AF655218842E1
:1050000001D00220F2E794F86D00010694F86C00DC
:1050100041EA004194F86B0041EA002094F86A10DC
:10502000084320F07F40F949884201D10020DDE7A4
:1050300094F88900010694F8880041EA004194F848
:10504000870041EA002094F88610084320F07F4052
:10505000EE49884201D10020C8E70120C6E72DE9CA
:10506000F74F88B0089800680190019800783038B0
:105070000790079809280AD8019840783A2806D15D
:105080000198801C019008990198086002E0E048AE
:10509000007807900798032803D30B200BB0BDE8D6
:1050A000F08FDC49079851F82040099804600CB94A
:1050B0000C20F3E7207878B16078FEF743FE804655
:1050C00008F0010040B90A9820B108F0040008B1C6
:1050D0000A20E3E70020E1E70020207007986070D5
:1050E0006078FEF7DFFD804608F0010008B103207C
:1050F000D4E70A9820B108F0040008B10A20CDE7EF
:105100004FF0000B59462046FFF764FF054600BFED
:10511000012D21D14FF0000ABAF1000F03D0AAF1FE
:10512000010000F0FF0A4FF4DF7000EB0A1104F1F8
:1051300034000F18387978B1F87A0106B87A41EA64
:105140000041787A41EA0020397A40EA010B594659
:105150002046FFF73FFF0546032D01D101209DE7C3
:105160000DB10D209AE73F20015D94F8400041EA1F
:105170000020B0F5007F01D00D208FE74A20015DAF
:1051800094F84B0041EA0029B9F1000F0ED194F8D0
:105190005B00010694F85A0041EA004194F8590076
:1051A00041EA002094F8581040EA0109C4F8209020
:1051B0004420065DE670012E03D0022E01D00D20A2
:1051C0006CE709FB06F94120005D0646A07016B1A8
:1051D000701E304008B10D2060E74520015D94F855
:1051E000460041EA00202081207A00F00F0008B13B
:1051F0000D2053E74720015D94F8480041EA002064
:105200000690069870B994F85700010694F8560075
:1052100041EA004194F8550041EA002094F8541006
:10522000084306904220015D94F8430041EA0020C3
:105230000290029808B90D2030E70298484421896D
:1052400000EB11100590DDE90501814201D20D202E
:1052500024E7DDE90510401AA178B0FBF1F00490D5
:10526000049808B90D2019E7012540F6F671049855
:10527000884200D302254FF6F6710498884200D385
:1052800003250498801CE06105985844E062029868
:1052900058446062032D16D1208908B10D20FDE627
:1052A00094F86300010694F8620041EA004194F822
:1052B000610041EA002094F860100843A062E069B0
:1052C0008000039014E0208908B90D20E6E6606AAA
:1052D0004844A062022D02D1E069400007E0207F2F
:1052E00000F00100E16901EB410100EB5100039086
:1052F000216A039800F2FF10B1EB502F01D20D206C
:10530000CCE64FF0FF3020610020E060032D5CD13F
:10531000607194F8641094F8650041EA00205844E4
:1053200060616078012304F134016269FEF70DFDCC
:10533000F0BB94F8321294F8330241EA00204AF6A6
:105340005521884241D13720005D01063620005D9D
:1053500041EA00413520005D41EA002094F8341014
:1053600008432D49884230D194F81B02010694F875
:105370001A0241EA004194F8190241EA002094F827
:1053800018120843254988421FD194F823020106C8
:1053900094F8220241EA004194F8210241EA0020F7
:1053A00094F820120843E06094F81F02010600E020
:1053B0000BE094F81E0241EA004194F81D0241EA14
:1053C000002094F81C1208432061257014480088BE
:1053D000401C80B212490880E080002020632071C8
:1053E000A06100BF5AE670B504460D4624B120788E
:1053F00010B1E088A84201D0092070BD6078FEF7A6
:10540000A1FC00F0010068B10320F6E7464154001A
:105410009E02002088050020525261417272416153
:105420009C0200200020E8E70246032A01DB0B2053
:105430007047F74850F822300BB10020187009B1BE
:1054400000200870F24840F822100020F0E710B564
:1054500004462146002002F00EF810BD00207047DF
:1054600010B504462146002002F015F810BD2DE9C4
:10547000F7478DB0054616460020286006F01F0647
:1054800026F0010204A90EA8FFF7E9FD07464FF434
:105490000070FFF7E5FF8246BAF1000F03D111203B
:1054A00010B0BDE8F087CDF82CA001A80A9027B96C
:1054B00004A80E99FFF726FD0746099C0FB904B909
:1054C000062706F01C00002858D04FB1042F03D146
:1054D00004A8FFF719FA074646F00806099C09E0F8
:1054E000E07A00F0110008B1072703E006F004009D
:1054F00000B10827002F40D106F0080000283CD05A
:10550000FFF7ACFF804684F80E804FEA1821E17364
:105510004FEA184121744FEA186161740020E0726B
:10552000207700216177A177E177A17EE07E41EAD3
:105530000021227D607D42EA002041EA00490020EE
:10554000A0760021E176207561750120049908712B
:10555000B9F1000F11D00498D0F830804946049872
:10556000FEF750FE074647B9A9F101000499C8604B
:1055700041460498FEF78EFC07460EE06FB9E07ACC
:1055800000F0100008B1042707E006F0020020B187
:10559000E07A00F0010000B1072747B906F00800E3
:1055A00008B146F020060498006BE8612C62504672
:1055B000FFF74DFFFFB9AE71A17EE07E41EA002109
:1055C000227D607D42EA002041EA00402861E07FC0
:1055D0000106A07F41EA0041607F41EA0020217F6F
:1055E0000843E8600020A860A86168620498286009
:1055F0000498C088A880384652E72DE9FF4F83B051
:10560000044615469A46DDF810B00020CAF800009E
:10561000A1882068FFF7E7FE0290029818B102986F
:1056200007B0BDE8F08FA07900F0800008B102203B
:10563000F6E7A07900F0010008B90720F0E7D4E907
:105640000210401A00900098854200D9009DBDE0EC
:105650002089C0F30800002870D120688078401E9F
:10566000A16800EA512000F0FF09B9F1000F25D12F
:10567000A06810B9206901900CE0606A28B120464A
:10568000A168FEF758FE019004E061692068FEF70A
:10569000ACFC01900198022805D2A07940F080006E
:1056A000A0710220BCE70198401C28B9A07940F005
:1056B0008000A0710120B3E70198606161692068F2
:1056C000FEF786FC06462EB9A07940F08000A07156
:1056D0000220A5E74E444FEA5528B8F1000F2ED01E
:1056E00009EB080021688978884203D9206880780E
:1056F000A0EB090808F0FF032168487832465946B4
:10570000FEF723FB28B1A07940F08000A0710120B2
:1057100086E7A07900F0400068B1A069801B404591
:1057200009D2A169891B0BEB41204FF4007204F1EF
:105730002801FEF77BFB4FEA48273DE029E0A069FE
:10574000B04225D0A07900F0400090B1216848789F
:10575000012304F12801A269FEF71BFB28B1A079FF
:1057600040F08000A07101205AE7A07920F04000AD
:10577000A071216848780123324604F12801FEF720
:10578000E4FA28B1A07940F08000A071012047E739
:10579000A6612089C0F30800C0F50077AF4200D9A8
:1057A0002F462089C0F3080204F1280011183A4658
:1057B0005846FEF73BFB00BFBB44A0683844A060DE
:1057C000DAF800003844CAF80000ED1B002D7FF421
:1057D0003FAF002024E72DE9FF4F83B00446154674
:1057E0009B46049801900020CBF80000A188206817
:1057F000FFF7F9FD0290029818B1029807B0BDE8D2
:10580000F08FA07900F0800020B10220F6E70000C0
:1058100088050020A07900F0020008B90720EDE714
:10582000E0682844E168884200D20025D6E020895B
:10583000C0F3080000287DD120688078401EA16850
:1058400000EA512000F0FF0ABAF1000F32D1A0683F
:1058500058B9D4F81080B8F1000F13D10021206896
:10586000FEF704FD804620610CE0606A28B1204606
:10587000A168FEF760FD804604E061692068FEF7DC
:10588000F5FC8046B8F1000F00D1AAE0B8F1010F95
:1058900005D1A07940F08000A0710220AEE708F1A8
:1058A000010028B9A07940F08000A0710120A5E78F
:1058B000C4F81480A07900F0400090B121684878C5
:1058C000012304F12801A269FEF763FA28B1A07947
:1058D00040F08000A071012090E7A07920F0400006
:1058E000A07161692068FEF773FB06462EB9A079A6
:1058F00040F08000A071022080E756444FEA55290D
:10590000B9F1000F30D00AEB09002168897888428C
:1059100003D920688078A0EB0A0909F0FF03216809
:10592000487832460199FEF734FA38B1A07940F050
:10593000800000E02FE0A07101205FE7A069801BDC
:1059400048450ED2A069801B019A02EB40214FF41A
:10595000007204F12800FEF769FAA07920F04000F7
:10596000A0714FEA49272DE0A069B04212D0D4E9D6
:10597000020188420ED2216848780123324604F1A0
:105980002801FEF7E2F928B1A07940F08000A0716B
:10599000012033E7A6612089C0F30800C0F5007735
:1059A000AF4200D92F462189C1F3080204F1280132
:1059B00050183A460199FEF739FAA07940F04000B4
:1059C000A07100BF019838440190A0683844A060DD
:1059D000DBF800003844CBF80000ED1B002D7FF40D
:1059E00026AF00BFD4E90201884201D9A068E06077
:1059F000A07940F02000A0710020FFE62DE9F041E1
:105A00000446A1882068FFF7EEFC0746002F4FD11F
:105A1000A07900F0200000284AD0A07900F04000D2
:105A200078B121684878012304F12801A269FEF7C2
:105A3000B0F910B10120BDE8F081A07920F040005C
:105A4000A071E1692068FEF725FA0746002F2FD1E3
:105A5000256AE87A40F02000E872207B2877A08948
:105A6000010A6977E068010CA977E068010EE9771F
:105A7000207CA876208A010AE9762069000C287526
:105A80002069010E6975FFF7E9FC0646AE75310A1B
:105A9000E975310C2976310E6976A07920F0200065
:105AA000A0710120216808712068FEF72CFA0746D2
:105AB0003846C0E770B504462046FFF79FFF05460D
:105AC0000DB900202060284670BD0146032901DB86
:105AD0000B207047FA4801700020FAE731B58CB00E
