:020000040800F2
:10000000F8070020E51300081F020008210200087D
:1000100025020008290200082D0200080000000047
:100020000000000000000000000000003102000895
:100030003302000800000000350200083702000803
:10004000FF130008FF130008FF130008FF13000848
:10005000FF130008FF130008FF130008FF13000838
:10006000FF130008FF130008FF130008FF13000828
:10007000FF130008FF130008FF130008FF13000818
:10008000FF130008FF130008FF130008FF13000808
:10009000FF130008FF130008FF130008FF130008F8
:1000A000FF130008FF130008FF130008FF130008E8
:1000B000FF130008A3110008FF130008FF13000836
:1000C000FF130008FF130008FF130008FF130008C8
:1000D000FF1300085B130008FF130008FF1300085C
:1000E000FF130008FF130008FF130008FF130008A8
:1000F000FF130008FF130008FF130008FF13000898
:10010000FF130008FF130008FF130008FF13000887
:10011000FF130008FF130008FF130008FF13000877
:10012000FF130008FF130008FF130008FF13000867
:1001300000F002F800F04AF80AA090E8000C8244AF
:100140008344AAF10107DA4501D100F03FF8AFF28C
:10015000090EBAE80F0013F0010F18BFFB1A43F0A5
:10016000010318477855000098550000103A24BF45
:1001700078C878C1FAD8520724BF30C830C144BF0C
:1001800004680C607047000000230024002500264E
:10019000103A28BF78C1FBD8520728BF30C148BFEA
:1001A0000B607047662905F0B281642902F046862B
:1001B000002070471FB503F063F904000020002100
:1001C00004F0DEF8E0601FBD10B510BD03F078FA52
:1001D0001146FFF7EFFF00F008F803F096FA03B4BA
:1001E000FFF7F2FF03BC01F05DF800F0F1FF4FF400
:1001F000A06001F017F94FF4E13001F062F840F22D
:10020000CF21632000F0A0FF00F07CFE00F0D2FBC5
:1002100004E000F00BFD0A2001F017F8F9E7704741
:1002200000BFFEE700BFFEE700BFFEE700BFFEE73E
:1002300070477047704770470CB5002001900090E0
:100240006C48006840F480306A49086000BF694823
:10025000006800F4003000900198401C0190009864
:1002600018B90198B0F5A06FF1D16248006800F4A8
:10027000003010B10120009001E0002000900098B3
:10028000012843D15C48006840F010005A490860DA
:100290000846006820F0030008600846006840F047
:1002A0000200086053484068524948600846406868
:1002B00048600846406840F48060486008464068EE
:1002C00020F47C1048600846406840F4E81048601C
:1002D0000846006840F08070086000BF454800682C
:1002E00000F000700028F9D04248406820F0030078
:1002F000404948600846406840F00200486000BF3E
:100300003C48406800F00C000828F9D10CBD10B53D
:10031000FFF792FF10BD10B53648006840F00100AD
:10032000344908600846406834490840314948600B
:1003300008460068324908402E49086008460068AF
:1003400020F4802008600846406820F4FE004860E1
:100350004FF41F008860FFF7DAFF4FF00060294973
:10036000086010BD10B5002100200022214B5B6801
:1003700003F00C0121B1042906D0082928D107E097
:10038000214B224C236027E01F4B204C236023E0AD
:10039000184B5B6803F47010164B5B6803F48032F3
:1003A000022303EB904022B9194B4343174C2360BF
:1003B0000DE0104B5B6803F4003323B1144B43434F
:1003C000124C236003E0104B4343104C236003E0C6
:1003D0000D4B0E4C236000BF00BF064B5B68C3F3A0
:1003E00003130C4CE15C094B1B68CB40074C2360AA
:1003F00010BD000000100240002002400000FFF885
:10040000FFFFF6FE08ED00E000127A000000002079
:1004100000093D000400002070B505460C4600F0C0
:1004200088FDAE2000F02FFE00F0C0FD00B111E00D
:10043000284600F028FE00F0B9FD00B10AE0204691
:1004400000F021FE00F0B2FD00B103E000F08FFDEE
:10045000012070BD00F08BFD0020FAE710B54021AF
:100460000620FFF7D9FF10BD70B5044600F061FD0E
:10047000AE2000F008FE00F099FD00B117E0204624
:1004800000F001FE00F092FD00B110E000F051FD1F
:10049000AF2000F0F8FD00F089FD00B107E000207A
:1004A00000F01AFE054600F062FD284670BD00F01F
:1004B0005EFD0020FAE770B504460720FFF7D4FF81
:1004C00005462CB145F040010720FFF7A5FF04E0E9
:1004D00025F040010720FFF79FFF70BD70B504466F
:1004E0000D4644EA0510C1B20920FFF795FF70BD23
:1004F00070B504460720FFF7B7FF054605F0E30097
:1005000040EA8400C1B20720FFF786FF70BD70B5D6
:1005100004460720FFF7A8FF054605F0FC0040EA67
:1005200004010720FFF778FF70BD10B5044621468F
:100530000620FFF771FF10BD10B500F0E3FC0220AC
:10054000FFF7F3FF0320FFF7E2FF0120FFF7D0FFE3
:100550000B210846FFF7C2FF0120FFF7ACFF10BDDB
:1005600070B506460C46154600F0E3FCAE2000F0E0
:100570008AFD00F01BFD18B100F0F9FC012070BDF0
:10058000304600F080FD00F011FD00F0D2FCAF20FD
:1005900000F079FD00F00AFD0DE0012D04D10020EE
:1005A00000F09AFD207003E0012000F095FD20701E
:1005B000681EC5B2641C002DEFD100F0D8FC0020ED
:1005C000DDE708B5042269460520FFF7C9FF9DF85D
:1005D00001009DF8001040EA0120074908809DF8BD
:1005E00003009DF8021040EA01200449088008BD7C
:1005F00010B5FFF7E6FF10BD140000201600002024
:1006000000209A4908709A489A49086000209A493F
:1006100008609A4908609A49086070472DE9FF5FB1
:1006200000219648006804F0CBFE30D200219248A9
:10063000006804F0C5FE2AD292498F48006804F091
:1006400061FC804604F0C4FB06460F468B480068F8
:1006500004F0BEFB80464FF066328B4B04F08EF9FF
:1006600032463B46CDE9000103F08EFFCDE90201A1
:100670008048006804F0ACFB0446DDE9022304F086
:10068000BDFA824603F092FE7A4908600DE079488F
:10069000006804F09DFB06467C4A7D4B04F06EF931
:1006A000044603F083FE734908607149714800688D
:1006B00004F086FD02D26E486E490860BDE8FF9FD7
:1006C00002468A4201DD084670471046FCE72DE9E4
:1006D000FE4F0446002002906448007805280CD2A2
:1006E000DFE800F0030C324A920000F06AFDB0F53A
:1006F000FA6F02D901205D49087092E05D480168F7
:10070000204604F05DFE0FD2204604F0F1FC0646C0
:100710004FF44871FFF7D4FF054604F025FD554915
:10072000086002205149087000F04BFD54490968E7
:10073000401AB0F5FA6F04D900204F4908604F49BC
:100740000860FFF76BFF6CE04A480168204604F040
:1007500037FD03D20320454908700CE0204604F021
:10076000C7FC06464FF44871FFF7AAFF054604F0A0
:10077000FBFC4049086054E04649204604F054FB25
:1007800005463C480168284604F01AFD38D201208D
:1007900002903A48046004203449087000F011FDCA
:1007A00037490968451A284604F0F6FC81460021BD
:1007B000484604F069FC1ED02F48006804F008FB8E
:1007C0000746354A354B04F0D9F805460E464846EB
:1007D00004F0FEFA07464FF03332314B04F0CEF806
:1007E0002A463346CDE9000103F012FE824603F0AB
:1007F000DDFD2149086000F0E4FC2149086002E0C9
:1008000002201A4908700CE000F0DBFC1C49096862
:10081000401AC82802D9012014490870FFF7FEFECB
:1008200000BF00BF0298BDE8FE8F10B50446204609
:10083000FFF74DFF10BD70B500210F48006804F0B0
:1008400023FC0ED00C4801684FF07E5004F05AFB98
:100850000546144904F0E8FC0446134904F0E4FC9E
:1008600070BD0020FCE70348006870471C000020B2
:100870000000A041200000202400002028000020CB
:100880002C000020000020416666E63FAE47E17A7A
:1008900014AEEF3F0000F0419A9999999999D93F88
:1008A0003333E33F00007A440000704200220260CC
:1008B0000A60704708600023136070472DE9F0411B
:1008C00005460E46144627682168306804F0ACFCE3
:1008D0008046294604F0A8FA20603946206804F0D2
:1008E000A1FDBDE8F0810146086870470020164967
:1008F000086070472DE9F14F1348406812490860BD
:10090000086804F065FA0646104A114B04F036F800
:1009100004460D46009804F05BFA06460D4A0E4B5D
:1009200004F02CF8804622462B4603F071FD8246E7
:1009300003F03CFD044948600A465168106804F021
:1009400073FABDE8F88F0000300000205CDDC15074
:10095000084EE03F48457C5EEF63CF3F0020E3490F
:100960000870E3490860E3490860E3490860E34927
:100970000860E34908600820E24908700020E24965
:100980000860704710B50446E0480470FFF7E6FFC2
:10099000DF4A111FDF48FFF78DFFDF4A111FDD48D7
:1009A000FFF788FF0120D149087010BDD64A0168C1
:1009B0001160704710B5FF20FFF756FDD74908704A
:1009C0000846007811282CD1642000F03EFC082154
:1009D0000620FFF721FD1620FFF746FDD0490870DD
:1009E0001720FFF741FDCF4908704FF4967000F0D3
:1009F0002CFC0320FFF799FD0320FFF788FD012061
:100A0000FFF776FD07210846FFF768FD0120FFF795
:100A100052FDFFF7F5FDBC48FFF7C8FF0320FFF7C5
:100A2000B1FF10BD00BFC049098801F04001002995
:100A3000F9D0BD49091D0880704770B506460D46BE
:100A40000320FFF7EFFFFC20FFF7ECFF304604F038
:100A50004FFB04B2E0B2FFF7E5FFC4F30720FFF756
:100A6000E1FF284604F044FB04B2E0B2FFF7DAFFEE
:100A7000C4F30720FFF7D6FFFC20FFF7D3FF0320C6
:100A8000FFF7D0FF70BD70472DE9F84F4FF0000A17
:100A90000020009000F095FB97490968A0EB010B3E
:100AA000584603F01CFF07460022A04B04F064F8F0
:100AB0007ED200F086FB90490860FFF799FD9C48C4
:100AC000008804F069FB0746914A111FFFF7F6FE04
:100AD00005469848008804F05FFB07468E4A111FC0
:100AE000FFF7ECFE064685F000473846FFF702FFA9
:100AF00081464846FFF799FE0446FFF79CFE0746ED
:100B0000002104F05DFC12D20220784908702246D0
:100B10003146284600F04AF9FFF78DFE074604F0FB
:100B2000E7FA0FFA80FA00F0C6F9009008E06F4883
:100B30000078022804D101206C49087000F02AF9DD
:100B400072480078012804D0022820D0032860D100
:100B50003CE079A002F066F97548018877A002F0C0
:100B600061F977A002F05EF97248018875A002F081
:100B700059F97048008804F00FFB07466C4800885C
:100B800004F00AFB80463946FFF757FF42E06AA0AF
:100B900002F048F9284604F01BF907463A460B468E
:100BA0006AA002F03FF966A002F03CF9304600E08E
:100BB0003AE004F00DF907463A460B4664A002F00D
:100BC00031F931462846FFF738FF23E05AA002F0FA
:100BD00029F9484604F0FCF807463A460B465BA064
:100BE00002F020F956A002F01DF9FFF73CFE834603
:100BF00004F0EEF807463A460B4655A002F012F90B
:100C0000514655A002F00EF957A0009902F00AF9DA
:100C100000E000BF00BF3CB100213B48006804F089
:100C200033FA01D0FFF72FFFBDE8F88F10B5FFF7BB
:100C30002BFF10BD10B5FFF7FEFD10BD10B500F085
:100C40003AF910BD2F48007870472DE9F04100F0C7
:100C5000B8FA2A490968401AB0F5FA7F44D9002445
:100C60002D48FFF740FE06462948FFF73CFE0746A1
:100C7000314604F0D7FB05463F4904F0A1FB0AD2F8
:100C8000204800780F2806DA1E480078401C1D49CD
:100C90000870012419E01E48FFF725FE06461E488D
:100CA000FFF721FE0746314604F0BCFB05463249FA
:100CB00004F086FB09D213480078002805DD1148AE
:100CC0000078401E0F490870012444B10D48017896
:100CD0000F20FFF703FC00F074FA0949086000F0E8
:100CE00070FA0649086000BFBDE8F0813C000020B2
:100CF0004000002044000020480000204C0000205C
:100D00005000002054000020380000203D0000204A
:100D10005C0000203333733F640000206800002033
:100D2000690000206A0000200038014000002440D3
:100D30001400002016000020523A00002564000034
:100D40002C00000025640D0A00000000256C6600E0
:100D5000256C660D0A0000000D0AD0C4C2CAA3BAF1
:100D600025640D0A000000000D0AD1AAD1F5A3BA2E
:100D700025640D0A0000000000B8884700204F4994
:100D800008604F4908604F4908704F4908604F4953
:100D90000870704700204C4908604949086047497D
:100DA0000860484908704949087070472DE9F04FBC
:100DB0008BB00446894692462146204604F034FA18
:100DC00005463E480168284604F02EF83B49086075
:100DD0004946484604F028FA05463948016828463D
:100DE00004F022F83649086037480068401C36494C
:100DF0000860BAF1000F5BD032480078401C3149DE
:100E0000087008460078032852D12F48006804F083
:100E1000C3F9804641462948006804F073F8074644
:100E200003F0D6FF054603F0FDF8CDE9040126489E
:100E3000006804F0B1F9014601902148006804F00F
:100E400061F8834603F0C4FF074603F0EBF805465C
:100E500000221F4B03F092FDCDE90201DDE90423DE
:100E600003F092FBCDE9060103F0A0FA09900020FF
:100E700008901849099804F0A3FA06D2099804F0DA
:100E800053F94238C0B208900AE01349099804F0B7
:100E900097FA05D2099804F047F93238C0B20890A1
:100EA000FFF778FF0D490898085C0849087000BFF3
:100EB0000BB0BDE8F08F054800787047980000201F
:100EC0009C000020A0000020A4000020A80000201A
:100ED0000000594000008442000048426C0000209D
:100EE000322000E000BF011EA0F10102D0B2F9D112
:100EF00070475A2000E000BF011EA0F10102D0B2ED
:100F0000F9D1704708B50121082000F015FEC02076
:100F1000ADF8000014208DF8030003208DF80200C6
:100F20006946854800F04CFBC021834800F0F5FB82
:100F300008BD00B58148406820F470407F49486092
:100F40000846406840F44050486001207C490860F1
:100F50007C49C1F89801FFF7CCFF00207849086070
:100F6000FFF7C7FF00207749C1F8980100BD00B521
:100F70007248406820F470407049486008464068F4
:100F800040F44050486000206D49091F08606D49D9
:100F9000C1F89C01FFF7ADFF01206949091F0860F6
:100FA0006849C1F89C01FFF7A4FF00BD00B500230C
:100FB0006248406820F470406049486008464068D4
:100FC00040F40040486001205D490860FFF791FF50
:100FD00001205C49C1F89801FFF78BFF07E0581C1E
:100FE000C3B2FA2B03DDFFF7C2FF012000BD544856
:100FF000843800680028F2D15149091F086000BFF9
:10100000F4E700B500204E49091F08604B484068CE
:1010100020F47040494948600846406840F4405018
:10102000486000204749C1F89C01FFF762FF01209A
:101030004349091F0860FFF75CFF00204149C1F8E0
:10104000980100BD00B500203D49091F08603B48DC
:10105000406820F47040394948600846406840F4D0
:101060004050486001203749C1F89C01FFF741FF1B
:1010700001203349091F0860FFF73BFF0020314979
:10108000C1F8980100BD10B503462C48406820F413
:1010900070402A4948600846406840F44050486023
:1010A00000202749091F0860002412E0D8092449BC
:1010B00008605806030E01202249C1F89801FFF785
:1010C00018FF00201E49091F0860FFF712FF601C6F
:1010D000C4B2082CEADB10BD30B504460023174823
:1010E000406820F47040154948600846406840F464
:1010F00000404860002515E000201149091F0860E4
:10110000FFF7F7FE01200F49C1F898015806030EBA
:101110000B488438006808B1581CC3B2FFF7E9FED9
:10112000681CC5B2082DE7DB14B9FFF78BFF01E09F
:10113000FFF767FF184630BD000C0140001001406A
:101140009C812142008021427FB505460C46012149
:10115000022000F0FEFCADF80850ADF8044000207D
:10116000ADF80A00ADF8060001A9174801F020F813
:1011700001221146144801F092FB1D208DF8000059
:1011800000208DF8010003208DF8020001208DF869
:101190000300684600F04BF901210B4801F064FBA5
:1011A0007FBD10B50121084801F027FE40B1074876
:1011B0000068401C054908600121034801F02EFE2B
:1011C00010BD02480068704700040040AC000020D9
:1011D00010B56FF0040000F074F92E4800682E4935
:1011E000B0FBF1F02D4908700846007800EB400193
:1011F000C1EBC0104FF6FF7101EAC000284908801A
:1012000010BD0146254A12784A434FF0E0235A6147
:1012100000229A611A46126942F001021A6100BF67
:101220004FF0E022106900F001021AB100F48032A0
:10123000002AF5D04FF0E022126922F001024FF0AF
:10124000E0231A6100229A6170470146144A12880D
:101250004A434FF0E0235A6100229A611A4612690C
:1012600042F001021A6100BF4FF0E022106900F065
:1012700001021AB100F48032002AF5D04FF0E022CA
:10128000126922F001024FF0E0231A6100229A61F4
:10129000704700000000002000127A00B00000201B
:1012A000B2000020014600BF704700BF494A1288C3
:1012B00002F04002002AF9D0C2B2464B1B1D1A8030
:1012C000704710B586B00446012144F2040000F0D6
:1012D00033FC4FF40070ADF8140003208DF81600B5
:1012E00018208DF8170005A93B4800F069F94FF464
:1012F0008060ADF8140004208DF8170005A9364869
:1013000000F05EF925208DF8000003208DF8010023
:101310008DF8020001208DF80300684600F087F880
:1013200001940020ADF80800ADF80A00ADF80C00FB
:10133000ADF810000C20ADF80E0001A9254800F012
:10134000A2FC012240F22551224800F034FD012187
:10135000204800F024FD06B010BD10B540F2255124
:101360001C4800F00DFE10B31A4800F089FDC4B20D
:101370001A48008800F40040C8B91848008800F4F2
:10138000804060B10A2C03D000201449088020E07E
:101390001248008840F400401049088019E00D2CE4
:1013A00006D10E48008840F480400C49088010E0C7
:1013B0000A480088C0F30D0009490C54074800880A
:1013C000401C0649088008460088C72801DD002027
:1013D000088010BD0038014000080140B80000201E
:1013E000D00000200948804709480047FEE7FEE793
:1013F000FEE7FEE7FEE7FEE7FEE7FEE7FEE7FEE7C5
:1014000004480549054A064B7047000017030008C9
:1014100031010008F8010020F8070020F80300203F
:10142000F803002031490143314A1160704770B51B
:10143000002100230F22C47804B32D4C246804F447
:10144000E064C4F5E064210AC1F10403CA404478B1
:1014500004FA03F18478144021430901254C0678ED
:10146000A155047804F01F050124AC4005786D11E6
:10147000AD0005F1E025C5F8004109E0047804F06D
:101480001F050124AC401C4D0678761145F8264016
:1014900070BD1A4A0A400243154B1B1F1A60704761
:1014A00039B1134A121D12680243114B1B1D1A60F9
:1014B00006E00F4A121D126882430D4B1B1D1A6075
:1014C0007047042808D14FF0E021096941F0040178
:1014D0004FF0E022116107E04FF0E021096921F0AF
:1014E00004014FF0E0221161704700000000FA058E
:1014F0000CED00E000E400E080E100E080FFFF1F71
:1015000010B50446CC48844208D10121042000F0E3
:101510002DFB0021042000F029FB46E0C74884424F
:1015200008D10121082000F021FB0021082000F053
:101530001DFB3AE0C248844208D10121102000F08E
:1015400015FB0021102000F011FB2EE0BD48844265
:1015500008D10121202000F009FB0021202000F00B
:1015600005FB22E0B848844208D10121402000F068
:10157000FDFA0021402000F0F9FA16E0B348844259
:1015800008D10121802000F0F1FA0021802000F034
:10159000EDFA0AE0AE48844207D10121801500F03F
:1015A000E5FA0021A01500F0E1FA10BD10B5012107
:1015B000084600F0DBFA0021012000F0D7FA10BD48
:1015C0002DE9F041024600250026002000230024DA
:1015D000002791F803C00CF00F0591F803C00CF040
:1015E000100CBCF1000F03D091F802C04CEA0505C5
:1015F00091F800C0BCF1000F31D0146800202BE03E
:101600004FF0010C0CFA00F3B1F800C00CEA03062D
:101610009E4220D183004FF00F0C0CFA03F7BC431D
:1016200005FA03FC4CEA040491F803C0BCF1280F4E
:1016300006D14FF0010C0CFA00FCC2F814C00AE00D
:1016400091F803C0BCF1480F05D14FF0010C0CFA22
:1016500000FCC2F810C0401C0828D1D31460B1F8B7
:1016600000C0BCF1FF0F34DD546800202EE000F113
:10167000080C4FF0010808FA0CF3B1F800C00CEAAE
:1016800003069E4221D183004FF00F0C0CFA03F7A2
:10169000BC4305FA03FC4CEA040491F803C0BCF116
:1016A000280F05D100F1080C08FA0CF8C2F81480D4
:1016B00091F803C0BCF1480F07D100F1080C4FF0BE
:1016C000010808FA0CF8C2F81080401C0828CED394
:1016D0005460BDE8F0814FF6FF71018002218170F6
:1016E0000421C17070470246002093680B400BB183
:1016F000012000E0002070470146886880B27047F2
:1017000002460020D3680B400BB1012000E000200E
:1017100070470146C86880B27047016170474161F7
:1017200070470AB1016100E041617047C1607047D4
:101730004FF480320A4382618161826182698269E9
:10174000704702460020434B18684FF680731840DC
:1017500040EA021008433F4B186070473E49C86199
:101760007047F0B50A46002300240021002500F050
:101770000046B6F1004F02D1364EF16901E0354E18
:101780007168C0F3034583B200F44016B6F5401FFC
:1017900008D121F070612F4E766826F070662D4FCB
:1017A0007E6012E000F48016B6F5801F06D1032695
:1017B00006FA05F4A14341F0706106E0460D3601DA
:1017C00003FA06F6B14341F0706122B1460D3601CD
:1017D00003FA06F6314300F00046B6F1004F02D19D
:1017E0001C4EF16101E01B4E7160F0BD30B500226E
:1017F0008B071C0F0F2303FA04F2164B08338C10CF
:1018000053F824309343134C08348D1044F825309A
:1018100023468C1053F824308C07240F00FA04F46C
:1018200023430C4C08348D1044F8253030BD0A4950
:10183000DC3108607047000000080140000C0140E6
:10184000001001400014014000180140001C01403C
:10185000002001400000014000002042DF480068F5
:1018600040F00100DD49086008464068DC49084056
:10187000DA49486008460068DA490840D7490860F4
:101880000846006820F4802008600846406820F47C
:10189000FE0048604FF41F0088607047CF49096818
:1018A00021F48031CD4A11601146096821F480216C
:1018B0001160B0F5803F03D0B0F5802F0ED106E067
:1018C000C649096841F48031C44A116007E0C34940
:1018D000096841F4A021C14A116000E000BF00BFC7
:1018E000704710B501460022002300204A11012A4A
:1018F00002D1BA4C236806E0022A02D1B74C236A0F
:1019000001E0B64C636A01F01F02012494401C40C0
:101910000CB1012000E0002010BD38B5002000907F
:101920000024002500BF3120FFF7DBFF05460098AB
:10193000401C00900098B0F5A06F01D0002DF2D0AF
:101940003120FFF7CEFF08B1012400E0002420463B
:1019500038BD01460020A14A106820F0F80040EA96
:10196000C10010607047A04908607047024600201F
:101970009A4B586820F47C1042EA01031843974BB5
:101980005860704798490866704701460020934A9E
:10199000506820F003000843506070478F4840684B
:1019A00000F00C007047014600208C4A506820F07F
:1019B000F00008435060704701460020874A506895
:1019C00020F4E06008435060704701460020834ADD
:1019D000506820F4605040EAC1005060704729B15F
:1019E0007E4A527A02437D4B5A7204E07B4A527A15
:1019F00082437A4B5A7270477B49D83108607047EE
:101A000001460020754A506820F440400843506069
:101A100070470021714A20321170704A82F82010FC
:101A2000012802D004280AD104E001216B4A2032A7
:101A3000117005E00521694A2032117000E000BFF5
:101A400000BF70476949086070476449096A0143EB
:101A5000624A11627047654944390860704730B581
:101A600000210022002400235C4D6D6805F00C016C
:101A700021B1042905D0082923D105E05C4D05607A
:101A800022E05B4D05601FE0544D6D6805F4701257
:101A9000524D6D6805F48034022505EB92421CB965
:101AA000544D554305600BE04C4D6D6805F4003511
:101AB0001DB1504D5543056002E04D4D5543056045
:101AC00002E04B4D056000BF00BF444D6D6805F05E
:101AD000F0010909484D6B5C0568DD4045603F4DEC
:101AE0006D6805F4E061090A434D6B5C4568DD40B3
:101AF00085603A4D6D6805F46051C90A3E4D6B5CD6
:101B00004568DD40C560354D6D6805F44041890B81
:101B10003A4D6B5CC568B5FBF3F5056130BD29B185
:101B20002E4A526902432D4B5A6104E02B4A5269F6
:101B300082432A4B5A61704729B1284A926902436D
:101B4000264B9A6104E0254A92698243234B9A61AD
:101B5000704729B1214AD2690243204BDA6104E07F
:101B60001E4AD26982431D4BDA61704729B11B4A74
:101B7000D2680243194BDA6004E0184AD268824303
:101B8000164BDA60704729B1144A12690243134BAD
:101B90001A6104E0114A12698243104B1A617047BE
:101BA00012494039086070470F49C86470470B49B3
:101BB000C87170470948406A40F080700749486220
:101BC000704701460020054A92680A400AB1012088
:101BD00000E0002070470149887270470010024001
:101BE0000000FFF8FFFFF6FE000042428004424280
:101BF00000127A0000093D00BA000020CA0000204F
:101C000010B50446FB48844209D101218803FFF73F
:101C1000ADFF00214FF48040FFF7A8FF32E0F64807
:101C2000844209D101214804FFF7ADFF00214FF4A0
:101C30000030FFF7A8FF25E0F048844209D10121D8
:101C40008804FFF7A0FF00214FF48020FFF79BFFDF
:101C500018E0EB48844209D10121C804FFF793FF43
:101C600000214FF40020FFF78EFF0BE0E54884428F
:101C700008D101210805FFF786FF00214FF48010ED
:101C8000FFF781FF10BD2DE9F04786B005460E46EF
:101C90000024A24600BFA1460027B08900B100BFC2
:101CA0002F462C8A4CF6FF700440F08804432C82A7
:101CB000AC894EF6F3100440B0883189084371892D
:101CC00008430443AC81AC8A4FF6FF400440B0891E
:101CD0000443AC8201A8FFF7C2FEC648874202D186
:101CE000DDF810A001E0DDF80CA0A88900F40040A8
:101CF00040B10AEBCA0000EB0A1031684900B0FBA2
:101D0000F1F807E00AEBCA0000EB0A10316889001D
:101D1000B0FBF1F86420B8FBF0F004012009642165
:101D200001FB1089A88900F4004040B1322000EB8B
:101D3000C900B0FBF1F000F00700044308E03220D6
:101D400000EB09106421B0FBF1F000F00F00044338
:101D50002C8106B0BDE8F0874FF4165101600021D8
:101D60008180C18001810C214181002181817047E6
:101D700010B502460020108A4FF2FF0318400B886E
:101D80004C8823438C882343CC88234318431082F8
:101D900010BD0021018041808180C180704721B148
:101DA000828942F40052828104E082894DF6FF73F9
:101DB0001A4082817047F0B50346002400260025B2
:101DC000002040F66A17B94200D100BF1846C1F39F
:101DD000421401F01F06012707FA06F5012C01D174
:101DE0000C3004E0022C01D1103000E014301AB1A4
:101DF00007682F43076002E00768AF430760F0BD44
:101E00001AB1838A0B43838202E0838A8B438382E5
:101E10007047028A4FF6F0731A400282028A0A4320
:101E20000282704782894FF2FF731A408281828951
:101E30000A438281704721B1828942F00202828185
:101E400004E082894FF6FD731A4082817047028A4E
:101E50004FF6DF731A400282028A0A4302827047F9
:101E600021B1028A42F48042028204E0028A4BF6E7
:101E7000FF731A4002827047C1F3080282807047E4
:101E800001468888C0F308007047818941F001014C
:101E900081817047028BD2B20283028B42EA012217
:101EA00002837047028B02F47F420283028B0A4353
:101EB0000283704721B1828A42F02002828204E0CC
:101EC000828A4FF6DF731A408282704721B1828A7C
:101ED00042F01002828204E0828A4FF6EF731A40C9
:101EE0008282704721B1828A42F00802828204E035
:101EF000828A4FF6F7731A408282704721B1828935
:101F000042F40042828103E08289C2F30E028281A0
:101F1000704721B1828A42F40062828204E0828AA0
:101F20004FF2FF731A4082827047828A4FF6FB732A
:101F30001A408282828A0A438282704721B1828A51
:101F400042F00202828204E0828A4FF6FD731A4058
:101F50008282704702460020B1F5007F00D100BFA9
:101F600013880B400BB1012000E00020704701F402
:101F70000072B2F5007F00D100BFCA4302807047F3
:101F800070B50246002400230025002040F66A16A2
:101F9000B14200D100BFC1F3421501F01F03012679
:101FA00006FA03F3012D02D19689334006E0022D93
:101FB00002D1168A334001E0968A33400C12012682
:101FC00006FA04F41688344013B10CB1012000E085
:101FD000002070BD10B50022002340F66A14A14213
:101FE00000D100BF0A1201249440A3B2DC43048054
:101FF00010BD00000038014000440040004800408F
:10200000004C00400050004010B50446FE48844299
:1020100008D10121C014FFF7A9FD0021E014FFF74A
:10202000A5FDC4E0B4F1804F08D101210846FFF7B7
:10203000AAFD00210120FFF7A6FDB8E0F348844285
:1020400008D101210220FFF79EFD00210220FFF7A9
:102050009AFDACE0EE48844208D101210420FFF74C
:1020600092FD00210420FFF78EFDA0E0E9488442A4
:1020700008D101210820FFF786FD00210820FFF785
:1020800082FD94E0E448844208D101211020FFF74A
:102090007AFD00211020FFF776FD88E0DF488442BA
:1020A00008D101212020FFF76EFD00212020FFF73D
:1020B0006AFD7CE0DA48844208D101214014FFF730
:1020C00055FD00216014FFF751FD70E0D5488442B2
:1020D00009D10121C804FFF749FD00214FF4002078
:1020E000FFF744FD63E0D048844209D1012108058F
:1020F000FFF73CFD00214FF48010FFF737FD56E05D
:10210000CA48844209D101214805FFF72FFD00216B
:102110004FF40010FFF72AFD49E0C548844208D17A
:1021200001214020FFF72FFD00214020FFF72BFD6C
:102130003DE0C048844208D101218020FFF723FD03
:1021400000218020FFF71FFD31E0BB48844208D109
:1021500001218015FFF717FD0021A015FFF713FDE2
:1021600025E0B648844209D101210804FFF7FEFCAE
:1021700000214FF48030FFF7F9FC18E0B0488442AA
:1021800009D101214804FFF7F1FC00214FF4003090
:10219000FFF7ECFC0BE0AB48844208D10121880436
:1021A000FFF7E4FC00214FF48020FFF7DFFC10BDB7
:1021B00000220288944B98420ED0994B98420BD043
:1021C000B0F1804F08D0914B984205D0904B984287
:1021D00002D0904B984204D14FF68F731A404B882F
:1021E0001A438D4B984207D08C4B984204D04FF63F
:1021F000FF431A40CB881A4302808B8883850B8863
:102200000385814B98420BD0854B984208D08B4B6D
:10221000984205D08A4B984202D08A4B984201D10D
:102220000B7A038601238382704770B50024002255
:102230000023058C4FF6FE7635400584028C83889A
:10224000048B4FF68F752C40B51E2C400D882C4307
:10225000751E2A400D892A434D882A436A4DA8429B
:102260000BD06F4DA84208D0744DA84205D0744DD4
:10227000A84202D0734DA84213D14FF6F7752A40F9
:102280004D892A434FF6FB752A408D882A434FF625
:10229000FF652B404FF6FF552B408D892B43CD8991
:1022A0002B4383800483CD888586028470BD70B5FE
:1022B000002400220023058C4FF6EF76354005847C
:1022C000028C8388048B48F6FF752C404FF6FF453F
:1022D0002C400D884FF6FF7606EA05252C434FF675
:1022E000DF752A400D8906EA05152A434D8806EA5E
:1022F00005152A43444DA84202D0494DA8421DD19C
:102300004FF67F752A404D894FF6FF7606EA051590
:102310002A434FF6BF752A408D8806EA05152A43E1
:102320004FF6FF352B404FF2FF752B408D8906EAA3
:1023300085052B43CD8906EA85052B4383800483DD
:10234000CD880587028470BD70B50024002200236B
:10235000058C4FF6FF6635400584028C8388848B9C
:102360004FF68F752C404FF6FC752C400D882C4392
:102370004FF6FF552A400D894FF6FF7606EA0525F0
:102380002A434D8806EA05252A431F4DA84202D05C
:10239000234DA8421DD14FF2FF752A404D894FF6BB
:1023A000FF7606EA05252A434FF6FF352A408D8839
:1023B00006EA05252A434EF6FF752B404DF6FF75BC
:1023C0002B408D8906EA05152B43CD8906EA0515B4
:1023D0002B4383808483CD888587028470BD70B54C
:1023E000002200230024058C4EF6FF76354005843C
:1023F000038C8488828B48F6FF752A404FF6FF4590
:102400002A400D8820E00000002C0140000400401C
:1024100000080040000C0040001000400014004084
:1024200000340140004C0140005001400054014084
:1024300000180040001C0040002000400040014007
:1024400000440140004801404FF6FF7606EA0525AA
:102450002A434DF6FF752B400D8906EA05352B43BF
:102460004D8806EA05352B43FA4DA84202D0FA4DB5
:10247000A84208D14BF6FF752C408D894FF6FF76A8
:1024800006EA85152C4384808283CD88A0F84050CD
:10249000038470BD828B4FF2FF331A408283828B9C
:1024A0004FF6FF7303EA01231A4382837047F0B5A6
:1024B0000C461546002200210026078C4EF6FF7CB4
:1024C00007EA0C070784828B018C4FF6FF7707EA37
:1024D000043640F6FF473A404FF6FF7707EA0527F4
:1024E0003A434FF6FF7707EA03373A43D94FB842EA
:1024F0000ED0D94FB8420BD0B0F1804F08D0D74F93
:10250000B84205D0D64FB84202D0D64FB84206D115
:102510004DF6FF77394046F48057394305E047F6DA
:10252000FF57394044F48057394382830184F0BD1A
:10253000828B4FF6F3731A408283828B0A43828325
:102540007047F0B50C461546002200210026078C86
:102550004FF6FF6C07EA0C070784828B018C4FF65D
:10256000FF7707EA04264FF60C773A404FF6FF77DD
:1025700007EA03172F433A43B64FB8420ED0B64F7F
:10258000B8420BD0B0F1804F08D0B44FB84205D05C
:10259000B34FB84202D0B34FB84206D14FF6FF57FF
:1025A000394046F48077394305E04FF2FF57394010
:1025B00044F48077394382830184F0BD028B4FF26B
:1025C000FF331A400283028B4FF6FF7303EA0123A5
:1025D0001A4302837047F0B50C46154600220021CD
:1025E0000026078C4FF6EF7C07EA0C070784028B66
:1025F000018C4FF6FF7707EA041640F6FF473A4092
:102600004FF6FF7707EA03373A434FF6FF7707EABB
:1026100005273A438F4FB8420ED08F4FB8420BD0A8
:10262000B0F1804F08D08D4FB84205D08C4FB842E2
:1026300002D08C4FB84206D14FF6DF77394046F0D2
:102640001007394305E04FF65F77394044F0100733
:10265000394302830184F0BD028B4FF6F3731A40B5
:102660000283028B0A4302837047F0B50C4615467D
:1026700000220021068C4FF6FE773E400684028B36
:10268000018C4FF60C7632407E1C06EA03162E4370
:102690003243704EB0420ED06F4EB0420BD0B0F10C
:1026A000804F08D06D4EB04205D06D4EB04202D082
:1026B0006C4EB04206D14FF6FD76314044F0010633
:1026C000314305E04FF6F576314044F001063143E1
:1026D00002830184F0BD70B505460C465D48854215
:1026E0000ED05D4885420BD0B5F1804F08D05B48D5
:1026F000854205D05A48854202D05A48854200D1C9
:1027000000E000BF208850B92389A288618828464C
:10271000FFF7ABFFE1882846FFF79EFF25E0208802
:1027200004280AD12389A28861882846FFF753FF2D
:10273000E1882846FFF742FF17E0208808280AD1E1
:102740002389A28861882846FFF7FBFEE188284696
:10275000FFF7EEFE09E02389A28861882846FFF78B
:10276000A6FEE1882846FFF795FE70BD2DE9F041F1
:1027700005460C4600260127608808B9022600E0BD
:102780000026A088012801D1022700E00127208827
:10279000A0B92389A28861882846FFF766FFE188EF
:1027A0002846FFF759FF23893A4631462846FFF766
:1027B00012FFE1882846FFF701FF13E02389A28872
:1027C00061882846FFF707FFE1882846FFF7F6FEF5
:1027D00023893A4631462846FFF747FFE1882846D5
:1027E000FFF73AFFBDE8F0810A884B881A438B88CF
:1027F0001A43CB881A430B891A434B891A438B8996
:102800001A43A0F8442070474FF6FF7181800021E1
:102810000180C180418001727047002101804180A8
:102820008180C180018141818181C1817047002106
:1028300001804180012181800021C1800181704798
:102840000021018041808180C1800181418181819D
:1028500070470000002C014000340140000400409B
:1028600000080040000C004021B1028842F0010243
:10287000028004E002884FF6FE731A40028070471F
:1028800031B1B0F8442042F40042A0F8442005E001
:10289000B0F84420C2F30E02A0F8442070471AB1E9
:1028A00083890B43838102E083898B438381704753
:1028B0008182704741EA0203A0F8483070471AB19C
:1028C00083890B43838102E083898B438381704733
:1028D00001894FF6F8721140018170470A460021C4
:1028E00001894FF68F73194011430181704730B54C
:1028F00004460D4629462046FFF7F0FF208940F0A8
:102900000700208130BD2DE9F04104460D461646F2
:102910001F46602D06D13B46012231462046FFF777
:102920005AFE05E03B46012231462046FFF79DFE58
:1029300029462046FFF7D2FF208940F0070020817A
:10294000BDE8F08130B50C4600210189C9B24FF6CF
:10295000FF7505EA0325154325432943018130BD51
:102960002DE9F04105460E46174698460024434699
:102970003A4631462846FFF7E5FF2C894FF6F870B6
:10298000044044F007044FF68F70044044F0700494
:102990002C81BDE8F081F0B504460D4616461F4671
:1029A0003B46324629462046FFF7CCFF208940F4BB
:1029B00080402081F0BD0185828270470A46002157
:1029C00001884FF68F731940114301807047F0B5AD
:1029D0000C4615461E460021002200230189028B69
:1029E000038C4FF6F877394021434FF6FC473A40C5
:1029F00040F201173A434FF6DD773B404FF6FF7741
:102A000007EA06172F433B43018102830384F0BD8D
:102A10000A460021018B4FF68F7319401143018341
:102A200070470A460021018B48F6FF7319404FF6A4
:102A3000FF7303EA02231943018370470A4600210A
:102A4000818B4FF68F7319401143818370470A467B
:102A50000021818B48F6FF7319404FF6FF7303EA9C
:102A6000022319438183704721B1028842F080021A
:102A7000028004E002884FF67F731A40028070479C
:102A800021B1828842F00402828004E082884FF6FD
:102A9000FB731A408280704721B1828842F008029D
:102AA000828004E082884FF6F7731A408280704774
:102AB00021B1828842F00102828004E082884FF6D0
:102AC000FE731A40828070470A460021018B4FF640
:102AD000F77319401143018370470A460021018BA7
:102AE0004FF2FF7319404FF6FF7303EA02231943B5
:102AF000018370470A460021818B4FF6F773194016
:102B00001143818370470A460021818B4FF2FF7386
:102B100019404FF6FF7303EA02231943818370477C
:102B20000A460021018B4FF6FB73194011430183C4
:102B300070470A460021018B4FF6FF3319404FF6CC
:102B4000FF7303EA02231943018370470A460021F9
:102B5000818B4FF6FB7319401143818370470A46FE
:102B60000021818B4FF6FF3319404FF6FF7303EAC4
:102B700002231943818370470A460021018B4FF6D7
:102B80007F7319401143018370470A460021018B6E
:102B9000C1F30E014FF6FF7303EA022319430183C9
:102BA00070470A460021818B4FF67F73194011430D
:102BB000818370470A460021818BC1F30E014FF6D5
:102BC000FF7303EA02231943818370470A460021F9
:102BD000018C4FF6FD7319401143018470470A467A
:102BE0000021018C4FF6F77319401143018470479F
:102BF0000A460021018C4FF6DF7319404FF6FF7330
:102C000003EA02131943018470470A460021018C2C
:102C10004FF67F7319404FF6FF7303EA021319430F
:102C2000018470470A460021018C4FF6FF5319407A
:102C30004FF6FF7303EA02231943018470470A46E3
:102C40000021018C4FF2FF7319404FF6FF7303EA26
:102C500002231943018470470A460021018C4DF676
:102C6000FF7319404FF6FF7303EA023319430184DF
:102C7000704730B5002301248C40A3B2048C9C43E0
:102C80000484048C02FA01F5ADB22C43048430BDF7
:102C900030B5002304248C40A3B2048C9C430484EC
:102CA000048C02FA01F5ADB22C43048430BD70B53A
:102CB0000346002000241846183001258D40ACB290
:102CC0001D8CA5431D8409B1082909D100EB6100C1
:102CD000056825F0700505600568154305600EE080
:102CE0000D1FC5F34E052844056825F4E045056031
:102CF00005684FF6FF7606EA02263543056070BD8B
:102D000021B1028842F00202028004E002884FF6FC
:102D1000FD731A400280704721B1028842F004021C
:102D2000028004E002884FF6FB731A40028070476D
:102D300021B1828842F08002828004E082884FF6CE
:102D40007F731A408280704702884FF6F7731A40EB
:102D5000028002880A430280704782884FF68F7390
:102D60001A40828082880A438280704702894FF627
:102D7000F8731A40028102890A430281704702896E
:102D80004FF67F731A40028102890A43028170471D
:102D900081847047818570478186704701877047BD
:102DA00081877047A0F84010704702884FF6FF43B4
:102DB0001A40028002880A43028070470146888ECA
:102DC00070470146088F70470146888F704701465B
:102DD000B1F8400070470146888C70470146088D65
:102DE000704702460020138A0B400BB1012000E01F
:102DF00000207047CA430282704730B50246002067
:102E000000230024158A05EA0103958905EA0104D7
:102E100013B10CB1012000E0002030BDCA43028292
:102E2000704770470FB4044910B503AA029800F028
:102E300015FB10BC5DF814FBB40000202DE9F04137
:102E40000646002410687529314616A510D0AFF348
:102E50000080002802DA404213A507E031688A07A3
:102E600001D512A502E0490704D511A5012401E00E
:102E7000AFF3008000210A2206F1240709E0B0FB2D
:102E8000F2FCB0FBF2F302FB1C0030307854184621
:102E9000491C0028F3D123462A463046BDE8F041BC
:102EA00000F073B8000000002D0000002B000000AF
:102EB000200000002DE9F0410F4605460020286261
:102EC0002846E968884770B3252805D0D5E901214F
:102ED0009047286A401CF2E7E968284600268847A0
:102EE0006C2804460AD0682C08D04C2C35D06A2CAB
:102EF00031D0742C31D07A2C2FD016E0E9680646F8
:102F000028468847B042044608D16C2E23D04FF49F
:102F100080662846E9688847044606E06C2E03D0A0
:102F20004FF4807601E01EE04026E4B1A4F14100B8
:102F3000192802D8203446F400663A46214628462D
:102F40002E60FDF72FF960B1012808D0FF1D27F092
:102F500007070837B4E78026DBE70026D9E73F1DDF
:102F6000AEE72046B2E7286ABDE8F08170477047B7
:102F70007047704710B500F087FA006810BD10B5B3
:102F8000044600F081FA046010BD2DE9F0470D46BB
:102F900099469246044600F124080168880604D543
:102FA000E06921F01001216000E00120A84201DD6C
:102FB000471B00E00027A1697A1902EB0900081AF3
:102FC000A0612078C00602D42046AFF3008000261E
:102FD00008E0D4E901211AF806009047206A401C55
:102FE000761C20624E45F4DB2078C0060AD52046C8
:102FF000AFF3008006E0D4E9012130209047206A39
:10300000401C2062381EA7F10107F4DC07E0D4E978
:10301000012118F805009047206A401C2062281EF4
:10302000A5F10105F3DC2046AFF30080207800060F
:1030300002D50220BDE8F0870120FBE770472DE9AB
:10304000FF4F0C461E464FF0FF378BB0D2E9000110
:10305000DDF860800A908A46C1F30A5505B93D46FD
:10306000002108464FF00000BAF1000F00F44000C4
:1030700005DA00EB80004FF4400101EA50004FEA0E
:103080009059B9F1010F00DDB9460A9850EA4A009B
:103090000ED044F61050A5F2FF3545432F14B8F179
:1030A000000F1ED07542291E1EDDC9F100021CE072
:1030B000B8F1010F4FF0000001D0302103E0F243DE
:1030C00005E02154401CB042FBDB304600220021C9
:1030D00021540B99C1F80880C1E900200FB0BDE868
:1030E000F08FBD1B6D1CDEE74A4600DA694206A878
:1030F00000F06CFA06AB93E8070003AB83E8070027
:1031000050460A9900F04AFB8DE80700A0F50050F0
:103110001F3800900398002D0ADD42F21F014A4635
:103120000844002303A90390684600F0B3FD09E0BA
:10313000A0F500504A461F38002303A903906846B3
:1031400000F0BDFD8DE807000004000C03D04FF037
:10315000FF30410800E01046B8F1000F03D0002214
:10316000009215461EE0751E05D400F091F930322C
:1031700062556D1EF9D5B3460122084302D00022E4
:103180007F1C04E02078302801D100227F1E002A15
:10319000099784D01DE0112D07DA00F079F930325B
:1031A00062556D1C50EA0102F5D1084302D0009827
:1031B000C8B10EE00021681E05E0235C625C635428
:1031C0002254401E491C8142F7DBAB46A81B401E1F
:1031D0000990002004F80B000B98099AC0F80880A9
:1031E000C0E9002B7AE711264FF0000857E72DE9D8
:1031F000F04F88460446D21D22F0070191B0D1E974
:103200000001CDE90A0100F091FE02460B98C00FC3
:1032100001D02D2007E02068810701D52B2002E096
:10322000202101EAC000032A099001D0072A05DB0A
:1032300003464146204600F089F90BE120788006DC
:1032400001D5E06900E00620B8F1650F814606D09F
:10325000B8F1660F18D0B8F1670F70D131E00020D7
:10326000B9F1110F009001DB112301E009F1010315
:103270000AAA01A90CA8FFF7E2FEDDE90C700026FE
:1032800009F10105834647E001204B4600904FF0CD
:1032900000470AAA01A90CA8FFF7D1FEDDE90DB08D
:1032A0000C995D46002610B909F101000D18B9EB23
:1032B000050003D4C0F1FF3609F10105A5EB0900B3
:1032C0002BE0B9F1010F01DA4FF001090020B9F14B
:1032D000110F0090484601DD112300E003460AAAC1
:1032E00001A90CA8FFF7ABFEDDE90C704D460026E6
:1032F0008346207800070AD4AB4500DA5D4601A872
:10330000012D04DD411911F8011C302907D04F456A
:1033100002DA17F1040F04DA012082460FE06D1E75
:10332000EEE7002F02DCED1B3E4403E0781CA842D0
:1033300000DD7D1CB81B00F1010A4FF0004720782A
:10334000000703D4AA4501DB4FF0FF3A0021B7F193
:10335000004F0DF143088DF8431024D002202B2399
:10336000002F01DA7F422D230A21021EA0F1010065
:1033700000DC5FB197FBF1FC97FBF1F201FB1C7CD9
:1033800017460CF1300C08F801CDEEE7A8F101006A
:1033900003702188090501D5452100E06521A0F1D0
:1033A000010800F8011C09980FA9A1EB0807FF1DEF
:1033B00000B10120411901EBEA70A1693844081AF3
:1033C000401EA0612078C00602D42046AFF30080E2
:1033D000099828B1D4E901219047206A401C206255
:1033E0002078C00622D52046AFF300801EE0002ED4
:1033F00004DBB34502DD01A8805D00E03020D4E9A4
:1034000001219047206A401C2062761CAAF101002D
:103410005FEA000A0AD100F033F8C0680168405C36
:10342000D4E901219047206A401C2062281EA5F1A2
:103430000105DCDC07E0D4E9012118F8010B904715
:10344000206A401C2062381EA7F10107F3DC2046E9
:10345000AFF30080032011B041E60000074B70B5C8
:103460000D467B4400F05FF80446284600F020F942
:1034700010B14FF0FF3070BD204670BD45DEFFFF3C
:1034800000487047B80100200048704798010020AC
:1034900030B5B0F10A024FEA900E71F100034EEA26
:1034A000817EB0EB0E0061EB91014FEA101E4EEAF7
:1034B000017E10EB0E0041EB11114FEA102E4EEA87
:1034C000016E10EB0E0041EB11214FEA104E4EEA57
:1034D000014E10EB0E0041EB1141401841F100018B
:1034E0004FEAD00040EA41704FEAD10110EB80056D
:1034F0004FEA810444EA907444EB01046D1944EBF3
:103500000404521BA3414FF0000348BF0A3200D508
:1035100030BD401C41F1000130BD000001694A1C72
:1035200002610878704700B58FB0CDE90131002104
:10353000059105497944CDE9031011466846FFF726
:10354000B9FC0FB000BD0000E5FFFFFF2DE9F04121
:103550001F46044603260168072A01F4006004DBC5
:1035600008B116A505E016A503E008B115A500E011
:1035700015A521F010002060A069C01EA0610FB148
:10358000401EA0612046AFF300804FB1D4E9012175
:1035900038469047206A401C2062C01C206206E02A
:1035A000206AFAE7D4E9012115F8010B9047761E4D
:1035B000F8D22046AFF30080BDE8F0814E414E00C6
:1035C0006E616E00494E4600696E66002DE9F04757
:1035D000814616468AB0354878440DC88DE80D00FE
:1035E00032487844801C03AC0DC884E80D0041F6D5
:1035F0009B300844372190FBF1F290FBF1F5A5F1E7
:10360000800501FB12041B3C02D56442012000E04E
:103610000020DFF898A080460027FA44AAF1BE0AED
:103620000EE0E0070AD03246684607EB4701012367
:103630000AEB810100F043FB8DE8070064107F1C5A
:10364000002CEED1194F7F44AE3F19E0E80715D0AA
:1036500007EB04100DF1180A90E80E008AE80E003E
:10366000C068F04201D1981908903246012306A99A
:1036700003A800F024FB03AB83E807006D10641C73
:10368000002DE3D14FF0010332466946B8F1000F37
:1036900003A802D000F0FEFA01E000F010FBC9E937
:1036A0000001C9F808200AB0BDE8F087E820000052
:1036B000007B00F0800070470048704798010020B0
:1036C0007546FFF7F9FFAE4605006946534620F000
:1036D0000700854618B020B5FDF792FEBDE82040F2
:1036E0004FF000064FF000074FF000084FF0000BBE
:1036F00021F00701AC46ACE8C009ACE8C009ACE871
:10370000C009ACE8C0098D46704710B50446AFF358
:1037100000802046BDE81040FCF761BD4FF0013C41
:1037200050F8042B51F8043B9A4221D1A2EB0C0330
:10373000934313EACC1317D150F8042B51F8043BF0
:103740009A4215D1A2EB0C03934313EACC130BD18D
:1037500050F8042B51F8043B9A4209D1A2EB0C0318
:10376000934313EACC13DBD04FF00000704700BF47
:10377000D01A01BAB1FA81F101F0180122FA01F070
:10378000CB40C1F12001DBB2C0B2C01A2CFA01F368
:10379000D11A914311EAC311E6D170475FEA400C98
:1037A00008BF91F0000F4FEA8C234FEAC12243EA91
:1037B00051514FEA1C5018BF00F5F0404FEA30005D
:1037C00018BF41F000415FEA6C5C00F02980BCF159
:1037D000FF3F08BF40F080407047130C06BF120443
:1037E0004FF0100C4FF0000C130E04BF12020CF13E
:1037F000080C130F04BF12010CF1040C930F04BF4B
:1038000092000CF1020CD30F04BF52000CF1010C1A
:1038100011464FF00002A0F11F00A0EB0C00704712
:1038200011F0004F08BF704731F000413FF4D5AFB1
:103830000B0C06BF09044FF0100C4FF0000C0B0EE0
:1038400004BF09020CF1080C0B0F04BF09010CF1B5
:10385000040C8B0F04BF89000CF1020CCB0F04BFCA
:1038600049000CF1010CCCF12003A0EB0C0022FA72
:1038700003F302FA0CF241EA030100F10100704780
:1038800020F07F4C80EA030023F07F47ACEB070376
:1038900003F57C5300F0004003F1FF032DE980495C
:1038A0004FEA154B09B44FEA144325EA0B4E24EABC
:1038B00003480FF2042606EB132749083E785FEA17
:1038C000320203FB0667C7F5000707FB06F64FEA5F
:1038D00054374FEAD64606F1020607FB066CCCF1D8
:1038E000005C4FEA1C472CEA074C07FB06F40CFB74
:1038F00006F504EB15464FEA961634BF00204FF04C
:1039000000404FEAD13706FB07FC4FEA1C4C0CFB8A
:103910000BF7D21B03FB0CF761EB07010CFB0EF757
:10392000B0EB074072EB17420CFB08F734BFA2EB79
:103930000742B2EB074261EB17414FEA0C444FEAF2
:10394000910706FB07FC4FEA1C4C0CFB0BF7B0EB96
:10395000C74072EB573203FB0CF734BFA2EBC742F0
:10396000B2EBC74261EB57310CFB0EF7B0EBC7006F
:1039700072EB57720CFB08F734BFA2EBC702B2EB35
:10398000C70261EB5771039F4FEA816141EA9211CF
:1039900004EBCC044FEAD1374FEA826206FB07FC06
:1039A00042EA90124FEA80604FEA1C4C0CFB0BF786
:1039B000D21B03FB0CF761EB07010CFB0EF7B0EB1E
:1039C000074072EB17420CFB08F734BFA2EB07422B
:1039D000B2EB074261EB17414FEA8C554FEA910772
:1039E00004EB9C2406FB07FC4FEA1C4C0CFB0BF77A
:1039F000B0EBC74072EB573203FB0CF734BFA2EBBE
:103A0000C742B2EBC74261EB57310CFB0EF7B0EB8C
:103A1000C70072EB57720CFB08F734BFA2EBC7026A
:103A2000B2EBC70261EB577115EB4C254FEA816190
:103A300041EA92114FEA82624FEAD13742EA90128C
:103A400006FB07FC44F100044FEA80604FEA1C4C7F
:103A50000CFB0BF7D21B03FB0CF761EB07010CFB14
:103A60000EF7B0EB074072EB17420CFB08F734BFC0
:103A7000A2EB0742B2EB074261EB174115EB1C15B5
:103A80004FEA813141EA92414FEA823242EA904262
:103A90004FEA80304FEA0C7644F1000448EA0343D1
:103AA0004EEA0B484FF0000EB2EB080C71EB030727
:103AB00024BF624639464EEB0E0E4FF0000B001845
:103AC000524149414BEB0B0BB2EB080C71EB030776
:103AD0007BF1000B24BF624639464EEB0E0E4FF0D1
:103AE000000B0018524149414BEB0B0BB2EB080C99
:103AF00071EB03077BF1000B24BF624639464EEBA6
:103B00000E0E51EA020718BF46F0010616EB0E76BC
:103B100055F1000254F1000103D5BDE88901BDE86B
:103B20000088BDE88901BDE80048B619524141EB63
:103B30000101A3F10103704780807F7E7D7C7B7A49
:103B40007978777676757473727171706F6E6E6D49
:103B50006C6C6B6A6A6968686766666564646363EF
:103B600062616160605F5F5E5E5D5D5C5C5B5B5A75
:103B70005A595958585757565655555554545353E2
:103B800052525251515050504F4F4F4E4E4D4D4D3D
:103B90004C4C4C4B4B4B4A4A4A4949494848484788
:103BA00047474746464645454544444444434343C6
:103BB0004342424242414141002B9C4630D477006F
:103BC0002BD01CB54FEA370703B44FF010004FF06D
:103BD0001001BAF1000F06D0BCF1000FDCBF40F0BD
:103BE000080040F008014FF000000FBCBDE8104095
:103BF0000BF1010BBBF1010F08BF5FEA170722BFF2
:103C000012F1010211F101014FF0004143F10003F3
:103C100000F0004043EA00007047F9D35708D0E7AE
:103C200046EA064613F1400F4FEA16461FDD13F130
:103C3000200FDFBF16430A46002120335B42BED06F
:103C4000C3F1200746EA064602FA07F74FEA16468E
:103C500046EA0706C3F1200722FA03F201FA07F742
:103C600021FA03F14FF0000342EA0702A7E746EA10
:103C7000020646EA06464FEA164646EA0106BCBF79
:103C800046EA0646360C4FF000034FF000024FF0B4
:103C9000000194E72DE9804C9A46934670B491E870
:103CA000380007C831EA400C48BF34EA430C03D55A
:103CB000FFF7E6FDFFF780FFF0BCBDE8008C2DE9C3
:103CC000804C9A46934670B491E8380007C810F0CB
:103CD000804F08BF13F0804F03D100F005F8FFF7C5
:103CE0006BFFF0BCBDE8008C20F07F4780EA03004A
:103CF00023F07F4C07EB0C03A3F57C5300F000404E
:103D0000A3F1FE0392F0000F00F0B38095F0000FD6
:103D100000F077802DE901494FEA11404FEA14463F
:103D200021EA004800FB06FC24EA064708FB06F6E9
:103D300007FB08F800FB07F718EB06484CEB164C9E
:103D40004FEA124B18EB07484FEA15464CEB174069
:103D500022EA0B4E0BFB06FC25EA06470EFB06F695
:103D600007FB0EFE0BFB07F71EEB064E4CEB164C4B
:103D70004FF000061EEB074E4CEB174B18EB0B08F1
:103D800040F1000018EB0E0B58EB000840F100006A
:103D90008F1A4FF000013CBFC943661B14BFB5EB3F
:103DA000040C00213CBFC943F61B4FEA17444EEAFE
:103DB0008E0E27EA04454FEA1C4704FB07622CEAF3
:103DC000074C05FB07F70CFB05F604FB0CFC16EB98
:103DD000074642EB174216EB0C4642EB1C421BEB2C
:103DE000060658EB0202414146EA9E0601D5BDE8AF
:103DF0000189B619524141EB0101A3F10103BDE86C
:103E000001894FEA14454FEA114724EA054621EAA1
:103E1000074C05FB07F406FB07F70CFB06F105FB57
:103E20000CFC11EB074144EB17444FEA124711EB2E
:103E30000C4144EB1C4422EA074C05FB07F206FB4D
:103E400007F70CFB06F605FB0CFC16EB074642EBEE
:103E5000174216EB0C4642EB1C456A1854F1000160
:103E600048BF7047B619524141EB0101A3F101036C
:103E7000704795F0000F37D04FEA11424FEA1447D0
:103E800021EA024624EA074C02FB07F106FB07F78A
:103E90000CFB06F402FB0CFC14EB074441EB17414E
:103EA0004FEA154714EB0C4441EB1C4125EA074C43
:103EB00002FB07F506FB07F70CFB06F602FB0CFC02
:103EC00016EB074645EB174516EB0C4645EB1C4237
:103ED000121951F1000148BF7047B619524141EB28
:103EE0000101A3F1010370474FEA14454FEA11475E
:103EF00024EA054621EA074C05FB07F106FB07F714
:103F00000CFB06F24FF0000605FB0CFC12EB07421F
:103F100041EB174112EB0C4251EB1C4148BF70477B
:103F2000921841EB0101A3F101037047490050EAE7
:103F3000C12018BF04204A0D18BF40F0010040F214
:103F4000FF72B2EB515F08BF40F00200012808BFCA
:103F5000052070472DE9F0414F1E00EBC7010446D4
:103F6000D1E9000115461E4637F006020DD02A465B
:103F7000334600F003FD7F1E04EBC703D3E90023A3
:103F800000F046FA37F00602F1D1022F25D0042FB7
:103F900013D0062F18BFBDE8F0812A46334600F043
:103FA000EDFCD4E90A2300F033FA2A46334600F048
:103FB000E5FCD4E9082300F02BFA2A46334600F04A
:103FC000DDFCD4E9062300F023FA2A46334600F04C
:103FD000D5FCD4E9042300F01BFA2A46334600F04E
:103FE000CDFCD4E9022300F013FA2A46334600F050
:103FF000C5FCD4E90023BDE8F04100F009BA000097
:10400000002213461046014900F0BEBA0000F03FFE
:10401000012201F0B0BA002213461046114600F00A
:10402000B3BA00002DE9F04DC84A002490B0914287
:1040300005DA21F00043934201D805D120B110B038
:10404000BDE8F04DFFF7E4BFB1F5801F1BDA53EA7E
:10405000000209D0002911DA0120FEF790FF10B00C
:10406000BDE8F04DFFF7D7BF0220FEF788FFFFF74E
:10407000C7FF10B081F00041BDE8F08D6FF035044E
:10408000362201F078FA04EB2152C1F31308B0494B
:10409000A2F2FF33414401F4801282F07F6103EB0E
:1040A000225281F04051009241EA08010022A94BBE
:1040B00000F0A4FD044608F10200A74EC0F313006F
:1040C0000D467E44032867D2D6E90023204600F03F
:1040D000B3FB1ED10098002802BFD6E9000110B042
:1040E000BDE8F08D00F0E4FB07460C469B4A9C4B74
:1040F00000F044FC06460D469A4A9B4B3846214642
:1041000000F03CFC10B032462B46BDE8F04D00F00C
:104110007FB94FF05532954B2046294600F02EFCD2
:104120000022934B00F05EFD06460F4622462B46CA
:104130001046194600F022FC32463B4600F01EFCB9
:10414000064600980F46F0B100F0B2FB80468A4662
:10415000824A834B00F012FC32463B4600F042FD9F
:1041600022462B4600F04AFD05460C467D4A7E4B12
:104170004046514600F002FC10B02A462346BDE8F6
:10418000F04D00F03BBD0B4610B0324620462946AC
:10419000BDE8F04D00F032BD00224FF080432046D4
:1041A00000F036F902460B462046294600F0ECF9AD
:1041B00006460F46009800F07BFBCDE9040132462D
:1041C0003B461046394600F0D9FB0C9069480C9AE2
:1041D0004044019009910B46104600F0CFFB824607
:1041E000024665488B46C8F151080B4608F5D728AA
:1041F00003217844FFF7AEFE52465B4600F0BEFB5B
:104200000A905E480D9152465B4604217844FFF7C0
:10421000A1FE099B0C9A00F0B1FB844601980D9B0E
:1042200040EA080860460A9A00F0F2F883460891CE
:10423000B8F1000F4EDD4FF0FF322046294601F065
:104240009AF922462B4600F099FB804600988A4650
:1042500060B3DDE90401414A414B00F08FFB099155
:1042600000905A4640465146089B00F0D1F832462D
:104270003B4600F083FB099B009A00F0C9F84246D8
:10428000534600F0AFFC22462B4600F0B7FC044634
:104290000D46DDE90401334A334B00F06FFB10B0EB
:1042A00022462B46BDE8F04D00F0A8BC5A464046D9
:1042B000089B00F0ADF832463B4600F05FFB4246FB
:1042C000534600F08FFC10B022462B46BDE8F04D5F
:1042D00000F088BC009840B3DDE904011F4A204B80
:1042E00000F04CFB80468A465A4620462946089BE9
:1042F00000F084FC32463B4600F040FB4246534609
:1043000000F07CFC22462B4600F078FC04460D466B
:10431000DDE90401134A144B00F030FB10B02246D3
:104320002B46BDE8F04D00F069BC0B465A462046CE
:10433000294600F063FC32463B4600F01FFB10B0FC
:1043400022462B46BDE8F04D00F04CBC0000F07F4B
:10435000645F09000000F03F7A150000763C793573
:10436000EF39EA3D0000E0FE422EE63F5555D53FCD
:104370000000E03F86EBF9FF12140000101400006B
:1043800010B500290AD00878002807D005487844DD
:10439000FFF7C4F9002801D0002010BD024878447E
:1043A00010BD00006E1300006613000021F00042F3
:1043B000A2F16052B2F5801F01F0004328BFD2F194
:1043C0007F6C0BD95FEA001C43EAC20242EB5070DB
:1043D00018BF704728BF20F001007047B2F5801F5A
:1043E000BCBF184670474FEA410C1CF5001F02D2B3
:1043F000084600F0E0BF70B500F06AFB00000089DD
:10440000FFF7F6BF4FF00040A0F5800070470000B6
:1044100010B591EA030F48BF83F0004300F1F68323
:10442000841A71EB030C05D2121943EB0C03001B29
:1044300061EB0C01DFF824E14FEA1154A4EB135CAB
:104440001EEA430F18BF9EEA445F73D023EA0E03AF
:10445000DCF1200E21EA045143F4801332D322FA16
:104460000CFE10EB0E0023FA0CFE41EB0E01CCF11A
:10447000200E03FA0EFE10EB0E0051F10001B1F513
:10448000801FCCF1200E32D201EB045112FA0EF251
:10449000BDE8104058BF7047401C38BF5FEA420279
:1044A00018BF7047002814BF20F0010041F100013F
:1044B0004FEA410313F5001F38BF7047A1F1C04117
:1044C00000F054BB012A43EB0302ACF1200CDCF1F9
:1044D0001F0E32BF4FF0000E23FA0CF310EB030057
:1044E00041EB0451B4EB115FD0D0A1EB045101F5C5
:1044F000801149085FEA300001EB04510ED350F1FE
:10450000000038BF12FA0EFE08D1BDE81040C9E71E
:10451000401C38BF5FEA4202CAD1C3E7BDE8104081
:104520004FEA410313F5001F38BF7047A1F1C041A6
:1045300000F01CBB9EEA445F08D011EA5E0FBDE8A4
:10454000104004BF01F0004100207047BDE810405A
:1045500070B500F0BDFA00BF64FBBE3E0000E0FF96
:1045600002494FF0000000F0D4BF00BF0000F87F08
:10457000491058BFC1F140415B1058BFC3F14043DF
:104580008B42EFF3008070472DE9C04130B4DFF873
:10459000A0C23CEA111418BF3CEA131400F0EC80EE
:1045A00081EA03051CEA111444EAD57418BF1CEA19
:1045B000131500F0C780A4EB05044FF0004545EA51
:1045C000C12145EAC32341EA505143EA525304F161
:1045D0007F74994204F500344FEAC0204FEAC222AA
:1045E00008BF904200F09C804FEA13650FF240161E
:1045F000765D4FEA134506FB05F7C7F1807706FBAA
:1046000007F74FEAD737A7FB03687642C8F580382B
:10461000A7FB06CE38BFA8F1010807FB08E64FF05C
:10462000000EA6FB028CE6FB03CEDCF1000CCEF103
:10463000004E38BFAEF1010EA6FB0C584FF000073C
:104640004FF00005E6FB0E87A1FB08C6A0FB07CED6
:1046500016EB0E0645F10005E1FB076515F1E04E8E
:104660007EBFA4F580345FEA46066D4116F18007EF
:1046700045F100054FEA17274FEA066647EA056746
:10468000A6F1DE46B6F1805F4FEA15251FD9384600
:1046900024F0010C05EBC471BCF1FE6F01EB0C11B1
:1046A00002D8F0BCBDE8008124425CBF01F5801E49
:1046B0009EEAC47F02D4F0BCBDE80081244238D415
:1046C000F0BCA1F1C041BDE8004100F04FBA4FEA93
:1046D000D22242EA43524FEAD323A7FB02864FEA93
:1046E000D02040EA415007FB03661EEA0E0F4FEA56
:1046F000D12105FB026658BFA6EB0056B6EB00566B
:104700004FEA520E4EEAC37E18EB0E0E56EB530ED6
:10471000BDD518EB02085E417F1C55F10005B6E7D8
:104720004FF480154FF000074FF000064FF00008DF
:10473000ADE7F0BC4FF0000001F1C04101F00041D5
:10474000BDE8008111EA0C1F0CEA131500D00CE043
:1047500013EA0C1F00F025804FF00000F0BC81EA46
:10476000030101F00041BDE80081F0BCBDE800415B
:1047700081EA030100F0FAB9F0BCBDE8004170B570
:1047800000F0A6F9097EFC3E00F007B881EA0301BB
:104790004FF0000001F00041704781EA030100F092
:1047A000E5B9F0BCBDE800414FF000002149704779
:1047B000FFFDFBF9F7F5F4F2F0EEEDEBE9E8E6E4E6
:1047C000E3E1E0DEDDDBDAD8D7D5D4D3D1D0CFCD6D
:1047D000CCCBCAC8C7C6C5C4C2C1C0BFBEBDBCBBA6
:1047E000BAB9B8B7B6B5B4B3B2B1B0AFAEADACABA1
:1047F000AAA9A8A8A7A6A5A4A3A3A2A1A09F9F9E7B
:104800009D9C9C9B9A99999897979695959493932C
:10481000929191908F8F8E8E8D8C8C8B8B8A8989C3
:104820008888878786858584848383828281818046
:104830000000FF070000F87F51EA030C17D41CF5B5
:10484000801F58BFBCF5801F00F10680994218BF39
:10485000704708BF9042704707D711F5801F58BFB7
:1048600013F5801F19D499427047894270471CF58F
:10487000801F08D5BCF5801FF7D58B4218BF704745
:1048800008BF824270474FF4001C1CEB410F38BF39
:104890001CEB430F01D28B42704770B500F018F942
:1048A000922449004FF000514FF08053FFF760BE53
:1048B00010F0004248BF4042B0FA80F310FA03F112
:1048C0000AD0C3F11D0303F580634FEA415002EBA8
:1048D000035202EBD12170474FF000007047B0FA4D
:1048E00080F310FA03F10AD0C3F11D0303F58063CE
:1048F0004FEA41504FEA035202EBD12170474FF08B
:104900000000704751EA030C17D41CF5801F58BFF4
:10491000BCF5801F00F10680994218BF704708BFA0
:104920009042704707D711F5801F58BF13F5801FBD
:1049300019D499427047894270471CF5801F08D5E9
:10494000BCF5801FF7D58B4218BF704708BF824265
:1049500070474FF4001C1CEB410F38BF1CEB430F9A
:1049600001D28B42704770B500F0B2F89224490032
:104970004FF000514FF08053FFF7FABDDFF848C108
:1049800070B51CEA111E1EBF1CEA13159EEA0C0F1F
:1049900095EA0C0F00F06F8081EA030423EA4C13C0
:1049A0004EEAD47E21EA4C1141F4801143F4801385
:1049B000AE44A1FB024CA0FB0365AEF17F7E36192D
:1049C00055EB0C05A1FB034C4CF10003A0FB021CB2
:1049D00016EB0C06654153F10003094218BF46F07F
:1049E000010613F4007F0BD14FEA03314FEA053083
:1049F000340341EA155140EA16506FF003020AE011
:104A00004FEAC3214FEAC520F40241EA555140EA7A
:104A100056506FF0020202EB2E4201EB025585EA7E
:104A2000CE710AD05FEA440C18BF24F0004450F164
:104A3000000041F1000120EAD47040F2FE7C6245A2
:104A400000D270BDA84214BF4FF080444FF04044E4
:104A5000002E08BF0024BEF1806FA8BFA1F1C041A5
:104A6000BDE8704080F282804FF0000001F1C0414B
:104A700001F0004170479EEA0C0F0CEA131518BFB5
:104A800095EA0C0F06D04FF0000081EA030E0EF0FD
:104A9000004170BD00F01CF88900013E00F007B82D
:104AA00000F009B84FEA430C5FEA5C5C08D081EA89
:104AB000030100F05BB84FEA410C5FEA5C5CF6D1A1
:104AC0004FF00000014970470000FF070000F87F29
:104AD0000EF1020E2EF0030E5EF8046B364205D482
:104AE000012A43EB030515F5001F12D8012841EBFD
:104AF000010C1CF5001F0CD80ED14FEAD17C15F526
:104B0000001F0CEB4C0C0CF1020C08BF4CEBD37CDF
:104B100004E04FF0080C01E04FEAD37C0CEB4C05AD
:104B200026FA05F606F00706B6F1040C06D20EEBDF
:104B3000860CBDE870404CF0010C6047DFE80CF0DB
:104B4000090B02024FF000414FF00000A1F50021D7
:104B500070BD19461046012851EB010418BFD4F569
:104B6000001484BF002001F0004170BD0808A0F5CA
:104B700000114FEA3101704753EA010C17D41CF5BC
:104B8000801F58BFBCF5801F00F106808B4218BF04
:104B9000704708BF8242704707D713F5801F58BF80
:104BA00011F5801F19D48B4270479B4270471CF54A
:104BB000801F08D5BCF5801FF7D5994218BF7047F4
:104BC00008BF904270474FF4001C1CEB430F38BFE6
:104BD0001CEB410F01D2994270470FB40CBC03BCCF
:104BE000FFF7C1BE91EA030F10B581F000413FF518
:104BF00017AC83F0004300F009B8000010B591EA4B
:104C0000030F48BF83F000433FF50AAC841A71EBF1
:104C1000030C07D212198CF0004C43EB0C03001B61
:104C200061EB0C01DFF8A4E14FEA1154A4EB135C33
:104C30001EEA430F18BF9EEA445F00F0B08023EAEB
:104C40006E03524221EA0451C3EB6E0338BF5B1E70
:104C5000DCF1200E25D322FA0CFE10EB0E0043FAF5
:104C60000CFE41EB0E01CCF1200E03FA0EFE10EB10
:104C70000E0051F10001CCF1200E29D412FA0EF2EF
:104C800001EB0451BDE8104058BF7047401C1CBFE9
:104C9000B2F1004F704700280CBF491C20F0010002
:104CA000704712EB020E43EB030218BF4FF0010EE8
:104CB0004EEA4202ACF1200CDCF11E0E54D943FA4C
:104CC0000CFE10EB0E0051F1FF31CCF11E0ED5D5CC
:104CD0000EF1010E12FA0EFE404141EB010101EB13
:104CE000445C5FEA5C5C10D910EBDE7001EB0451B0
:104CF00038BFBEF1004FBDE8104018BF7047002814
:104D00000CBF491C20F00100704730D24FEAD42C70
:104D100011F5001124F400641BD0B1FA81F20B3AB2
:104D2000A41AA41ED2F12003914030FA03F31943D0
:104D3000904001EBCC71002C01EB0451BDE8104018
:104D4000A8BF704701F1C0414FF0000001F00041E1
:104D50007047B0FA80F310FA03F100D110BDE41AE5
:104D6000173C4805C90AE4E701EB045110BD49109E
:104D700001EB0451BDE810404FEA300002E04FF073
:104D8000000170474A0008BF0042F8D0B2F5001F8A
:104D900028BF704701F000414FF0000070479EEAC5
:104DA000445F07D011EA5E0FBDE8104004BF002148
:104DB00000207047BDE8104070B5FFF789FE00BFC6
:104DC00040DFF63E83F00041104670470000E0FFF0
:104DD00043004FEAD30C4FEA3C0C43401FBF40074F
:104DE0000CF1605113F0FE4F70471CF0006F03D1BF
:104DF00000200CF0004170470CF0004343EA507073
:104E000010B540EACC0000F090FA00BF000000921C
:104E10004FEA0001FFF7AABE4FF000414FF000003B
:104E2000A1F500217047000090EA010F48BF81F012
:104E3000004100F1FE82421A3CBF801A89184FEAF5
:104E4000D0524FF07F4C1CEA410FA2EBD15318BF58
:104E50009CEA026F00F03B804FF0004C4CEA0020CF
:104E60004CEA012121FA03FC10EB0C0C1ED202F1DA
:104E7000FF325FEA1C2040EBC25038BF70471CF085
:104E80007F0F4FEA400C18BFBCF17F4F38BF70470F
:104E9000C3F12003994008BF20F00100BCF17F4F0F
:104EA00038BF7047A0F1C04000F085BA4FEA3C001F
:104EB000000A40EBC25028BF1CF0FF0F4FEA400C25
:104EC000E6D018BFBCF17F4F38BF7047EAE79CEAD5
:104ED000026F05D010EA5C0F08BF00F00040704779
:104EE00010B500F022FA00BF64FBBE3E401058BF70
:104EF000C0F14040491058BFC1F140418142EFF339
:104F0000008070474FF47F0C1CEAD0121EBF1CEAD1
:104F1000D11392EA0C0F93EA0C0F00F0858090EA0F
:104F2000010F48BF42F4807240F4000C41F40000CD
:104F30002CF07F4120F07F4000B58142A2EB0302BC
:104F40000FF2081CACEB504EC0F100009EF800E0E0
:104F50004FEA4E0E00FB0EFC38BF49004FEA2C1CF6
:104F600002F5FA020CFB0EF34FEACE1E4FEA112CAB
:104F70004FEAC1210EEB635E42EB22420EFB0CFCBA
:104F80004FEA1C5300FB03114FEA112C4FEA013189
:104F90000EFB0CFC4FEADC4C00FB0C11C14228BF9D
:104FA00009184CEB03335DF804EB10EB410143EBC4
:104FB000C250B2F57C0F38BF704729D512F0F00F00
:104FC0001CBF00F1C04000F00040704700818283A8
:104FD0008485868788898B8C8D8E8F919293959608
:104FE00097999A9C9D9FA0A2A3A5A7A8AAACAEB092
:104FF000B2B3B5B7B9BCBEC0C2C5C7C9CCCED1D497
:10500000D7D9DCDFE2E6E9ECF0F3F7FAFE000000C6
:105010004FEA400C0CF1807CBCF17E4F28BF7047FA
:10502000B0F1C04000F0C7B990EA010F0CEAD1130B
:1050300048BF42F48072624538BF634507D213F41B
:105040007F0F16D080EA010000F00040704710B5D5
:1050500000F06BF9097EFC3E00F005B880EA010023
:1050600000F00040704780EA010000F0004000F0CE
:10507000A2B912F47F0F04BF0248704780EA010012
:1050800000F099B90000C07F50EA010C00F11380D4
:105090001CF5000F58BFBCF5000F01D488427047C3
:1050A00007D710F5000F58BF11F5000F15D488422F
:1050B0007047894270471CF5000F04D5BCF5000FFE
:1050C000F7D5814270474FF0807C1CEB400F38BF12
:1050D0001CEB410F01D28142704710B500F025F959
:1050E000922449004FF000504FF08051FFF7FEBE70
:1050F00041000B0ED3F19E0208D950F400034FEA91
:10510000032323FA02F048BF4042704710B500F075
:105110000CF900BF49922480002070476FF00042D4
:1051200082EA200070470000C10DD1F19E0206DB2B
:105130004FEA002343F0004323FA02F07047004295
:1051400007D54FEA4001B1F1FE4F02D24FF0000007
:10515000704710B500F0E9F84992248000207047AC
:105160006FEA20007047000010F0004148BF404245
:10517000B0FA80F310FA03F2C3F19D030BD051EAA9
:10518000C35101EB1220530638BF704700F10100F4
:1051900008BF20F001007047B0FA80F310FA03F264
:1051A000C3F19D030AD0D90501EB1220530638BF85
:1051B000704700F1010008BF20F0010070470000B7
:1051C00050EA010C00F113801CF5000F58BFBCF52C
:1051D000000F01D48842704707D710F5000F58BF61
:1051E00011F5000F15D488427047894270471CF5AD
:1051F000000F04D5BCF5000FF7D5814270474FF082
:10520000807C1CEB400F38BF1CEB410F01D2814268
:10521000704710B500F089F8922449004FF0005013
:105220004FF08051FFF762BE4FF47F0C1CEAD012A2
:105230001EBF1CEAD11392EA0C0F93EA0C0F00F088
:10524000478090EA010F48BF42F480724FF0004C53
:105250004CEA00204CEA012102EB0302A0FB0113FF
:10526000A2F50002002918BF43F001035B0028BF2C
:105270004FEA330342EB22425FEA132C4CEBC2505D
:105280002EBFBCEB436FB2F57C0F70474FEA036C47
:10529000BCF1004F08BF20F00100B2F57C0F38BF11
:1052A00070470BD582F0FF0212F5803FC8BF7047F0
:1052B00000F1C040D8BF00F00040704700F5000C7E
:1052C0005FEA4C0C48BF7047B0F1C04000F073B8C3
:1052D00090EA010F0CEAD11348BF42F48072624594
:1052E00038BF634504D280EA010000F000407047F7
:1052F00010B500F01AF800BF8900013E00F007B8B1
:1053000000F009B85FEA410C5FEA1C6C08D080EA43
:10531000010000F050B85FEA400C5FEA1C6CF6D167
:105320004FF00040A0F5800070470EF1020E2EF005
:10533000030E5EF8044B244204D44FEA4102B2F15A
:105340007F4F11D84FEA4003B3F17F4F0CD80ED1F5
:105350004FEAD07CB2F17F4F0CEB4C0C0CF1020CFD
:1053600008BF4CEBD17C04E04FF0080C01E04FEAA1
:10537000D17C0CEB4C0324FA03F404F00704B4F1E1
:10538000040C06D20EEB840CBDE810404CF0010C6E
:105390006047DFE80CF0070802024FF00040A0F57C
:1053A000800010BD0846420018BFD2F1807288BF4D
:1053B00000F0004010BDFF2141EAD050C005704709
:1053C00051EA000C00F113801CF5000F58BFBCF52A
:1053D000000F01D48142704707D711F5000F58BF65
:1053E00010F5000F15D481427047894270471CF5B3
:1053F000000F04D5BCF5000FF7D5884270474FF079
:10540000807C1CEB410F38BF1CEB400F01D288425F
:10541000704780EA010081EA000180EA0100FFF79D
:10542000F8BE000090EA010F48BF81F000413FF54F
:1054300002AD421A04D882F00042A0EB02001144EF
:105440004FEAD0524FF07F4C1CEA410FA2EBD153F0
:1054500018BF9CEA026F4AD04FF0004C4CEA002083
:105460004CEA012121FA03FCB0EB0C0C0FD412F032
:10547000FE0F36D05FEA4C001DD5001240EBC25043
:1054800038BF70471CF03F0F18BF70470BE0A2F108
:1054900001025FEA1C2040EBC25038BF70471CF08D
:1054A0007F0F18BF7047C3F12003994014BF401EFF
:1054B00020F00100704780084FEA122308BF7047B0
:1054C000B0FA80FCA2EB0C02CCF1280C60FA0CF0D4
:1054D00093EA122F04BF00EBC25070474FEAC3702B
:1054E0007047130A5FEADC1008BF7047F6E79CEAD2
:1054F000026F04D010EA5C0F08BF0020704710B59F
:10550000FFF713FF40DFF63E81F000407047FDF7E4
:105510006EBE0CF00F03092B08BF082000F0598065
:105520000A2B0BD0082B18BF704708BF1CF0400F88
:105530000AD04FF000004FF0000170471CF0400F00
:1055400018BF4FF0004070471CF0100F08D020F03B
:10555000704300F07F4242EAD3014FEA4370704744
:1055600000F0604021F07F4242EA000201F07F40FB
:1055700040EA727070474FF0FF0C4CF4E06C1CEA8C
:1055800011531CBF9CEA030C9445C2BFDA4201EBE5
:1055900002517047002B0DD0BCF1000F0FD0002A34
:1055A00001F00041A4BF41F0E04141F07F614FF0C4
:1055B0000000704701F000414FF00000704750EAD2
:1055C00001334FF09B0C18BF4CF0806C7EF4C8AFD9
:1055D00070471CF4801F11D01CF4E02F03D06FEA39
:1055E000CC31490070474FF04050EFF3008222F079
:1055F000704242EA000282F3008870474FF00000D8
:10560000704700000000000004FA97999999D93F6B
:10561000AF788E1DC571CC3F9FC678D0099AC33F25
:10562000935555555555E53F599322942449D23FFA
:10563000DE03CB966446C73F44523EDF12F1C23FC1
:10564000000000000000000002400000000000A078
:105650000000000005400000000000C8000000003D
:105660000C4000000000409C0000000019400000B9
:105670000020BCBE0000000034400000BFC91B8EEB
:1056800000000004B5400000504BCFD06607E2CFC9
:10569000010000006C4100003E8251AADFEEA734F9
:1056A00001000000D9420000DCB5A0E23A301F97AB
:1056B000FFFFFFFFB4450000FD25A0C8E9A3C14FCF
:1056C000FFFFFFFFFF3F0000000000800000000020
:1056D000FF3F000000000080000000001857000895
:1056E00000000020D00000006C010008E85700080E
:1056F000D000002028070000880100081C000000DE
:1057000043000000F8FFFFFF0C0000000E00000047
:105710000F0000002E00000000A24A04000000005C
:105720000000000001020304060708090000000051
:105730000000000000000000000000000000000069
:105740000000000000000000000000000000000059
:105750000000000000000000000000000000000049
:105760000000000000000000000000000000000039
:105770000000000000000000000000000000000029
:105780000000000064646464636363636363626273
:105790006262626161616161616060606060605FFE
:1057A0005F5F5F5F5F5E5E5E5E5E5D5D5D5D5D0077
:1057B00000000000000000000000000000000000E9
:1057C00000000000000000000000000000000000D9
:1057D00000000000000001020304010203040607A8
:0857E00008090204060800009C
:0400000508000131BD
:00000001FF
