:020000040800F2
:10000000A0060020890100080D040008CB030008A9
:1000100009040008530200085F0B000800000000FC
:100020000000000000000000000000009107000830
:100030009D02000800000000B9040008A50800089F
:10004000A3010008A3010008A3010008A301000800
:10005000A3010008A3010008A3010008A3010008F0
:10006000A3010008A3010008A3010008A3010008E0
:10007000A3010008A3010008A3010008A3010008D0
:10008000A3010008A3010008A3010008A3010008C0
:10009000A3010008A3010008A3010008A3010008B0
:1000A000A3010008A3010008A3010008A3010008A0
:1000B000A3010008A3010008A3010008A301000890
:1000C000A3010008A3010008A3010008A301000880
:1000D000A301000809090008A3010008A301000802
:1000E000A3010008A3010008A301000800F002F822
:1000F00000F03AF80AA090E8000C82448344AAF188
:100100000107DA4501D100F02FF8AFF2090EBAE885
:100110000F0013F0010F18BFFB1A43F0010318473B
:100120006017000080170000103A24BF78C878C11B
:10013000FAD8520724BF30C830C144BF04680C60ED
:10014000704700000023002400250026103A28BF35
:1001500078C1FBD8520728BF30C148BF0B60704739
:100160001FB51FBD10B510BD00F031F81146FFF7E7
:10017000F7FF00F067FE00F04FF803B4FFF7F2FF5F
:1001800003BC00F057F800000948804709480047C1
:10019000FEE7FEE7FEE7FEE7FEE7FEE7FEE7FEE737
:1001A000FEE7FEE704480549054A064B7047000094
:1001B000A9080008ED000008A0000020A00600200B
:1001C000A0020020A00200207047704770477546CB
:1001D00000F02CF8AE4605006946534620F00700B3
:1001E000854618B020B5FFF7DDFFBDE820404FF091
:1001F00000064FF000074FF000084FF0000B21F011
:100200000701AC46ACE8C009ACE8C009ACE8C009DD
:10021000ACE8C0098D46704710B50446AFF30080C6
:100220002046BDE81040FFF7A8BF00000048704717
:100230003C00002001491820ABBEFEE7260002006A
:10024000704710B500F08EFC00F07CFB00F0C0F8A9
:1002500010BD00BFFEE770B503460C461546FF21F2
:10026000002213E0985C414008260BE001F080007A
:1002700020B1312080EA4100C1B201E04806010E00
:10028000701EC6B2002EF1DC501CC2B2A242E9DBE5
:10029000A94201D1012070BD0020FCE770472DE983
:1002A000F0410246002500260020002300240027FC
:1002B00091F803C00CF00F0591F803C00CF0100C7E
:1002C000BCF1000F03D091F802C04CEA050591F88B
:1002D00000C0BCF1000F31D0146800202BE04FF0BB
:1002E000010C0CFA00F3B1F800C00CEA03069E42C0
:1002F00020D183004FF00F0C0CFA03F7BC4305FA32
:1003000003FC4CEA040491F803C0BCF1280F06D1A9
:100310004FF0010C0CFA00FCC2F814C00AE091F88E
:1003200003C0BCF1480F05D14FF0010C0CFA00FCE2
:10033000C2F810C0401C0828D1D31460B1F800C026
:10034000BCF1FF0F34DD546800202EE000F1080CF2
:100350004FF0010808FA0CF3B1F800C00CEA0306EC
:100360009E4221D183004FF00F0C0CFA03F7BC43DF
:1003700005FA03FC4CEA040491F803C0BCF1280F11
:1003800005D100F1080C08FA0CF8C2F8148091F8B5
:1003900003C0BCF1480F07D100F1080C4FF0010871
:1003A00008FA0CF8C2F81080401C0828CED354601C
:1003B000BDE8F0810246002093680B400BB101209C
:1003C00000E0002070470161704700BFFEE70000B9
:1003D00008B50121112000F071F84FF40050ADF87C
:1003E000000010208DF8030003208DF802006946FC
:1003F0000448FFF754FF4FF400510248FFF7E3FFB2
:1004000008BD00000010014000BFFEE7704708B5BE
:100410004FF4A06000F046F825208DF80000012080
:100420008DF801008DF802008DF80300684600F099
:1004300001F808BD70B5002100230F22C47804B371
:10044000154C246804F4E064C4F5E064210AC1F1A9
:100450000403CA40447804FA03F184781440214329
:1004600009010E4C0678A155047804F01F050124FB
:10047000AC4005786D11AD0005F1E025C5F80041EF
:1004800009E0047804F01F050124AC40044D06780F
:10049000761145F8264070BD0CED00E000E400E068
:1004A00080E100E002490143024A11607047000008
:1004B0000000FA050CED00E07047000029B1064A83
:1004C00092690243044B9A6104E0034A92698243B1
:1004D000014B9A61704700000010024030B50021C6
:1004E0000022002400232D4D6D6805F00C0121B180
:1004F000042905D0082923D105E0294D056022E013
:10050000274D05601FE0254D6D6805F47012234DE1
:100510006D6805F48034022505EB92421CB9214D2B
:10052000554305600BE01D4D6D6805F400351DB1A8
:100530001C4D5543056002E0194D5543056002E02E
:10054000174D056000BF00BF144D6D6805F0F00148
:100550000909154D6B5C0568DD4045600F4D6D6800
:1005600005F4E061090A104D6B5C4568DD4085606B
:100570000A4D6D6805F46051C90A0B4D6B5C456806
:10058000DD40C560054D6D6805F44041890B074DA0
:100590006B5CC568B5FBF3F5056130BD001002402A
:1005A00000127A0000093D002100002031000020E7
:1005B00010B500F0EDFB002000F0BEFB00F014FCD5
:1005C000062000F0B9FB00F00FFC10BD10B500F0E4
:1005D0005DFBFFF7EDFF0A2000F0E6FA10BD00001A
:1005E0002DE9F04F8BB00024A14608A800F098F840
:1005F0009DF821009DF8201040EA012007909DF809
:1006000024009DF8231040EA012006909DF8222046
:10061000022108A8FFF71FFE05909DF82520022162
:100620000DF12300FFF717FE04900598002849D02C
:100630000498002846D0079801F05EF8019001F078
:1006400023F807460022214B00F036FE0546002223
:100650001F4B00F0D9FC00221E4BCDE9020100F037
:1006600029FF824600F0F6FB0446069801F044F8A4
:10067000039001F009F805460022174B00F01CFE1C
:1006800007460022124B00F0BFFC824600F0E2FB5E
:1006900081461249204601F0C2F813D8104920467D
:1006A00001F03EF80ED80021484601F0B8F809D80C
:1006B0000C49484601F034F804D80B4804600B4854
:1006C000C0F800900BB0BDE8F08F000000E065407E
:1006D000E0FFEF4000804640000059400000A0C10C
:1006E0000000FA420000C842180000201400002058
:1006F00070B504460D4600F04BFB882000F01CFB53
:1007000000F072FB201200F017FB00F06DFBE0B26E
:1007100000F012FB00F068FB0DB100F053FB70BD60
:1007200070B504466425012142F60640FFF7E0FF5C
:10073000142000F039FA00F02BFB892000F0FCFABD
:1007400006E0681EC5B2322000F054FA05B970BD4B
:1007500000F04AFB0028F4D1012000F0C5FA207017
:10076000012000F0C1FA6070012000F0BDFAA07015
:10077000012000F0B9FAE070012000F0B5FA207114
:10078000002000F0B1FA607100F01CFB00BFDEE752
:10079000704710B500F002F810BD00000CB5002045
:1007A000019000903348006840F48030314908607F
:1007B00000BF3048006800F4003000900198401CF1
:1007C0000190009818B90198B0F5A06FF1D12948AF
:1007D000006800F4003010B10120009001E000201A
:1007E00000900098012843D12348006840F0100091
:1007F000214908600846006820F0030008600846A8
:10080000006840F0020008601A48406819494860D2
:100810000846406848600846406840F48060486088
:100820000846406820F47C1048600846406840F460
:10083000E81048600846006840F08070086000BF1B
:100840000C48006800F000700028F9D009484068A2
:1008500020F00300074948600846406840F0020065
:10086000486000BF0348406800F00C000828F9D138
:100870000CBD00000010024000200240042808D1F6
:100880004FF0E021096941F004014FF0E0221161CD
:1008900007E04FF0E021096921F004014FF0E02268
:1008A000116170477047000010B51348006840F0B0
:1008B00001001149086008464068104908400E4987
:1008C0004860084600680E4908400B490860084621
:1008D000006820F4802008600846406820F4FE008C
:1008E00048604FF41F008860FFF753FF4FF000602F
:1008F0000449086010BD0000001002400000FFF82D
:10090000FFFFF6FE08ED00E010B540F22551064865
:1009100000F060F838B1044800F018F9C4B221467C
:10092000014800F018F910BD0038014021B182895A
:1009300042F40052828104E082894DF6FF731A402E
:100940008281704700B585B0012144F20500FFF7B0
:10095000B5FD4FF40070ADF8100018208DF81300AD
:1009600003208DF8120004A91848FFF798FC4FF4F3
:100970008060ADF8100004208DF8130003208DF87E
:10098000120004A91148FFF78AFC4FF4E1300090EF
:100990000020ADF80400ADF80600ADF80800ADF891
:1009A0000C000C20ADF80A006946094800F062F816
:1009B000FFF72DFD012240F22551054800F034F8E3
:1009C00001210348FFF7B2FF05B000BD0008014058
:1009D0000038014070B502460024002300250020A5
:1009E00040F66A16B14200D100BFC1F3421501F0D2
:1009F0001F03012606FA03F3012D02D19689334025
:100A000006E0022D02D1168A334001E0968A334077
:100A10000C12012606FA04F41688344013B10CB106
:100A2000012000E0002070BDF0B503460024002640
:100A30000025002040F66A17B94200D100BF1846D1
:100A4000C1F3421401F01F06012707FA06F5012C35
:100A500001D10C3004E0022C01D1103000E0143040
:100A60001AB107682F43076002E00768AF430760C9
:100A7000F0BD00002DE9F04786B005460E46002483
:100A8000A24600BFA1460027B08900B100BF2F4693
:100A90002C8A4CF6FF700440F08804432C82AC8909
:100AA0004EF6F3100440B088318908437189084339
:100AB0000443AC81AC8A4FF6FF400440B089044344
:100AC000AC8201A8FFF70AFD1F48874202D1DDF87A
:100AD00010A001E0DDF80CA0A88900F4004040B1AE
:100AE0000AEBCA0000EB0A1031684900B0FBF1F8CC
:100AF00007E00AEBCA0000EB0A1031688900B0FB7E
:100B0000F1F86420B8FBF0F004012009642101FB36
:100B10001089A88900F4004040B1322000EBC900E0
:100B2000B0FBF1F000F00700044308E0322000EBD6
:100B300009106421B0FBF1F000F00F0004432C8198
:100B400006B0BDE8F0870000003801400146888803
:100B5000C0F308007047C1F308028280704700BFED
:100B6000FEE7000010B56FF00400FFF787FE0A48AB
:100B700000680A49B0FBF1F009490870084600789E
:100B800000EB4001C1EBC0104FF6FF7101EAC0005D
:100B90000449088010BD00000000002000127A0007
:100BA00036000020380000200146114A12884A43CE
:100BB0004FF0E0235A6100229A611A46126942F00E
:100BC00001021A6100BF4FF0E022106900F001023B
:100BD0001AB100F48032002AF5D04FF0E0221269F9
:100BE00022F001024FF0E0231A6100229A6170475F
:100BF000380000200146114A12784A434FF0E023A2
:100C00005A6100229A611A46126942F001021A6181
:100C100000BF4FF0E022106900F001021AB100F4A9
:100C20008032002AF5D04FF0E022126922F0010252
:100C30004FF0E0231A6100229A61704736000020CD
:100C400010B500200A49086000F016F80120094993
:100C5000C1F8980100F010F800200549091F08604C
:100C600000F00AF801200349C1F89C0110BD000002
:100C70009C0121420000214200BF00BF00BF00BF15
:100C800000BF00BF00BF00BF7047000008B50121D2
:100C90000420FFF713FC14208DF80300C020ADF8EA
:100CA000000003208DF8020069460248FFF7F7FABA
:100CB00008BD00000008014010B501200849086087
:100CC000FFF7DAFF01200749C1F89801FFF7D4FFC9
:100CD00000200349091F0860FFF7CEFF10BD000088
:100CE0009C0121420000214270B5054600240026E7
:100CF00014E06006040E01200D490860FFF7BCFFF8
:100D000080210C48FFF756FB08B1601CC4B20020DC
:100D100007490860FFF7B0FF701CC6B2082EE8DB79
:100D200015B9FFF7C9FF01E0FFF78AFF204670BD44
:100D3000980121420008014070B50446002520E0DA
:100D400004F0800018B101200F49086002E0002083
:100D50000D490860FFF790FF01200B49091F08604B
:100D6000FFF78AFF00200949C1F89801072D02D139
:100D70000120054908606006040EFFF77DFF681C2E
:100D8000C5B2082DDCDB70BD9C0121420000214270
:100D900010B50120094908600949C1F89801FFF719
:100DA0006BFF002005490860FFF766FF002004493B
:100DB000C1F89801FFF760FF10BD00009C012142BF
:100DC0000000214210B500200549086001200549B6
:100DD000C1F89801FFF750FF01200149086010BDDC
:100DE0009C0121420000214210B5642401201249D7
:100DF0000860FFF741FF01201049C1F89801FFF793
:100E00003BFF0CE0601EC4B2FFF736FF3CB9002088
:100E10000949091F0860FFF72FFF012010BD80213D
:100E20000748FFF7C7FA0028ECD10349091F0860FB
:100E3000FFF722FF0020F1E79C0121420000214240
:100E400000080140FFF7FDF9FFF7C0FB01E0FFF7E5
:100E5000C7FBFCE721F00042A2F16052B2F5801F0F
:100E600001F0004328BFD2F17F6C0BD95FEA001C70
:100E700043EAC20242EB507018BF704728BF20F00F
:100E800001007047B2F5801FBCBF184670474FEA9B
:100E9000410C1CF5001F02D2084600F0BBBC70B527
:100EA00000F0B4FA00000089FFF7F6BF4FF00040F1
:100EB000A0F580007047000010B591EA030F48BF0D
:100EC00083F0004300F1FE82841A71EB030C05D21B
:100ED000121943EB0C03001B61EB0C01DFF824E15A
:100EE0004FEA1154A4EB135C1EEA430F18BF9EEAAD
:100EF000445F73D023EA0E03DCF1200E21EA045193
:100F000043F4801332D322FA0CFE10EB0E0023FAC6
:100F10000CFE41EB0E01CCF1200E03FA0EFE10EB9D
:100F20000E0051F10001B1F5801FCCF1200E32D23C
:100F300001EB045112FA0EF2BDE8104058BF7047A1
:100F4000401C38BF5FEA420218BF7047002814BF38
:100F500020F0010041F100014FEA410313F5001FA9
:100F600038BF7047A1F1C04100F09EBA012A43EB9F
:100F70000302ACF1200CDCF11F0E32BF4FF0000E6B
:100F800023FA0CF310EB030041EB0451B4EB115FB7
:100F9000D0D0A1EB045101F5801149085FEA30007F
:100FA00001EB04510ED350F1000038BF12FA0EFECF
:100FB00008D1BDE81040C9E7401C38BF5FEA4202D3
:100FC000CAD1C3E7BDE810404FEA410313F5001F43
:100FD00038BF7047A1F1C04100F066BA9EEA445F95
:100FE00008D011EA5E0FBDE8104004BF01F00041D7
:100FF00000207047BDE8104070B500F007FA00BF50
:1010000064FBBE3E0000E0FF2DE9C04130B4DFF8D4
:10101000A0C23CEA111418BF3CEA131400F0EC80A3
:1010200081EA03051CEA111444EAD57418BF1CEACE
:10103000131500F0C780A4EB05044FF0004545EA06
:10104000C12145EAC32341EA505143EA525304F116
:101050007F74994204F500344FEAC0204FEAC2225F
:1010600008BF904200F09C804FEA13650FF24016D3
:10107000765D4FEA134506FB05F7C7F1807706FB5F
:1010800007F74FEAD737A7FB03687642C8F58038E1
:10109000A7FB06CE38BFA8F1010807FB08E64FF012
:1010A000000EA6FB028CE6FB03CEDCF1000CCEF1B9
:1010B000004E38BFAEF1010EA6FB0C584FF00007F2
:1010C0004FF00005E6FB0E87A1FB08C6A0FB07CE8C
:1010D00016EB0E0645F10005E1FB076515F1E04E44
:1010E0007EBFA4F580345FEA46066D4116F18007A5
:1010F00045F100054FEA17274FEA066647EA0567FC
:10110000A6F1DE46B6F1805F4FEA15251FD93846B5
:1011100024F0010C05EBC471BCF1FE6F01EB0C1166
:1011200002D8F0BCBDE8008124425CBF01F5801EFE
:101130009EEAC47F02D4F0BCBDE80081244238D4CA
:10114000F0BCA1F1C041BDE8004100F0ADB94FEAEB
:10115000D22242EA43524FEAD323A7FB02864FEA48
:10116000D02040EA415007FB03661EEA0E0F4FEA0B
:10117000D12105FB026658BFA6EB0056B6EB005620
:101180004FEA520E4EEAC37E18EB0E0E56EB530E8C
:10119000BDD518EB02085E417F1C55F10005B6E78E
:1011A0004FF480154FF000074FF000064FF0000895
:1011B000ADE7F0BC4FF0000001F1C04101F000418B
:1011C000BDE8008111EA0C1F0CEA131500D00CE0F9
:1011D00013EA0C1F00F025804FF00000F0BC81EAFC
:1011E000030101F00041BDE80081F0BCBDE8004111
:1011F00081EA030100F058B9F0BCBDE8004170B5C8
:1012000000F004F9097EFC3E00F007B881EA030112
:101210004FF0000001F00041704781EA030100F047
:1012200043B9F0BCBDE800414FF0000021497047D0
:10123000FFFDFBF9F7F5F4F2F0EEEDEBE9E8E6E49B
:10124000E3E1E0DEDDDBDAD8D7D5D4D3D1D0CFCD22
:10125000CCCBCAC8C7C6C5C4C2C1C0BFBEBDBCBB5B
:10126000BAB9B8B7B6B5B4B3B2B1B0AFAEADACAB56
:10127000AAA9A8A8A7A6A5A4A3A3A2A1A09F9F9E30
:101280009D9C9C9B9A9999989797969595949393E2
:10129000929191908F8F8E8E8D8C8C8B8B8A898979
:1012A00088888787868585848483838282818180FC
:1012B0000000FF070000F87FDFF848C170B51CEAA6
:1012C000111E1EBF1CEA13159EEA0C0F95EA0C0FA7
:1012D00000F06F8081EA030423EA4C134EEAD47EC7
:1012E00021EA4C1141F4801143F48013AE44A1FB78
:1012F000024CA0FB0365AEF17F7E361955EB0C0561
:10130000A1FB034C4CF10003A0FB021C16EB0C06E6
:10131000654153F10003094218BF46F0010613F47A
:10132000007F0BD14FEA03314FEA0530340341EA25
:10133000155140EA16506FF003020AE04FEAC3214C
:101340004FEAC520F40241EA555140EA56506FF089
:10135000020202EB2E4201EB025585EACE710AD061
:101360005FEA440C18BF24F0004450F1000041F142
:10137000000120EAD47040F2FE7C624500D270BDCC
:10138000A84214BF4FF080444FF04044002E08BFE5
:101390000024BEF1806FA8BFA1F1C041BDE870403C
:1013A00080F282804FF0000001F1C04101F0004165
:1013B00070479EEA0C0F0CEA131518BF95EA0C0F44
:1013C00006D04FF0000081EA030E0EF0004170BD20
:1013D00000F01CF88900013E00F007B800F009B8E1
:1013E0004FEA430C5FEA5C5C08D081EA030100F03D
:1013F0005BB84FEA410C5FEA5C5CF6D14FF000004D
:10140000014970470000FF070000F87F0EF1020E4F
:101410002EF0030E5EF8046B364205D4012A43EB2E
:10142000030515F5001F12D8012841EB010C1CF52E
:10143000001F0CD80ED14FEAD17C15F5001F0CEB24
:101440004C0C0CF1020C08BF4CEBD37C04E04FF0C9
:10145000080C01E04FEAD37C0CEB4C0526FA05F6AC
:1014600006F00706B6F1040C06D20EEB860CBDE8BA
:1014700070404CF0010C6047DFE80CF0090B0202F1
:101480004FF000414FF00000A1F5002170BD19465A
:101490001046012851EB010418BFD4F5001484BF95
:1014A000002001F0004170BD0808A0F500114FEACE
:1014B0003101704710B591EA030F48BF83F0004334
:1014C0003FF502AD841A71EB030C07D212198CF0B0
:1014D000004C43EB0C03001B61EB0C01DFF8A4E1B3
:1014E0004FEA1154A4EB135C1EEA430F18BF9EEAA7
:1014F000445F00F0B08023EA6E03524221EA0451B7
:10150000C3EB6E0338BF5B1EDCF1200E25D322FA3D
:101510000CFE10EB0E0043FA0CFE41EB0E01CCF179
:10152000200E03FA0EFE10EB0E0051F10001CCF17B
:10153000200E29D412FA0EF201EB0451BDE810403E
:1015400058BF7047401C1CBFB2F1004F70470028C5
:101550000CBF491C20F00100704712EB020E43EB58
:10156000030218BF4FF0010E4EEA4202ACF1200C0C
:10157000DCF11E0E54D943FA0CFE10EB0E0051F1B3
:10158000FF31CCF11E0ED5D50EF1010E12FA0EFE72
:10159000404141EB010101EB445C5FEA5C5C10D926
:1015A00010EBDE7001EB045138BFBEF1004FBDE817
:1015B000104018BF704700280CBF491C20F00100E4
:1015C000704730D24FEAD42C11F5001124F4006496
:1015D0001BD0B1FA81F20B3AA41AA41ED2F1200357
:1015E000914030FA03F31943904001EBCC71002C89
:1015F00001EB0451BDE81040A8BF704701F1C041A4
:101600004FF0000001F000417047B0FA80F310FA8B
:1016100003F100D110BDE41A173C4805C90AE4E7FC
:1016200001EB045110BD491001EB0451BDE810401D
:101630004FEA300002E04FF0000170474A0008BF57
:101640000042F8D0B2F5001F28BF704701F00041FA
:101650004FF0000070479EEA445F07D011EA5E0F2A
:10166000BDE8104004BF002100207047BDE81040D5
:1016700070B5FFF7CBFE00BF40DFF63E83F00041C0
:10168000104670470000E0FF43004FEAD30C4FEADA
:101690003C0C43401FBF40070CF1605113F0FE4F5C
:1016A00070471CF0006F03D100200CF00041704720
:1016B0000CF0004343EA507010B540EACC0000F053
:1016C00063F800BF000000924FEA0001FFF7ECBE94
:1016D0004FF000414FF00000A1F50021704740108D
:1016E00058BFC0F14040491058BFC1F1404181424C
:1016F000EFF3008070470000B0FA80F310FA03F2B5
:10170000C3F19D030AD0D90501EB1220530638BF5F
:10171000704700F1010008BF20F001007047000091
:1017200050EA010C00F113801CF5000F58BFBCF506
:10173000000F01D48842704707D710F5000F58BF3B
:1017400011F5000F15D488427047894270471CF587
:10175000000F04D5BCF5000FF7D5814270474FF05C
:10176000807C1CEB400F38BF1CEB410F01D2814243
:10177000704710B500F008F8922449004FF000506F
:101780004FF08051FFF7ABBF0EF1020E2EF0030EAB
:101790005EF8044B244204D44FEA4102B2F17F4F79
:1017A00011D84FEA4003B3F17F4F0CD80ED14FEA66
:1017B000D07CB2F17F4F0CEB4C0C0CF1020C08BF4B
:1017C0004CEBD17C04E04FF0080C01E04FEAD17CF7
:1017D0000CEB4C0324FA03F404F00704B4F1040CFA
:1017E00006D20EEB840CBDE810404CF0010C6047B3
:1017F000DFE80CF0070802024FF00040A0F580007F
:1018000010BD0846420018BFD2F1807288BF00F0B8
:10181000004010BDFF2141EAD050C005704751EA99
:10182000000C00F113801CF5000F58BFBCF5000F31
:1018300001D48142704707D711F5000F58BF10F54A
:10184000000F15D481427047894270471CF5000F84
:1018500004D5BCF5000FF7D5884270474FF0807C67
:101860001CEB410F38BF1CEB400F01D28842704780
:1018700080EA010081EA000180EA0100FFF779BFF8
:10188000A0180008000000203C000000280100080B
:10189000DC1800083C000020640600004401000839
:1018A00000A24A040000000000000000010203043E
:1018B000060708090000000000000000000000000A
:1018C00000000000000102030401020304060708EF
:0C18D000090204060800000000000000EF
:04000005080000ED02
:00000001FF
